:020000040000FA
:040000005FEF0EF0B0
:10100000003132334134353642373839432A3023C0
:101010004400203813000904195010000410402522
:101020003032782F253032782F2530327800253035
:1010300032783A253032783A25303278000049C08B
:10104000D9FF4AC0DAFFDECFF6FFDDCFF7FF080099
:10105000F550250AD8A453D149C0D9FF4AC0DAFFB8
:10106000DE2A000EDD22000E0001836F000E826F6B
:1010700082C07EF083C07FF07C687D68000E5A6E6F
:10108000000E14D07E8049C0D9FF4AC0DAFFDE2AA4
:10109000000EDD222ED07E82F6D77E84F4D77E86A7
:1010A000F2D77E88F0D7000E5A6E010E596E21D00D
:1010B00049C0D9FF4AC0DAFFDECFF6FFDDCFF7FF28
:1010C0000800F5504D6E4E6A4E50000AD8A4EBD77A
:1010D0004D50200AD8B4E3D7030AD8B4E2D7080A9F
:1010E000D8B4DBD7060AD8B4CDD71D0AD8B4D3D725
:1010F000DAD759505A10D8B4DBD77EB07E9249C0A7
:10110000D9FF4AC0DAFFDECFF6FFDDCFF7FF0800D8
:10111000F5502A0AD8A424D049C0D9FF4AC0DAFF22
:10112000DE2A000EDD224BC0D9FF4CC0DAFFDFCF34
:101130004DF0020EDE26DFCF4EF0000EDD224DC058
:10114000D9FF4EC0DAFFDECF82F0DDCF83F00001A1
:1011500083AF3FD07E80826D831FD8B0832B39D080
:1011600049C0D9FF4AC0DAFFDECF08F0DDCF09F071
:10117000AFEC0AF008C082F009C083F007D049C084
:10118000D9FF4AC0DAFFDE2A000EDD22D00E4D6EF6
:10119000FF0E4E6E49C0D9FF4AC0DAFFDECFF6FF20
:1011A000DDCFF7FF0800F5504F6E506A4D504F26C7
:1011B0004E505022505006E10A0E4F5CD8B002D07B
:1011C000010E01D0000E5B6E5C6A5B505C10D8A40F
:1011D000D6D749C0D9FF4AC0DAFFDECFF6FFDDCF50
:1011E000F7FF0800F550780AD8B40DD049C0D9FFF0
:1011F0004AC0DAFFDECFF6FFDDCFF7FF0800F5507B
:10120000580AD8A44DD049C0D9FF4AC0DAFFDECF72
:10121000F6FFDDCFF7FF0800F5CF5DF049C0D9FF3D
:101220004AC0DAFFDE2A000EDD224BC0D9FF4CC0D7
:10123000DAFFDFCF4DF0020EDE26DFCF4EF0000EDC
:10124000DD224DC0D9FF4EC0DAFFDECF4FF0DDCF3B
:1012500050F04FC051F050C052F0536A546A556A72
:10126000566A576A586A47C020F048C021F051C0FA
:1012700022F052C023F053C024F054C025F055C0D2
:1012800026F056C027F057C028F058C029F05DC09E
:101290002AF099EC09F020C047F021C048F0120074
:1012A00049C0D9FF4AC0DAFFDECFF6FFDDCFF7FF36
:1012B0000800F550250AD8A416D049C0D9FF4AC065
:1012C000DAFFDE2A000EDD22000E066E250E056E08
:1012D00047C007F048C008F054EC0CF0000E486E10
:1012E000010E476E120049C0D9FF4AC0DAFFDE2A5C
:1012F000000EDD22000E486E000E476E120049C03F
:10130000D9FF4AC0DAFFDECFF6FFDDCFF7FF0800D6
:10131000F550056E066A47C007F048C008F054EC67
:101320000CF049C0D9FF4AC0DAFFDE2A000EDD22E8
:10133000D5D77DAE7E927DBE05D07D5008E17C0480
:10134000D8B005D0000E386E010E376E04D07CC0C8
:1013500037F07DC038F082C039F083C03AF07EA803
:1013600004D0FE0E3926FF0E3A2222C03BF023C0E5
:101370003CF024C03DF025C03EF026C03FF027C021
:1013800040F028C041F029C042F0000E446E1F0E0C
:10139000436E000E0001A36F93D04306D8A044060D
:1013A0000F0E3B14456E466A46BE08D0465004E117
:1013B0000A0E455CD8A002D0570E01D0300E45244D
:1013C000456E000E4620466EBF0E2B6EFF0E2C6E35
:1013D0002A502D6E2E6A2B502D262C502E222E5048
:1013E00006E11A0E2D5CD8B002D0010E01D0000E1D
:1013F000336E346A33503410D8B427D09F0E2B6E1E
:10140000FF0E2C6E200E45102D6E000E46102E6E17
:101410002B502D262C502E222E5006E11A0E2D5C1C
:10142000D8B002D0010E01D0000E356E366A3550AC
:101430003610D8B40AD045C007F046C008F018EC02
:101440000DF007C045F008C046F0840E4324D96E65
:10145000000E4420DA6E45C0DFFF3706D8A03806FC
:101460003906D8A03A063BC02BF03CC02CF03DC05A
:101470002DF03EC02EF03FC02FF040C030F041C0F4
:1014800031F042C032F0050E09D0D89032323132FC
:1014900030322F322E322D322C322B32E82EF5D72D
:1014A0002BC03BF02CC03CF02DC03DF02EC03EF0D8
:1014B0002FC03FF030C040F031C041F032C042F0A8
:1014C00044BE20D0445004E1020E435CD8A01AD0A0
:1014D0003B503C103D103E103F1040104110421058
:1014E000D8A45BD738BE05D0385002E13704D8B055
:1014F00054D73ABE07D03A5003E13904D8A002D0FD
:101500007EB24BD77EA816D04306D8A04406840EE0
:101510004324D96E000E4420DA6E2AC0DFFF430652
:10152000D8A04406840E4324D96E000E4420DA6EFF
:10153000300EDF6E20C015F021C016F0840E43245B
:10154000176E000E4420186E39C019F03AC01AF018
:10155000C8EC0BF015C020F016C021F01200000EF0
:10156000166E000E156E000E0F6E000E0E6E02D07F
:10157000084A092A010E146E08C0F6FF09C0F7FFD9
:101580000800F550200AD8B418D0F70E0A6EFF0EE6
:101590000B6E08C0F6FF09C0F7FF0800F5500C6E8F
:1015A0000D6A0A500C260B500D220D5004E1050E59
:1015B0000C5CD8A002D0000E146E14C010F0116A9A
:1015C00010501110D8B408D0D3D7000E0F6E010EF2
:1015D0000E6E084A092A2ED008C0F6FF09C0F7FF90
:1015E0000800F5500A6E0B6A0B50000AD8A422D0EE
:1015F0000A502B0AD8B4EDD7060AD8B4E6D71AD0C9
:1016000015C001F016C002F0000E046E0A0E036E43
:101610003AEC0EF008C0F6FF09C0F7FF0800F550DD
:10162000015E000E025A300E0124156E000E0220DB
:10163000166ECFD7D00E0A6EFF0E0B6E08C0F6FFE7
:1016400009C0F7FF0800F5500C6E0D6A0A500C2611
:101650000B500D220D5006E10A0E0C5CD8B002D0E2
:10166000010E01D0000E126E136A12501310D8A48E
:10167000C7D70E500F10D8A40DD015C00AF016C051
:101680000BF00A1E0B1E0A4A0B2A0AC008F00BC0F8
:1016900009F0120015C008F016C009F01200000E83
:1016A0008C6E000E956E8AEC0CF0A00E0E6E860EFF
:1016B0000F6E010E106E000E116EBFEC0CF03DECC3
:1016C0000DF0A0EC0EF0000E036ED00E026E97EC43
:1016D0000EF0000E036E000E026E97EC0EF09CEC06
:1016E0000EF0A0EC0EF0000E036ED10E026E97EC21
:1016F0000EF0000E7B6E740E7B24D96EDA6A000E3B
:10170000DA22000E4DEC0EF0DF6E7B2A050E7B64B4
:10171000F2D7010E4DEC0EF07A6E9CEC0EF0800EBE
:1017200091EC0EF0070E726E7D0EE82EFED7722E33
:10173000FCD700F01F0E666E100E676E7AC068F060
:10174000696A79C06AF06B6A78C06CF06D6A27ECE0
:101750000EF0C00E91EC0EF02E0E666E100E676E3F
:1017600076C068F0696A75C06AF06B6A74C06CF024
:101770006D6A27EC0EF00D0E736EAF0E726EB60E24
:10178000E82EFED7722EFCD7732EFAD700D099D749
:101790007EA00AD017C00EF018C00FF015C010F0D0
:1017A00016C011F07FEC0DF01ABE05D019C01EF066
:1017B0001AC01FF004D0000E1F6E000E1E6E000E29
:1017C0001D6E000E1C6E0CD0000E066E200E056EF7
:1017D00015C007F016C008F054EC0CF01C4A1D2A86
:1017E0001E501C5C1D50800A1B6E1F50800A1B5827
:1017F000D8A0EAD77EB00AD017C00EF018C00FF0FC
:1018000015C010F016C011F07FEC0DF017C001F0FC
:1018100018C002F0FDEC0DF01E500124156E1F5093
:101820000220166E1200000E096E000E0A6E000EE7
:101830000B6E000E0C6E0550061007100810D8B481
:101840002AD0010E0D6E06D0D89005360636073622
:1018500008360D2A08AEF8D7D89009360A360B3666
:101860000C360550015C06500258075003580850CA
:101870000458D8A009D00550015E0650025A0750FE
:10188000035A0850045A0980D890083207320632A9
:1018900005320D2EE1D709C001F00AC002F00BC0DD
:1018A00003F00CC004F0120007500810D8B404D0A4
:1018B00007500810D8A404D005508BEC0EF012008D
:1018C00020EE04F00750D9260850DA22DE50DE1050
:1018D000D8B416D020EE04F00750D9260850DA22EA
:1018E00010EE02F00750E1260850E222DE50E65CDE
:1018F000E650800A0D6EDE50800A0D58D8B01200F6
:1019000020EE02F00750D9260850DA22DE2A000E17
:10191000DD221200310E056EB20EE82EFED7052E26
:10192000FCD700D08C94030E6EEC0EF0110E056EF9
:101930003A0EE82EFED7052EFCD700D0030E6EEC33
:101940000EF07D0EE82EFED7320E79EC0EF0280E4A
:1019500079EC0EF0080E79EC0EF0010E79EC0EF039
:10196000110E056E3A0EE82EFED7052EFCD700D0DC
:10197000060E79EC0EF00F0E91EC0EF01200C69AE6
:1019800094869488800E016E960E026E980E036EF9
:10199000000E046E0EC012F00FC013F010C014F051
:1019A00011C015F0020ED8901236133614361536C3
:1019B000E82EF9D712C005F013C006F014C007F0E6
:1019C00015C008F013EC0CF00104C86E800EC76E51
:1019D000280EC66E000EC56E120060C064F061C0B5
:1019E00065F0000E0001816F000E806F13D05EC0A5
:1019F00047F05FC048F0640E496E000E4A6E62C048
:101A00004BF063C04CF01FEC08F0475000018027FA
:101A10004850812364C0F6FF65C0F7FF0800F55009
:101A20000009D8A4E4D780C05EF081C05FF0120046
:101A30009F0E096EFF0E0A6E07C00BF008C00CF077
:101A400009500B260A500C220C5006E11A0E0B5CB2
:101A5000D8B002D0010E01D0000E0D6E0E6A0D50EE
:101A60000E10D8B405D05F0E0714076E086A120076
:101A700007C007F008C008F01200A0EC0EF0000E3E
:101A8000036ED00E026E97EC0EF0000E036E000E89
:101A9000026E97EC0EF0000E046E120E0424F66E29
:101AA000F76A100EF7220800F550026E036A97ECF1
:101AB0000EF0042A060E0464F0D79CEC0EF012001F
:101AC000010E076E200E01180210D8B414D0F70EC4
:101AD000036EFF0E046E01C005F002C006F0035055
:101AE000052604500622065004E1050E055CD8A028
:101AF00002D0000E076E07C001F0026A1200000E4D
:101B0000146E000E136E0BD012C005F0066A10C0E2
:101B100007F011C008F054EC0CF0134A142A1350CB
:101B20000E24D96E14500F20DA6EDF50126E125050
:101B3000D8B41200E9D79F0E036EFF0E046E200E7C
:101B40000110056E000E0210066E035005260450AB
:101B50000622065006E11A0E055CD8B002D0010E2E
:101B600001D0000E016E026A12009F0E036EFF0E7E
:101B7000046E01C005F002C006F0035005260450B3
:101B80000622065006E11A0E055CD8B002D0010EFE
:101B900001D0000E016E026A1200BF0E036EFF0E2E
:101BA000046E01C005F002C006F003500526045083
:101BB0000622065006E11A0E055CD8B002D0010ECE
:101BC00001D0000E016E026A1200D00E036EFF0EED
:101BD000046E01C005F002C006F003500526045053
:101BE0000622065006E10A0E055CD8B002D0010EAE
:101BF00001D0000E016E026A120001C003F002C0A3
:101C000004F002D0014A022A01C0D9FF02C0DAFF63
:101C1000DF50D8A4F7D70350015C016E045002587E
:101C2000026E1200000EF2BE010E016EF29E8C8654
:101C3000140EE82EFED700D08C96530EE82EFED759
:101C400000F001B002D0F29E01D0F28E1200680EB8
:101C5000706E000E716E000E5E6E000E5F6E66C0DE
:101C600060F067C061F0700E626E000E636EEDECA6
:101C70000CF0120001500302F3CF05F0F4CF06F090
:101C800001500402F350062602500302F3500626C8
:101C900005C001F006C002F01200026E82EC0EF0E8
:101CA000C58682EC0EF0C9CF03F082EC0EF002B0D4
:101CB00002D0C59A01D0C58AC5880350120000EE33
:101CC00080F0240EEE6AE806FDE17F6A7E6A7D6A96
:101CD0007C6A000EF86E00014FEF0BF0026E8C5024
:101CE0000F0B8C6E0238F00B8C108C6E12EC0EF019
:101CF0001200036E03380F0B6EEC0EF003506EEC07
:101D00000EF01200C7B4FED7C5CF01F01F0E0116AA
:101D1000D8B41200F7D7046E8C84045079EC0EF01E
:101D20001200046E8C94045079EC0EF0120082ECD8
:101D30000EF002C0C9FF120082EC0EF0C584120042
:081D400082EC0EF0C5801200D8
:020000040020DA
:08000000FFFFFFFFFFFFFFFF00
:020000040030CA
:0E000000FF021F1EFF8381FF0F400FE00F4025
:00000001FF
