:04000000ABEF66F00C
:10CC560056EC66F0C580120056EC66F0C5841200EC
:10CC6600FF0EE8EC66F01200036E0350E8EC66F087
:10CC7600120056EC66F002C0C9FF1200046E8C94D6
:10CC860004504DEC66F01200046E8C8404504DEC9A
:10CC960066F01200036E03380F0B69EC66F0035062
:10CCA60069EC66F01200C7B4FED7C5CF01F01F0EBF
:10CCB6000116D8B41200F7D781A2FED781380F0B20
:10CCC6000F0B016E81B2FED701501200026E8C501E
:10CCD6000F0B8C6E0238F00B8C108C6E45EC67F0E7
:10CCE6001200010E046E740EF66EFF0EF76E08004B
:10CCF600F55031EC67F01200010E046E770EF66EF9
:10CD0600FF0EF76E0800F55031EC67F01200010EC9
:10CD1600046E6F0EF66EFF0EF76E0800F55031ECDE
:10CD260067F01200010E046E7B0EF66EFF0EF76EB4
:10CD36000800F55031EC67F01200010E046E7C0E0F
:10CD4600F66EFF0EF76E0800F55031EC67F0120034
:10CD560000EE80F03E0EEE6AE806FDE17C6A000E0B
:10CD6600F86E00016FEF70F0036E000E026E3A0E61
:10CD7600036005D02F0E036402D0010E026E02C0BE
:10CD860001F001301200010E046E700EF66EFF0EF9
:10CD9600F76E0800F55031EC67F0000E046E7C501B
:10CDA60031EC67F01200015002100310D8B406D01F
:10CDB600000E011A000E021A800E031A01C001F0BD
:10CDC60002C002F003C003F01200026E02C0C9FFE7
:10CDD6009EB602D0010E01D0000E016EC7B002D081
:10CDE600010E01D0000E0110F3E1C9501200026ECF
:10CDF60056EC66F0C58656EC66F0C9CF03F056ECE5
:10CE060066F002B002D0C59A01D0C58AC588035023
:10CE1600120009C001F00AC002F0036A8E0E046E09
:10CE2600000E056E34EC6BF001C009F002C00AF08A
:10CE360003C00BF012000F501102F3CF13F0F4CF22
:10CE460014F00F501202F350142610501102F35032
:10CE5600142613C00FF014C010F01200066E04045E
:10CE6600D8B403D0056A052A01D0056A05468C5058
:10CE76000518FD0B05188C6E8C90065037EC66F085
:10CE86008C801200000EF2BE010E016EF29E8C86A0
:10CE9600140EE82EFED700D08C96530EE82EFED741
:10CEA60000F001B002D0F29E01D0F28E1200010E07
:10CEB600046E7E0EF66EFF0EF76E0800F55031EC2E
:10CEC60067F0020E086EA70E076E100EE82EFED74C
:10CED600072EFCD7082EFAD700D01200010E046EDA
:10CEE600800EF66EFF0EF76E0800F55031EC67F017
:10CEF600020E086EA70E076E100EE82EFED7072E3E
:10CF0600FCD7082EFAD700D01200056E05C003F034
:10CF16000F0E0316D8900336D8900334C26EC28023
:10CF2600C282C2B2FED7C350C4CF03F0046A03C0A4
:10CF360004F0036A0310016E0450026E1200016EC3
:10CF4600C69A000EC76E07D0100E03D0120E01D07F
:10CF5600110EC66E0BD00150040AD8B4F5D7140AC8
:10CF6600D8B4F6D7500AD8B4F1D7F2D7949A9488A1
:10CF76009496C68A12000F6E000E046E000E056EA1
:10CF8600000E066E000E076E500EF66EFF0EF76E62
:10CF96000800F550E8EC69F00BC004F00CC005F091
:10CFA6000DC006F00EC007F00F50E8EC69F0120055
:10CFB6003D503E103F10D8B406D0000E3D1A000E6C
:10CFC6003E1A800E3F1A3AC02EF03BC02FF03CC0EE
:10CFD60030F03DC031F03EC032F03FC033F03EECA1
:10CFE60071F02EC03AF02FC03BF030C03CF012007A
:10CFF600076E0DD0000E096E030E03D0000E096EEB
:10D00600050E086E0DD0000E096E060EFAD70750F3
:10D016000C0AD8B4EFD71C0AD8B4F0D7020AF3D753
:10D02600010E046E6D0EF66EFF0EF76E0800F550DB
:10D0360031EC67F0000E046E085031EC67F0120018
:10D04600050EF66EFF0EF76E20EE02F00C0E0900CE
:10D05600F5CFDEFFE806FBE2000E0F6E0C0E0F6446
:10D0660001D01200ACB202D0010E01D0000E016E4A
:10D076009EB802D0010E01D0000E0110F3E10F5050
:10D08600010D020EF324D96E000EF420DA6EDF5085
:10D09600AD6E0F2AE3D78E0E116E06D0D8900C32E5
:10D0A6000B320A320932112A000E09140D6E000ED7
:10D0B6000A140E6E000E0B140F6EFF0E0C14106E7B
:10D0C6000D500E100F101010D8A4E8D709C001F0AB
:10D0D6000AC002F00BC003F011C004F0000E056E8A
:10D0E60034EC6BF001C009F002C00AF003C00BF08B
:10D0F6001200C69A94869488800E016E960E026E71
:10D10600980E036E000E046E0EC012F00FC013F0E0
:10D1160010C014F011C015F0020ED8901236133656
:10D1260014361536E82EF9D712C005F013C006F0EE
:10D1360014C007F015C008F027EC6AF00104C86EA9
:10D14600800EC76E280EC66E000EC56E1200A00EAB
:10D156000E6E860E0F6E010E106E000E116E7CECBA
:10D1660068F02BEC66F0000E036ED00E026E3CECFF
:10D1760066F0000E036E000E026E3CEC66F0000ECA
:10D18600166E060E166401D010D01650010D120E42
:10D19600F324F66EFF0EF420F76E0800F550026ECB
:10D1A600036A3CEC66F0162AECD72FEC66F0120008
:10D1B6000550061007100810D8B424D0010E096EC9
:10D1C60006D0D8900536063607360836092A08AE40
:10D1D600F8D70550015C065002580750035808500E
:10D1E6000458D8A008D00550015E0650025A0750D0
:10D1F600035A0850045AD8900832073206320532CC
:10D20600092EE7D701C001F002C002F003C003F007
:10D2160004C004F01200310E056EB20EE82EFED7E1
:10D22600052EFCD700D08C94030E69EC66F0110E27
:10D23600056E3A0EE82EFED7052EFCD700D0030E5B
:10D2460069EC66F07D0EE82EFED7320E4DEC66F0E8
:10D25600280E4DEC66F0080E4DEC66F0010E4DEC16
:10D2660066F0110E056E3A0EE82EFED7052EFCD797
:10D2760000D0060E4DEC66F00F0E41EC66F0120083
:10D286003DEC73F0400E156E000E166E800E176E96
:10D296003D0EF66EFF0EF76E0900F5CF18F0090089
:10D2A600F5CF19F00900F5CF1AF00A00F5CF1BF0FB
:10D2B600000EB7EC6FF0800E156E000E166E800E27
:10D2C600176E390EF66EFF0EF76E0900F5CF18F0E1
:10D2D6000900F5CF19F00900F5CF1AF00A00F5CFCD
:10D2E6001BF0400EB7EC6FF01200000E066E02AE99
:10D2F60006D0016C021ED8B0022A010E066E04AEDC
:10D3060004D0036C041ED8B0042A03500410D8B409
:10D3160018D0010E056E04D0D89003360436052ABF
:10D3260004AEFAD70350015C04500258D8A004D0CA
:10D336000350015E0450025AD89004320332052E7F
:10D34600F1D70650D8B404D0016C021ED8B0022A18
:10D3560001C001F002C002F012006FEC76F0010E7F
:10D3660041EC66F0110E686E3A0EE82EFED7682E76
:10D37600FCD700D0980E406EFF0E416E72EC7AF02C
:10D38600860EF66EFF0EF76E0800F550800941EC2A
:10D3960066F0C70E406EFF0E416E98C042F099C00F
:10D3A60043F09AC044F072EC7AF0070E696E580E9C
:10D3B600686E5A0EE82EFED7682EFCD7692EFAD76D
:10D3C60081A2FED781A21200FDD7096E8D9433EC9F
:10D3D60066F0FF0AD8A4FBD70950400937EC66F07F
:10D3E600075037EC66F0065037EC66F0055037EC20
:10D3F60066F0045037EC66F05E0EF66EFF0EF76EC2
:10D406000800F550096209D05D0EF66EFF0EF76E44
:10D416000800F55037EC66F008D0600EF66EFF0E89
:10D42600F76E0800F55037EC66F0000E086E33EC28
:10D4360066F00A6E082A080E086003D00A28D8B4D7
:10D44600F6D78D840A501200000E096E000E0A6E81
:10D45600000E0B6E000E0C6E05500610071008101D
:10D46600D8B42AD0010E0D6E06D0D89005360636F1
:10D47600073608360D2A08AEF8D7D89009360A3688
:10D486000B360C360550015C0650025807500358FF
:10D4960008500458D8A009D00550015E0650025A1B
:10D4A6000750035A0850045A0980D89008320732A8
:10D4B600063205320D2EE1D709C001F00AC002F08E
:10D4C6000BC003F00CC004F01200000E0C6E0AAE86
:10D4D60006D0096C0A1ED8B00A2A010E0C6E08AED8
:10D4E60006D0076C081ED8B0082A010E0C1A000ECA
:10D4F6000E6E000E0D6E09500A10D8B41CD0010E27
:10D506000B6E04D0D89009360A360B2A0AAEFAD723
:10D51600D8900D360E360950075C0A500858D8A028
:10D5260005D00950075E0A50085A0D80D8900A3275
:10D5360009320B2EEDD70C50D8B404D00D6C0E1E4C
:10D54600D8B00E2A0DC007F00EC008F012000B0E60
:10D55600C16E010E41EC66F0110E686E3A0EE82EB1
:10D56600FED7682EFCD700D0EA0E406EFF0E416E45
:10D57600020E88EC67F001C042F002C043F072EC84
:10D586007AF0860EF66EFF0EF76E0800F5508009EB
:10D5960041EC66F0F40E406EFF0E416E030E88EC11
:10D5A60067F001C042F002C043F072EC7AF0020E5E
:10D5B600696E450E686EAA0EE82EFED7682EFCD759
:10D5C600692EFAD781A2C5D781B2FED70F0EC16EDA
:10D5D600120003AE16D001C007F002C008F003C067
:10D5E60009F0071E081E091E072A000E0822092236
:10D5F600000E0724016E000E0820026E800E092020
:10D60600036E06AE16D004C007F005C008F006C0CB
:10D6160009F0071E081E091E072A000E0822092205
:10D62600000E0724046E000E0820056E800E0920E9
:10D63600066E000E011A000E021A800E031A000E64
:10D64600041A000E051A800E061A0450015C0550D5
:10D65600025806500358D8B002D0D8901200D8808D
:10D6660012000450D8B405D0015002100310D8A4FB
:10D676000CD0000E016E000E026E000E036E12003C
:10D68600042AD890033202320132000E0114066ECB
:10D69600000E0214076EFE0E0314086E06500710E5
:10D6A6000810D8B40CD0ECD7042A010E0126000EBF
:10D6B6000222000E0322D890033202320132000EFB
:10D6C6000114066E000E0214076EFF0E0314086E98
:10D6D600065007100810D8B406D0E6D70406D8902E
:10D6E60001360236033602BE03D0020E0460F6D7B8
:10D6F60004A0029ED8900432045003120550D8A408
:10D70600038E01C001F002C002F003C003F0120054
:10D71600000E0A6E08AE0AD0081E071E061E056C0D
:10D72600000E062207220822010E0A6E04AE0AD057
:10D73600041E031E021E016C000E02220322042296
:10D74600010E0A1A000E0B6E000E0C6E000E0D6E08
:10D75600000E0E6E0550061007100810D8B42AD019
:10D76600010E096E06D0D8900536063607360836FD
:10D77600092A08AEF8D7D8900B360C360D360E3679
:10D786000550015C065002580750035808500458CB
:10D79600D8A009D00550015E0650025A0750035A18
:10D7A6000850045A0B80D8900832073206320532E8
:10D7B600092EE1D70A50D8B408D00E1E0D1E0C1E35
:10D7C6000B6C000E0C220D220E220BC001F00CC0B9
:10D7D60002F00DC003F00EC004F012000EC012F0ED
:10D7E600136A146A0D34123601E313801250196E4F
:10D7F6001950D8A407D0000E0C6E000E0D6E000E48
:10D806000E6E120011C012F0136A146A103412362A
:10D8160001E3138012501A6E1A50D8A407D0000ED6
:10D826000C6E000E0D6E000E0E6E1200000E166EC1
:10D83600000E176E000E186E1A50890F195E0EC074
:10D846001AF011501A1A800E1A160D8EFF0E0C16AB
:10D85600FF0E0D16000E0E16108EFF0E0F16FF0E83
:10D866001016000E1116180E156ED89016361736AD
:10D8760018360F500C5C10500D5811500E58D8A089
:10D8860007D00F500C5E10500D5A11500E5A1680CC
:10D89600D8900C360D360E36152EE7D716C001F089
:10D8A60017C002F018C003F019C004F01AC005F042
:10D8B60034EC6BF001C00CF002C00DF003C00EF0AA
:10D8C60012002DC02FF0306A316A2C342F3601E356
:10D8D60030802F50396E3950D8A409D0000E2B6EE7
:10D8E600000E2C6E000E2D6E000E2E6E1200170E00
:10D8F6002F6E2BC030F02CC031F02DC032F02F2807
:10D90600336E04D0D890323231323032332EFAD7D9
:10D916003050346E2C8EFF0E2B16FF0E2C16000E7A
:10D926002D162B50356E2C50366E2D50376E386AAC
:10D936008E0E395E39AE16D03950800A8F0FD8B0A8
:10D9460009D0000E2B6E000E2C6E000E2D6E000EF2
:10D956002E6E1200D8903832373236323532393E92
:10D96600F9D715D0170E39640FD0000E2B6E000EA6
:10D976002C6E000E2D6E000E2E6E1200D8903536CF
:10D9860036363736383639063950D8A4F7D73450B4
:10D99600D8B408D0381E371E361E356C000E362217
:10D9A6003722382235C02BF036C02CF037C02DF088
:10D9B60038C02EF0120017C01BF01C6A1D6A163400
:10D9C6001B3601E31C801B501E6E1E50D8A407D0C8
:10D9D600000E156E000E166E000E176E12001AC09F
:10D9E6001BF01C6A1D6A19341B3601E31C801B5090
:10D9F600236E2350D8A407D0000E156E000E166EA7
:10DA0600000E176E120023507B0F1E2617C023F040
:10DA16001A50231A800E2316168E198EFF0E18160C
:10DA2600FF0E1916000E1A16000E1F6E000E206E3F
:10DA3600000E216E070E226E15A006D018501F2666
:10DA4600195020221A502122D89017321632153238
:10DA5600D890183619361A36222EEED7090E226EAF
:10DA660015A006D018501F26195020221A50212220
:10DA7600D890173216321532D890213220321F3202
:10DA8600222EEED71FC001F020C002F021C003F005
:10DA96001EC004F023C005F034EC6BF001C015F095
:10DAA60002C016F003C017F01200A00E0E6E860E0E
:10DAB6000F6E010E106E000E116E7CEC68F02BECF2
:10DAC60066F0000E036ED00E026E3CEC66F0000EA1
:10DAD600036E000E026E3CEC66F02FEC66F02BEC4B
:10DAE60066F0000E036ED10E026E3CEC66F0000E80
:10DAF600726E050E726401D00ED07250010D690E61
:10DB0600F324D96E000EF420DA6E000EFAEC66F0FD
:10DB1600DF6E722AEED7010EFAEC66F06F6E2FEC0E
:10DB260066F0010E41EC66F0110E686E3A0EE82EB4
:10DB3600FED7682EFCD700D0A90E406EFF0E416EB0
:10DB46006FC042F0436A6EC044F0456A6DC046F04D
:10DB5600476A72EC7AF0860EF66EFF0EF76E0800D4
:10DB6600F550800941EC66F0B80E406EFF0E416E2E
:10DB76006BC042F0436A6AC044F0456A69C046F029
:10DB8600476A72EC7AF0000E716E000E706E71BE0E
:10DB960006D0715094E1640E705CD8B090D7210E17
:10DBA600686E760EE82EFED7682EFCD700D081A2CE
:10DBB60003D081A21200FDD7704A712A71BEEFD739
:10DBC600715001E1E8D77BD7033404340C6E0C5056
:10DBD600D8A409D0000E016E000E026E000E036E70
:10DBE600000E046E1200063407340B6E0B50D8A4D8
:10DBF60009D0000E016E000E026E000E036E000EBE
:10DC0600046E1200038EFF0E0116FF0E0216FF0EA3
:10DC16000316000E0416068EFF0E0416FF0E0516DA
:10DC2600FF0E0616000E0716000E076E000E086E93
:10DC3600000E096E000E0A6E7F0E0C5E0B50A00FD2
:10DC46000C5E200E0B6ED8900736083609360A365B
:10DC56000450015C055002580650035807500458FA
:10DC6600D8A009D00450015E0550025A0650035A46
:10DC76000750045A0780D890013602360336043618
:10DC86000B2EE1D70CAE16D00C50800A9F0FD8B0E1
:10DC960009D0000E016E000E026E000E036E000E1D
:10DCA600046E1200D8900A320932083207320C3E4E
:10DCB600F9D715D01F0E0C640FD0000E016E000EA2
:10DCC600026E000E036E000E046E1200D890073628
:10DCD600083609360A360C060C50D8A4F7D707C002
:10DCE60001F008C002F009C003F00AC004F01200F7
:10DCF60003C007F0086A096A0234073601E30880A0
:10DD060007500F6E0F50D8A409D0000E016E000EFA
:10DD1600026E000E036E000E046E120006C007F0BF
:10DD2600086A096A0534073601E3088007500E6E53
:10DD36000E50D8A409D0000E016E000E026E000E21
:10DD4600036E000E046E1200028EFF0E0116FF0E09
:10DD56000216000E0316058EFF0E0416FF0E05169C
:10DD6600000E0616000E0A6E000E0B6E000E0C6EEE
:10DD7600000E0D6E7F0E0F5E0E50980F0F5E180E82
:10DD86000E6ED8900A360B360C360D360450015CF2
:10DD96000550025806500358D8A007D00450015E1B
:10DDA6000550025A0650035A0A80D89001360236A8
:10DDB60003360E2EE6D70FAE16D00F50800A970FF9
:10DDC600D8B009D0000E016E000E026E000E036E72
:10DDD600000E046E1200D8900D320C320B320A324D
:10DDE6000F3EF9D715D0170E0F640FD0000E016E37
:10DDF600000E026E000E036E000E046E1200D89026
:10DE06000A360B360C360D360F060F50D8A4F7D748
:10DE16000AC001F00BC002F00CC003F00DC004F004
:10DE26001200AC9AAB9EC69A000E896E000E8A6EE0
:10DE3600000E8B6E000E8C6E000E8D6E000E926EB6
:10DE4600000E936E000E946E000E956E000E966E8A
:10DE5600000E046E000E036E800E036E000E046E3E
:10DE6600070E046401D011D003C089FFD890033295
:10DE7600070E026E580E016E5A0EE82EFED7012EC0
:10DE8600FCD7022EFAD7042AEBD7000E896E800E35
:10DE9600036E000E046E070E046401D011D003C099
:10DEA6008AFFD8900332070E026E580E016E5A0E84
:10DEB600E82EFED7012EFCD7022EFAD7042AEBD77E
:10DEC600000E8A6E800E036E000E046E070E04644A
:10DED60001D011D003C08BFFD8900332070E026E1B
:10DEE600580E016E5A0EE82EFED7012EFCD7022ED2
:10DEF600FAD7042AEBD7000E8B6E800E036E000E47
:10DF0600046E070E046401D011D003C08CFFD890B4
:10DF16000332070E026E580E016E5A0EE82EFED719
:10DF2600012EFCD7022EFAD7042AEBD7000E8C6EF0
:10DF3600040E036E000E046E020E046401D011D0AE
:10DF460003C08DFFD8900332070E026E580E016E85
:10DF56005A0EE82EFED7012EFCD7022EFAD7042A37
:10DF6600EBD7000E8D6E78D7276E7CBC7CAA05D0C9
:10DF7600030E1626030E172615D07CAE08D0020E09
:10DF86001626020E1726030E2726030E0ED07CAC8D
:10DF960007D0020E1626020E1726272A152A06D0A5
:10DFA600162A172A020E2726020E1526010E046EC1
:10DFB600750EF66EFF0EF76E0800F55031EC67F041
:10DFC600000E046E000E31EC67F0000E046E275052
:10DFD60031EC67F0000E046E000E31EC67F0000EB7
:10DFE600046E150431EC67F0010E046E760EF66EC3
:10DFF600FF0EF76E0800F55031EC67F0000E046E68
:10E00600000E31EC67F0000E046E165031EC67F02E
:10E01600000E046E000E31EC67F0000E046E17045D
:10E0260031EC67F074EC66F027501518D8A414D0BC
:10E0360016501718D8A410D0000E046E185031ECE4
:10E0460067F0000E046E195031EC67F0000E046E96
:10E056001A5031EC67F0120027501C6E1D6A1C1E08
:10E066001D1E1C4A1D2A15501C240F6E000E1D2055
:10E07600106E16501E6E1F6A1E1E1F1E1E4A1F2A77
:10E0860017501E24116E000E1F20126E1EEC67F034
:10E096000FC020F010C021F018C024F019C025F0E0
:10E0A6001AC026F08C908C82000E236E000E226E13
:10E0B6000BD0245037EC66F0255037EC66F026502E
:10E0C60037EC66F0224A232A2050225C215023583E
:10E0D600D8A0EFD78C801200000E896E000E8A6ED3
:10E0E600000E8B6E000E8C6E000E8D6E9268F20E18
:10E0F600936E800E946E010E956E040E966E000E53
:10E10600C26E0F0EC16EC08E000EB56EB496B10E05
:10E11600C06E800E776E250E786E000E796E000E3C
:10E126007A6E800E016E960E026E980E036E000ECB
:10E13600046E77C073F078C074F079C075F07AC059
:10E1460076F0060ED8907336743675367636E82E27
:10E15600F9D773C005F074C006F075C007F076C035
:10E1660008F08BEC6BF00104AF6EAC9CAC98AC8AFB
:10E17600949CAB8E0EEC69F0010E41EC66F0110E2C
:10E18600736E3A0EE82EFED7732EFCD700D0DF0E44
:10E19600406EFF0E416E72EC7AF0860EF66EFF0E42
:10E1A600F76E0800F550800941EC66F0D30E406E1C
:10E1B600FF0E416E72EC7AF05FEC66F0736E735090
:10E1C600010DF50EF324F66EFE0EF420F76E080030
:10E1D600F5CF7BF015D0AAEC68F028D058EC6DF09E
:10E1E60025D043EC69F022D0B0EC69F01FD014ECD6
:10E1F6006FF01CD023EC68F019D0AAEC6AF016D0A8
:10E206007B50000AD8B4E7D7010AD8B4E7D7030A87
:10E21600D8B4E7D7010AD8B4E7D7070AD8B4E7D7FE
:10E22600010AD8B4E7D7030AD8B4E7D7070E7B1894
:10E23600D8B4C2D7010E41EC66F0110E736E3A0ED9
:10E24600E82EFED7732EFCD700D0DF0E406EFF0EF1
:10E25600416E72EC7AF0860EF66EFF0EF76E0800CF
:10E26600F550800941EC66F0D30E406EFF0E416E0C
:10E2760072EC7AF0A1D730C034F0356A366A2F34A2
:10E28600343601E335803450396E33C034F0356AA4
:10E29600366A3234343601E335803450386E3950BC
:10E2A600D8B40BD03850395CD8B00ED039500008ED
:10E2B6003824346E180E346407D031C02EF032C0C4
:10E2C6002FF033C030F012003850D8B40BD039508C
:10E2D600385CD8B00ED0385000083924346E180E89
:10E2E600346407D02EC02EF02FC02FF030C030F08F
:10E2F6001200060E376E30BE378E33BE378C2F8E29
:10E30600FF0E2E16FF0E2F16000E3016328EFF0E43
:10E316003116FF0E3216000E33163850395CD8B05F
:10E326001BD0D89031363236333638063950381845
:10E33600D8B40DD0370637C034F0070E3416D8B42B
:10E3460006D0EFD7D89030322F322E32392A3850B5
:10E356003918D8B41FD0F6D73950385CD8B01AD08F
:10E36600D8902E362F363036390639503818D8B46C
:10E376000DD0370637C034F0070E3416D8B406D0A1
:10E38600EFD7D890333232323132382A38503918F2
:10E39600D8A4F7D737AE0CD0FF0E2E1AFF0E2F1AC1
:10E3A600FF0E301A010E2E26000E2F22000E3022EE
:10E3B60037AC0CD0FF0E311AFF0E321AFF0E331A8D
:10E3C600010E3126000E3222000E3322000E376E69
:10E3D6002E5031262F5032223050332233AE0ED0FB
:10E3E600FF0E311AFF0E321AFF0E331A010E3126B6
:10E3F600000E3222000E3322010E376E31C001F0BC
:10E4060032C002F033C003F039C004F037C005F063
:10E4160034EC6BF001C02EF002C02FF003C030F0D8
:10E4260012002D6E6D0E2D649FD0000E126E030E1F
:10E43600116E000E0A6E0A0E096E000E046E640E50
:10E44600036E2DC001F0026A78EC69F001C007F096
:10E4560002C008F068EC6AF0090E07240F6E000E81
:10E466000820106E1EEC67F0AE0E0F24F66EFE0E40
:10E476001020F76E0900F5CF18F00900F5CF19F056
:10E486000A00F5CF1AF0000E0A6E640E096E2DC052
:10E4960007F0086A68EC6AF0120E07240F6E000E89
:10E4A6000820106E000E126E030E116E1EEC67F041
:10E4B600AE0E0F24F66EFE0E1020F76E0900F5CF95
:10E4C60015F00900F5CF16F00A00F5CF17F0DEECCF
:10E4D6006CF015C02AF016C02BF017C02CF0000EF9
:10E4E600126E030E116E000E046E0A0E036E2DC020
:10E4F60001F0026A78EC69F001C00FF002C010F07A
:10E506001EEC67F0AE0E0F24F66EFE0E1020F76EB0
:10E516000900F5CF18F00900F5CF19F00A00F5CF7C
:10E526001AF02AC015F02BC016F02CC017F0DEEC3E
:10E536006CF015C027F016C028F017C029F027C0C8
:10E5460015F028C016F029C017F0000E186E000E40
:10E55600196E3F0E1A6EDEEC6CF015C024F016C074
:10E5660025F017C026F012000A0E2D6463D0000EA7
:10E57600126E030E116E000E046E0A0E036E2DC08F
:10E5860001F0026A78EC69F001C00FF002C010F0E9
:10E596001EEC67F0AE0E0F24F66EFE0E1020F76E20
:10E5A6000900F5CF18F00900F5CF19F00A00F5CFEC
:10E5B6001AF0000E0A6E0A0E096E2DC007F0086AE0
:10E5C60068EC6AF0090E07240F6E000E0820106E24
:10E5D600000E126E030E116E1EEC67F0AE0E0F24C7
:10E5E600F66EFE0E1020F76E0900F5CF15F0090045
:10E5F600F5CF16F00A00F5CF17F0DEEC6CF015C07B
:10E606002AF016C02BF017C02CF02AC015F02BC02C
:10E6160016F02CC017F0000E186E000E196E3F0E85
:10E626001A6EDEEC6CF015C024F016C025F017C08B
:10E6360026F012002D50030DAE0EF324F66EFE0EDC
:10E64600F420F76E0900F5CF15F00900F5CF16F0A6
:10E656000A00F5CF17F0000E186E000E196E3F0E69
:10E666001A6EDEEC6CF015C024F016C025F017C04B
:10E6760026F012008C808C8295909592040EA2EC66
:10E6860067F0410E286EEE0EE82EFED7282EFCD738
:10E6960000D071EC67F05AEC67F0010E046E6C0E58
:10E6A600F66EFF0EF76E0800F55031EC67F0000EBF
:10E6B600046E000E31EC67F0000E046E060E31ECAF
:10E6C60067F0000E046E030E31EC67F0010E046E67
:10E6D6006B0EF66EFF0EF76E0800F55031EC67F024
:10E6E600000E046E010E31EC67F0000E046E2C0E67
:10E6F60031EC67F0000E046E2D0E31EC67F0010E62
:10E70600046E6A0EF66EFF0EF76E0800F55031ECD9
:10E7160067F0000E046E010E31EC67F0000E046E19
:10E726002C0E31EC67F0000E046E2D0E31EC67F006
:10E73600010E046E690EF66EFF0EF76E0800F550B8
:10E7460031EC67F0000E046E000E31EC67F0010E3E
:10E75600046E680EF66EFF0EF76E0800F55031EC8B
:10E7660067F0000E046EA20E31EC67F0000E046E28
:10E77600020E31EC67F0000E046E840E31EC67F089
:10E78600010E046E670EF66EFF0EF76E0800F5506A
:10E7960031EC67F0000E046EC50E31EC67F0010E29
:10E7A600046E660EF66EFF0EF76E0800F55031EC3D
:10E7B60067F0000E046E0A0E31EC67F0000E046E70
:10E7C600000E31EC67F0010E046E650EF66EFF0E5C
:10E7D600F76E0800F55031EC67F0000E046E8A0EF5
:10E7E60031EC67F0000E046E2A0E31EC67F0010E74
:10E7F600046E640EF66EFF0EF76E0800F55031ECEF
:10E8060067F0000E046E8A0E31EC67F0000E046E9F
:10E816002A0E31EC67F0010E046E630EF66EFF0EE3
:10E82600F76E0800F55031EC67F0000E046E3C0EF2
:10E8360031EC67F095EC66F0120EFBEC67F0010E1A
:10E84600046E790EF66EFF0EF76E0800F55031EC89
:10E8560067F0000E046E010E31EC67F08AEC66F08C
:10E86600A0EC66F07C8C7C8E7C8A7C987C967C9472
:10E87600C6EC66F0830EF66EFF0EF76E0800F5CF57
:10E8860015F0000E166E820EF66EFF0EF76E08007D
:10E89600F5CF17F0350EF66EFF0EF76E0900F5CFC1
:10E8A60018F00900F5CF19F00900F5CF1AF00A00A3
:10E8B600F5CF1BF0000EB7EC6FF07FEC66F0210E83
:10E8C600286E760EE82EFED7282EFCD700D0120032
:10E8D6002A6E2AAE01D12A6C2A50800A120FD8A0BD
:10E8E60091D0000E126E030E116E000E0A6E0A0E05
:10E8F600096E000E046E640E036E2A50016E026AE3
:10E9060001BE020678EC69F001C007F002C008F00B
:10E9160068EC6AF0090E07240F6E000E0820106ED0
:10E926001EEC67F0AE0E0F24F66EFE0E1020F76E8C
:10E936000900F5CF18F00900F5CF19F00A00F5CF58
:10E946001AF0000E0A6E640E096E2A50076E086AE7
:10E9560007BE080668EC6AF0120E07240F6E000E5A
:10E966000820106E000E126E030E116E1EEC67F07C
:10E97600AE0E0F24F66EFE0E1020F76E0900F5CFD0
:10E9860015F00900F5CF16F00A00F5CF17F0DEEC0A
:10E996006CF015C027F016C028F017C029F027C064
:10E9A60015F028C016F029C017F0000E126E030EDF
:10E9B600116E000E046E0A0E036E2A50016E026A74
:10E9C60001BE020678EC69F001C00FF002C010F03B
:10E9D6001EEC67F0AE0E0F24F66EFE0E1020F76EDC
:10E9E6000900F5CF18F00900F5CF19F00A00F5CFA8
:10E9F6001AF0DEEC6CF015C024F016C025F017C036
:10EA060026F012002A50800A750FD8A053D0000EA7
:10EA16000A6E0A0E096E2A50076E086A07BE0806B5
:10EA260068EC6AF0090E07240F6E000E0820106EBF
:10EA3600000E126E030E116E1EEC67F0AE0E0F2462
:10EA4600F66EFE0E1020F76E0900F5CF15F00900E0
:10EA5600F5CF16F00A00F5CF17F0000E126E030E72
:10EA6600116E000E046E0A0E036E2A50016E026AC3
:10EA760001BE020678EC69F001C00FF002C010F08A
:10EA86001EEC67F0AE0E0F24F66EFE0E1020F76E2B
:10EA96000900F5CF18F00900F5CF19F00A00F5CFF7
:10EAA6001AF0DEEC6CF015C024F016C025F017C085
:10EAB60026F012002A50030DAE0EF324F66EFE0E5B
:10EAC600F420F76E0900F5CF24F00900F5CF25F004
:10EAD6000A00F5CF26F012002A50800A120FD8A09D
:10EAE60091D0000E126E030E116E000E0A6E0A0E03
:10EAF600096E000E046E640E036E2A50016E026AE1
:10EB060001BE020678EC69F001C007F002C008F009
:10EB160068EC6AF0090E07240F6E000E0820106ECE
:10EB26001EEC67F0870E0F24F66EFE0E1020F76EB1
:10EB36000900F5CF18F00900F5CF19F00A00F5CF56
:10EB46001AF0000E0A6E640E096E2A50076E086AE5
:10EB560007BE080668EC6AF0120E07240F6E000E58
:10EB66000820106E000E126E030E116E1EEC67F07A
:10EB7600870E0F24F66EFE0E1020F76E0900F5CFF5
:10EB860015F00900F5CF16F00A00F5CF17F0DEEC08
:10EB96006CF015C027F016C028F017C029F027C062
:10EBA60015F028C016F029C017F0000E126E030EDD
:10EBB600116E000E046E0A0E036E2A50016E026A72
:10EBC60001BE020678EC69F001C00FF002C010F039
:10EBD6001EEC67F0870E0F24F66EFE0E1020F76E01
:10EBE6000900F5CF18F00900F5CF19F00A00F5CFA6
:10EBF6001AF0DEEC6CF015C024F016C025F017C034
:10EC060026F012002A50800A750FD8A053D0000EA5
:10EC16000A6E0A0E096E2A50076E086A07BE0806B3
:10EC260068EC6AF0090E07240F6E000E0820106EBD
:10EC3600000E126E030E116E1EEC67F0870E0F2487
:10EC4600F66EFE0E1020F76E0900F5CF15F00900DE
:10EC5600F5CF16F00A00F5CF17F0000E126E030E70
:10EC6600116E000E046E0A0E036E2A50016E026AC1
:10EC760001BE020678EC69F001C00FF002C010F088
:10EC86001EEC67F0870E0F24F66EFE0E1020F76E50
:10EC96000900F5CF18F00900F5CF19F00A00F5CFF5
:10ECA6001AF0DEEC6CF015C024F016C025F017C083
:10ECB60026F012002A50030D870EF324F66EFE0E80
:10ECC600F420F76E0900F5CF24F00900F5CF25F002
:10ECD6000A00F5CF26F01200D3CF45F09BCF46F0C1
:10ECE60020EEAEF010EE4BF00F0EDBCFE3FFE806A2
:10ECF600FCE29B909B929B949B969B98D3508F0B88
:10ED06006009D36E030ED31204D0100EE82EFED780
:10ED160000D0D3A4FAD7100EA2EC67F0410E3A6EDB
:10ED2600EE0EE82EFED73A2EFCD700D08D849694B0
:10ED3600000E5B6E090E5B6401D005D0FF0E37EC4A
:10ED460066F05B2AF7D78D94000E046E000E056EF2
:10ED5600000E066E000E076E610EF66EFF0EF76E63
:10ED66000800F550E8EC69F03A6E4A0EF66EFF0EB2
:10ED7600F76E0800F5503A18D8A4E6D7AA0E046E26
:10ED8600010E056E000E066E000E076E5E0EF66E26
:10ED9600FF0EF76E0800F550E8EC69F0656E8D948D
:10EDA600000E5D6E030E5D6401D00DD05D50010D49
:10EDB6004B0EF324D96E000EF420DA6E33EC66F0B7
:10EDC600DF6E5D2AEFD78D84490EF66EFF0EF76E65
:10EDD6000800F5CF3AF065503A143B6E490EF66ED0
:10EDE600FF0EF76E0800F5503B18D8A42CD0010E84
:10EDF6000001806F000E046E000E056E000E066E9A
:10EE0600000E076E4F0EF66EFF0EF76E0800F550F9
:10EE1600E8EC69F08D94000E5E6E030E5E6401D020
:10EE26000DD05E50010D4B0EF324D96E000EF4206A
:10EE3600DA6E33EC66F0DF6E5E2AEFD78D844D0412
:10EE4600D8A4120012D04A0EF66EFF0EF76E080016
:10EE5600F550656293D74D04D8A41200AA0E4E1839
:10EE6600D8A41200020E0001806F00018005D8B4FC
:10EE760008D0000E416E000E426E000E436E400E2C
:10EE860007D0000E416E000E426E000E436E000E5D
:10EE9600446E41C00BF042C00CF043C00DF044C0BC
:10EEA6000EF04C0EF66EFF0EF76E0800F550BEEC37
:10EEB60067F0656E4B0EF66EFF0EF76E0800F550A6
:10EEC6006518D8B413D0490EF66EFF0EF76E08001B
:10EED600F5CF3AF065503A143B6E490EF66EFF0ECA
:10EEE600F76E0800F5503B18D8A4D3D7490EF66E36
:10EEF600FF0EF76E0800F5CF3AF065503A143B6EF8
:10EF0600490EF66EFF0EF76E0800F5503B18D8A4B2
:10EF16001CD000018005D8A414D0020E0001816F18
:10EF2600000E046E000E056E000E066E000E076ED5
:10EF36005F0EF66EFF0EF76E0800F550E8EC69F00E
:10EF460004D0000E00019B6F1200020E0001811911
:10EF5600D8B427D0000E046E000E056E000E066EA5
:10EF6600000E076E4F0EF66EFF0EF76E0800F55098
:10EF7600E8EC69F08D9433EC66F0C00BC00AD8A4B7
:10EF860002D0010E01D0000E0001816F000E5C6EF2
:10EF9600020E5C6401D004D033EC66F05C2AF8D72C
:10EFA6008D84000E046E020E056E000E066E000EB7
:10EFB600076E580EF66EFF0EF76E0800F550E8EC79
:10EFC60069F03A6E4B0EF66EFF0EF76E0800F550BE
:10EFD6003A18D8A4E6D7020E0001936F000E926F7E
:10EFE600000E046E000E056E000E066E000E076E15
:10EFF6005C0EF66EFF0EF76E0800F550E8EC69F051
:10F006008D9433EC66F03A6E480EF66EFF0EF76E90
:10F016000800F5503A18D8A4F4D7000E5F6E0F0E0C
:10F026005F6401D00DD05F50010D4B0EF324D96EF5
:10F03600000EF420DA6E33EC66F0DF6E5F2AEFD74F
:10F0460033EC66F033EC66F08D84020E0001801915
:10F05600D8A46CD0010E5424476E486A000E48228C
:10F06600496A000E49224A6A000E4A2253503B6EF4
:10F076003A6A3AC03CF03BC03DF0000E3DBEFF0E82
:10F086003E6E3F6E3C5047123D5048123E5049126C
:10F096003F504A1252C03AF03F0E3A163AC03BF081
:10F0A6003C6A3D6A3E6A3CC03EF03BC03DF03C6A6D
:10F0B6003B6A3B5047123C5048123D5049123E5065
:10F0C6004A1247C009F048C00AF049C00BF04AC0CE
:10F0D6000CF04EEC68F009C015F00AC016F00BC033
:10F0E60017F0380E186E060E196E3F0E1A6EDEEC0D
:10F0F6006CF015C098F016C099F017C09AF0000E83
:10F10600186E000E196E450E1A6E98C015F099C04D
:10F1160016F09AC017F0DEEC6CF015C02BF016C096
:10F126002CF017C02DF064EC6CF0BED051C03AF054
:10F13600030E3A163AC03BF03C6A3D6A3E6A040E3C
:10F14600D8903B363C363D363E36E82EF9D73BC0A6
:10F1560061F03CC062F03DC063F03EC064F05250C6
:10F166003A6E3B6AD8903A363B36D8903A363B36BA
:10F176003AC03CF03BC03DF0000E3DBEFF0E3E6E79
:10F186003F6E3C5061123D5062123E5063123F503A
:10F19600641253C03AF0D8903A32D8903A32300ED0
:10F1A6003A16010E3A243B6E3C6A000E3C223D6A3A
:10F1B600000E3D223E6A000E3E223B5061123C503C
:10F1C60062123D5063123E50641254C03AF0030E70
:10F1D6003A163B6A55AE01D03B2A3B303A343C6E78
:10F1E600020E3C2661C03DF062C03EF063C03FF0B7
:10F1F60064C040F03C2A05D0D8903D363E363F36B6
:10F2060040363C2EF9D73DC061F03EC062F03FC0AB
:10F2160063F040C064F050C03AF00F0E3A1661C079
:10F226003BF062C03CF063C03DF064C03EF03A2A59
:10F2360005D0D8903B363C363D363E363A2EF9D789
:10F246003BC061F03CC062F03DC063F03EC064F07C
:10F2560061C009F062C00AF063C00BF064C00CF034
:10F266004EEC68F009C098F00AC099F00BC09AF00D
:10F2760092C009F093C00AF00CEC67F009C00FF0D9
:10F286000AC010F00BC011F098C00CF099C00DF038
:10F296009AC00EF0F1EC6BF00CC02BF00DC02CF008
:10F2A6000EC02DF064EC6CF02BC094F02CC095F0E1
:10F2B6002DC096F02EC097F0000E046E000E056E5F
:10F2C600000E066E000E076E5B0EF66EFF0EF76EF4
:10F2D6000800F550E8EC69F08D9433EC66F0656E45
:10F2E600480EF66EFF0EF76E0800F5506562F5D70C
:10F2F600000E606E0F0E606401D00DD06050010DDF
:10F306004B0EF324D96E000EF420DA6E33EC66F061
:10F31600DF6E602AEFD733EC66F033EC66F08D844F
:10F326004BC082F04C503A6E4D500001836F3AC08C
:10F3360084F04EC089F04FC03AF03B6A3C6A3D6AA1
:10F346003AC03DF03C6A3B6A3A6A3AC085F03BC037
:10F3560086F03CC087F03DC088F050C03AF03B6A6A
:10F366003C6A3D6A3BC03DF03AC03CF03B6A3A6AB3
:10F376003A50000185133B50000186133C500001B2
:10F3860087133D500001881351C03AF03B6A3C6A2E
:10F396003D6A3CC03DF03BC03CF03AC03BF03A6AA7
:10F3A6003A50000185133B50000186133C50000182
:10F3B60087133D500001881352500001851353C036
:10F3C6008AF054C03AF03B6A3C6A3D6A3AC03DF066
:10F3D6003C6A3B6A3A6A3AC08BF03BC08CF03CC050
:10F3E6008DF03DC08EF055C03AF03B6A3C6A3D6AEE
:10F3F6003BC03DF03AC03CF03B6A3A6A3A500001E5
:10F406008B133B5000018C133C5000018D133D5073
:10F4160000018E1356C03AF03B6A3C6A3D6A3CC016
:10F426003DF03BC03CF03AC03BF03A6A3A5000012E
:10F436008B133B5000018C133C5000018D133D5043
:10F4460000018E13575000018B1358500F0B3A6E64
:10F45600595000018F6F3AC090F05A50FE0B0001D0
:10F46600916F8D84C69A45C0D3FF46C09BFF04D0DA
:10F47600100EE82EFED700D0D3A4FAD7100EA2ECB9
:10F4860067F0010E0001A46F000E0001A06F000ED0
:10F49600A16F000EA26F000EA36F000E00019C6FFD
:10F4A600000E9D6F000E9E6F000E9F6F010E0001F5
:10F4B600AD6F000E0001A96F000EAA6F000EAB6FB4
:10F4C600000EAC6F000E0001A56F000EA66F000EB9
:10F4D600A76F000EA86F010E00019B6F1200420E6F
:10F4E600526E000E536E21EF7FF0250E6718D8B4CA
:10F4F60005D0675047EC66F021EF7FF0000E616E95
:10F50600000E606E000E5F6E000E5E6E03D05E84AF
:10F51600404A412A40C0F6FF41C0F7FF0800F550B7
:10F52600300AD8B4F4D740C0F6FF41C0F7FF080050
:10F53600F550B7EC66F0D8A032D0000E616E000E22
:10F54600606E60C00FF061C010F0000E126E0A0E01
:10F55600116E1EEC67F00FC060F010C061F0D00EA7
:10F56600486EFF0E496E40C0F6FF41C0F7FF080027
:10F57600F5504A6E4B6A48504A2649504B224A502B
:10F5860060264B506122404A412A40C0F6FF41C0E6
:10F59600F7FF0800F550B7EC66F0D8B0D2D740C0F8
:10F5A600F6FF41C0F7FF0800F5502E0AD8A42ED06A
:10F5B6005F8C404A412A000E666E000E656E1BD0B7
:10F5C60065C00FF066C010F0000E126E0A0E116EC6
:10F5D6001EEC67F040C0F6FF41C0F7FF0800F5508B
:10F5E6000F26000E1022D00E0F24656EFF0E10207F
:10F5F600666E404A412A40C0F6FF41C0F7FF080048
:10F60600F550B7EC66F0D8A009D0DAD7000E666ED2
:10F61600000E656E5F8802D05F8413D040C0F6FF8F
:10F6260041C0F7FF404A412A0800F5CF67F067500E
:10F63600000AD8B41200660AD8B4EED71E0AD8A4B7
:10F64600FDD3070E5F14D8B4EED25FA804D0000E27
:10F65600666E060E656E52C0D9FF53C0DAFFDECF66
:10F6660062F0DECF63F0DDCF64F0030E5226000EAB
:10F67600532264AE10D062C001F063C002F064C0D1
:10F6860003F0D6EC66F001C062F002C063F003C07E
:10F6960064F0030E5E12000E5D6E000E5C6E62502C
:10F6A60063106410D8B483D0820E486EFF0E496E84
:10F6B60062C04AF063C04BF064C04CF065C04DF0C8
:10F6C600100E05D0D8904D324C324B324A32E82ECD
:10F6D600F9D74A5048245C6E000E49205D6E5C06E0
:10F6E600D8A05D065CC00FF05DC010F0000E126E73
:10F6F600030E116E1EEC67F00FC05CF010C05DF0DB
:10F706005CC007F05DC008F0000E0A6E0A0E096EB6
:10F7160068EC6AF007C05CF008C05DF05DAE03D02F
:10F726005C06D8A05D065C5000086BEC74F024C043
:10F7360058F025C059F026C05AF058C015F059C0E7
:10F7460016F05AC017F062C018F063C019F064C012
:10F756001AF0DEEC6CF015C058F016C059F017C060
:10F766005AF058C001F059C002F05AC003F0000E1A
:10F77600046E800E056E3F0E066EECEC6AF0D8B095
:10F7860004D05C06D8A05D0612D058C001F059C05E
:10F7960002F05AC003F0000E046E200E056E410EF4
:10F7A600066EECEC6AF0D8A002D05C4A5D2A66BE12
:10F7B60006D066501BE10D0E655CD8B017D062C04E
:10F7C6002EF063C02FF064C030F0655014EC72F078
:10F7D60024C031F025C032F026C033F03EEC71F083
:10F7E6002EC062F02FC063F030C064F05DBE06D05C
:10F7F6005D501EE10A0E5C5CD8B01AD062506310F0
:10F806006410D8B451D062C02BF063C02CF064C031
:10F816002DF064EC6CF02B502C102D102E10D8B45B
:10F826005DBE42D05D5004E1020E5C5CD8A03CD0C7
:10F8360058C001F059C002F05AC003F0700E046EB1
:10F84600890E056E400E066EECEC6AF0D8B002D05A
:10F85600F70E01D0F80E5C26FF0E5D225C506BECB5
:10F8660074F024C058F025C059F026C05AF062C082
:10F8760001F063C002F064C003F058C004F059C040
:10F8860005F05AC006F07BEC6EF001C054F002C0E1
:10F8960055F003C056F004C057F0000E626E000E1D
:10F8A600636E000E646E32D062C02BF063C02CF023
:10F8B60064C02DF064EC6CF02BC054F02CC055F0F5
:10F8C6002DC056F02EC057F062C03AF063C03BF030
:10F8D60064C03CF054C009F055C00AF056C00BF0A5
:10F8E60057C00CF04EEC68F009C03DF00AC03EF07F
:10F8F6000BC03FF0DBEC67F03AC062F03BC063F050
:10F906003CC064F0000E5D6E000E5C6E010E676E0C
:10F916000A0E6718D8B418D06750040D5F0EF3248A
:10F92600F66EFE0EF420F76E0900F550545C0900E1
:10F93600F55055580900F55056580900F5505758D6
:10F94600D8A002D0672AE4D767C048F0496A48BE03
:10F95600490665504826665049225C5048265D5047
:10F9660049224850605E4950615A65506610D8B4C5
:10F9760003D06006D8A06106030E5E14486E000E22
:10F986005F14496E48504910D8B403D06006D8A019
:10F9960061065EA422D0030E5E14486E000E5F144C
:10F9A600496E48504910D8B40AD02D0E47EC66F07F
:10F9B60006D0300E47EC66F06006D8A0610661BE40
:10F9C60065D06150F6E16004D8A060D0F2D7200E71
:10F9D60047EC66F06006D8A0610661BE05D06150AE
:10F9E600F6E16004D8B0F3D7030E5E14486E000E3D
:10F9F6005F14496E48504910D8B448D02D0E47ECD4
:10FA060066F044D054C001F055C002F056C003F071
:10FA160057C004F06750040D5F0EF324F66EFE0E19
:10FA2600F420F76E0900F5CF05F00900F5CF06F0D2
:10FA36000900F5CF07F00A00F5CF08F027EC6AF0C9
:10FA460001C058F002C059F003C05AF004C05BF080
:10FA560058C001F059C002F05AC003F05BC004F070
:10FA66000A0E056E000E066E000E076E000E086E7C
:10FA7600DBEC68F001C058F002C059F003C05AF040
:10FA860004C05BF05850300F47EC66F067066728F5
:10FA9600D8B407D0B7D7300E47EC66F05C06D8A0CE
:10FAA6005D065DBE05D05D50F6E15C04D8B0F3D7C7
:10FAB60066BE09D0665004E1090E655CD8A003D085
:10FAC600080E676E02D065C067F06750655E000E6F
:10FAD60067BEFF0E665A6750D8B403D02E0E47ECA9
:10FAE60066F067506BEC74F024C04EF025C04FF002
:10FAF60026C050F062C018F063C019F064C01AF056
:10FB06004EC015F04FC016F050C017F0DEEC6CF08A
:10FB160015C02BF016C02CF017C02DF064EC6CF05D
:10FB26002BC054F02CC055F02DC056F02EC057F007
:10FB36006AD054C001F055C002F056C003F057C059
:10FB460004F06750040D5F0EF324F66EFE0EF420EB
:10FB5600F76E0900F5CF05F00900F5CF06F00900AC
:10FB6600F5CF07F00A00F5CF08F027EC6AF001C0E0
:10FB760058F002C059F003C05AF004C05BF058C0F8
:10FB860001F059C002F05AC003F05BC004F00A0E3F
:10FB9600056E000E066E000E076E000E086EDBEC9C
:10FBA60068F001C058F002C059F003C05AF004C012
:10FBB6005BF05850300F47EC66F054C001F055C06A
:10FBC60002F056C003F057C004F06750040D5F0EF4
:10FBD600F324F66EFE0EF420F76E0900F5CF05F05D
:10FBE6000900F5CF06F00900F5CF07F00A00F5CFBA
:10FBF60008F0DBEC68F001C054F002C055F003C019
:10FC060056F004C057F067066728D8B407D091D7D6
:10FC1600300E47EC66F06506D8A06606655066109D
:10FC2600D8B40CD1F5D752C0D9FF53C0DAFFDECF16
:10FC360048F0DDCF49F048C054F049C055F0566A47
:10FC4600576A020E5226000E532265506610D8A43B
:10FC560008D05450551056105710D8A402D0654AF3
:10FC6600662A010E676E080E6718D8B418D067505A
:10FC7600040DD50EF324F66EFE0EF420F76E090081
:10FC8600F550545C0900F55055580900F550565882
:10FC96000900F5505758D8A002D0672AE4D7800E3D
:10FCA60067BE7F0E486E6550675C6650800A48588E
:10FCB600D8B003D065C067F010D06650800A486E91
:10FCC6006750655C800E67BE7F0E4858D8B005D079
:10FCD6006750656E666A65BE660660506110D8B488
:10FCE6000DD0030E5E14486E000E5F14496E485028
:10FCF6004910D8B403D06006D8A061065FAC13D013
:10FD06006050655C6650800A486E6150800A4858AB
:10FD1600D8B005D06550605E6650615A04D0000EBA
:10FD2600616E000E606E800E67BE7F0E486E60507C
:10FD3600675C6150800A4858D8B007D06750605E4B
:10FD4600000E67BEFF0E615A04D0000E616E000EF3
:10FD5600606E5EA418D0030E5E14486E000E5F142B
:10FD6600496E48504910D8B403D02D0E47EC66F0C2
:10FD760060506110D8B45AD0300E47EC66F0600679
:10FD8600D8A06106F5D760506110D8B40AD0200E0D
:10FD960047EC66F06006D8A0610660506110D8A4F2
:10FDA600F6D7030E5E14486E000E5F14496E485077
:10FDB6004910D8B43BD02D0E47EC66F037D054C06E
:10FDC60001F055C002F056C003F057C004F065C0FC
:10FDD60048F066C049F0D89048364936D89048363B
:10FDE6004936D50E4824F66EFE0E4920F76E0900F8
:10FDF600F5CF05F00900F5CF06F00900F5CF07F0BD
:10FE06000A00F5CF08F027EC6AF001500F0B516E8F
:10FE16005150010D870EF324F66EFF0EF420F76E97
:10FE26000800F5CF67F0675047EC66F06506D8A086
:10FE360066066528C4E16628D8A4C1D740C0F6FF87
:10FE460041C0F7FF404A412A0800F5CF67F06750E6
:10FE5600D8B4120078EF7AF000010000000A000022
:10FE66000064000000E803000010270000A08601DF
:10FE76000040420F008096980000E1F50500CA9AFE
:10FE86003B00803F00204100C842007A44401C46A7
:10FE960050C34724744997184BBCBE4C6B6E4E0337
:10FEA600155079AD60F3497100803FCDCC3DD72325
:10FEB6003C12833AB7D138C62737388635C0D63391
:10FEC600CC2B32708930E7DB2EE53C1E42A20D01B9
:10FED60000000010000000000100000010000000FB
:10FEE60000010000001000000000010000001000EA
:10FEF6000102070304050706070707070707074860
:10FF0600656C6C6F20776F726C6421004559230015
:10FF160031121882004B00FF00000000FF000000B5
:10FF2600FFFF00008CFF00FFFFFF008080800000C5
:10FF3600000000D30094000000FF005010000410E1
:10FF4600FDFCFE0401002917163A37262120191850
:10FF56001211100D0C0A098708019500C7C5C4C304
:10FF6600C2C1C0B4B3B2B13A3938363534302C2BAD
:10FF76002A29282621201312111001008080A08032
:10FF8600403031323334353637383961626364652F
:10FF9600660053442043617264207375636365731E
:10FFA600732100253032782F253032782F253032D4
:10FFB6007800253032783A253032783A2530327852
:10FFC6000053697A653A2025302E356600507265F1
:10FFD60073732061206B657900424F41524420546F
:10FFE600455354005241323A20252E33780052416F
:09FFF600333A20252E3378000077
:020000040020DA
:08000000FFFFFFFFFFFFFFFF00
:020000040030CA
:0E000000FF021F1EFF8381FF0F400FE00F4025
:00000001FF
