:0400000007EF00F016
:100008004C8209ED00F051EF02F00600FACF04F03F
:10001800FBCF05F0E9CF06F0EACF07F0E1CF08F013
:10002800E2CF09F0D9CF0AF0DACF0BF0F3CF0CF01A
:10003800F4CF0DF0F6CF0EF0F7CF0FF0F8CF10F0A9
:10004800F5CF11F09EA844D0000EF2BE010E296E25
:10005800F29E20EE03F04750D9264850DA22DF50AE
:10006800016E0150010D47C0D9FF48C0DAFFDECF4D
:1000780002F0DDCF03F0F3500224D96EF4500320D0
:10008800DA6EDF50AD6E29B002D0F29E01D0F28E4A
:1000980020EE03F04750D9264850DA22DF2A20EE16
:1000A80002F04750D9264850DA2210EE03F04750A4
:1000B800E1264850E222DE50E618D8A409D09D98DF
:1000C80020EE08F04750D9264850DA22010EDF6E9C
:1000D8009EAA65D0ABA408D020EE0AF04750D926D6
:1000E8004850DA22010E07D020EE0AF04750D926F0
:1000F8004850DA22000EDF6E000EF2BE010E296EA5
:10010800F29E20EE07F04750D9264850DA22DF50F9
:10011800016E0150010D20EE04F04750D9264850D9
:10012800DA22DECF02F0DDCF03F0F3500224D96EDD
:10013800F4500320DA6EAECFDFFF29B002D0F29E72
:1001480001D0F28EABA203D0AB98AB8808D020EEDA
:100158000BF04750D9264850DA22000EDF6E20EE09
:1001680007F04750D9264850DA22DF2A20EE06F059
:100178004750D9264850DA2210EE07F04750E126BA
:100188004850E222DE50E65CD8A009D09D9A20EEC5
:1001980009F04750D9264850DA22010EDF6E11C007
:1001A800F5FF10C0F8FF0FC0F7FF0EC0F6FF0DC037
:1001B800F4FF0CC0F3FF0BC0DAFF0AC0D9FF09C077
:1001C800E2FF08C0E1FF07C0EAFF06C0E9FF05C07B
:1001D800FBFF04C0FAFF4C921100000E1B6E19AE13
:1001E8000AD0191E181E171E166C000E1722182288
:1001F8001922010E1B6E15AE0AD0151E141E131EF1
:10020800126C000E132214221522010E1B1A000E66
:100218001C6E000E1D6E000E1E6E000E1F6E165018
:10022800171018101910D8B42AD0010E1A6E06D05B
:10023800D89016361736183619361A2A19AEF8D73E
:10024800D8901C361D361E361F361650125C1750B5
:1002580013581850145819501558D8A009D01650CA
:10026800125E1750135A1850145A1950155A1C80F8
:10027800D89019321832173216321A2EE1D71B507D
:10028800D8B408D01F1E1E1E1D1E1C6C000E1D2279
:100298001E221F221CC012F01DC013F01EC014F035
:1002A8001FC015F0120020EE08F04750D92648501C
:1002B800DA22DF50D8B4F7D720EE08F04750D92615
:1002C8004850DA22000EDF6E000E166EAC8A0D0E54
:1002D800156EFC0EE82EFED7152EFCD723D0ACB237
:1002E80002D0010E01D0000E156E9EB802D0010E8C
:1002F80001D0000E1510F3E100F0000EF2BE010E61
:10030800296EF29E1650010DF3501224D96EF45046
:100318001320DA6EDF50AD6E29B002D0F29E01D004
:10032800F28E162A1450165CD8A0D9D720EE08F001
:100338004750D9264850DA22010EDF6E1200000E0F
:10034800126E120E136E7A0E146E000E156E20C009
:1003580060F021C061F022C062F023C063F0060E95
:10036800D89000016037613762376337E82EF8D7D5
:1003780060C016F061C017F062C018F063C019F0D1
:10038800F1EC00F01204AF6EAC9CAC98AC8AAB9C5C
:10039800AB8820EE08F04750D9264850DA22010EE3
:1003A800DF6E20EE09F04750D9264850DA22010EB8
:1003B800DF6E2A0E3E6E000E3F6E949C948EAB8EBE
:1003C8001200000E126E030E126401D032D01250C9
:1003D800D8A402D0100E10D01204D8A402D0200E37
:1003E8000BD0020E1218D8A402D0400E05D0030E6E
:1003F8001218D8A402D0800E8A6E81A004D01250A0
:10040800040DF350120081A204D01250040DF328F9
:10041800120081A405D01250040DF350020F1200EF
:1004280081A605D01250040DF350030F1200122AB2
:10043800CAD7F00E1200E5EC01F0466EF00E461831
:10044800D8B41200340E176EF20EE82EFED7172E0F
:10045800FCD7E5EC01F04618D8A41200460E126E3F
:10046800000E136E010E146E57EC01F008D0460E04
:10047800126E000E136E010E146E57EC01F0E5ECCF
:1004880001F04618D8B4F3D74B0E126E000E136E57
:10049800010E146E57EC01F01200420EF66E050EB6
:1004A800F76E000EF86E00EE47F010EE05F009004A
:1004B800F5CFEEFFE550E150FAE100EE25F0220E0F
:1004C800EE6AE806FDE14C904C92000EF86E0001D1
:1004D8006EEF02F088EC02F0800E206E250E216E81
:1004E800000E226E000E236EA3EC01F0AC8A0D0EF6
:1004F800246EFC0EE82EFED7242EFCD7EF0E926E4B
:1005080089881FEC02F0FDD7D388D38AD38CD38295
:10051800D390DF0E926E0F0E936E800E946E000EC7
:10052800896EF00E8A6E800E8B6E0F0EC16EC290B1
:0F053800F28C9D9CD09EF29E12003A00F001F0D2
:020000040020DA
:08000000FFFFFFFFFFFFFFFF00
:020000040030CA
:0E000000340B3F1EFF8181FF0FC00FE00F4049
:00000001FF
