:0400000045EF09F0CF
:10100000003132334134353642373839432A3023C0
:09101000440050104000041000DF
:10101A00000E8C6E000E956E0F0EC16E800E136E52
:10102A00250E146E000E156E000E166E800E016EE1
:10103A00960E026E980E036E000E046E13C00FF029
:10104A0014C010F015C011F016C012F0060ED89098
:10105A000F36103611361236E82EF9D70FC005F0C2
:10106A0010C006F011C007F012C008F081EC08F0B9
:10107A000104AF6EAC9CAC98AC8A110E0F6E3A0E9E
:10108A00E82EFED70F2EFCD700D0AB9CAB88949CE1
:10109A00948EAB8EE7EC08F081A29EBA01D0FCD701
:1010AA009EAA09D0AECF17F0ABA202D0AB98AB88FC
:1010BA0017504CEC09F081A2EFD781380F0B0F0BB8
:1010CA00186E81B2FED7ACB202D0010E01D0000E6A
:1010DA000F6E9EB802D0010E01D0000E0F10F3E180
:1010EA001850010D010EF324F66E100EF420F76E5F
:1010FA000800F5CFADFFD0D7000E0A6E08AE0AD0B1
:10110A00081E071E061E056C000E0622072208226C
:10111A00010E0A6E04AE0AD0041E031E021E016CE2
:10112A00000E022203220422010E0A1A000E0B6E7E
:10113A00000E0C6E000E0D6E000E0E6E055006109F
:10114A0007100810D8B42AD0010E096E06D0D8901C
:10115A000536063607360836092A08AEF8D7D89073
:10116A000B360C360D360E360550015C0650025809
:10117A000750035808500458D8A009D00550015EFA
:10118A000650025A0750035A0850045A0B80D89046
:10119A000832073206320532092EE1D70A50D8B48E
:1011AA0008D00E1E0D1E0C1E0B6C000E0C220D22FA
:1011BA000E220BC001F00CC002F00DC003F00EC0ED
:1011CA0004F01200310E056EB20EE82EFED7052E7F
:1011DA00FCD700D08C94030E31EC09F0110E056E89
:1011EA003A0EE82EFED7052EFCD700D0030E31ECBE
:1011FA0009F07D0EE82EFED7320E3CEC09F0280EDF
:10120A003CEC09F0080E3CEC09F0010E3CEC09F04C
:10121A00110E056E3A0EE82EFED7052EFCD700D029
:10122A00060E3CEC09F00F0E52EC09F01200000E0B
:10123A00F2BE010E016EF29E8C86140EE82EFED7C7
:10124A0000D08C96530EE82EFED700F001B002D0E3
:10125A00F29E01D0F28E1200026E8C500F0B8C6E31
:10126A000238F00B8C108C6E1CEC09F01200036E25
:10127A0003380F0B31EC09F0035031EC09F012007E
:10128A00000EF86E100EF76E00010DEF08F0046EF6
:10129A008C8404503CEC09F01200046E8C940450C7
:0612AA003CEC09F012000B
:020000040020DA
:08000000FFFFFFFFFFFFFFFF00
:020000040030CA
:0E000000FF021F1EFF8381FF0F400FE00F4025
:00000001FF
