:020000040000FA
:0400000007EF00F016
:100008006E8261ED1DF09CEF1CF0000E596E000E23
:10001800586E000E8C6E000E956E000E956EF08672
:10002800C9EC1BF0F28EA00E00018D6F860E8E6F4C
:10003800010E8F6F000E906F6CEC1CF0F1EC1EF04F
:10004800000E0001826F100E816FE8EC1EF0EDECDF
:100058001EF00101D951DA11D8A4DCD35850591037
:10006800D8A4D8D3010EE0EC1EF0110E0101006FE8
:100078003A0EE82EFED7002FFCD700F0C50E00017F
:10008800ED6FFF0EEE6F7AEC1EF0C00EE0EC1EF086
:10009800470E0001ED6FFF0EEE6F7AEC1EF0900E2A
:1000A800E0EC1EF06D0E0001ED6FFE0EEE6F7AECC7
:1000B8001EF0B0D36D50D8B4ADD30101E551D8B41A
:1000C800A9D3000EDA6F010ED96F000EE56F8138E3
:1000D8000F0B0F0B546F9D0E5425F66EF76AFD0E2D
:1000E800F7220800F5CFFFF0D00E0001FF2501012F
:1000F800E16FE26BFF0EE223E151E211D8A42BD0AD
:10010800000EE06F000EDF6F010EE0EC1EF0110E26
:100118000101006F3A0EE82EFED7002FFCD700F041
:10012800C50E0001ED6FFF0EEE6F7AEC1EF0C00EEB
:10013800E0EC1EF0470E0001ED6FFF0EEE6F7AEC5B
:100148001EF0900EE0EC1EF06D0E0001ED6FFE0E3D
:10015800EE6F7AEC1EF00101E105E211D8A441D05E
:100168002A0E0001FF19D8B43CD0230EFF19D8B4C9
:1001780038D0000E0101E06F000EDF6F010EE0ECD9
:100188001EF0110E0101006F3A0EE82EFED7002F67
:10019800FCD700F08B0E0001ED6FFE0EEE6F7AECCF
:1001A8001EF0D00EE0EC1EF0C60E0001ED6FFD0E45
:1001B800EE6F7AEC1EF0F1EC1EF0000E0001826F7B
:1001C800100E816FE8EC1EF0000E0001826F310EF8
:1001D800816FE8EC1EF0EDEC1EF0000E596E010E7A
:1001E800586E020E0101E119E211D8B405D0020ED1
:1001F800DF19E011D8A453D2020EE119E211D8A4F4
:1002080033D0000EE06F020EDF6F000EDE6F000EBF
:10021800DD6F010EE0EC1EF0110E0101006F3A0EC9
:10022800E82EFED7002FFCD700F0E30E0001ED6F9B
:10023800FF0EEE6F7AEC1EF0C00EE0EC1EF0C30E5F
:100248000001ED6FFE0EEE6F000EF06F000EEF6F07
:100258007AEC1EF0D00EE0EC1EF00B0E0001ED6FF4
:10026800FE0EEE6F7AEC1EF02A0E0001FF19D8A4DC
:100278000BD00101DD51DE11D8B406D0FF0EDD250B
:10028800DD6FFF0EDE21DE6F230E0001FF19D8A4FB
:100298000BD00101DEBF06D0DE5106E10C0EDD5D9C
:1002A800D8B002D0DD4BDE2B0101DD51DE11D8A420
:1002B8002BD0010EE0EC1EF0110E0101006F3A0E7A
:1002C800E82EFED7002FFCD700F0E30E0001ED6FFB
:1002D800FF0EEE6F7AEC1EF0C00EE0EC1EF0C30EBF
:1002E8000001ED6FFE0EEE6F000EF06F000EEF6F67
:1002F8007AEC1EF0D00EE0EC1EF00A0E0001ED6F55
:10030800FE0EEE6F7AEC1EF00101DD05DE11D8A4B9
:100318002FD0010EE0EC1EF0110E0101006F3A0E15
:10032800E82EFED7002FFCD700F0D40E0001ED6FA9
:10033800FE0EEE6FFBC0EFF0FCC0F0F07AEC1EF0A2
:10034800C00EE0EC1EF0C60E0001ED6FFE0EEE6F63
:10035800FDC0EFF0FEC0F0F07AEC1EF0D00EE0EC3D
:100368001EF01B0E0001ED6FFE0EEE6F7AEC1EF014
:100378000101DEBFCED0DE5104E1020EDD5DD8A062
:10038800C8D0DEBF06D0DE5103E10B0EDD5DD8B06C
:10039800C0D0FE0EDD25DB6FFF0EDE21DC6F010E07
:1003A800E0EC1EF0110E0101006F3A0EE82EFED7A8
:1003B800002FFCD700F0B40E0001ED6FFD0EEE6FBC
:1003C800010E0101DB250001EF6F000E0101DC21A8
:1003D8000001F06FDBC100F1DCC101F10101D8902F
:1003E80000370137D89000370137D89000370137E8
:1003F800040E0025D96E010E0121DA6EDECFF1F070
:10040800DDCFF2F0DBC102F1DCC103F1D890023795
:100418000337D89002370337D89002370337020ED4
:100428000227000E0323040E0225D96E010E0321B4
:10043800DA6EDECFF3F0DDCFF4F07AEC1EF0C00E0A
:10044800E0EC1EF07C0E0001ED6FFE0EEE6F010E6B
:100458000101DB250001EF6F000E0101DC21000125
:10046800F06FDBC100F1DCC101F10101D890003768
:100478000137D89000370137D89000370137040E7C
:100488000027000E0123040E0025D96E010E01215C
:10049800DA6EDECFF1F0DDCFF2F07AEC1EF0900EDE
:1004A800E0EC1EF03B0E0001ED6FFF0EEE6F010E4B
:1004B8000101DB250001EF6F000E0101DC210001C5
:1004C800F06FDBC100F1DCC101F10101D890003708
:1004D8000137D89000370137D89000370137060E1A
:1004E8000027000E0123040E0025D96E010E0121FC
:1004F800DA6EDECFF1F0DDCFF2F07AEC1EF0D00E3E
:10050800E0EC1EF01B0E0001ED6FFE0EEE6F7AECB4
:100518001EF00B0E0101DD19DE11D8A4C0D0FE0EAD
:10052800DD25DB6FFF0EDE21DC6F010EE0EC1EF037
:10053800110E0101006F3A0EE82EFED7002FFCD7EE
:1005480000F0B40E0001ED6FFD0EEE6F010E01011B
:10055800DB250001EF6F000E0101DC210001F06FC7
:10056800DBC100F1DCC101F10101D890003701378E
:10057800D89000370137D89000370137040E00258E
:10058800D96E010E0121DA6EDECFF1F0DDCFF2F087
:10059800DBC102F1DCC103F1D89002370337D890F0
:1005A80002370337D89002370337020E0227000EAE
:1005B8000323040E0225D96E010E0321DA6EDECF65
:1005C800F3F0DDCFF4F07AEC1EF0C00EE0EC1EF094
:1005D8007C0E0001ED6FFE0EEE6F010E0101DB25B2
:1005E8000001EF6F000E0101DC210001F06FDBC19B
:1005F80000F1DCC101F10101D89000370137D89032
:1006080000370137D89000370137040E0027000E55
:100618000123040E0025D96E010E0121DA6EDECF0A
:10062800F1F0DDCFF2F07AEC1EF0900EE0EC1EF067
:100638003B0E0001ED6FFF0EEE6F010E0101DB2591
:100648000001EF6F000E0101DC210001F06FDBC13A
:1006580000F1DCC101F10101D89000370137D890D1
:1006680000370137D89000370137060E0027000EF3
:100678000123040E0025D96E010E0121DA6EDECFAA
:10068800F1F0DDCFF2F07AEC1EF0D00EE0EC1EF0C7
:10069800D70E0001ED6FFD0EEE6F7AEC1EF0030E23
:1006A8000101E119E211D8A4B5D0000EE06F000EE7
:1006B800DF6F000E556F000E566F000E576F000E5D
:1006C800586FA5D055C180F056C181F057C182F04E
:1006D80058C183F0E80E0001846F030E856F000E89
:1006E800866F000E876F38EC1CF000018051811175
:1006F80082118311D8A484D0010EE0EC1EF0110EF3
:100708000101006F3A0EE82EFED7002FFCD700F04B
:10071800170E0001ED6FFF0EEE6F7AEC1EF0A00EC3
:1007280000018D6F860E8E6F010E8F6F000E906F19
:100738006CEC1CF0F1EC1EF0000E0001826FD00E84
:10074800816FE8EC1EF0000E0001826F000E816FD1
:10075800E8EC1EF0EDEC1EF0F1EC1EF0000E0001CE
:10076800826FD10E816FE8EC1EF0000E0101596F07
:10077800050E596501D00DD0D20E5925D96EDA6A09
:10078800010EDA22000E65EC1EF0DF6E0101592B16
:10079800EFD7010E65EC1EF00101D86FEDEC1EF0ED
:1007A800C00EE0EC1EF09A0E0001ED6FFE0EEE6F2B
:1007B800D8C1EFF0F06BD7C1F1F0F26BD6C1F3F00E
:1007C800F46B7AEC1EF0900EE0EC1EF0A90E00011E
:1007D800ED6FFE0EEE6FD4C1EFF0F06BD3C1F1F008
:1007E800F26BD2C1F3F0F46B7AEC1EF0D00EE0ECB1
:1007F8001EF0C60E0001ED6FFD0EEE6F7AEC1EF0D6
:10080800010E01015527000E562357235823E505ED
:10081800D8A458D758505910D8A412004BD4000E59
:100828000101C16F000EC06F000E956EF28E0F0EA3
:10083800C16EC9EC1BF0100ECD6E000E0101C56F24
:10084800000EC46F000EC66F000EC76F000EC86F93
:10085800000EC96F929889A802D0808801D080982C
:10086800000E0101B96F582803E15928D8B40BD0FC
:10087800000E0001FC6F000EFB6F000EFE6F000EF5
:10088800FD6F09EC00F089A802D0808801D080981B
:100898000101C5BF06D0C55103E10A0EC45DD8B039
:1008A80073D2C4C15AF1C5C15BF1D8905A375B37CE
:1008B800D8905A375B37D8905A375B37040E5A2787
:1008C800000E5B23620E5A25D96E010E5B21DA6E8B
:1008D800010EDBBE92D0A00EDE5C0F0EDE58D8A053
:1008E8008CD052D2000E0101BF6F050EBE6F010EF3
:1008F800E0EC1EF0110E01015A6F3A0EE82EFED7F9
:100908005A2FFCD700F0020E0001ED6FFF0EEE6FBC
:100918007AEC1EF080B813D0010EE0EC1EF0110E38
:1009280001015A6F3A0EE82EFED75A2FFCD700F075
:10093800FD0E0001ED6FFE0EEE6F7AEC1EF080A842
:1009480016D0010EE0EC1EF0110E01015A6F3A0E9E
:10095800E82EFED75A2FFCD700F0BB0E0001ED6F32
:10096800FF0EEE6F7AEC1EF0010E0101B96F010166
:10097800B951D8B442D0010EE0EC1EF0110E0101BD
:100988005A6F3A0EE82EFED75A2FFCD700F0A70E62
:100998000001ED6FFF0EEE6F7AEC1EF0B5EC12F071
:1009A800FCC0B2F1FDC0B3F1010EE0EC1EF0110E77
:1009B80001015A6F3A0EE82EFED75A2FFCD700F0E5
:1009C800230E0001ED6FFF0EEE6FB2C1EFF0B3C161
:1009D800F0F07AEC1EF044C0FBF045C0FCF0C4C156
:1009E800FDF0C5C1FEF0AEEC10F0FBC0BEF1FCC0DE
:1009F800BFF1000E596E000E586E58505910D8A409
:100A080071D7000E0101B86FBFBF06D0BF515DE1BD
:100A1800030EBE5DD8B059D0C1BF06D0C15129E17F
:100A2800080EC05DD8B025D0000EBB6F010EBA6F9E
:100A3800CDEC19F0000E0101B56F000EB46F0FD0A8
:100A4800BAC10EF1BBC10FF1000E116F6E0E106F1F
:100A580072EC15F00101C04BC12BB44BB52BBE5144
:100A6800B45DB551800A5A6FBF51800A5A59D8A04F
:100A7800E7D7C1BF28D0C15104E1080EC05DD8A096
:100A880022D0000EBB6F020EBA6F000EB76F000EB9
:100A9800B66F0FD0BAC10EF1BBC10FF1000E116FC6
:100AA8006E0E106F72EC15F00101C04BC12BB64BE6
:100AB800B72BBE51B65DB751800A5A6FBF51800A35
:100AC8005A59D8A0E7D7010EB86FB851D8B4AAD1EF
:100AD800C4C15AF1C5C15BF1D8905A375B37D89079
:100AE8005A375B37D8905A375B37060E5A27000EAD
:100AF8005B23620E5A25D96E010E5B21DA6E44C063
:100B0800DEFF45C0DDFFC65144245A6FC75145205A
:100B18005B6FC4C15CF1C5C15DF1D8905C375D37CE
:100B2800D8905C375D37D8905C375D37040E5C270A
:100B3800000E5D23620E5C25D96E010E5D21DA6E12
:100B48005AC1DEFF5BC1DDFF010EE0EC1EF0110EA5
:100B580001015A6F3A0EE82EFED75A2FFCD700F043
:100B68002C0E0001ED6FFE0EEE6FC4C1EFF0C5C193
:100B7800F0F0C4C15AF1C5C15BF10101D8905A37F0
:100B88005B37D8905A375B37D8905A375B37060EA1
:100B98005A27000E5B23620E5A25D96E010E5B217F
:100BA800DA6EDECFF1F0DDCFF2F044C0F3F045C0ED
:100BB800F4F046C0F5F047C0F6F07AEC1EF0C00E2F
:100BC800E0EC1EF0B80E0001ED6FFE0EEE6FC4C132
:100BD800EFF0C5C1F0F0C4C15AF1C5C15BF1010124
:100BE800D8905A375B37D8905A375B37D8905A37EE
:100BF8005B37040E5A27000E5B23620E5A25D96E06
:100C0800010E5B21DA6EDECFF1F0DDCFF2F07AEC87
:100C18001EF0270E01015B6F0D0E5A6F260EE82E8F
:100C2800FED75A2FFCD75B2FFAD700F044C0C6F185
:100C380045C0C7F146C0C8F147C0C9F10101C44B5E
:100C4800C52BF2EC1CF0000E0101B96F010EE0ECAF
:100C58001EF0110E01015A6F3A0EE82EFED75A2FD8
:100C6800FCD700F02F0E0001ED6FFF0EEE6F44C0B1
:100C7800EFF045C0F0F046C0F1F047C0F2F07AEC72
:100C88001EF0530E0001ED6FFF0EEE6FC4C1EFF0C2
:100C9800C5C1F0F07AEC1EF0000E0101C36F000E22
:100CA800C26FC3BF06D0C3515DE1040EC25DD8B0A8
:100CB80059D0D890C235D96EC335DA6E380ED926D8
:100CC800000EDA22000EDE6E000EDD6ED890C23500
:100CD800D96EC335DA6E610ED926000EDA22000EFF
:100CE800DE6E000EDD6E400EC225D96E000EC321E9
:100CF800DA6E000EDF6E000EBD6F000EBC6FBDBF5A
:100D080006D0BD512CE1060EBC5DD8B028D0C2C1BA
:100D180080F0C3C181F0000E0001836F0C0E826F5A
:100D28008EEC1EF0500E01015A6F020E5B6F00012F
:100D3800805101015A270001815101015B23D8909C
:100D4800BC35D96EBD35DA6E5A51D9265B51DA22D7
:100D5800000EDE6E000EDD6EBC4BBD2BD0D7C24B35
:100D6800C32B9FD70D0E01015B6FAF0E5A6FB60EE6
:100D7800E82EFED75A2FFCD75B2FFAD700F0000ECB
:100D8800596E010E586E4ED0CDEC19F0010EE0EC04
:100D98001EF0110E01015A6F3A0EE82EFED75A2F97
:100DA800FCD700F0690E0001ED6FFF0EEE6F7AECD4
:100DB8001EF00D0E01015B6FAF0E5A6FB60EE82ED6
:100DC800FED75A2FFCD75B2FFAD700F0C0C1FBF033
:100DD800C1C1FCF0C4C1FDF0C5C1FEF009EC00F0D2
:100DE800A2EC1EF0010EE0EC1EF0110E01015A6F8C
:100DF8003A0EE82EFED75A2FFCD700F0B10E0001AC
:100E0800ED6FFF0EEE6F7AEC1EF00D0E01015B6FB9
:100E1800AF0E5A6FB60EE82EFED75A2FFCD75B2FAF
:100E2800FAD700F0000E0101BF6F050EBE6F2BD57B
:100E38005A045B10D8A4A2D081BECD8081BE37D021
:100E4800CD90AE0E136E470E146E6B0E156E420EDD
:100E5800166ECF50336E326ACE50346E356A3250C9
:100E680034123350351234C001F035C002F0000E90
:100E780002BEFF0E036E046E010ED2EC14F001C028
:100E88000FF002C010F003C011F004C012F02BECF8
:100E98000DF00FC028F010C029F011C02AF012C0C0
:100EA8002BF014EC19F028C061F029C062F062BE82
:100EB80065D0625004E1020E615CD8A05FD062BECA
:100EC80006D062505BE1C90E615CD8B057D04004CF
:100ED800D8B41BD0020150515111D8B416D0525178
:100EE8005311D8B412D054515511D8B40ED054510E
:100EF8005225326E55515321336E50513224386E7B
:100F080051513320396E010E406E4050D8B429D06B
:100F1800D8905034D96E5134DA6E500ED926020E5C
:100F2800DA22DECF32F0DDCF33F038C034F039C00A
:100F380035F03250345E3350355A61503424386EAF
:100F480062503520396E38C001F039C002F0000E09
:100F5800046E050E036E48EC1BF001C05AF202C085
:100F68005BF2D8905034D96E5134DA6E500ED926CF
:100F7800020EDA2261C0DEFF62C0DDFF020E5A18DF
:100F88005B10D8A4A4D081BCCD8081BC37D0CD90D3
:100F9800AE0E136E470E146E6B0E156E420E166E65
:100FA800CF50336E326ACE50346E356A32503412B6
:100FB8003350351234C001F035C002F0000E02BEC5
:100FC800FF0E036E046E010ED2EC14F001C00FF098
:100FD80002C010F003C011F004C012F02BEC0DF0A9
:100FE8000FC028F010C029F011C02AF012C02BF051
:100FF80014EC19F028C063F029C064F064BE67D00F
:10100800645004E1020E635CD8A061D064BE06D0CF
:1010180064505DE1C90E635CD8B059D04104D8B4BE
:101028001BD002015C515D11D8B416D05E515F111E
:10103800D8B412D060516111D8B40ED05E515C257D
:10104800326E5F515D21336E605132243A6E6151C8
:1010580033203B6E010E416E4150D8B42BD0D8904E
:101068005034D96E5134DA6E5C0ED926020EDA226B
:10107800DECF32F0DDCF33F020EE3AF0DECF34F0C1
:10108800DDCF35F03250345E3350355A6350342456
:101098003A6E645035203B6E3AC001F03BC002F016
:1010A800000E046E050E036E48EC1BF001C066F2DC
:1010B80002C067F2D8905034D96E5134DA6E5C0EA3
:1010C800D926020EDA2263C0DEFF64C0DDFF030EFC
:1010D8005A185B10D8A4A4D081BACD8081BA37D071
:1010E800CD90AE0E136E470E146E6B0E156E420E3B
:1010F800166ECF50336E326ACE50346E356A325027
:1011080034123350351234C001F035C002F0000EED
:1011180002BEFF0E036E046E010ED2EC14F001C085
:101128000FF002C010F003C011F004C012F02BEC55
:101138000DF00FC028F010C029F011C02AF012C01D
:101148002BF014EC19F028C065F029C066F066BED3
:1011580067D0665004E1020E655CD8A061D066BE17
:1011680006D066505DE1C90E655CD8B059D042041E
:10117800D8B41BD0020168516911D8B416D06A518D
:101188006B11D8B412D06C516D11D8B40ED06A510D
:101198006825326E6B516921336E6C5132243C6E76
:1011A8006D5133203D6E010E426E4250D8B42BD0A3
:1011B800D8905034D96E5134DA6E680ED926020EA2
:1011C800DA22DECF32F0DDCF33F020EE3CF0DECF96
:1011D80034F0DDCF35F03250345E3350355A655037
:1011E80034243C6E665035203D6E3CC001F03DC055
:1011F80002F0000E046E050E036E48EC1BF001C0F1
:1012080072F202C073F2D8905034D96E5134DA6E4B
:10121800680ED926020EDA2265C0DEFF66C0DDFF41
:10122800040E5A185B10D8A4120081B8CD8081B87A
:1012380037D0CD90AE0E136E470E146E6B0E156E32
:10124800420E166ECF50336E326ACE50346E356A07
:10125800325034123350351234C001F035C002F028
:10126800000E02BEFF0E036E046E010ED2EC14F0E7
:1012780001C00FF002C010F003C011F004C012F05A
:101288002BEC0DF00FC028F010C029F011C02AF087
:1012980012C02BF014EC19F028C067F029C068F0D0
:1012A80068BE1200685004E1020E675CD8A0120004
:1012B80068BE06D068505DE1C90E675CD8B0120000
:1012C8004304D8B41BD0020174517511D8B416D098
:1012D80076517711D8B412D078517911D8B40ED08C
:1012E80076517425326E77517521336E78513224D8
:1012F8003E6E795133203F6E010E436E4350D8B491
:101308002BD0D8905034D96E5134DA6E740ED92659
:10131800020EDA22DECF32F0DDCF33F020EE3EF0DF
:10132800DECF34F0DDCF35F03250345E3350355AED
:10133800675034243E6E685035203F6E3EC001F041
:101348003FC002F0000E046E050E036E48EC1BF061
:1013580001C07EF202C07FF2D8905034D96E513469
:10136800DA6E740ED926020EDA2267C0DEFF68C074
:10137800DDFF1200C8C0D9FFC9C0DAFFDECFF6FF13
:10138800DDCFF7FF0800F550250AD8A4ADD1C8C0B5
:10139800D9FFC9C0DAFFDE2A000EDD22000E4B6E2F
:1013A800000E4A6E4AC04EF04BC04FF04C684D6874
:1013B800000E0001E26F000E14D04E80C8C0D9FFA5
:1013C800C9C0DAFFDE2A000EDD222ED04E82F6D703
:1013D8004E84F4D74E86F2D74E88F0D7000EE26FCF
:1013E800010EE16F21D0C8C0D9FFC9C0DAFFDECF36
:1013F800F6FFDDCFF7FF0800F550CC6FCD6BCD5170
:10140800000AD8A4EBD7CC51200AD8B4E3D7030AF2
:10141800D8B4E2D7080AD8B4DBD7060AD8B4CDD7EF
:101428001D0AD8B4D3D7DAD7E151E211D8B4DBD743
:101438004EB04E92C8C0D9FFC9C0DAFFDECFF6FF62
:10144800DDCFF7FF0800F5502A0AD8A423D0C8C07A
:10145800D9FFC9C0DAFFDE2A000EDD22CAC0D9FFD3
:10146800CBC0DAFFDFCFCCF0020EDE26DFCFCDF027
:10147800000EDD22CCC0D9FFCDC0DAFFDECF4AF0A6
:10148800DDCF4BF04BAE40D04E804A6C4B1ED8B0EF
:101498004B2A3AD0C8C0D9FFC9C0DAFFDECF87F0DF
:1014A800DDCF88F030EC14F087C04AF088C04BF0EC
:1014B80007D0C8C0D9FFC9C0DAFFDE2A000EDD2276
:1014C800D00E0001CC6FFF0ECD6FC8C0D9FFC9C0C8
:1014D800DAFFDECFF6FFDDCFF7FF0800F550CE6F5D
:1014E800CF6BCC51CE27CD51CF23CF5106E10A0E79
:1014F800CE5DD8B002D0010E01D0000EE36FE46BD0
:10150800E351E411D8A4D5D7C8C0D9FFC9C0DAFFC0
:10151800DECFF6FFDDCFF7FF0800F550640AD8B438
:101528000DD0C8C0D9FFC9C0DAFFDECFF6FFDDCFC6
:10153800F7FF0800F550690AD8A43FD0C8C0D9FF02
:10154800C9C0DAFFDE2A000EDD22CAC0D9FFCBC02F
:10155800DAFFDFCFCCF0020EDE26DFCFCDF0000EB3
:10156800DD22CCC0D9FFCDC0DAFFDECFD0F0DDCF91
:10157800D1F0000ED1BFFF0ED26FD36FD46FD56FED
:10158800D66FD76FC6C09FF0C7C0A0F0D0C0A1F07B
:10159800D1C0A2F0D2C0A3F0D3C0A4F0D4C0A5F0AB
:1015A800D5C0A6F0D6C0A7F0D7C0A8F06FEC0EF053
:1015B8009FC0C6F0A0C0C7F01200C8C0D9FFC9C0FC
:1015C800DAFFDECFF6FFDDCFF7FF0800F550780A27
:1015D800D8B40DD0C8C0D9FFC9C0DAFFDECFF6FF36
:1015E800DDCFF7FF0800F550580AD8A44DD0C8C081
:1015F800D9FFC9C0DAFFDECFF6FFDDCFF7FF08005D
:10160800F5CFE0F0C8C0D9FFC9C0DAFFDE2A000E66
:10161800DD22CAC0D9FFCBC0DAFFDFCFCCF0020E83
:10162800DE26DFCFCDF0000EDD22CCC0D9FFCDC045
:10163800DAFFDECFCEF0DDCFCFF0CEC0D8F0CFC00E
:10164800D9F0DA6BDB6BDC6BDD6BDE6BDF6BC6C096
:101658009FF0C7C0A0F0D8C0A1F0D9C0A2F0DAC0EE
:10166800A3F0DBC0A4F0DCC0A5F0DDC0A6F0DEC0AE
:10167800A7F0DFC0A8F0E0C0A9F093EC0FF09FC07E
:10168800C6F0A0C0C7F01200C8C0D9FFC9C0DAFFB1
:10169800DECFF6FFDDCFF7FF0800F550250AD8A406
:1016A80017D0C8C0D9FFC9C0DAFFDE2A000EDD2274
:1016B800000E856F250E846FC6C086F0C7C087F000
:1016C80001EC1CF0000E0001C76F010EC66F12007E
:1016D800C8C0D9FFC9C0DAFFDE2A000EDD22000E1D
:1016E800C76F000EC66F1200C8C0D9FFC9C0DAFFA5
:1016F800DECFF6FFDDCFF7FF0800F5500001846F5D
:10170800856BC6C086F0C7C087F001EC1CF0C8C066
:10171800D9FFC9C0DAFFDE2A000EDD22D3D70001C7
:10172800FE6F0001FB05FC11D8A46BD0FE05D8A400
:1017380032D0030E896E1E0E0001FD6F370EE82EA3
:10174800FED7FD2FFCD7060E896E1E0E0001FD6F19
:10175800370EE82EFED7FD2FFCD70C0E896E1E0E15
:101768000001FD6F370EE82EFED7FD2FFCD7090EBE
:10177800896E1E0E0001FD6F370EE82EFED7FD2F75
:10178800FCD7030E896E1E0E0001FD6F370EE82E82
:10179800FED7FD2FFCD70001FE51D8A432D0090E88
:1017A800896E1E0E0001FD6F370EE82EFED7FD2F45
:1017B800FCD70C0E896E1E0E0001FD6F370EE82E49
:1017C800FED7FD2FFCD7060E896E1E0E0001FD6F99
:1017D800370EE82EFED7FD2FFCD7030E896E1E0E9E
:1017E8000001FD6F370EE82EFED7FD2FFCD7090E3E
:1017F800896E1E0E0001FD6F370EE82EFED7FD2FF5
:10180800FCD7020E0001FB19FC11D8A489D0FE05F3
:10181800D8A441D08B808D808D928D940D0E0001BF
:10182800FD6FFB0EE82EFED7FD2FFCD700D08B9066
:101838008D808D828D940D0E0001FD6FFB0EE82EBC
:10184800FED7FD2FFCD700D08B908D908D828D8494
:101858000D0E0001FD6FFB0EE82EFED7FD2FFCD705
:1018680000D08B808D908D928D840D0E0001FD6FC0
:10187800FB0EE82EFED7FD2FFCD700D08B808D8085
:101888008D928D940D0E0001FD6FFB0EE82EFED794
:10189800FD2FFCD700D00001FE51D8A441D08B8089
:1018A8008D908D928D840D0E0001FD6FFB0EE82E3C
:1018B800FED7FD2FFCD700D08B908D908D828D8424
:1018C8000D0E0001FD6FFB0EE82EFED7FD2FFCD795
:1018D80000D08B908D808D828D940D0E0001FD6F50
:1018E800FB0EE82EFED7FD2FFCD700D08B808D8015
:1018F8008D928D940D0E0001FD6FFB0EE82EFED724
:10190800FD2FFCD700D08B808D908D928D840D0E8D
:101918000001FD6FFB0EE82EFED7FD2FFCD700D08F
:10192800030E0001FB19FC11D8A486D0FA0EED6F46
:10193800FF0EEE6F7AEC1EF00001FE51D8A43CD0E9
:101948008B8A8B9C8B9E898A1E0E0001FD6F370E39
:10195800E82EFED7FD2FFCD78B8A8B8C8B9E899A1D
:101968001E0E0001FD6F370EE82EFED7FD2FFCD7A7
:101978008B9A8B8C8B8E899A1E0E0001FD6F370E09
:10198800E82EFED7FD2FFCD78B9A8B9C8B8E898AED
:101998001E0E0001FD6F370EE82EFED7FD2FFCD777
:1019A8008B8A8B9C8B9E898A1E0E0001FD6F370ED9
:1019B800E82EFED7FD2FFCD70001FE05D8A43CD0A9
:1019C8008B8A8B8C8B9E899A1E0E0001FD6F370EB9
:1019D800E82EFED7FD2FFCD78B9A8B8C8B8E899A9D
:1019E8001E0E0001FD6F370EE82EFED7FD2FFCD727
:1019F8008B9A8B9C8B8E898A1E0E0001FD6F370E89
:101A0800E82EFED7FD2FFCD78B8A8B9C8B9E898A6C
:101A18001E0E0001FD6F370EE82EFED7FD2FFCD7F6
:101A28008B8A8B8C8B9E899A1E0E0001FD6F370E58
:101A3800E82EFED7FD2FFCD7000E896E8B908D9077
:101A48008D928D948B9A8B9C8B9E899A1200125042
:101A5800800B1F6E12501224266E11BE268026504F
:101A6800D8B40DD02628D8A408D0000E0F6E000ECA
:101A7800106E000E116E000E126E118E06D0000E42
:101A88000F6E000E106E000E116E000E126E1650C4
:101A9800800B1F1A16501624276E15BE2780275054
:101AA800D8B40DD02728D8A408D0000E136E000E85
:101AB800146E000E156E000E166E158E06D0000EF2
:101AC800136E000E146E000E156E000E166E135077
:101AD800141015101610D8A417D0000E0F6E000E93
:101AE800106E000E116E000E126E800E11127F0E17
:101AF80012121F5012120FC00FF010C010F011C0B8
:101B080011F012C012F012002650D8A409D0000E0D
:101B18000F6E000E106E000E116E000E126E120087
:101B2800275026C017F0186A175E000E185A7F0E45
:101B38001724206E000E1820216E0FC01BF010C055
:101B48001CF011C01DF012C01EF0000E0F6E000E2A
:101B5800106E000E116E000E126E000E226E000E38
:101B6800236E000E246E000E256E000E276E28D000
:101B78002750D8B411D0D8901B361C361D361E36C7
:101B8800D8900F3610361136123625BE0F80D890F1
:101B9800223623362436253613501B5C14501C5825
:101BA80015501D5816501E58D8A009D0258C135012
:101BB8001B5E14501C5A15501D5A16501E5A272ABF
:101BC800190E2764D5D71B501C101D101E10D8B431
:101BD80011D022800FD0D8900F3610361136123619
:101BE80025BE0F80D8902236233624362536200687
:101BF800D8A0210611AEEFD7000E276E25AE17D05C
:101C0800FF0E2214176EFF0E2314186EFF0E2414F5
:101C1800196E7F0E25141A6E1750181019101A1005
:101C2800D8B403D0010E276E02D00FB0FBD72750CF
:101C3800D8B41FD0010E0F26000E10221122122236
:101C480012A017D00FC017F010C018F011C019F06B
:101C580012C01AF01A341A3219321832173217C051
:101C68000FF018C010F019C011F01AC012F0204A75
:101C7800212A21BE10D0215003E12028D8A00BD062
:101C8800000E216E2068000E0F6E000E106E000E02
:101C9800116E000E126E21BE05D0215011E12004F4
:101CA800D8B00ED0000E216E000E206E000E0F6E02
:101CB800000E106E000E116E000E126E000E1F6EDA
:101CC80020C026F026A002D0118E01D0119ED890F7
:101CD8002630126E0ED7A1C0B9F0A2C0BAF0A3C0C8
:101CE800BBF0A4C0BCF0A5C0BDF0A6C0BEF0A7C0A4
:101CF800BFF0A8C0C0F00001C0AF02D0010E01D0F3
:101D0800000EB76FB86BB751B811D8B410D0C01F58
:101D1800BF1FBE1FBD1FBC1FBB1FBA1FB96D000E62
:101D2800BA23BB23BC23BD23BE23BF23C0234DAE90
:101D38004E924DBE05D04D5008E14C04D8B005D0A8
:101D4800000EB46F010EB36F04D04CC0B3F04DC099
:101D5800B4F04AC0B5F04BC0B6F0B751B811D8A42A
:101D680002D04EA403D0B507D8A0B607000EC26FA4
:101D78001F0EC16F000E02019F6F7DD0C107D8A052
:101D8800C207800EC125D96E020EC221DA6EB9C013
:101D980080F0BAC081F0BBC082F0BCC083F0BDC087
:101DA80084F0BEC085F0BFC086F0C0C087F00A0EC0
:101DB800886F000E896F000E8A6F000E8B6F000E01
:101DC8008C6F000E8D6F000E8E6F000E8F6F0DECF6
:101DD80016F080C0A9F081C0AAF082C0ABF083C021
:101DE800ACF084C0ADF085C0AEF086C0AFF087C05F
:101DF800B0F0A9C092F0ABC093F0B9EC1DF00001AF
:101E08009251300FDF6EB307D8A0B407B507D8A03A
:101E1800B607B9C080F0BAC081F0BBC082F0BCC0C0
:101E280083F0BDC084F0BEC085F0BFC086F0C0C0DE
:101E380087F00A0E886F000E896F000E8A6F000EF9
:101E48008B6F000E8C6F000E8D6F000E8E6F000E64
:101E58008F6F8BEC13F080C0B9F081C0BAF082C0EC
:101E6800BBF083C0BCF084C0BDF085C0BEF086C0A6
:101E7800BFF087C0C0F00001C2BF1FD0C25103E14C
:101E8800C105D8A01AD0B951BA11BB11BC11BD11E6
:101E9800BE11BF11C011D8A471D7B4BF05D0B451B9
:101EA80002E1B305D8B06AD7B6BF07D0B65103E18F
:101EB800B505D8A002D04EB261D7B751B811D8A491
:101EC80002D04EA417D0C107D8A0C207B751B81185
:101ED800D8A404D0000EB26F2B0E03D0000EB26F40
:101EE8002D0EB16F800EC125D96E020EC221DA6E99
:101EF800B1C0DFFF9FC094F0A0C095F0800EC1254F
:101F0800966F020EC221976FB5C098F0B6C099F0CF
:101F180075EC1AF094C09FF095C0A0F012004DAE79
:101F28004E924DBE05D04D5009E14C04D8B006D0B4
:101F3800000E0001B76F010EB66F04D04CC0B6F0AA
:101F48004DC0B7F04AC0B8F04BC0B9F04EA805D0A4
:101F58000001FE0EB827FF0EB923A1C0BAF0A2C037
:101F6800BBF0A3C0BCF0A4C0BDF0A5C0BEF0A6C025
:101F7800BFF0A7C0C0F0A8C0C1F0000E0001C36F39
:101F88001F0EC26F000E02019F6F94D0C207D8A027
:101F9800C3070F0EBA15C46FC56BC5BF08D0C551AE
:101FA80004E10A0EC45DD8A002D0570E01D0300E4D
:101FB800C425C46F000EC521C56FBF0EAA6FFF0EE2
:101FC800AB6FA951AC6FAD6BAA51AC27AB51AD2328
:101FD800AD5106E11A0EAC5DD8B002D0010E01D0A9
:101FE800000EB26FB36BB251B311D8B427D09F0EA5
:101FF800AA6FFF0EAB6F200EC411AC6F000EC51197
:10200800AD6FAA51AC27AB51AD23AD5106E11A0E05
:10201800AC5DD8B002D0010E01D0000EB46FB56B24
:10202800B451B511D8B40AD0C4C086F0C5C087F081
:102038001BEC1DF086C0C4F087C0C5F0800E0001FF
:10204800C225D96E020EC321DA6EC4C0DFFFB607FF
:10205800D8A0B707B807D8A0B907BAC0AAF0BBC0BC
:10206800ABF0BCC0ACF0BDC0ADF0BEC0AEF0BFC000
:10207800AFF0C0C0B0F0C1C0B1F0050E09D0D89023
:10208800B133B033AF33AE33AD33AC33AB33AA3344
:10209800E82EF5D7AAC0BAF0ABC0BBF0ACC0BCF014
:1020A800ADC0BDF0AEC0BEF0AFC0BFF0B0C0C0F0B4
:1020B800B1C0C1F00001C3BF20D0C35104E1020E7A
:1020C800C25DD8A01AD0BA51BB11BC11BD11BE1146
:1020D800BF11C011C111D8A459D7B7BF05D0B75186
:1020E80002E1B605D8B052D7B9BF07D0B95103E15C
:1020F800B805D8A002D04EB249D74EA816D0C2070C
:10210800D8A0C307800EC225D96E020EC321DA6E8D
:10211800A9C0DFFFC207D8A0C307800EC225D96EA9
:10212800020EC321DA6E300EDF6E9FC094F0A0C09D
:1021380095F0800EC225966F020EC321976FB8C026
:1021480098F0B9C099F075EC1AF094C09FF095C05A
:10215800A0F01200000E0101036F000E026F000EC6
:10216800056F000E046F000E076F000E066FF5D0A6
:102178000001FD51FE11D8B431D0FBC080F0FCC085
:1021880081F0030E836FE80E826FC3EC1AF0000132
:1021980081BF06D0815109E11E0E805DD8B005D0FF
:1021A800000E0101036F010E026FFBC080F0FCC03E
:1021B80081F0030E0001836FE80E826FC3EC1AF002
:1021C800000181BF0BD0815104E11F0E805DD8A0B2
:1021D80005D0000E0101036F020E026F0001FD51D0
:1021E800FE11D8A405D0000E0101036F020E026F84
:1021F80062BE28D0625004E1020E615CD8A022D0F1
:1022080062BE06D062501EE1100E615CD8B01AD0D2
:1022180064BE13D0645004E1020E635CD8A00DD0F4
:1022280064BE06D0645009E1100E635CD8B005D0D6
:10223800000E0101056F010E04D0000E0101056FAB
:10224800000E046F010104050511D8B466BE20D044
:10225800665004E1020E655CD8A01AD066BE06D0AE
:10226800665016E1100E655CD8B012D068BE10D06A
:10227800685004E1020E675CD8A00AD068BE06D098
:10228800685006E1100E675CD8B002D0044B052BED
:102298000451025D066F05510359076FFDC000F137
:1022A800FEC001F1D89000370137D89000370137C8
:1022B800D89000370137000E0025D96E020E012193
:1022C800DA6E06C1DEFF07C1DDFFFDC000F1FEC00A
:1022D80001F1D89000370137D89000370137D890EE
:1022E80000370137020E0025D96E020E0121DA6E81
:1022F80002C1DEFF03C1DDFF010EE0EC1EF0110E8E
:102308000101006F3A0EE82EFED7002FFCD700F02F
:102318003D0E0001ED6FFE0EEE6F04C1EFF005C13A
:10232800F0F006C1F1F007C1F2F07AEC1EF00D0EE4
:102338000101016FAF0E006FB60EE82EFED7002F19
:10234800FCD7012FFAD700F0010107BF0ED00751C3
:1023580004E1030E065DD8A008D007BF09D70751CE
:1023680004E1030E065DD8A003D706C1FBF007C140
:10237800FCF01200010EE0EC1EF0110E0001FB6FE4
:102388003A0EE82EFED7FB2FFCD700F062BE1DD018
:10239800625004E1020E615CD8A017D062BE06D07C
:1023A800910E615C010E6258D8B00FD0E80E0001A2
:1023B800ED6FFD0EEE6F61C0EFF062C0F0F05AC233
:1023C800F1F05BC2F2F07AEC1EF062BE0ED0625001
:1023D80004E1020E615CD8A008D062BE0DD0910E57
:1023E800615C010E6258D8A007D07F0E0001ED6F26
:1023F800FF0EEE6F7AEC1EF064BE20D0645004E14C
:10240800020E635CD8A01AD064BE06D0910E635C3D
:10241800010E6458D8B012D0C00EE0EC1EF04D0E7C
:102428000001ED6FFE0EEE6F63C0EFF064C0F0F0D8
:1024380066C2F1F067C2F2F07AEC1EF064BE0ED00C
:10244800645004E1020E635CD8A008D064BE10D0CA
:10245800910E635C010E6458D8A00AD0C00EE0EC5F
:102468001EF0890E0001ED6FFF0EEE6F7AEC1EF084
:1024780066BE20D0665004E1020E655CD8A01AD072
:1024880066BE06D0910E655C010E6658D8B012D0B3
:10249800900EE0EC1EF05D0E0001ED6FFE0EEE6F8B
:1024A80065C0EFF066C0F0F072C2F1F073C2F2F0EE
:1024B8007AEC1EF066BE0ED0665004E1020E655C32
:1024C800D8A008D066BE10D0910E655C010E665883
:1024D800D8A00AD0900EE0EC1EF0930E0001ED6F2C
:1024E800FF0EEE6F7AEC1EF068BE20D0685004E153
:1024F800020E675CD8A01AD068BE06D0910E675C41
:10250800010E6858D8B012D0D00EE0EC1EF0F90ECB
:102518000001ED6FFD0EEE6F67C0EFF068C0F0F0E0
:102528007EC2F1F07FC2F2F07AEC1EF068BE0ED0E7
:10253800685004E1020E675CD8A008D068BE12009B
:10254800910E675C010E6858D8A01200D00EE0EC1E
:102558001EF09D0E0001ED6FFF0EEE6F7AEC1EF07F
:10256800120093908A80010EE0EC1EF0110E01011A
:10257800006F3A0EE82EFED7002FFCD700F0EC0EC5
:102588000001ED6FFF0EEE6F7AEC1EF0F00E936E09
:10259800010EE0EC1EF0110E0101006F3A0EE82E5C
:1025A800FED7002FFCD700F0F00E0001ED6FFE0EF5
:1025B800EE6F7AEC1EF0F290F286000E0101056FC4
:1025C800000E046F000E096F000E086F000E076FF3
:1025D800000E066F70D0000E516E000E506E51BE88
:1025E80006D0515060E1030E505CD8B05CD028ECA6
:1025F80017F0F296BEEC11F0F286610E0001806FC2
:10260800000E816F000E836F040E826FA0EC16F02F
:1026180080C00AF181C00BF1010EE0EC1EF0110E32
:102628000101006F3A0EE82EFED7002FFCD700F00C
:102638005E0E0001ED6FFF0EEE6F0AC1EFF00BC1E9
:10264800F0F07AEC1EF001010BBF06D00B5108E147
:102658000E0E0A5DD8B004D0000E076F000E066F8C
:102668000BBF15D00B5104E10E0E0A5DD8A00FD098
:10267800F20E0A250001926FFF0E01010B210001E5
:10268800936FB9EC1DF092C006F193C007F16E0E7E
:1026980001010625086F000E0721096F044B052B61
:1026A800504A512A9CD705BF06D0055107E1030EB1
:1026B800045DD8B003D06D50D8A48DD7010EE0ECDE
:1026C8001EF0110E0101006F3A0EE82EFED7002F02
:1026D800FCD700F0230E0001ED6FFF0EEE6F08C16E
:1026E800EFF009C1F0F07AEC1EF00D0E0101016F58
:1026F800AF0E006FB60EE82EFED7002FFCD7012FC5
:10270800FAD700F008C1FCF009C1FDF01200000E74
:102718000001916F8FAF12D08F1F8E1F8D1F8C1FDE
:102728008B1F8A1F891F886D000E89238A238B239C
:102738008C238D238E238F23010E916F87AF12D0A8
:10274800871F861F851F841F831F821F811F806D1F
:10275800000E8123822383238423852386238723D2
:10276800010E911B20EE92F0070EDE6AE806FDE2EC
:10277800885189118A118B118C118D118E118F112D
:10278800D8B446D0010E906F0AD0D89088378937D0
:102798008A378B378C378D378E378F37902B8FAFA3
:1027A800F4D7D89092379337943795379637973729
:1027B800983799378851805D895181598A51825952
:1027C8008B5183598C5184598D5185598E51865915
:1027D8008F518759D8A011D08851805F8951815B6A
:1027E8008A51825B8B51835B8C51845B8D51855BF5
:1027F8008E51865B8F51875B9281D8908F338E3351
:102808008D338C338B338A3389338833902FC9D7F0
:102818009151D8B410D0991F981F971F961F951FD4
:10282800941F931F926D000E932394239523962350
:1028380097239823992392C080F093C081F094C085
:1028480082F095C083F096C084F097C085F098C058
:1028580086F099C087F01200000E0001956F000EF7
:10286800946F000E8E6F000E8D6F02D0874B882BF1
:10287800010E936F87C0F6FF88C0F7FF0800F55078
:10288800200AD8B418D0F70E896FFF0E8A6F87C058
:10289800F6FF88C0F7FF0800F5508B6F8C6B8951E5
:1028A8008B278A518C238C5104E1050E8B5DD8A0AF
:1028B80002D0000E936F93C08FF0906B8F519011E0
:1028C800D8B408D0D3D7000E8E6F010E8D6F874B0A
:1028D800882B2FD087C0F6FF88C0F7FF0800F55077
:1028E800896F8A6B8A51000AD8A423D089512B0A90
:1028F800D8B4EDD7060AD8B4E6D71BD094C080F078
:1029080095C081F0000E836F0A0E826F8EEC1EF068
:1029180087C0F6FF88C0F7FF0800F5500001805F08
:10292800000E815B300E8025946F000E8121956F1B
:10293800CED7D00E896FFF0E8A6F87C0F6FF88C08A
:10294800F7FF0800F5508B6F8C6B89518B278A51E4
:102958008C238C5106E10A0E8B5DD8B002D0010E93
:1029680001D0000E916F926B91519211D8A4C6D7E5
:102978008D518E11D8A40DD094C089F095C08AF0DD
:10298800891F8A1F894B8A2B89C087F08AC088F0E3
:10299800120094C087F095C088F01200096E0950A3
:1029A800D8A404AE1AD001C005F002C006F003C0D6
:1029B80007F004C008F0051E061E071E081E052A9B
:1029C800000E06220722082205C00BF006C00CF0F4
:1029D80007C00DF008C00EF008D001C00BF002C00F
:1029E8000CF003C00DF004C00EF0015002100310EB
:1029F8000410D8A409D0000E016E000E026E000E5D
:102A0800036E000E046E1200960E0A6E06D00A2A95
:102A1800D8900E320D320C320B32000E0B14056EAC
:102A2800000E0C14066E000E0D14076EFE0E0E142A
:102A3800086E0550061007100810D8B40DD0E7D757
:102A48000A2A010E0B26000E0C220D220E22D89007
:102A58000E320D320C320B32000E0B14056E000EC6
:102A68000C14066E000E0D14076EFF0E0E14086E81
:102A78000550061007100810D8B407D0E1D70A0689
:102A8800D8900B360C360D360E360DBE03D0020E1E
:102A98000A60F5D70AA00D9ED8900A320AC005F040
:102AA800066A076A086A05C008F0076A066A056ABE
:102AB80005500B1206500C1207500D1208500E123A
:102AC8000950D8A404AE01D00E8E0BC001F00CC082
:102AD80002F00DC003F00EC004F01200000E010158
:102AE800156F000E146FD3EC1DF0C9EC1BF0010E2E
:102AF800E0EC1EF0110E0101126F3A0EE82EFED71F
:102B0800122FFCD700F0D90E0001ED6FFF0EEE6F0B
:102B1800000EF06F000EEF6F7AEC1EF0030E01014D
:102B2800136F8A0E126F550EE82EFED7122FFCD7A0
:102B3800132FFAD700D0010114511511D8A464D06D
:102B48000EC100F10FC101F18AEC1BF010C100F1B8
:102B580011C101F1000EA9EC17F010C100F111C16B
:102B680001F1010E25EC1AF0000E896E8B908D9004
:102B78008D928D948B9A8B9C8B9E899A010EE0EC9A
:102B88001EF0110E0101126F3A0EE82EFED7122F19
:102B9800FCD700F00A0E0001ED6FFF0EEE6F7AEC25
:102BA8001EF071EC19F0010EE0EC1EF0110E01019F
:102BB800126F3A0EE82EFED7122FFCD700F0740ED3
:102BC8000001ED6FFF0EEE6F7AEC1EF0000E896EBD
:102BD8008B908D908D928D948B9A8B9C8B9E899ADD
:102BE80010C100F111C101F1010EA9EC17F0000E9E
:102BF800896E8B908D908D928D948B9A8B9C8B9EE9
:102C0800899A0101144B152B14511511D8A41200DF
:102C180092D7000E0001916F87AF12D0871F861FD1
:102C2800851F841F831F821F811F806D000E8123D3
:102C3800822383238423852386238723010E916F90
:102C48008FAF10D08F1F8E1F8D1F8C1F8B1F8A1F59
:102C5800891F886D000E89238A238B238C238D235B
:102C68008E238F23885189118A118B118C118D1114
:102C78008E118F11D8B43CD0010E906F0AD0D89025
:102C8800883789378A378B378C378D378E378F3728
:102C9800902B8FAFF4D78851805D895181598A5123
:102CA80082598B5183598C5184598D5185598E5134
:102CB80086598F518759D8A010D08851805F895183
:102CC800815B8A51825B8B51835B8C51845B8D5114
:102CD800855B8E51865B8F51875BD8908F338E339F
:102CE8008D338C338B338A3389338833902FD3D702
:102CF8009151D8B410D0871F861F851F841F831F4A
:102D0800821F811F806D000E8123822383238423E9
:102D180085238623872380C080F081C081F082C00C
:102D280082F083C083F084C084F085C085F086C0BB
:102D380086F087C087F01200000E0001886F000E31
:102D4800876F80C0D9FF81C0DAFF010EDBBE07D0D4
:102D5800010EDB500CE1180EDE5CD8B008D080C044
:102D6800D9FF81C0DAFFDECF87F0DDCF88F0000E13
:102D78008A6F000E896F59D087518811D8B446D010
:102D8800D8908935D96E8A35DA6E8051D926815125
:102D9800DA22DE50875D8851800A866FDE50800A0D
:102DA8008659D8A040D0D8908935D96E8A35DA6E40
:102DB8008051D9268151DA22DE50DE10D8B433D0C2
:102DC800D8908935D96E8A35DA6E8051D9268151E5
:102DD800DA22010EDBBE27D0010EDB5004E10E0E15
:102DE800DE5CD8A020D0D8908935D96E8A35DA6EC5
:102DF8008051D9268151DA22010EDBBE07D0010E9F
:102E0800DB5011E1180EDE5CD8B00DD0D8908935B2
:102E1800D96E8A35DA6E8051D9268151DA22DECF11
:102E280087F0DDCF88F0894B8A2B8251895D8A51E2
:102E3800800A846F8351800A8459D8A09DD787C09F
:102E480080F088C081F01200000E5B6E010E5A6E91
:102E58005BBE04D05B5001E172D01200000ECF6E51
:102E6800000ECE6E5A045B10D8A415D0F296838259
:102E7800080EE82EFED700F08392F286020E0001BB
:102E8800816FB70E806F4C0EE82EFED7802FFCD7CF
:102E9800812FFAD700F0020E5A185B10D8A415D06B
:102EA800F2968380080EE82EFED700F08390F28613
:102EB800020E0001816FB70E806F4C0EE82EFED710
:102EC800802FFCD7812FFAD700F0030E5A185B1019
:102ED800D8A415D0F2968186080EE82EFED700F009
:102EE8008196F286020E0001816FB70E806F4C0E3C
:102EF800E82EFED7802FFCD7812FFAD700F0040EDA
:102F08005A185B10D8A415D0F2968184080EE82EC2
:102F1800FED700F08194F286020E0001816FB70E91
:102F2800806F4C0EE82EFED7802FFCD7812FFAD762
:102F380000F05A4A5B2A5BBE91D75B5005E1050E4B
:102F48005A5CD8B012008AD7120001010D6F000E2A
:102F580001010C6F000E0B6F0D51D8A429D0000E83
:102F6800086F000E076F0CD0000E0001FC6F020EF8
:102F7800FB6F01010D5193EC0BF00101074B082B7E
:102F88000051075D0851800A026F0151800A0259F9
:102F9800D8A0EAD7D90E0001ED6FFF0EEE6F0BC176
:102FA800EFF00CC1F0F07AEC1EF001010B4B0C2B8A
:102FB8000D05D8A41200010EE0EC1EF0110E01015F
:102FC800026F3A0EE82EFED7022FFCD700F0CF0E84
:102FD8000001ED6FFF0EEE6FFB0E010100250001F1
:102FE800EF6FFF0E010101210001F06F7AEC1EF076
:102FF800000E01010A6F000E096F0CD0000E0001CF
:10300800FC6F020EFB6F01010D5193EC0BF00101F7
:10301800094B0A2BFB0E026FFF0E036F00C104F170
:1030280001C105F102510427035105230451095D2B
:103038000A51800A066F0551800A0659D8A0DED7C2
:103048000B4B0C2B1200000180058111D8A427D04E
:10305800000E846F000E836F82828284E10E00D09E
:10306800E82EFDD78294070E0001826FD00EE82E5D
:10307800FED7822FFCD700F082922C0E0001826FBF
:10308800FD0EE82EFED7822FFCD700F00001834BFF
:10309800842B845104E1280E835DD8A0DDD7020E6D
:1030A80080198111D8A41ED0000E846F000E836F82
:1030B8008382C40E00D000D0E82EFCD700D000F0E8
:1030C8008392580E0001826FD20EE82EFED7822F0F
:1030D800FCD70001834B842B845104E1280E835DC7
:1030E800D8A0E6D7030E80198111D8A41200000ECB
:1030F800846F000E836F8380090E0001826F1C0E9F
:10310800E82EFED7822FFCD700F08390230E000113
:10311800826F150EE82EFED7822FFCD700D0000153
:10312800834B842B845105E1280E835DD8B01200AF
:10313800E2D71200000180058111D8A425D0000E25
:10314800846F000E836F82828284040E0001826F76
:10315800910EE82EFED7822FFCD78294FA0EE82E25
:10316800FED782923D0E0001826F620EE82EFED7D6
:10317800822FFCD700F00001834B842B845104E19B
:10318800280E835DD8A0DFD7020E80198111D8A43C
:1031980020D0000E846F000E836F8382040E00011E
:1031A800826F3D0EE82EFED7822FFCD700D0839287
:1031B8003E0E0001826FAF0EE82EFED7822FFCD79D
:1031C8000001834B842B845104E1280E835DD8A031
:1031D800E4D7030E80198111D8A41200000E846F61
:1031E800000E836F8380070E0001826F7D0EE82E2C
:1031F800FED7822FFCD78390240E0001826FB50E74
:10320800E82EFED7822FFCD700D00001834B842BF9
:10321800845105E1280E835DD8B01200E3D712006F
:103228002A342B34316E3150D8A409D0000E286EC0
:10323800000E296E000E2A6E000E2B6E120028C09A
:103248002CF029C02DF02AC02EF02BC02FF0200E14
:1032580005D0D8902F322E322D322C32E82EF9D7C5
:103268002C50306E2A8EFF0E2816FF0E2916FF0EE0
:103278002A16000E2B16960E315E31AE0DD0315047
:10328800800A970FD8A0D2D7D8902B322A32293269
:103298002832313EF9D70DD01F0E316407D0C6D77A
:1032A800D890283629362A362B3631063150D8A4FC
:1032B800F7D73050D8B408D02B1E2A1E291E286CE8
:1032C800000E29222A222B2228C028F029C029F002
:1032D8002AC02AF02BC02BF01200000E946E000EAC
:1032E8000001816F010E806F9EEC18F0000E000146
:1032F800816F010E806F27EC18F0060E0001866FB3
:10330800B60E856F030EE82EFED7852FFCD7862FC5
:10331800FAD700D0000E0001816F010E806F9EEC7D
:1033280018F0000E0001816F020E806F27EC18F074
:10333800000E0001816F020E806F9EEC18F0000EE7
:103348000001816F020E806F27EC18F0020E000159
:10335800866F450E856FA90EE82EFED7852FFCD700
:10336800862FFAD700D0000E0001816F030E806F00
:103378009EEC18F0000E0001816F030E806F9EEC2A
:1033880018F0000E0001816F030E806F27EC18F013
:103398001200F1EC1EF0000E0001826F100E816F1A
:1033A800E8EC1EF0000E0001826F390E816FE8EC28
:1033B8001EF0EDEC1EF0F1EC1EF0000E0001826F25
:1033C800110E816FE8EC1EF0010E65EC1EF0000195
:1033D800FB6FFB51446E456A466A476AEDEC1EF086
:1033E8004450451046104710D8B41200010EE0ECC6
:1033F8001EF0110E0001FB6F3A0EE82EFED7FB2FD0
:10340800FCD700F0C30E0001ED6FFE0EEE6F44C056
:10341800EFF045C0F0F046C0F1F047C0F2F07AECAA
:103428001EF00D0E0001FC6FAF0EFB6FB60EE82EFE
:10343800FED7FB2FFCD7FC2FFAD700F0010E6D6EDC
:1034480012000101036F000E0101056F000E046FE9
:10345800010EE0EC1EF0110E0101026F3A0EE82E8B
:10346800FED7022FFCD700F0F40E0001ED6FFF0E1F
:10347800EE6F7AEC1EF0C00EE0EC1EF0E20E0001DA
:10348800ED6FFE0EEE6F000EF06F040EEF6F7AEC2C
:103498001EF0000E0101076F000E066F000E0001FE
:1034A800FC6F020EFB6F0101035193EC0BF001015D
:1034B800064B072B07BFF2D7075104E1050E065D3F
:1034C800D8A0ECD7D90E0001ED6FFF0EEE6F04C146
:1034D800EFF005C1F0F07AEC1EF00101044B052B6A
:1034E80012004EA00AD096C08DF097C08EF094C0FE
:1034F8008FF095C090F080EC1DF0000199BF05D0C9
:1035080098C09DF099C09EF004D0000E9E6F000EEA
:103518009D6F000E9C6F000E9B6F0DD0000E856F87
:10352800200E846F94C086F095C087F001EC1CF0E3
:1035380000019B4B9C2B9D519B5D9C51800A9A6F6F
:103548009E51800A9A59D8A0E9D74EB00AD096C0A1
:103558008DF097C08EF094C08FF095C090F080ECFD
:103568001DF096C080F097C081F037EC1EF0000186
:103578009D518025946F9E518121956F1200000EF8
:103588000001856F83AF06D0826D831FD8B0832B6F
:10359800010E856F81AF06D0806D811FD8B0812B59
:1035A800010E851B000E876F000E866F82518311F6
:1035B800D8B41CD0010E846F04D0D89082378337DA
:1035C800842B83AFFAD7D890863787378251805DAE
:1035D80083518159D8A005D08251805F8351815B86
:1035E8008681D89083338233842FEDD78551D8B420
:1035F80004D0866D871FD8B0872B86C080F087C01F
:1036080081F01200000E0001886F000E896F000E15
:103618008A6F000E8B6F8451851186118711D8B47B
:103628002AD0010E8C6F06D0D8908437853786371C
:1036380087378C2B87AFF8D7D890883789378A3760
:103648008B378451805D85518159865182598751C4
:103658008359D8A009D08451805F8551815B8651F8
:10366800825B8751835B8881D89087338633853323
:1036780084338C2FE1D788C080F089C081F08AC05C
:1036880082F08BC083F01200000E066E04AE06D0E6
:10369800036C041ED8B0042A010E066E02AE06D0D2
:1036A800016C021ED8B0022A010E061A000E086E1E
:1036B800000E076E03500410D8B41CD0010E056E1E
:1036C80004D0D89003360436052A04AEFAD7D89029
:1036D800073608360350015C04500258D8A005D0BC
:1036E8000350015E0450025A0780D8900432033216
:1036F800052EEDD70650D8B404D0076C081ED8B0F4
:10370800082A07C001F008C002F01200000E0101EB
:10371800036F000E026F00050111D8A417D0000E28
:10372800056F000E046F000E0001FC6F010EFB6FA9
:10373800000E93EC0BF00101044B052B05BFF3D7EA
:10374800055104E10E0E045DD8A0EDD7020E001954
:103758000111D8A417D0000E076F000E066F000ED7
:103768000001FC6F030EFB6F000E93EC0BF00101E0
:10377800064B072B07BFF3D7075104E10E0E065D72
:10378800D8A0EDD7024B032B1200310E0001846F35
:10379800B20EE82EFED7842FFCD700F08C94030ECF
:1037A800B5EC1EF0110E0001846F3A0EE82EFED71C
:1037B800842FFCD700F0030EB5EC1EF07D0EE82E2A
:1037C800FED7320EC2EC1EF0280EC2EC1EF0080E18
:1037D800C2EC1EF0010EC2EC1EF0110E0001846F47
:1037E8003A0EE82EFED7842FFCD700F0060EC2EC66
:1037F8001EF00F0EE0EC1EF012000001865187113A
:10380800D8B404D086518711D8A404D08451D8ECF8
:103818001EF0120020EE04F08651D9268751DA22D4
:10382800DE50DE10D8B416D020EE04F08651D9262A
:103838008751DA2210EE02F08651E1268751E22202
:10384800DE50E65CE650800A8C6FDE50800A8C59A8
:10385800D8B0120020EE02F08651D9268751DA221C
:10386800DE2A000EDD221200000184518511861126
:103878008711D8B424D0010E886F06D0D890843729
:10388800853786378737882B87AFF8D78451805D8F
:10389800855181598651825987518359D8A008D0BA
:1038A8008451805F8551815B8651825B8751835B40
:1038B800D8908733863385338433882FE7D780C001
:1038C80080F081C081F082C082F083C083F0120052
:1038D800C69A94869488800E0001806F960E816F38
:1038E800980E826F000E836F8DC091F08EC092F09B
:1038F8008FC093F090C094F0020ED8909137923711
:1039080093379437E82EF9D791C084F092C085F0A8
:1039180093C086F094C087F006EC1BF00001800588
:10392800C86E800EC76E280EC66E000EC56E1200D9
:10393800EA0EF66E3D0EF76E000EF86E00EE69F0B8
:1039480010EE05F00900F5CFEEFFE550E150FAE181
:1039580002EE00F0A00EEE6AE806FDE101EECAF004
:103968001C0EEE6AE806FDE10001FF6B00EE38F080
:10397800310EEE6AE806FDE16E906E92000EF86E6A
:10398800000113EF04F0E7C0EBF0E8C0ECF0000E24
:10399800496E000E486E14D0E5C0C6F0E6C0C7F008
:1039A800EB0E0001C86F000EC96FE9C0CAF0EAC08B
:1039B800CBF0BEEC09F00001C6514826C751492298
:1039C800EBC0F6FFECC0F7FF0800F5500009D8A4DB
:1039D800E3D748C0E5F049C0E6F01200A00E0001A8
:1039E8008D6F860E8E6F010E8F6F000E906F6CECD0
:1039F8001CF0F1EC1EF0000E0001826F100E816FBA
:103A0800E8EC1EF0EDEC1EF0F1EC1EF0000E0001EB
:103A1800826F100E816FE8EC1EF0000E0001826FBD
:103A2800320E816FE8EC1EF0EDEC1EF012009F0ED6
:103A38000001886FFF0E896F86C08AF087C08BF0FF
:103A480088518A2789518B238B5106E11A0E8A5D8A
:103A5800D8B002D0010E01D0000E8C6F8D6B8C5146
:103A68008D11D8B405D05F0E8615866F876B12004E
:103A780086C086F087C087F01200010E0001866FAD
:103A8800200E80198111D8B414D0F70E826FFF0E62
:103A9800836F80C084F081C085F082518427835170
:103AA8008523855104E1050E845DD8A002D0000E5F
:103AB800866F86C080F0816B12000600D9CF36F081
:103AC800DACF37F0F2A012D058505910D8B405D038
:103AD800F2961CEC07F0F290F286582803E1592878
:103AE800D8B404D0010E0101E56FF09037C0DAFFB9
:103AF80036C0D9FF6E921100000E0001936F000EC0
:103B0800926F0CD091C084F0856B8FC086F090C006
:103B180087F001EC1CF00001924B932B92518D25FC
:103B2800D96E93518E21DA6EDF50916F9151D8B4CE
:103B38001200E8D79F0E0001826FFF0E836F200EE0
:103B48008011846F000E8111856F82518427835103
:103B58008523855106E11A0E845DD8B002D0010E86
:103B680001D0000E806F816B1200000193BF05D059
:103B7800935110E19205D8B00DD092C094F093C043
:103B880095F0941F951F944B952B94C092F095C077
:103B980093F0120092C092F093C093F01200000EBE
:103BA800936E0F0E8A6E000E926E0F0E896E9492AF
:103BB8009494000E8C6E000E956E0F0EC16E000E62
:103BC800946E000E8B6E000E966E000E8D6E1200B7
:103BD8009F0E0001826FFF0E836F80C084F081C04A
:103BE80085F08251842783518523855106E11A0E79
:103BF800845DD8B002D0010E01D0000E806F816BB9
:103C08001200BF0E0001826FFF0E836F80C084F028
:103C180081C085F08251842783518523855106E12F
:103C28001A0E845DD8B002D0010E01D0000E806F4C
:103C3800816B1200D00E0001826FFF0E836F80C06F
:103C480084F081C085F08251842783518523855172
:103C580006E10A0E845DD8B002D0010E01D0000E34
:103C6800806F816B120080C082F081C083F003D026
:103C78000001804B812B80C0D9FF81C0DAFFDF5063
:103C8800D8A4F6D700018251805D806F8351815995
:103C9800816F1200000EF2BE010E0001806FF29ECD
:103CA8008C86140EE82EFED700D08C96530EE82E84
:103CB800FED700F0000180B102D0F29E01D0F28E52
:103CC80012000001816FCEEC1EF0C586CEEC1EF00E
:103CD800C9CF82F0CEEC1EF0000181B102D0C59AA6
:103CE80001D0C58AC588000182511200EF0E00017B
:103CF800F96F000EFA6F000EE56F000EE66FEDC06B
:103D0800E7F0EEC0E8F0F90EE96F000EEA6FC7ECD5
:103D18001CF01200000180518203F3CF84F0F4CF2D
:103D280085F080518303F350852781518203F35036
:103D3800852784C080F085C081F01200F1EC1EF068
:103D4800000E0001826F100E816FE8EC1EF0000E6D
:103D58000001826F350E816FE8EC1EF0EDEC1EF06D
:103D680012000001816F8C500F0B8C6E000181399D
:103D7800F00B8C108C6E4EEC1EF012000001826F5E
:103D8800000182390F0BB5EC1EF000018251B5EC31
:103D98001EF01200C7B4FED7C5CF80F01F0E000179
:103DA8008017D8B41200F6D70001836F8C84000105
:103DB8008351C2EC1EF012000001836F8C94000145
:103DC8008351C2EC1EF01200CEEC1EF081C0C9FF78
:103DD8001200CEEC1EF0C5841200CEEC1EF0C58099
:073DE80012000000FFFF01C3
:10FD9C00003132334134353642373839432A302337
:10FDAC004400501000041040502564204465703A03
:10FDBC0025642C546F743A256400202020202030B8
:10FDCC002D4D656E752020202020003C2A202020FF
:10FDDC00302D4D656E7520202020200044697374F1
:10FDEC00313D25642C4176673D25642000446973C0
:10FDFC0074343D25642C4176673D25642000202019
:10FE0C00202020302D4D656E75202020233E003C97
:10FE1C002A202020302D4D656E75202020233E0099
:10FE2C006469737420705B25645D3A25642C2564C9
:10FE3C00006465742C25642C2074636E7420256416
:10FE4C000044697374323D25642C4176673D25640A
:10FE5C000044697374333D25642C4176673D2564F9
:10FE6C000033202D20446174652654696D65200093
:10FE7C0044697374546F53746172743A2564004D01
:10FE8C00616368696E6520496E2055736500253085
:10FE9C0032782F253032782F2530327800253032C9
:10FEAC00783A253032783A2530327800705B256408
:10FEBC005D206673203A202564004E6F2E20506F13
:10FECC006C65733A202564004E6F2E205469726560
:10FEDC00733A2025640053746570207370656564F3
:10FEEC0020256400627265616B2068657265653FF0
:10FEFC00006D6F72652077616974696E6700537469
:10FF0C00657070657220646F6E65004441544520C5
:10FF1C00262054494D4500737465707361646A20E2
:10FF2C00256400617667206469737420256400443D
:10FF3C00697374546F434C3A25640032202D20535E
:10FF4C00756D6D61727900706F6C6573206420251E
:10FF5C0064006D696E696D756D20256400706F6C41
:10FF6C00657320646F6E6500536572766F20646FE5
:10FF7C006E65004469737431203D205800446973E8
:10FF8C007432203D2058004469737433203D20584E
:10FF9C00004469737434203D20580064756E2062EF
:10FFAC007265616B006261636B776172647300648C
:10FFBC006F6E6520776169740031202D2053746158
:10FFCC0072740073746570707020256400636E74B5
:10FFDC00206973202564004F702054696D653A00C8
:10FFEC006F72206865726500737465703100776894
:04FFFC00617400002C
:020000040020DA
:08000000FFFFFFFFFFFFFFFF00
:020000040030CA
:0E000000FF021F1EFF8380FF0F400FE00F4026
:00000001FF
