:020000040000FA
:0400000007EF00F016
:100008006E82DEED1BF0C6EF1AF0000E596E000E80
:10001800586E000E8C6E000E956E000E956EF08672
:10002800F3EC19F0F28EA00E00018D6F860E8E6F24
:10003800010E8F6F000E906F96EC1AF097EC1DF082
:10004800000E0001826F100E816F8EEC1DF093EC94
:100058001DF001016B516C11D8A4DCD35850591014
:10006800D8A4D8D3010E86EC1DF0110E0101006F43
:100078003A0EE82EFED7002FFCD700F0C40E000180
:10008800ED6FFF0EEE6F0DEC1DF0C00E86EC1DF04F
:10009800460E0001ED6FFF0EEE6F0DEC1DF0900E99
:1000A80086EC1DF07A0E0001ED6FFE0EEE6F0DEC82
:1000B8001DF0B0D36D50D8B4ADD301017751D8B489
:1000C800A9D3000E6C6F010E6B6F000E776F81382D
:1000D8000F0B0F0B546FBB0E5425F66EF76AFD0E0F
:1000E800F7220800F5CFFFF0D00E0001FF2501012F
:1000F800736F746BFF0E742373517411D8A42BD0D3
:10010800000E726F000E716F010E86EC1DF0110E5D
:100118000101006F3A0EE82EFED7002FFCD700F041
:10012800C40E0001ED6FFF0EEE6F0DEC1DF0C00E5A
:1001380086EC1DF0460E0001ED6FFF0EEE6F0DEC24
:100148001DF0900E86EC1DF07A0E0001ED6FFE0E8C
:10015800EE6F0DEC1DF0010173057411D8A441D0A8
:100168002A0E0001FF19D8B43CD0230EFF19D8B4C9
:1001780038D0000E0101726F000E716F010E86EC0F
:100188001DF0110E0101006F3A0EE82EFED7002F68
:10019800FCD700F0980E0001ED6FFE0EEE6F0DEC2F
:1001A8001DF0D00E86EC1DF0E40E0001ED6FFD0E83
:1001B800EE6F0DEC1DF097EC1DF0000E0001826F44
:1001C800100E816F8EEC1DF0000E0001826F310E53
:1001D800816F8EEC1DF093EC1DF0000E596E010E30
:1001E800586E020E010173197411D8B405D0020EAD
:1001F80071197211D8A453D2020E73197411D8A4AC
:1002080033D0000E726F020E716F000E706F000E09
:100218006F6F010E86EC1DF0110E0101006F3A0E92
:10022800E82EFED7002FFCD700F0E20E0001ED6F9C
:10023800FF0EEE6F0DEC1DF0C00E86EC1DF0D00E1B
:100248000001ED6FFE0EEE6F000EF06F000EEF6F07
:100258000DEC1DF0D00E86EC1DF0290E0001ED6F9F
:10026800FE0EEE6F0DEC1DF02A0E0001FF19D8A44A
:100278000BD001016F517011D8B406D0FF0E6F2555
:100288006F6FFF0E7021706F230E0001FF19D8A445
:100298000BD0010170BF06D0705106E10C0E6F5DE6
:1002A800D8B002D06F4B702B01016F517011D8A4D8
:1002B8002BD0010E86EC1DF0110E0101006F3A0ED5
:1002C800E82EFED7002FFCD700F0E20E0001ED6FFC
:1002D800FF0EEE6F0DEC1DF0C00E86EC1DF0D00E7B
:1002E8000001ED6FFE0EEE6F000EF06F000EEF6F67
:1002F8000DEC1DF0D00E86EC1DF0280E0001ED6F00
:10030800FE0EEE6F0DEC1DF001016F057011D8A403
:100318002FD0010E86EC1DF0110E0101006F3A0E70
:10032800E82EFED7002FFCD700F0D30E0001ED6FAA
:10033800FE0EEE6FF9C0EFF0FAC0F0F00DEC1DF014
:10034800C00E86EC1DF0C50E0001ED6FFE0EEE6FBF
:10035800FBC0EFF0FCC0F0F00DEC1DF0D00E86EC09
:100368001DF0390E0001ED6FFE0EEE6F0DEC1DF065
:10037800010170BFCED0705104E1020E6F5DD8A0AC
:10038800C8D070BF06D0705103E10B0E6F5DD8B0B6
:10039800C0D0FE0E6F256D6FFF0E70216E6F010EBF
:1003A80086EC1DF0110E0101006F3A0EE82EFED703
:1003B800002FFCD700F0D20E0001ED6FFD0EEE6F9E
:1003C800010E01016D250001EF6F000E01016E2184
:1003D8000001F06F6DC100F16EC101F10101D8900B
:1003E80000370137D89000370137D89000370137E8
:1003F800040E0025D96E010E0121DA6EDECFF1F070
:10040800DDCFF2F06DC102F16EC103F1D890023771
:100418000337D89002370337D89002370337020ED4
:100428000227000E0323040E0225D96E010E0321B4
:10043800DA6EDECFF3F0DDCFF4F00DEC1DF0C00E78
:1004480086EC1DF0890E0001ED6FFE0EEE6F010EB9
:1004580001016D250001EF6F000E01016E21000101
:10046800F06F6DC100F16EC101F10101D890003744
:100478000137D89000370137D89000370137040E7C
:100488000027000E0123040E0025D96E010E01215C
:10049800DA6EDECFF1F0DDCFF2F00DEC1DF0900E4C
:1004A80086EC1DF03A0E0001ED6FFF0EEE6F010EA7
:1004B80001016D250001EF6F000E01016E210001A1
:1004C800F06F6DC100F16EC101F10101D8900037E4
:1004D8000137D89000370137D89000370137060E1A
:1004E8000027000E0123040E0025D96E010E0121FC
:1004F800DA6EDECFF1F0DDCFF2F00DEC1DF0D00EAC
:1005080086EC1DF0390E0001ED6FFE0EEE6F0DEC5E
:100518001DF00B0E01016F197011D8A4C0D0FE0E8A
:100528006F256D6FFF0E70216E6F010E86EC1DF04A
:10053800110E0101006F3A0EE82EFED7002FFCD7EE
:1005480000F0D20E0001ED6FFD0EEE6F010E0101FD
:100558006D250001EF6F000E01016E210001F06FA3
:100568006DC100F16EC101F10101D890003701376A
:10057800D89000370137D89000370137040E00258E
:10058800D96E010E0121DA6EDECFF1F0DDCFF2F087
:100598006DC102F16EC103F1D89002370337D890CC
:1005A80002370337D89002370337020E0227000EAE
:1005B8000323040E0225D96E010E0321DA6EDECF65
:1005C800F3F0DDCFF4F00DEC1DF0C00E86EC1DF05D
:1005D800890E0001ED6FFE0EEE6F010E01016D2513
:1005E8000001EF6F000E01016E210001F06F6DC177
:1005F80000F16EC101F10101D89000370137D890A0
:1006080000370137D89000370137040E0027000E55
:100618000123040E0025D96E010E0121DA6EDECF0A
:10062800F1F0DDCFF2F00DEC1DF0900E86EC1DF030
:100638003A0E0001ED6FFF0EEE6F010E01016D2500
:100648000001EF6F000E01016E210001F06F6DC116
:1006580000F16EC101F10101D89000370137D8903F
:1006680000370137D89000370137060E0027000EF3
:100678000123040E0025D96E010E0121DA6EDECFAA
:10068800F1F0DDCFF2F00DEC1DF0D00E86EC1DF090
:10069800F50E0001ED6FFD0EEE6F0DEC1DF0030E73
:1006A800010173197411D8A4B5D0000E726F000E31
:1006B800716F000E556F000E566F000E576F000ECB
:1006C800586FA5D055C180F056C181F057C182F04E
:1006D80058C183F0E80E0001846F030E856F000E89
:1006E800866F000E876F62EC1AF00001805181114D
:1006F80082118311D8A484D0010E86EC1DF0110E4E
:100708000101006F3A0EE82EFED7002FFCD700F04B
:10071800160E0001ED6FFF0EEE6F0DEC1DF0A00E32
:1007280000018D6F860E8E6F010E8F6F000E906F19
:1007380096EC1AF097EC1DF0000E0001826FD00EB7
:10074800816F8EEC1DF0000E0001826F000E816F2C
:100758008EEC1DF093EC1DF097EC1DF0000E0001DF
:10076800826FD10E816F8EEC1DF0000E0101596F62
:10077800050E596501D00DD0640E5925D96EDA6A77
:10078800010EDA22000EF8EC1CF0DF6E0101592B85
:10079800EFD7010EF8EC1CF001016A6F93EC1DF025
:1007A800C00E86EC1DF0A70E0001ED6FFE0EEE6F79
:1007B8006AC1EFF0F06B69C1F1F0F26B68C1F3F058
:1007C800F46B0DEC1DF0900E86EC1DF0B60E0001DA
:1007D800ED6FFE0EEE6F66C1EFF0F06B65C1F1F0E4
:1007E800F26B64C1F3F0F46B0DEC1DF0D00E86ECE7
:1007F8001DF0E40E0001ED6FFD0EEE6F0DEC1DF027
:10080800010E01015527000E56235723582377055B
:10081800D8A458D758505910D8A412004BD45A0409
:100828005B10D8A4A2D081BECD8081BE37D0CD9038
:10083800AE0E136E470E146E6B0E156E420E166ECC
:10084800CF50336E326ACE50346E356A325034121D
:100858003350351234C001F035C002F0000E02BE2C
:10086800FF0E036E046E010E98EC14F001C00FF039
:1008780002C010F003C011F004C012F0B0EC0CF08C
:100888000FC028F010C029F011C02AF012C02BF0B8
:10089800EDEC17F028C061F029C062F062BE65D0A7
:1008A800625004E1020E615CD8A05FD062BE06D03F
:1008B80062505BE1C90E615CD8B057D04004D8B42F
:1008C8001BD0020150515111D8B416D052515311B6
:1008D800D8B412D054515511D8B40ED05451522511
:1008E800326E55515321336E50513224386E515166
:1008F8003320396E010E406E4050D8B429D0D890BC
:100908005034D96E5134DA6E500ED926020EDA22DE
:10091800DECF32F0DDCF33F038C034F039C035F0F7
:100928003250345E3350355A61503424386E625038
:100938003520396E38C001F039C002F0000E046E5F
:10094800050E036EB1EC19F001C05AF202C05BF259
:10095800D8905034D96E5134DA6E500ED926020E22
:10096800DA2261C0DEFF62C0DDFF020E5A185B109A
:10097800D8A4A4D081BCCD8081BC37D0CD90AE0E98
:10098800136E470E146E6B0E156E420E166ECF5018
:10099800336E326ACE50346E356A32503412335068
:1009A800351234C001F035C002F0000E02BEFF0E51
:1009B800036E046E010E98EC14F001C00FF002C033
:1009C80010F003C011F004C012F0B0EC0CF00FC02E
:1009D80028F010C029F011C02AF012C02BF0EDEC5D
:1009E80017F028C063F029C064F064BE67D0645073
:1009F80004E1020E635CD8A061D064BE06D06450E6
:100A08005DE1C90E635CD8B059D04104D8B41BD09D
:100A180002015C515D11D8B416D05E515F11D8B493
:100A280012D060516111D8B40ED05E515C25326E7F
:100A38005F515D21336E605132243A6E615133202B
:100A48003B6E010E416E4150D8B42BD0D890503433
:100A5800D96E5134DA6E5C0ED926020EDA22DECF58
:100A680032F0DDCF33F020EE3AF0DECF34F0DDCFD8
:100A780035F03250345E3350355A635034243A6E70
:100A8800645035203B6E3AC001F03BC002F0000EC6
:100A9800046E050E036EB1EC19F001C066F202C0D7
:100AA80067F2D8905034D96E5134DA6E5C0ED9267C
:100AB800020EDA2263C0DEFF64C0DDFF030E5A189F
:100AC8005B10D8A4A4D081BACD8081BA37D0CD909C
:100AD800AE0E136E470E146E6B0E156E420E166E2A
:100AE800CF50336E326ACE50346E356A325034127B
:100AF8003350351234C001F035C002F0000E02BE8A
:100B0800FF0E036E046E010E98EC14F001C00FF096
:100B180002C010F003C011F004C012F0B0EC0CF0E9
:100B28000FC028F010C029F011C02AF012C02BF015
:100B3800EDEC17F028C065F029C066F066BE67D0F6
:100B4800665004E1020E655CD8A061D066BE06D08E
:100B580066505DE1C90E655CD8B059D04204D8B47E
:100B68001BD0020168516911D8B416D06A516B11B3
:100B7800D8B412D06C516D11D8B40ED06A51682512
:100B8800326E6B516921336E6C5132243C6E6D515B
:100B980033203D6E010E426E4250D8B42BD0D8900F
:100BA8005034D96E5134DA6E680ED926020EDA2224
:100BB800DECF32F0DDCF33F020EE3CF0DECF34F084
:100BC800DDCF35F03250345E3350355A6550342419
:100BD8003C6E665035203D6E3CC001F03DC002F0D1
:100BE800000E046E050E036EB1EC19F001C072F22E
:100BF80002C073F2D8905034D96E5134DA6E680E50
:100C0800D926020EDA2265C0DEFF66C0DDFF040EBB
:100C18005A185B10D8A4120081B8CD8081B837D09B
:100C2800CD90AE0E136E470E146E6B0E156E420EFF
:100C3800166ECF50336E326ACE50346E356A3250EB
:100C480034123350351234C001F035C002F0000EB2
:100C580002BEFF0E036E046E010E98EC14F001C084
:100C68000FF002C010F003C011F004C012F0B0EC95
:100C78000CF00FC028F010C029F011C02AF012C0E3
:100C88002BF0EDEC17F028C067F029C068F068BEBB
:100C98001200685004E1020E675CD8A0120068BE1A
:100CA80006D068505DE1C90E675CD8B012004304F5
:100CB800D8B41BD0020174517511D8B416D076512E
:100CC8007711D8B412D078517911D8B40ED07651A2
:100CD8007425326E77517521336E785132243E6E09
:100CE800795133203F6E010E436E4350D8B42BD058
:100CF800D8905034D96E5134DA6E740ED926020E5B
:100D0800DA22DECF32F0DDCF33F020EE3EF0DECF58
:100D180034F0DDCF35F03250345E3350355A6750F9
:100D280034243E6E685035203F6E3EC001F03FC00F
:100D380002F0000E046E050E036EB1EC19F001C04E
:100D48007EF202C07FF2D8905034D96E5134DA6EF8
:100D5800740ED926020EDA2267C0DEFF68C0DDFFF6
:100D68001200000E0201E36F000EE26F000E956E96
:100D7800F28E0F0EC16EF3EC19F0100ECD6E000E50
:100D88000201E76F000EE66F000EE86F000EE96FD4
:100D9800000EEA6F000EEB6F929889A802D0808847
:100DA80001D08098000E0201DB6F582803E1592812
:100DB800D8B40BD0000E0001FA6F000EF96F000EC8
:100DC800FC6F000EFB6F09EC00F089A802D0808848
:100DD80001D080980201E7BF06D0E75103E10A0E6F
:100DE800E65DD8B0F8D147BE95D04750461006E129
:100DF800A00E445C0F0E4558D8A08CD0ECD1000E44
:100E08000201E16F050EE06F010E86EC1DF0110E78
:100E180001015A6F3A0EE82EFED75A2FFCD700F080
:100E2800010E0001ED6FFF0EEE6F0DEC1DF080B8A6
:100E380013D0010E86EC1DF0110E01015A6F3A0E07
:100E4800E82EFED75A2FFCD700F0FC0E0001ED6FFC
:100E5800FE0EEE6F0DEC1DF080A816D0010E86EC8C
:100E68001DF0110E01015A6F3A0EE82EFED75A2FC7
:100E7800FCD700F0BA0E0001ED6FFF0EEE6F0DEC1F
:100E88001DF0010E0201DB6F0201DB51D8B442D024
:100E9800010E86EC1DF0110E01015A6F3A0EE82E74
:100EA800FED75A2FFCD700F0A60E0001ED6FFF0EFB
:100EB800EE6F0DEC1DF033EC10F0FAC0D4F2FBC06D
:100EC800D5F2010E86EC1DF0110E01015A6F3A0E93
:100ED800E82EFED75A2FFCD700F0220E0001ED6F46
:100EE800FF0EEE6FD4C2EFF0D5C2F0F00DEC1DF09E
:100EF80044C0F9F045C0FAF0E6C2FBF0E7C2FCF0E6
:100F080049EC11F0F9C0E0F2FAC0E1F2000E596EB6
:100F1800000E586E58505910D8A471D70201E851E4
:100F2800445CD26FE9514558D36F000EDA6FE1BFC8
:100F380006D0E15165E1030EE05DD8B061D0E3BFB2
:100F480006D0E3512CE1080EE25DD8B028D0000E9F
:100F5800DD6F010EDC6F35EC1DF0000E0201D76F5E
:100F6800000ED66F0FD0DCC20CF1DDC20DF1000E01
:100F78000F6F6E0E0E6F38EC15F00201E24BE32B8B
:100F8800D64BD72BE051D65DD751800A01015A6F55
:100F98000201E151800A01015A59D8A0E4D702019F
:100FA800E3BF2BD0E35104E1080EE25DD8A025D0C1
:100FB800000EDD6F020EDC6F000ED96F000ED86FC9
:100FC8000FD0DCC20CF1DDC20DF1000E0F6F6E0EFA
:100FD8000E6F38EC15F00201E24BE32BD84BD92BFE
:100FE800E051D85DD951800A01015A6F0201E151DF
:100FF800800A01015A59D8A0E4D7010E0201DA6F1C
:10100800DA51D8B436D1E6C25AF1E7C25BF1010130
:10101800D8905A375B37D8905A375B37D8905A37B9
:101028005B37060E5A27000E5B23800E5A25D96EB1
:10103800020E5B21DA6ED2C2DEFFD3C2DDFFE6C24A
:101048005AF1E7C25BF1D8905A375B37D8905A37D4
:101058005B37D8905A375B37040E5A27000E5B234C
:10106800800E5A25D96E020E5B21DA6E44C0DEFF6F
:1010780045C0DDFF44C0E8F245C0E9F246C0EAF2E7
:1010880047C0EBF20201E64BE72B47EC1BF0000EE2
:101098000201DB6F010E86EC1DF0110E01015A6F83
:1010A8003A0EE82EFED75A2FFCD700F02E0E00017C
:1010B800ED6FFF0EEE6F44C0EFF045C0F0F046C094
:1010C800F1F047C0F2F00DEC1DF0520E0001ED6F8B
:1010D800FF0EEE6FE6C2EFF0E7C2F0F00DEC1DF088
:1010E800000E0201E56F000EE46FE5BF06D0E55182
:1010F80060E1040EE45DD8B05CD0D890E435D96ED8
:10110800E535DA6E380ED926000EDA22000EDE6ECC
:10111800000EDD6ED890E435D96EE535DA6E610ED5
:10112800D926000EDA22000EDE6E000EDD6E400EAD
:10113800E425D96E000EE521DA6E000EDF6E000E92
:10114800DF6F000EDE6FDFBF06D0DF512FE1060E26
:10115800DE5DD8B02BD0E4C280F0E5C281F0000E8D
:101168000001836F0C0E826F21EC1DF0500E0101FF
:101178005A6F020E5B6F0001805101015A2700016E
:10118800815101015B23D8900201DE35D96EDF352C
:10119800DA6E01015A51D9265B51DA22000EDE6E51
:1011A800000EDD6E0201DE4BDF2BCDD7E44BE52BC5
:1011B8009CD70D0E01015B6FAF0E5A6FB60EE82E6D
:1011C800FED75A2FFCD75B2FFAD700F0000E596EC6
:1011D800010E586E4ED035EC1DF0010E86EC1DF058
:1011E800110E01015A6F3A0EE82EFED75A2FFCD77E
:1011F80000F0680E0001ED6FFF0EEE6F0DEC1DF0B4
:101208000D0E01015B6FAF0E5A6FB60EE82EFED7BA
:101218005A2FFCD75B2FFAD700F0E2C2F9F0E3C2ED
:10122800FAF0E6C2FBF0E7C2FCF009EC00F048EC8B
:101238001DF0010E86EC1DF0110E01015A6F3A0ED9
:10124800E82EFED75A2FFCD700F0B00E0001ED6F44
:10125800FF0EEE6F0DEC1DF00D0E01015B6FAF0E72
:101268005A6FB60EE82EFED75A2FFCD75B2FFAD747
:1012780000F0000E0201E16F050EE06FA6D5C8C0B0
:10128800D9FFC9C0DAFFDECFF6FFDDCFF7FF0800D0
:10129800F550250AD8A4ADD1C8C0D9FFC9C0DAFF16
:1012A800DE2A000EDD22000E4B6E000E4A6E4AC08A
:1012B8004EF04BC04FF04C684D68000E0001E26FD5
:1012C800000E14D04E80C8C0D9FFC9C0DAFFDE2A8C
:1012D800000EDD222ED04E82F6D74E84F4D74E86ED
:1012E800F2D74E88F0D7000EE26F010EE16F21D0E1
:1012F800C8C0D9FFC9C0DAFFDECFF6FFDDCFF7FFE0
:101308000800F550CC6FCD6BCD51000AD8A4EBD7AF
:10131800CC51200AD8B4E3D7030AD8B4E2D7080AD4
:10132800D8B4DBD7060AD8B4CDD71D0AD8B4D3D7DA
:10133800DAD7E151E211D8B4DBD74EB04E92C8C02B
:10134800D9FFC9C0DAFFDECFF6FFDDCFF7FF08000F
:10135800F5502A0AD8A423D0C8C0D9FFC9C0DAFFDB
:10136800DE2A000EDD22CAC0D9FFCBC0DAFFDFCFEC
:10137800CCF0020EDE26DFCFCDF0000EDD22CCC091
:10138800D9FFCDC0DAFFDECF4AF0DDCF4BF04BAE50
:1013980040D04E804A6C4B1ED8B04B2A3AD0C8C0B9
:1013A800D9FFC9C0DAFFDECF87F0DDCF88F0F6ECD1
:1013B80013F087C04AF088C04BF007D0C8C0D9FFE7
:1013C800C9C0DAFFDE2A000EDD22D00E0001CC6F84
:1013D800FF0ECD6FC8C0D9FFC9C0DAFFDECFF6FF58
:1013E800DDCFF7FF0800F550CE6FCF6BCC51CE277D
:1013F800CD51CF23CF5106E10A0ECE5DD8B002D031
:10140800010E01D0000EE36FE46BE351E411D8A4A0
:10141800D5D7C8C0D9FFC9C0DAFFDECFF6FFDDCF08
:10142800F7FF0800F550640AD8B40DD0C8C0D9FF3A
:10143800C9C0DAFFDECFF6FFDDCFF7FF0800F550B1
:10144800690AD8A43FD0C8C0D9FFC9C0DAFFDE2ACC
:10145800000EDD22CAC0D9FFCBC0DAFFDFCFCCF047
:10146800020EDE26DFCFCDF0000EDD22CCC0D9FF84
:10147800CDC0DAFFDECFD0F0DDCFD1F0000ED1BF86
:10148800FF0ED26FD36FD46FD56FD66FD76FC6C02C
:101498009FF0C7C0A0F0D0C0A1F0D1C0A2F0D2C0C8
:1014A800A3F0D3C0A4F0D4C0A5F0D5C0A6F0D6C090
:1014B800A7F0D7C0A8F0F4EC0DF09FC0C6F0A0C00C
:1014C800C7F01200C8C0D9FFC9C0DAFFDECFF6FFE7
:1014D800DDCFF7FF0800F550780AD8B40DD0C8C0A2
:1014E800D9FFC9C0DAFFDECFF6FFDDCFF7FF08006E
:1014F800F550580AD8A44DD0C8C0D9FFC9C0DAFFE2
:10150800DECFF6FFDDCFF7FF0800F5CFE0F0C8C06B
:10151800D9FFC9C0DAFFDE2A000EDD22CAC0D9FF12
:10152800CBC0DAFFDFCFCCF0020EDE26DFCFCDF066
:10153800000EDD22CCC0D9FFCDC0DAFFDECFCEF061
:10154800DDCFCFF0CEC0D8F0CFC0D9F0DA6BDB6BEF
:10155800DC6BDD6BDE6BDF6BC6C09FF0C7C0A0F035
:10156800D8C0A1F0D9C0A2F0DAC0A3F0DBC0A4F0C3
:10157800DCC0A5F0DDC0A6F0DEC0A7F0DFC0A8F093
:10158800E0C0A9F018EC0FF09FC0C6F0A0C0C7F0EB
:101598001200C8C0D9FFC9C0DAFFDECFF6FFDDCF21
:1015A800F7FF0800F550250AD8A417D0C8C0D9FFFE
:1015B800C9C0DAFFDE2A000EDD22000E856F250E77
:1015C800846FC6C086F0C7C087F02BEC1AF0000EF7
:1015D8000001C76F010EC66F1200C8C0D9FFC9C08D
:1015E800DAFFDE2A000EDD22000EC76F000EC66F7E
:1015F8001200C8C0D9FFC9C0DAFFDECFF6FFDDCFC1
:10160800F7FF0800F5500001846F856BC6C086F0AF
:10161800C7C087F02BEC1AF0C8C0D9FFC9C0DAFFE1
:10162800DE2A000EDD22D3D70001FC6F0001F90588
:10163800FA11D8A46BD0FC05D8A432D0030E896E59
:101648001E0E0001FB6F370EE82EFED7FB2FFCD7CE
:10165800060E896E1E0E0001FB6F370EE82EFED7B0
:10166800FB2FFCD70C0E896E1E0E0001FB6F370E88
:10167800E82EFED7FB2FFCD7090E896E1E0E00013F
:10168800FB6F370EE82EFED7FB2FFCD7030E896EB3
:101698001E0E0001FB6F370EE82EFED7FB2FFCD77E
:1016A8000001FC51D8A432D0090E896E1E0E00012B
:1016B800FB6F370EE82EFED7FB2FFCD70C0E896E7A
:1016C8001E0E0001FB6F370EE82EFED7FB2FFCD74E
:1016D800060E896E1E0E0001FB6F370EE82EFED730
:1016E800FB2FFCD7030E896E1E0E0001FB6F370E11
:1016F800E82EFED7FB2FFCD7090E896E1E0E0001BF
:10170800FB6F370EE82EFED7FB2FFCD7020E000129
:10171800F919FA11D8A489D0FC05D8A441D08B8036
:101728008D808D928D940D0E0001FB6FFB0EE82EBF
:10173800FED7FB2FFCD700D08B908D808D828D94A7
:101748000D0E0001FB6FFB0EE82EFED7FB2FFCD71A
:1017580000D08B908D908D828D840D0E0001FB6FD3
:10176800FB0EE82EFED7FB2FFCD700D08B808D9088
:101778008D928D840D0E0001FB6FFB0EE82EFED7B7
:10178800FB2FFCD700D08B808D808D928D940D0E11
:101798000001FB6FFB0EE82EFED7FB2FFCD700D015
:1017A8000001FC51D8A441D08B808D908D928D84FE
:1017B8000D0E0001FB6FFB0EE82EFED7FB2FFCD7AA
:1017C80000D08B908D908D828D840D0E0001FB6F63
:1017D800FB0EE82EFED7FB2FFCD700D08B908D8018
:1017E8008D828D940D0E0001FB6FFB0EE82EFED747
:1017F800FB2FFCD700D08B808D808D928D940D0EA1
:101808000001FB6FFB0EE82EFED7FB2FFCD700D0A4
:101818008B808D908D928D840D0E0001FB6FFB0ED9
:10182800E82EFED7FB2FFCD700D0030E0001F919D4
:10183800FA11D8A486D0F90EED6FFF0EEE6F0DECFD
:101848001DF00001FC51D8A43CD08B8A8B9C8B9E48
:10185800898A1E0E0001FB6F370EE82EFED7FB2F7C
:10186800FCD78B8A8B8C8B9E899A1E0E0001FB6F8E
:10187800370EE82EFED7FB2FFCD78B9A8B8C8B8EDE
:10188800899A1E0E0001FB6F370EE82EFED7FB2F3C
:10189800FCD78B9A8B9C8B8E898A1E0E0001FB6F5E
:1018A800370EE82EFED7FB2FFCD78B8A8B9C8B9E9E
:1018B800898A1E0E0001FB6F370EE82EFED7FB2F1C
:1018C800FCD70001FC05D8A43CD08B8A8B8C8B9E5E
:1018D800899A1E0E0001FB6F370EE82EFED7FB2FEC
:1018E800FCD78B9A8B8C8B8E899A1E0E0001FB6F0E
:1018F800370EE82EFED7FB2FFCD78B9A8B9C8B8E4E
:10190800898A1E0E0001FB6F370EE82EFED7FB2FCB
:10191800FCD78B8A8B9C8B9E898A1E0E0001FB6FDD
:10192800370EE82EFED7FB2FFCD78B8A8B8C8B9E2D
:10193800899A1E0E0001FB6F370EE82EFED7FB2F8B
:10194800FCD7000E896E8B908D908D928D948B9A1A
:101958008B9C8B9E899A12001250800B1F6E12501E
:101968001224266E11BE26802650D8B40DD0262803
:10197800D8A408D0000E0F6E000E106E000E116E67
:10198800000E126E118E06D0000E0F6E000E106E35
:10199800000E116E000E126E1650800B1F1A165094
:1019A8001624276E15BE27802750D8B40DD02728B7
:1019B800D8A408D0000E136E000E146E000E156E1B
:1019C800000E166E158E06D0000E136E000E146EE5
:1019D800000E156E000E166E13501410151016100A
:1019E800D8A417D0000E0F6E000E106E000E116EE8
:1019F800000E126E800E11127F0E12121F5012125C
:101A08000FC00FF010C010F011C011F012C012F08A
:101A180012002650D8A409D0000E0F6E000E106ECA
:101A2800000E116E000E126E1200275026C017F01D
:101A3800186A175E000E185A7F0E1724206E000EC3
:101A48001820216E0FC01BF010C01CF011C01DF033
:101A580012C01EF0000E0F6E000E106E000E116EFA
:101A6800000E126E000E226E000E236E000E246E03
:101A7800000E256E000E276E28D02750D8B411D03E
:101A8800D8901B361C361D361E36D8900F361036A9
:101A98001136123625BE0F80D890223623362436CA
:101AA800253613501B5C14501C5815501D581650E1
:101AB8001E58D8A009D0258C13501B5E14501C5AF0
:101AC80015501D5A16501E5A272A190E2764D5D7A5
:101AD8001B501C101D101E10D8B411D022800FD01E
:101AE800D8900F3610361136123625BE0F80D89092
:101AF80022362336243625362006D8A0210611AEF4
:101B0800EFD7000E276E25AE17D0FF0E2214176EE2
:101B1800FF0E2314186EFF0E2414196E7F0E251461
:101B28001A6E1750181019101A10D8B403D0010ED5
:101B3800276E02D00FB0FBD72750D8B41FD0010EA4
:101B48000F26000E10221122122212A017D00FC049
:101B580017F010C018F011C019F012C01AF01A349A
:101B68001A3219321832173217C00FF018C010F095
:101B780019C011F01AC012F0204A212A21BE10D033
:101B8800215003E12028D8A00BD0000E216E206838
:101B9800000E0F6E000E106E000E116E000E126E0B
:101BA80021BE05D0215011E12004D8B00ED0000E7E
:101BB800216E000E206E000E0F6E000E106E000ECD
:101BC800116E000E126E000E1F6E20C026F026A0A9
:101BD80002D0118E01D0119ED8902630126E0ED7E9
:101BE800A1C0B9F0A2C0BAF0A3C0BBF0A4C0BCF0B9
:101BF800A5C0BDF0A6C0BEF0A7C0BFF0A8C0C0F089
:101C08000001C0AF02D0010E01D0000EB76FB86B53
:101C1800B751B811D8B410D0C01FBF1FBE1FBD1F09
:101C2800BC1FBB1FBA1FB96D000EBA23BB23BC2350
:101C3800BD23BE23BF23C0234DAE4E924DBE05D05B
:101C48004D5008E14C04D8B005D0000EB46F010E19
:101C5800B36F04D04CC0B3F04DC0B4F04AC0B5F077
:101C68004BC0B6F0B751B811D8A402D04EA403D0D7
:101C7800B507D8A0B607000EC26F1F0EC16F000EC1
:101C88000101976F7DD0C107D8A0C207780EC12582
:101C9800D96E010EC221DA6EB9C080F0BAC081F0E7
:101CA800BBC082F0BCC083F0BDC084F0BEC085F06C
:101CB800BFC086F0C0C087F00A0E886F000E896F1B
:101CC800000E8A6F000E8B6F000E8C6F000E8D6FEA
:101CD800000E8E6F000E8F6FD3EC15F080C0A9F048
:101CE80081C0AAF082C0ABF083C0ACF084C0ADF074
:101CF80085C0AEF086C0AFF087C0B0F0A9C092F042
:101D0800ABC093F036EC1CF000019251300FDF6E3F
:101D1800B307D8A0B407B507D8A0B607B9C080F0F4
:101D2800BAC081F0BBC082F0BCC083F0BDC084F0F3
:101D3800BEC085F0BFC086F0C0C087F00A0E886FAD
:101D4800000E896F000E8A6F000E8B6F000E8C6F6D
:101D5800000E8D6F000E8E6F000E8F6F51EC13F01A
:101D680080C0B9F081C0BAF082C0BBF083C0BCF0BB
:101D780084C0BDF085C0BEF086C0BFF087C0C0F08B
:101D88000001C2BF1FD0C25103E1C105D8A01AD0BB
:101D9800B951BA11BB11BC11BD11BE11BF11C0118F
:101DA800D8A471D7B4BF05D0B45102E1B305D8B0F7
:101DB8006AD7B6BF07D0B65103E1B505D8A002D09F
:101DC8004EB261D7B751B811D8A402D04EA417D0DB
:101DD800C107D8A0C207B751B811D8A404D0000EC3
:101DE800B26F2B0E03D0000EB26F2D0EB16F780EAE
:101DF800C125D96E010EC221DA6EB1C0DFFF9FC0C6
:101E080094F0A0C095F0780EC125966F010EC221FE
:101E1800976FB5C098F0B6C099F09AEC18F094C0D6
:101E28009FF095C0A0F012004DAE4E924DBE05D069
:101E38004D5009E14C04D8B006D0000E0001B76F30
:101E4800010EB66F04D04CC0B6F04DC0B7F04AC012
:101E5800B8F04BC0B9F04EA805D00001FE0EB82767
:101E6800FF0EB923A1C0BAF0A2C0BBF0A3C0BCF05A
:101E7800A4C0BDF0A5C0BEF0A6C0BFF0A7C0C0F00A
:101E8800A8C0C1F0000E0001C36F1F0EC26F000E84
:101E98000101976F94D0C207D8A0C3070F0EBA15D7
:101EA800C46FC56BC5BF08D0C55104E10A0EC45D37
:101EB800D8A002D0570E01D0300EC425C46F000E32
:101EC800C521C56FBF0EAA6FFF0EAB6FA951AC6FCE
:101ED800AD6BAA51AC27AB51AD23AD5106E11A0E3B
:101EE800AC5DD8B002D0010E01D0000EB26FB36B5A
:101EF800B251B311D8B427D09F0EAA6FFF0EAB6FA3
:101F0800200EC411AC6F000EC511AD6FAA51AC27DD
:101F1800AB51AD23AD5106E11A0EAC5DD8B002D07D
:101F2800010E01D0000EB46FB56BB451B511D8B421
:101F38000AD0C4C086F0C5C087F098EC1BF086C0F4
:101F4800C4F087C0C5F0780E0001C225D96E010E15
:101F5800C321DA6EC4C0DFFFB607D8A0B707B80739
:101F6800D8A0B907BAC0AAF0BBC0ABF0BCC0ACF0EF
:101F7800BDC0ADF0BEC0AEF0BFC0AFF0C0C0B0F0E5
:101F8800C1C0B1F0050E09D0D890B133B033AF332A
:101F9800AE33AD33AC33AB33AA33E82EF5D7AAC092
:101FA800BAF0ABC0BBF0ACC0BCF0ADC0BDF0AEC0C9
:101FB800BEF0AFC0BFF0B0C0C0F0B1C0C1F000010A
:101FC800C3BF20D0C35104E1020EC25DD8A01AD00D
:101FD800BA51BB11BC11BD11BE11BF11C011C11145
:101FE800D8A459D7B7BF05D0B75102E1B605D8B0C4
:101FF80052D7B9BF07D0B95103E1B805D8A002D06C
:102008004EB249D74EA816D0C207D8A0C307780E3B
:10201800C225D96E010EC321DA6EA9C0DFFFC2073F
:10202800D8A0C307780EC225D96E010EC321DA6E77
:10203800300EDF6E9FC094F0A0C095F0780EC225D8
:10204800966F010EC321976FB8C098F0B9C099F088
:102058009AEC18F094C09FF095C0A0F012009390ED
:102068008A80010E86EC1DF0110E0001FC6F3A0EFD
:10207800E82EFED7FC2FFCD700F0EB0E0001ED6F29
:10208800FF0EEE6F0DEC1DF0F00E936E010E86EC58
:102098001DF0110E0001FC6F3A0EE82EFED7FC2F42
:1020A800FCD700F0EF0E0001ED6FFE0EEE6F0DECA9
:1020B8001DF0F290F286000E0101036F000E026F10
:1020C800000E076F000E066F000E056F000E046FFE
:1020D80070D0000E516E000E506E51BE06D0515099
:1020E80060E1030E505CD8B05CD0EEEC16F0F296CE
:1020F8005AEC12F0F286610E0001806F000E816FBB
:10210800000E836F040E826F66EC16F080C008F133
:1021180081C009F1010E86EC1DF0110E0001FC6F63
:102128003A0EE82EFED7FC2FFCD700F05D0E00011A
:10213800ED6FFF0EEE6F08C1EFF009C1F0F00DEC86
:102148001DF0010109BF06D0095108E10E0E085D16
:10215800D8B004D0000E056F000E046F09BF15D06B
:10216800095104E10E0E085DD8A00FD0F20E082523
:102178000001926FFF0E010109210001936F36ECF7
:102188001CF092C004F193C005F16E0E0101042504
:10219800066F000E0521076F024B032B504A512A88
:1021A8009CD703BF06D0035144E1030E025DD8B0AB
:1021B80040D06D50D8B43DD08CD797EC1DF0000EB0
:1021C8000001826F110E816F8EEC1DF0010EF8EC8C
:1021D8001CF00001FC6FFC51446E456A466A476A70
:1021E80093EC1DF04450451046104710D8B41ED04B
:1021F800010E86EC1DF0110E0001FC6F3A0EE82E60
:10220800FED7FC2FFCD700F0D00E0001ED6FFE0EBC
:10221800EE6F44C0EFF045C0F0F046C0F1F047C0A3
:10222800F2F00DEC1DF0010E6D6E03D0000E6D6E18
:1022380003D06D04D8A4C1D7010E86EC1DF0110E91
:102248000001FC6F3A0EE82EFED7FC2FFCD700F0F9
:10225800220E0001ED6FFF0EEE6F06C1EFF007C111
:10226800F0F00DEC1DF00D0E0001FD6FAF0EFC6FD0
:10227800B60EE82EFED7FC2FFCD7FD2FFAD700F0BC
:1022880006C1FAF007C1FBF01200000E0101016F50
:10229800000E006F000E036F000E026F000E056F38
:1022A800000E046FF6D00001FB51FC11D8B431D0F8
:1022B800F9C080F0FAC081F0030E836FE80E826FD8
:1022C8002CEC19F0000181BF06D0815109E11E0EE6
:1022D800805DD8B005D0000E0101016F010E006FBE
:1022E800F9C080F0FAC081F0030E0001836FE80E98
:1022F800826F2CEC19F0000181BF0BD0815104E1F1
:102308001F0E805DD8A005D0000E0101016F020EDE
:10231800006F0001FB51FC11D8A405D0000E01018B
:10232800016F020E006F62BE28D0625004E1020EF7
:10233800615CD8A022D062BE06D062501EE1100EA9
:10234800615CD8B01AD064BE13D0645004E1020EA8
:10235800635CD8A00DD064BE06D0645009E1100EAD
:10236800635CD8B005D0000E0101036F010E04D0E4
:10237800000E0101036F000E026F01010205031137
:10238800D8B466BE20D0665004E1020E655CD8A0C1
:102398001AD066BE06D0665016E1100E655CD8B03D
:1023A80012D068BE10D0685004E1020E675CD8A055
:1023B8000AD068BE06D0685006E1100E675CD8B037
:1023C80002D0024B032B0251005D046F03510159E7
:1023D800056FFBC0FDF0FCC0FEF00001D890FD3792
:1023E800FE37D890FD37FE37D890FD37FE37000E00
:1023F800FD25D96E020EFE21DA6E04C1DEFF05C18D
:10240800DDFFFBC0FDF0FCC0FEF0D890FD37FE37C5
:10241800D890FD37FE37D890FD37FE37020EFD25E0
:10242800D96E020EFE21DA6E00C1DEFF01C1DDFFAA
:10243800010E86EC1DF0110E0001FD6F3A0EE82E1C
:10244800FED7FD2FFCD700F04A0E0001ED6FFE0EFF
:10245800EE6F02C1EFF003C1F0F004C1F1F005C165
:10246800F2F00DEC1DF00D0E0001FE6FAF0EFD6FCA
:10247800B60EE82EFED7FD2FFCD7FE2FFAD700F0B8
:10248800010105BF0ED0055104E1030E045DD8A07B
:1024980008D005BF08D7055104E1030E045DD8A094
:1024A80002D704C1F9F005C1FAF01200010E86EC5A
:1024B8001DF0110E0001F96F3A0EE82EFED7F92F24
:1024C800FCD700F062BE1DD0625004E1020E615CD0
:1024D800D8A017D062BE06D0910E615C010E62587A
:1024E800D8B00FD0060E0001ED6FFE0EEE6F61C082
:1024F800EFF062C0F0F05AC2F1F05BC2F2F00DECFE
:102508001DF062BE0ED0625004E1020E615CD8A0DC
:1025180008D062BE0DD0910E615C010E6258D8A041
:1025280007D07E0E0001ED6FFF0EEE6F0DEC1DF073
:1025380064BE20D0645004E1020E635CD8A01AD0B7
:1025480064BE06D0910E635C010E6458D8B012D0F8
:10255800C00E86EC1DF05A0E0001ED6FFE0EEE6FF8
:1025680063C0EFF064C0F0F066C2F1F067C2F2F049
:102578000DEC1DF064BE0ED0645004E1020E635CE5
:10258800D8A008D064BE10D0910E635C010E6458C8
:10259800D8A00AD0C00E86EC1DF0880E0001ED6FA1
:1025A800FF0EEE6F0DEC1DF066BE20D0665004E104
:1025B800020E655CD8A01AD066BE06D0910E655C86
:1025C800010E6658D8B012D0900E86EC1DF06A0E37
:1025D8000001ED6FFE0EEE6F65C0EFF066C0F0F023
:1025E80072C2F1F073C2F2F00DEC1DF066BE0ED0AF
:1025F800665004E1020E655CD8A008D066BE10D013
:10260800910E655C010E6658D8A00AD0900E86EC33
:102618001DF0920E0001ED6FFF0EEE6F0DEC1DF038
:1026280068BE20D0685004E1020E675CD8A01AD0BA
:1026380068BE06D0910E675C010E6858D8B012D0FB
:10264800D00E86EC1DF0170E0001ED6FFE0EEE6F3A
:1026580067C0EFF068C0F0F07EC2F1F07FC2F2F020
:102668000DEC1DF068BE0ED0685004E1020E675CE8
:10267800D8A008D068BE1200910E675C010E685899
:10268800D8A01200D00E86EC1DF09C0E0001ED6F54
:10269800FF0EEE6F0DEC1DF01200000E0001916FA1
:1026A8008FAF12D08F1F8E1F8D1F8C1F8B1F8A1FFD
:1026B800891F886D000E89238A238B238C238D2301
:1026C8008E238F23010E916F87AF12D0871F861F2D
:1026D800851F841F831F821F811F806D000E812329
:1026E800822383238423852386238723010E911B3A
:1026F80020EE92F0070EDE6AE806FDE288518911A5
:102708008A118B118C118D118E118F11D8B446D06E
:10271800010E906F0AD0D890883789378A378B375F
:102728008C378D378E378F37902B8FAFF4D7D89063
:10273800923793379437953796379737983799372D
:102748008851805D895181598A5182598B518359A9
:102758008C5184598D5185598E5186598F5187597D
:10276800D8A011D08851805F8951815B8A51825BE2
:102778008B51835B8C51845B8D51855B8E51865B5D
:102788008F51875B9281D8908F338E338D338C3302
:102798008B338A3389338833902FC9D79151D8B472
:1027A80010D0991F981F971F961F951F941F931F4E
:1027B800926D000E932394239523962397239823B1
:1027C800992392C080F093C081F094C082F095C0A4
:1027D80083F096C084F097C085F098C086F099C0C1
:1027E80087F01200000E0001956F000E946F000E26
:1027F8008E6F000E8D6F02D0874B882B010E936F62
:1028080087C0F6FF88C0F7FF0800F550200AD8B443
:1028180018D0F70E896FFF0E8A6F87C0F6FF88C041
:10282800F7FF0800F5508B6F8C6B89518B278A5105
:102838008C238C5104E1050E8B5DD8A002D0000ECC
:10284800936F93C08FF0906B8F519011D8B408D0CC
:10285800D3D7000E8E6F010E8D6F874B882B2FD02C
:1028680087C0F6FF88C0F7FF0800F550896F8A6BAC
:102878008A51000AD8A423D089512B0AD8B4EDD79D
:10288800060AD8B4E6D71BD094C080F095C081F072
:10289800000E836F0A0E826F21EC1DF087C0F6FFD1
:1028A80088C0F7FF0800F5500001805F000E815BCB
:1028B800300E8025946F000E8121956FCED7D00EF3
:1028C800896FFF0E8A6F87C0F6FF88C0F7FF080080
:1028D800F5508B6F8C6B89518B278A518C238C51C7
:1028E80006E10A0E8B5DD8B002D0010E01D0000EB1
:1028F800916F926B91519211D8A4C6D78D518E11B8
:10290800D8A40DD094C089F095C08AF0891F8A1F79
:10291800894B8A2B89C087F08AC088F0120094C03E
:1029280087F095C088F01200096E0950D8A404AE4B
:102938001AD001C005F002C006F003C007F004C0B9
:1029480008F0051E061E071E081E052A000E062290
:102958000722082205C00BF006C00CF007C00DF0D6
:1029680008C00EF008D001C00BF002C00CF003C084
:102978000DF004C00EF00150021003100410D8A48A
:1029880009D0000E016E000E026E000E036E000EDE
:10299800046E1200960E0A6E06D00A2AD8900E32DD
:1029A8000D320C320B32000E0B14056E000E0C1497
:1029B800066E000E0D14076EFE0E0E14086E0550FE
:1029C800061007100810D8B40DD0E7D70A2A010E50
:1029D8000B26000E0C220D220E22D8900E320D323C
:1029E8000C320B32000E0B14056E000E0C14066E22
:1029F800000E0D14076EFF0E0E14086E055006101B
:102A080007100810D8B407D0E1D70A06D8900B36BB
:102A18000C360D360E360DBE03D0020E0A60F5D701
:102A28000AA00D9ED8900A320AC005F0066A076A05
:102A3800086A05C008F0076A066A056A05500B129D
:102A480006500C1207500D1208500E120950D8A447
:102A580004AE01D00E8E0BC001F00CC002F00DC008
:102A680003F00EC004F01200000E0101136F000EF7
:102A7800126F50EC1CF0F3EC19F0010E86EC1DF00F
:102A8800110E0101106F3A0EE82EFED7102FFCD759
:102A980000F0D80E0001ED6FFF0EEE6F000EF06F24
:102AA800000EEF6F0DEC1DF0030E0101116F8A0E81
:102AB800106F550EE82EFED7102FFCD7112FFAD71E
:102AC80000D0010112511311D8A464D00CC1FDF03B
:102AD8000DC1FEF0E8EC18F00EC1FDF00FC1FEF0DC
:102AE800000E6FEC17F00EC1FDF00FC1FEF0010EE5
:102AF8004AEC18F0000E896E8B908D908D928D9413
:102B08008B9A8B9C8B9E899A010E86EC1DF0110E78
:102B18000101106F3A0EE82EFED7102FFCD700F0F7
:102B2800090E0001ED6FFF0EEE6F0DEC1DF0E2ECEB
:102B38001CF0010E86EC1DF0110E0101106F3A0E0B
:102B4800E82EFED7102FFCD700F0730E0001ED6FB2
:102B5800FF0EEE6F0DEC1DF0000E896E8B908D90C0
:102B68008D928D948B9A8B9C8B9E899A0EC1FDF0C9
:102B78000FC1FEF0010E6FEC17F0000E896E8B90FE
:102B88008D908D928D948B9A8B9C8B9E899A010146
:102B9800124B132B12511311D8A4120092D7000E06
:102BA8000001916F87AF12D0871F861F851F841F72
:102BB800831F821F811F806D000E81238223832340
:102BC8008423852386238723010E916F8FAF10D02E
:102BD8008F1F8E1F8D1F8C1F8B1F8A1F891F886D4B
:102BE800000E89238A238B238C238D238E238F2306
:102BF800885189118A118B118C118D118E118F11A9
:102C0800D8B43CD0010E906F0AD0D8908837893755
:102C18008A378B378C378D378E378F37902B8FAF1E
:102C2800F4D78851805D895181598A5182598B51D5
:102C380083598C5184598D5185598E5186598F519C
:102C48008759D8A010D08851805F8951815B8A51FB
:102C5800825B8B51835B8C51845B8D51855B8E517C
:102C6800865B8F51875BD8908F338E338D338C334F
:102C78008B338A3389338833902FD3D79151D8B483
:102C880010D0871F861F851F841F831F821F811FE7
:102C9800806D000E8123822383238423852386234A
:102CA800872380C080F081C081F082C082F083C019
:102CB80083F084C084F085C085F086C086F087C024
:102CC80087F01200000E0001886F000E876F80C029
:102CD800D9FF81C0DAFF010EDBBE07D0010EDB5041
:102CE8000CE1180EDE5CD8B008D080C0D9FF81C0D6
:102CF800DAFFDECF87F0DDCF88F0000E8A6F000E96
:102D0800896F59D087518811D8B446D0D890893561
:102D1800D96E8A35DA6E8051D9268151DA22DE5091
:102D2800875D8851800A866FDE50800A8659D8A050
:102D380040D0D8908935D96E8A35DA6E8051D92637
:102D48008151DA22DE50DE10D8B433D0D8908935DC
:102D5800D96E8A35DA6E8051D9268151DA22010E70
:102D6800DBBE27D0010EDB5004E10E0EDE5CD8A0DE
:102D780020D0D8908935D96E8A35DA6E8051D92617
:102D88008151DA22010EDBBE07D0010EDB5011E1C2
:102D9800180EDE5CD8B00DD0D8908935D96E8A353A
:102DA800DA6E8051D9268151DA22DECF87F0DDCF65
:102DB80088F0894B8A2B8251895D8A51800A846FF9
:102DC8008351800A8459D8A09DD787C080F088C0D5
:102DD80081F01200000E5B6E010E5A6E5BBE04D0CD
:102DE8005B5001E172D01200000ECF6E000ECE6E65
:102DF8005A045B10D8A415D0F2968382080EE82EE8
:102E0800FED700F08392F286020E0001816FB70EA2
:102E1800806F4C0EE82EFED7802FFCD7812FFAD773
:102E280000F0020E5A185B10D8A415D0F2968380D1
:102E3800080EE82EFED700F08390F286020E0001FD
:102E4800816FB70E806F4C0EE82EFED7802FFCD70F
:102E5800812FFAD700F0030E5A185B10D8A415D0AA
:102E6800F2968186080EE82EFED700F08196F2864B
:102E7800020E0001816FB70E806F4C0EE82EFED750
:102E8800802FFCD7812FFAD700F0040E5A185B1058
:102E9800D8A415D0F2968184080EE82EFED700F04B
:102EA8008194F286020E0001816FB70E806F4C0E7E
:102EB800E82EFED7802FFCD7812FFAD700F05A4A88
:102EC8005B2A5BBE91D75B5005E1050E5A5CD8B012
:102ED80012008AD7120001010B6F000E01010A6F60
:102EE800000E096F0B51D8A42DD0000E066F000EEE
:102EF800056F0CD0000E0001FA6F020EF96F010188
:102F08000B5118EC0BF00101054B062B0001FD518C
:102F18000101055D0651800A006F0001FE51800A1B
:102F280001010059D8A0E6D7D80E0001ED6FFF0EB9
:102F3800EE6F09C1EFF00AC1F0F00DEC1DF00101D0
:102F4800094B0A2B0B05D8A41200010E86EC1DF0C4
:102F5800110E0101006F3A0EE82EFED7002FFCD7A4
:102F680000F0CE0E0001ED6FFF0EEE6FFB0EFD259B
:102F7800EF6FFF0EFE21F06F0DEC1DF0000E01014A
:102F8800086F000E076F0CD0000E0001FA6F020EDA
:102F9800F96F01010B5118EC0BF00101074B082BDD
:102FA800FB0E006FFF0E016FFDC002F1FEC003F1C2
:102FB80000510227015103230251075D0851800A7D
:102FC800046F0351800A0459D8A0DED7094B0A2B95
:102FD80012002A342B34316E3150D8A409D0000E97
:102FE800286E000E296E000E2A6E000E2B6E12003F
:102FF80028C02CF029C02DF02AC02EF02BC02FF0AD
:10300800200E05D0D8902F322E322D322C32E82EB9
:10301800F9D72C50306E2A8EFF0E2816FF0E29166F
:10302800FF0E2A16000E2B16960E315E31AE0DD00D
:103038003150800A970FD8A0D2D7D8902B322A3295
:1030480029322832313EF9D70DD01F0E316407D00E
:10305800C6D7D890283629362A362B36310631502D
:10306800D8A4F7D73050D8B408D02B1E2A1E291E52
:10307800286C000E29222A222B2228C028F029C0D9
:1030880029F02AC02AF02BC02BF012000101016F91
:10309800000E0101036F000E026F010E86EC1DF099
:1030A800110E0101006F3A0EE82EFED7002FFCD753
:1030B80000F0F30E0001ED6FFF0EEE6F0DEC1DF04A
:1030C800C00E86EC1DF0E10E0001ED6FFE0EEE6FF6
:1030D800000EF06F040EEF6F0DEC1DF0000E0101F5
:1030E800056F000E046F000E0001FA6F020EF96FF3
:1030F8000101015118EC0BF00101044B052B05BF30
:10310800F2D7055104E1050E045DD8A0ECD7D80E1E
:103118000001ED6FFF0EEE6F02C1EFF003C1F0F09A
:103128000DEC1DF00101024B032B12004EA00AD03A
:1031380096C08DF097C08EF094C08FF095C090F037
:10314800FDEC1BF0000199BF05D098C09DF099C017
:103158009EF004D0000E9E6F000E9D6F000E9C6FB7
:10316800000E9B6F0DD0000E856F200E846F94C0EB
:1031780086F095C087F02BEC1AF000019B4B9C2B36
:103188009D519B5D9C51800A9A6F9E51800A9A5965
:10319800D8A0E9D74EB00AD096C08DF097C08EF06F
:1031A80094C08FF095C090F0FDEC1BF096C080F0B5
:1031B80097C081F0B4EC1CF000019D518025946FFC
:1031C8009E518121956F1200000E0101016F000EC2
:1031D800006F0001FD05FE11D8A418D0000E0101F2
:1031E800036F000E026F000E0001FA6F010EF96FF7
:1031F800000E18EC0BF00101024B032B03BFF3D7B1
:10320800035104E10E0E025DD8A0EDD7020E0001B5
:10321800FD19FE11D8A418D0000E0101056F000E8B
:10322800046F000E0001FA6F030EF96F000E18EC20
:103238000BF00101044B052B05BFF3D7055104E141
:103248000E0E045DD8A0EDD70101004B012B120032
:10325800000E0001856F83AF06D0826D831FD8B042
:10326800832B010E856F81AF06D0806D811FD8B08A
:10327800812B010E851B000E876F000E866F825111
:103288008311D8B41CD0010E846F04D0D890823733
:103298008337842B83AFFAD7D89086378737825104
:1032A800805D83518159D8A005D08251805F8351B8
:1032B800815B8681D89083338233842FEDD7855103
:1032C800D8B404D0866D871FD8B0872B86C080F00D
:1032D80087C081F01200000E0001886F000E896F10
:1032E800000E8A6F000E8B6F84518511861187112D
:1032F800D8B42AD0010E8C6F06D0D8908437853781
:10330800863787378C2B87AFF8D7D8908837893797
:103318008A378B378451805D85518159865182590E
:1033280087518359D8A009D08451805F8551815B2A
:103338008651825B8751835B8881D8908733863337
:10334800853384338C2FE1D788C080F089C081F021
:103358008AC082F08BC083F01200000E066E04AEA5
:1033680006D0036C041ED8B0042A010E066E02AE05
:1033780006D0016C021ED8B0022A010E061A000EF1
:10338800086E000E076E03500410D8B41CD0010E4E
:10339800056E04D0D89003360436052A04AEFAD751
:1033A800D890073608360350015C04500258D8A05C
:1033B80005D00350015E0450025A0780D8900432A9
:1033C8000332052EEDD70650D8B404D0076C081E7A
:1033D800D8B0082A07C001F008C002F01200310E68
:1033E8000001846FB20EE82EFED7842FFCD700F0C0
:1033F8008C94030E5BEC1DF0110E0001846F3A0EE5
:10340800E82EFED7842FFCD700F0030E5BEC1DF0EE
:103418007D0EE82EFED7320E68EC1DF0280E68EC03
:103428001DF0080E68EC1DF0010E68EC1DF0110E81
:103438000001846F3A0EE82EFED7842FFCD700F0E7
:10344800060E68EC1DF00F0E86EC1DF01200000150
:1034580086518711D8B404D086518711D8A404D0D6
:1034680084517EEC1DF0120020EE04F08651D9261E
:103478008751DA22DE50DE10D8B416D020EE04F0E0
:103488008651D9268751DA2210EE02F08651E126BC
:103498008751E222DE50E65CE650800A8C6FDE50EF
:1034A800800A8C59D8B0120020EE02F08651D92635
:1034B8008751DA22DE2A000EDD2212000001845133
:1034C800851186118711D8B424D0010E886F06D0D3
:1034D800D8908437853786378737882B87AFF8D7D2
:1034E8008451805D8551815986518259875183590C
:1034F800D8A008D08451805F8551815B8651825B5A
:103508008751835BD8908733863385338433882FFC
:10351800E7D780C080F081C081F082C082F083C08C
:1035280083F01200C69A94869488800E0001806FFA
:10353800960E816F980E826F000E836F8DC091F08A
:103548008EC092F08FC093F090C094F0020ED89085
:103558009137923793379437E82EF9D791C084F092
:1035680092C085F093C086F094C087F06FEC19F094
:1035780000018005C86E800EC76E280EC66E000E4C
:10358800C56E1200360EF66E3B0EF76E000EF86E24
:1035980000EE69F010EE05F00900F5CFEEFFE550FA
:1035A800E150FAE102EE00F0800EEE6AE806FDE175
:1035B80001EE5CF03C0EEE6AE806FDE10001FF6BEF
:1035C80000EE38F0310EEE6AE806FDE16E906E927C
:1035D800000EF86E0001B5EF06F0000E0001826FD4
:1035E800000E816F82828284ED0E00D0E82EFDD716
:1035F80000D08294070E0001806FD00EE82EFED70F
:10360800802FFCD700F082922C0E0001806FE80E0C
:10361800E82EFED7802FFCD700F00001814B822BCB
:10362800825105E10F0E815DD8B01200DBD7120080
:10363800E7C0EBF0E8C0ECF0000E496E000E486EF3
:1036480014D0E5C0C6F0E6C0C7F0EB0E0001C86FA5
:10365800000EC96FE9C0CAF0EAC0CBF043EC09F02C
:103668000001C6514826C7514922EBC0F6FFECC0FD
:10367800F7FF0800F5500009D8A4E3D748C0E5F0E3
:1036880049C0E6F01200A00E00018D6F860E8E6F05
:10369800010E8F6F000E906F96EC1AF097EC1DF0EC
:1036A800000E0001826F100E816F8EEC1DF093ECFE
:1036B8001DF097EC1DF0000E0001826F100E816F57
:1036C8008EEC1DF0000E0001826F320E816F8EECC1
:1036D8001DF093EC1DF01200000E0001826F000E29
:1036E800816F82828284040E0001806F910EE82E21
:1036F800FED7802FFCD78294FA0EE82EFED782924E
:103708003D0E0001806F620EE82EFED7802FFCD799
:1037180000F00001814B822B825105E10F0E815D83
:10372800D8B01200DED712009F0E0001886FFF0E7E
:10373800896F86C08AF087C08BF088518A278951A3
:103748008B238B5106E11A0E8A5DD8B002D0010E88
:1037580001D0000E8C6F8D6B8C518D11D8B405D0B3
:103768005F0E8615866F876B120086C086F087C04D
:1037780087F01200010E0001866F200E801981115A
:10378800D8B414D0F70E826FFF0E836F80C084F018
:1037980081C085F08251842783518523855104E1B6
:1037A800050E845DD8A002D0000E866F86C080F01A
:1037B800816B12000600D9CF36F0DACF37F0F2A0CD
:1037C80012D058505910D8B405D0F29613EC04F022
:1037D800F290F286582803E15928D8B404D0010E93
:1037E8000101776FF09037C0DAFF36C0D9FF6E92CB
:1037F8001100000E0001936F000E926F0CD091C063
:1038080084F0856B8FC086F090C087F02BEC1AF09F
:103818000001924B932B92518D25D96E93518E2195
:10382800DA6EDF50916F9151D8B41200E8D79F0E2D
:103838000001826FFF0E836F200E8011846F000ECF
:103848008111856F8251842783518523855106E133
:103858001A0E845DD8B002D0010E01D0000E806F20
:10386800816B1200000193BF05D0935110E19205BE
:10387800D8B00DD092C094F093C095F0941F951FC6
:10388800944B952B94C092F095C093F0120092C07F
:1038980092F093C093F01200000E936E0F0E8A6E92
:1038A800000E926E0F0E896E94929494000E8C6E98
:1038B800000E956E0F0EC16E000E946E000E8B6E8C
:1038C800000E966E000E8D6E12009F0E0001826F24
:1038D800FF0E836F80C084F081C085F082518427F9
:1038E80083518523855106E11A0E845DD8B002D034
:1038F800010E01D0000E806F816B1200BF0E000117
:10390800826FFF0E836F80C084F081C085F0825182
:10391800842783518523855106E11A0E845DD8B02A
:1039280002D0010E01D0000E806F816B1200D00E04
:103938000001826FFF0E836F80C084F081C085F024
:103948008251842783518523855106E10A0E845DBF
:10395800D8B002D0010E01D0000E806F816B12002A
:1039680080C082F081C083F003D00001804B812B9E
:1039780080C0D9FF81C0DAFFDF50D8A4F6D7000194
:103988008251805D806F83518159816F1200000ED2
:10399800F2BE010E0001806FF29E8C86140EE82E96
:1039A800FED700D08C96530EE82EFED700F000010B
:1039B80080B102D0F29E01D0F28E1200000E946EF9
:1039C80070EC1BF0F1EC1AF0070E0001846F580E32
:1039D800836F590EE82EFED7832FFCD7842FFAD792
:1039E80000D070EC1BF012000001816F74EC1DF028
:1039F800C58674EC1DF0C9CF82F074EC1DF000018F
:103A080081B102D0C59A01D0C58AC588000182510A
:103A18001200EF0E0001F76F000EF86F000EE56F51
:103A2800000EE66FEDC0E7F0EEC0E8F0F70EE96FC4
:103A3800000EEA6F1CEC1BF012000001805182039B
:103A4800F3CF84F0F4CF85F080518303F3508527BA
:103A580081518203F350852784C080F085C081F0AE
:103A6800120097EC1DF0000E0001826F100E816F9E
:103A78008EEC1DF0000E0001826F390E816F8EEC06
:103A88001DF093EC1DF0120097EC1DF0000E0001E4
:103A9800826F100E816F8EEC1DF0000E0001826F98
:103AA800350E816F8EEC1DF093EC1DF012000001B5
:103AB800816F8C500F0B8C6E00018139F00B8C10CC
:103AC8008C6ECBEC1CF012000001826F0001823971
:103AD8000F0B5BEC1DF0000182515BEC1DF0120036
:103AE800C7B4FED7C5CF80F01F0E00018017D8B429
:103AF8001200F6D70001836F8C840001835168ECB3
:103B08001DF012000001836F8C940001835168EC52
:103B18001DF0120074EC1DF081C0C9FF120074EC96
:103B28001DF0C584120074EC1DF0C5801200000061
:033B3800FFFF018B
:10FDBA00003132334134353642373839432A302319
:10FDCA004400501000041040502564204465703AE5
:10FDDA0025642C546F743A2564002020202020309A
:10FDEA002D4D656E752020202020003C2A202020E1
:10FDFA00302D4D656E7520202020200044697374D3
:10FE0A00313D25642C4176673D25642000446973A1
:10FE1A0074343D25642C4176673D256420002020FA
:10FE2A00202020302D4D656E75202020233E003C79
:10FE3A002A202020302D4D656E75202020233E007B
:10FE4A006465742C25642C2074636E742025640008
:10FE5A0044697374323D25642C4176673D256400FC
:10FE6A0044697374333D25642C4176673D256400EB
:10FE7A0033202D20446174652654696D6520004441
:10FE8A00697374546F53746172743A2564004D61D6
:10FE9A006368696E6520496E2055736500253032A6
:10FEAA00782F253032782F25303278002530327875
:10FEBA003A253032783A25303278004E6F2E20506B
:10FECA006F6C65733A202564004E6F2E2054697258
:10FEDA0065733A20256400537465702073706565F4
:10FEEA006420256400627265616B206865726565CD
:10FEFA003F006D6F72652077616974696E670053A0
:10FF0A0074657070657220646F6E65004441544573
:10FF1A0020262054494D4500737465707361646AE4
:10FF2A002025640061766720646973742025640063
:10FF3A0044697374546F434C3A25640032202D206F
:10FF4A0053756D6D61727900706F6C6573206420F2
:10FF5A002564006D696E696D756D20256400706F8A
:10FF6A006C657320646F6E6500536572766F2064EA
:10FF7A006F6E65004469737431203D2058004469EE
:10FF8A00737432203D2058004469737433203D2035
:10FF9A0058004469737434203D20580064756E20FB
:10FFAA00627265616B006261636B77617264730090
:10FFBA00646F6E6520776169740031202D20537457
:10FFCA006172740073746570707020256400636ECA
:10FFDA0074206973202564004F702054696D653A56
:10FFEA00006F7220686572650073746570310077FE
:05FFFA006861740000C5
:020000040020DA
:08000000FFFFFFFFFFFFFFFF00
:020000040030CA
:0E000000FF021F1EFF8380FF0F400FE00F4026
:00000001FF
