:020000040000FA
:100000003E02040000000000240800002808000050
:100010002C080000300800003408000038080000F8
:100020003C080000400800004408000048080000A8
:100030004C08000050080000540800005808000058
:100040005C08000060080000640800006808000008
:100050006C080000700800007408000078080000B8
:100060007C08000080080000840800008808000068
:100070008C08000090080000940800009808000018
:100080009C080000A0080000A4080000A8080000C8
:10009000AC080000B0080000B4080000B808000078
:1000A000BC080000C0080000C4080000C808000028
:1000B000CC080000D0080000D4080000D8080000D8
:1000C000DC080000E0080000E4080000E808000088
:1000D000EC080000F0080000F4080000F808000038
:1000E000FC080000000900000409000008090000E5
:1000F0000C09000010090000140900001809000094
:100100001C09000020090000240900002809000043
:100110002C090000300900003409000038090000F3
:100120003C090000400900004409000048090000A3
:100130004C09000050090000540900005809000053
:100140005C09000060090000640900006809000003
:100150006C090000700900007409000078090000B3
:100160007C09000080090000840900008809000063
:100170008C09000090090000940900009809000013
:100180009C090000A0090000A4090000A8090000C3
:10019000AC090000B0090000B4090000B809000073
:1001A000BC090000C0090000C4090000C809000023
:1001B000CC090000D0090000D4090000D8090000D3
:1001C000DC090000E0090000E4090000E809000083
:1001D000EC090000F0090000F4090000F809000033
:1001E000FC090000000A0000040A0000080A0000E0
:1001F0000C0A0000100A0000140A0000180A00008F
:10020000FFFFFF00FFFFFF0024F0000028F00000C8
:100210002CF0000030F0000034F0000038F0000056
:100220003CF0000040F0000044F0000048F0000006
:100230004CF0000050F0000054F0000058F00000B6
:100240005CF0000060F0000064F0000068F0000066
:100250006CF0000070F0000074F0000078F0000016
:100260007EF0000080F0000084F0000088F00000C4
:100270008CF0000090F0000094F0000098F0000076
:100280009CF00000A0F00000A4F00000A8F0000026
:10029000ACF00000B0F00000B4F00000B8F00000D6
:1002A000BCF00000C0F00000C4F00000C8F0000086
:1002B000CCF00000D0F00000D4F00000D8F0000036
:1002C000DCF00000E0F00000E4F00000E8F00000E6
:1002D000ECF00000F0F00000F4F00000F8F0000096
:1002E000FCF0000000F1000004F1000008F1000043
:1002F0000CF1000010F1000014F1000018F10000F2
:100300001CF1000020F1000024F1000028F10000A1
:100310002CF1000030F1000034F1000038F1000051
:100320003CF1000040F1000044F1000048F1000001
:100330004CF1000050F1000054F1000058F10000B1
:100340005CF1000060F1000064F1000068F1000061
:100350006CF1000070F1000074F1000078F1000011
:100360007CF1000080F1000084F1000088F10000C1
:100370008CF1000090F1000094F1000098F1000071
:100380009CF10000A0F10000A4F10000A8F1000021
:10039000ACF10000B0F10000B4F10000B8F10000D1
:1003A000BCF10000C0F10000C4F10000C8F1000081
:1003B000CCF10000D0F10000D4F10000D8F1000031
:1003C000DCF10000E0F10000E4F10000E8F10000E1
:1003D000ECF10000F0F10000F4F10000F8F1000091
:1003E000FCF1000000F2000004F2000008F200003E
:1003F0000CF2000010F2000014F2000018F20000ED
:1004000020FF2F0060198800C902A80000002A0000
:10041000210020000D000700F1EE2B00810F50009D
:1004200006003200CBC2BF000008A3000300320068
:1004300020080400000000000300370083E0A8004B
:1004400020F0040000000000000006000400FA0094
:10045000E0BF9F00F1BF9F00910180006FF89700FF
:100460000080FB00900188006FB897001000BA0070
:10047000910188000080FA00000006000F80200033
:10048000807F2400000188000000000000020200BC
:10049000000000000040DA000000FE00910188002A
:1004A0001009BA0000000600910188001049BA0046
:1004B00000000600000000000000FE00FFFFFF003B
:1004C000FFFFFF00FFFFFF00FFFFFF00FFFFFF0038
:1004D000FFFFFF00FFFFFF00FFFFFF00FFFFFF0028
:1004E000FFFFFF00FFFFFF00FFFFFF00FFFFFF0018
:1004F000FFFFFF00FFFFFF00FFFFFF00FFFFFF0008
:10100000501A000000010000220100000000000052
:10101000FFFFFF00FFFFFF00FFFFFF00FFFFFF00DC
:10102000FFFFFF00FFFFFF00FFFFFF00FFFFFF00CC
:10103000FFFFFF00FFFFFF00FFFFFF00FFFFFF00BC
:1010400060EC040000000000860E040000000000B8
:101050001A3A040000000000203A040000000000DA
:10106000263A0400000000002C3A040000000000B2
:10107000860E040000000000860E04000000000040
:10108000860E040000000000860E04000000000030
:10109000860E040000000000860E04000000000020
:1010A000408E040000000000860E040000000000D6
:1010B000860E040000000000860E04000000000000
:1010C000DC36040000000000860E04000000000072
:1010D000860E0400000000005E9D04000000000079
:1010E000860E040000000000860E040000000000D0
:1010F0000A76040000000000860E040000000000D4
:10110000860E040000000000860E040000000000AF
:10111000860E040000000000860E0400000000009F
:101120000239040000000000860E040000000000E8
:10113000860E040000000000860E0400000000007F
:10114000860E040000000000860E0400000000006F
:10115000860E040000000000860E0400000000005F
:10116000860E040000000000CC38040000000000DF
:10117000860E040000000000860E0400000000003F
:10118000860E040000000000860E0400000000002F
:10119000860E040000000000860E0400000000001F
:1011A000860E040000000000860E0400000000000F
:1011B000860E040000000000860E040000000000FF
:1011C000860E040000000000860E040000000000EF
:1011D000860E040000000000860E040000000000DF
:1011E000860E040000000000860E040000000000CF
:1011F000860E040000000000860E040000000000BF
:10120000860E040000000000860E040000000000AE
:10121000860E040000000000860E0400000000009E
:10122000860E040000000000860E0400000000008E
:10123000860E040000000000860E0400000000007E
:10124000860E040000000000860E0400000000006E
:10125000860E040000000000860E0400000000005E
:10126000860E040000000000860E0400000000004E
:10127000860E040000000000860E0400000000003E
:10128000860E040000000000860E0400000000002E
:10129000860E040000000000860E0400000000001E
:1012A000860E040000000000860E0400000000000E
:1012B000860E040000000000860E040000000000FE
:1012C000860E040000000000860E040000000000EE
:1012D000860E040000000000860E040000000000DE
:1012E000860E040000000000860E040000000000CE
:1012F000860E040000000000860E040000000000BE
:10130000860E040000000000860E040000000000AD
:10131000860E040000000000860E0400000000009D
:10132000860E040000000000860E0400000000008D
:10133000860E0400000000005C380400000000007D
:10134000860E040000000000860E0400000000006D
:10135000860E040000000000860E0400000000005D
:10136000860E040000000000860E0400000000004D
:10137000860E040000000000860E0400000000003D
:10138000860E040000000000860E0400000000002D
:10139000860E040000000000860E0400000000001D
:1013A000860E040000000000860E0400000000000D
:1013B000860E040000000000860E040000000000FD
:1013C000860E040000000000860E040000000000ED
:1013D000860E040000000000860E040000000000DD
:1013E000860E040000000000860E040000000000CD
:1013F000860E040000000000860E040000000000BD
:10140000860E040000000000860E040000000000AC
:10141000860E040000000000860E0400000000009C
:10142000860E040000000000860E0400000000008C
:10143000860E040000000000FFFFFF00FFFFFF001A
:10144000FFFFFF00FFFFFF00FFFFFF00FFFFFF00A8
:10145000FFFFFF00FFFFFF00FFFFFF00FFFFFF0098
:10146000FFFFFF00FFFFFF00FFFFFF00FFFFFF0088
:10147000FFFFFF00FFFFFF00FFFFFF00FFFFFF0078
:10148000FFFFFF00FFFFFF00FFFFFF00FFFFFF0068
:10149000FFFFFF00FFFFFF00FFFFFF00FFFFFF0058
:1014A000FFFFFF00FFFFFF00FFFFFF00FFFFFF0048
:1014B000FFFFFF00FFFFFF00FFFFFF00FFFFFF0038
:1014C000FFFFFF00FFFFFF00FFFFFF00FFFFFF0028
:1014D000FFFFFF00FFFFFF00FFFFFF00FFFFFF0018
:1014E000FFFFFF00FFFFFF00FFFFFF00FFFFFF0008
:1014F000FFFFFF00FFFFFF00FFFFFF00FFFFFF00F8
:10150000FFFFFF00FFFFFF00FFFFFF00FFFFFF00E7
:10151000FFFFFF00FFFFFF00FFFFFF00FFFFFF00D7
:10152000FFFFFF00FFFFFF00FFFFFF00FFFFFF00C7
:10153000FFFFFF00FFFFFF00FFFFFF00FFFFFF00B7
:10154000FFFFFF00FFFFFF00FFFFFF00FFFFFF00A7
:10155000FFFFFF00FFFFFF00FFFFFF00FFFFFF0097
:10156000FFFFFF00FFFFFF00FFFFFF00FFFFFF0087
:10157000FFFFFF00FFFFFF00FFFFFF00FFFFFF0077
:10158000FFFFFF00FFFFFF00FFFFFF00FFFFFF0067
:10159000FFFFFF00FFFFFF00FFFFFF00FFFFFF0057
:1015A000FFFFFF00FFFFFF00FFFFFF00FFFFFF0047
:1015B000FFFFFF00FFFFFF00FFFFFF00FFFFFF0037
:1015C000FFFFFF00FFFFFF00FFFFFF00FFFFFF0027
:1015D000FFFFFF00FFFFFF00FFFFFF00FFFFFF0017
:1015E000FFFFFF00FFFFFF00FFFFFF00FFFFFF0007
:1015F000FFFFFF00FFFFFF00FFFFFF00FFFFFF00F7
:10160000328904000000000036460400000000009B
:1016100056860400000000008001780002003700B8
:10162000815978000201E9000200E000FCFF3A0065
:10163000000006000B00370010427800914178004E
:10164000834F5200040032000081EB000700390094
:1016500012002000050037000000E8008100E800CB
:101660000201E9000200E000F3FF3A000200780006
:10167000000006008001780002003700B1597800B0
:101680000201E9000200E000FCFF3A000000060051
:10169000889FBE008A9FBE008C1F78002D01070026
:1016A0003401330003866C006450E10024003200F2
:1016B0006420E100270032006150E1002200320086
:1016C0006120E100210032008B854200EB07B10070
:1016D0000134B800003AB8000804420089844A0086
:1016E000013AB8000030B8008880400009014A0083
:1016F00004003300000040008180480002014900DE
:101700008B05E900C909DD0083017000010032008A
:1017100013002000C814DE004814DD004709DE0075
:101720001200B200C808DE00088470002101070022
:1017300001F0A1000CF0A70001F0A0001601370095
:101740006120E100180132000801BE000200BE0065
:10175000F7FF37006150E100FCFF3A00120137004B
:101760000001BE00390107000470A70003F0A100CA
:1017700003F8A30013003A006509B100100032001D
:10178000090035006928E100020035000100280049
:101790000000050000004000818048008502E9004B
:1017A000FCFF3A0000000600F88F420005003500FB
:1017B0008100D1000080D3008502E800FCFF3A00E0
:1017C000000006008000EB0000000500889FBE00BE
:1017D0008A9FBE00010578000100E000040035008A
:1017E00008003C000000E000200032000500370047
:1017F00060001000E080180002003B0001F02C00A7
:101800001A0037000004BE006011B8006B09200008
:101810000982CF00020039000882CF000441B000E5
:10182000694252000E00320008003B0082817100C4
:10183000610164008904D1000884D3008B05E800AD
:101840000442E800F9FF3A000500370008044400AC
:1018500089844C008B05E9000442E900FBFF3A0053
:10186000D40007000AF0A70001F0A0004F05BE0059
:101870004F04BE000000060003F0A200889FBE00D7
:101880008A9FBE008C1F7800B2000700B9003300A9
:101890006450E1004F0032006420E1005200320049
:1018A00003826C0007003B000905D0000306D0004E
:1018B000820F54000C065D00020039000200320065
:1018C00089017800030678008582550004003D00F8
:1018D0000003FD008103FD008502EA008B854200C4
:1018E000840F720002003B0060001000E0801800CE
:1018F0006011B8000005EB007A28E1000A00390009
:1019000006007800C75DDD00F707B200878075002C
:101910002D003700828171000A01780061056000A6
:101920008180D1000080D3008502E900F9FF3B00EF
:10193000060440008784480002003B006004140055
:10194000E0841C000988A300070032008A8171002E
:1019500082817100610164008904D1000884D30090
:101960008B05E800170037000978A30013003A0040
:101970000B00E000130034008B05E900080444006C
:1019800089844C000A4474000978A3000D003A00D1
:101990000B00E000070034008B05E9000804440058
:1019A00089844C0001003A000B0020000978A30054
:1019B000F7FF32000001EB00020037008281710066
:1019C0000A0178007B0007000CF0A70001F0A000DE
:1019D000710037006420E10002003A00838F6C0040
:1019E000710033000801BE000200BE006A0037002B
:1019F000889FBE008A9FBE008C1F7800550007009C
:101A00005C00330003866C006450E1002E0032005D
:101A10006420E100330032006150E1002F00320009
:101A20006120E1003100320085855500EB07B000F0
:101A300009002000080420000500370008044400C5
:101A400089844C000A0031000603430087834B0061
:101A50000001530081815B00F8FF33000203BE00E8
:101A60000800A0000804440089844C00F6FF3900F7
:101A7000C639DD008301730001003200130020002D
:101A80008904D1000884D3000998A300050032001E
:101A90000800A7000300A0008904D1000884D30037
:101AA0008B05E8008904D1000884D3000001EB0015
:101AB0000281D2003F00070001F0A1000CF0A70056
:101AC00001F0A000340037006420E100360032004D
:101AD0000801BE000200BE00F7FF37006120E100F0
:101AE000310032006000B800F3FF37000000200032
:101AF00001F82700F0FF37006022B800060220003E
:101B00000000D0008180D2000482D2008582D20001
:101B10000000A0000202520083825A00030031003C
:101B20000202420083824A000000A1000603E9008D
:101B3000F3FF3A0000000600F4FF2F0058003700C2
:101B40001400200056003700EBFF07000400BE0021
:101B5000000006000004BE003C0007000003BE00B9
:101B60000405BE000200BE0038000700844F750067
:101B7000000006000200BE006450E10005003600CF
:101B80006420E100020036000968A30001003A0069
:101B90000800BE000160A0004F0678004F05BE009F
:101BA0004F04BE0000000600F0FF2F00F1FF2700E9
:101BB000F9FF370081002000618055000B003D00D7
:101BC0000B00200061FE2F000100E1001D00340029
:101BD00082817100610164008904D1000884D3000E
:101BE0000000E800FAFF3A00710020006100640084
:101BF000030070000200600009003200610444002C
:101C0000E0844C000988A500050032008B05E8003F
:101C10006808E10002003A008904D1000884D3007A
:101C2000F20F20000258E10005003D00C75DDD0015
:101C3000F907B200898075000800780000000600EE
:101C40000BF827008B00780000000500C70ADE00B3
:101C5000F107B200F50FB20008003200E1CF4200F8
:101C6000020032000170A00024000500810F700006
:101C7000010032000408050044000500810F7000D7
:101C800002003A00140005008502E900000040004F
:101C900081C04800FCFF3B000170A000240005004B
:101CA000889FBE008A9FBE00841F7800A9FF07009E
:101CB0004F00780011003300F0FF2F00838F6C007D
:101CC00006003B00040565000A00A7000800370075
:101CD00009F0A6001000200008003700820F540011
:101CE000838F5C00030039001000200001003E00DB
:101CF0000000200009F0A7000000EA004F05BE0028
:101D00004F04BE000000E000000006000000FE00DE
:101D10000400FA000040EB00304798000040EB0060
:101D2000204798000040EB00104798000040EB006F
:101D3000004F7800712821000040EB0080487800B7
:101D4000612821000040EB00804878004E4E0200E0
:101D500000000000883E0200000000000000370084
:101D60003E4090000004E0000B003A00100020000C
:101D70008E430200000000000004E00006003A006C
:101D800010C0B3003047980001C2B3000040EB0020
:101D9000C43C02000000000056000700D0032000F1
:101DA0008E430200000000000004E0002E0032001C
:101DB000C00320008E43020000000000004F7800A6
:101DC000900420008E430200000000000004E000A8
:101DD00025003A000040EB00683E020000000000D1
:101DE0000001EB00D1032000100020005040020051
:101DF000000000001E04E00015003A000040EB0067
:101E0000F6750200000000000040EB00104798004B
:101E1000680E07000004E00001003200490E0700D0
:101E2000850707000040EB0080440200000000002E
:101E3000803E200001002000AA3E020000000000B9
:101E400010C0B300F6750200000000000300370068
:101E500010C0B300804402000000000010C0B300B6
:101E6000683E020000000000920E0700CBC2BF00D7
:101E7000614060000004E00014003A002E40900031
:101E80000004E000B6FF3A0010C0B30020479800FD
:101E9000E0EE200000489300624060000004E00093
:101EA000020032009C6902000000000010C0B30074
:101EB000683E0200000000000071220001002000C6
:101EC000AA3E020000000000A5FF37002E4090004F
:101ED0000004E000A2FF3200007122000100200097
:101EE000AA3E0200000000000040EB0020479800DE
:101EF0009BFF37001C00FA00881F780010C0B30059
:101F0000004F7800620537000040EB00683E020099
:101F10000000000020732100104078000004E00061
:101F200005003A000001EB00810020000000EB00FA
:101F300050400200000000000E80E8002200200057
:101F40000300200068850200000000000001EB0093
:101F5000910020001000200050400200000000000E
:101F60009E00900050022000808F50001D00320023
:101F70009E009000E0032000808F50001900320086
:101F80009E00900090022000808F500015003200CB
:101F90009E00900050062000808F500011003200FB
:101FA0009E00900080062000808F50000D003200BF
:101FB0009E009000D0022000808F50000900320067
:101FC0001E009000F70F5000060032000E80E8005F
:101FD0008040EB002200200003002000E486020085
:101FE000000000001E0090006101B80030FF2F00CB
:101FF000F1FF2F000201400083814800420F98004A
:10200000530F980070092000010020004E09900035
:10201000DE099000800F5100818F590004053E00B9
:102020004E089000DE08900000600100A500370017
:10203000E3003700310137007C0137000B02370025
:10204000C6013700E70137001D0237003F023700A5
:10205000F70437008D003700F5043700F40437002B
:10206000F3043700F2043700F1043700F0043700BE
:10207000EF043700EE0437006204370080023700B7
:10208000EB04370061023700F104370087043700A2
:102090008F0437005F023700E504370089043700FA
:1020A000E3043700E2043700E1043700820437001C
:1020B000DF043700DE043700DD043700DC043700BE
:1020C000DB043700DA043700D9043700D8043700BE
:1020D000D7043700D6043700D5043700D4043700BE
:1020E000D3043700D2043700D1043700D0043700BE
:1020F000D70437007F0437007502370089043700A2
:10210000CD033700CA0437005E043700850337006B
:10211000EF033700A7043700C504370093043700E6
:10212000C3043700C2043700C1043700C0043700BD
:10213000BF043700BE043700EF03370067023700E3
:102140006A0237006D0237007002370083023700E1
:1021500086023700F1033700880237008B02370010
:10216000B3043700B2043700B1043700B0043700BD
:10217000F80337000504370016043700170437004A
:102180001804370071033700A9043700B004370082
:10219000A7043700A604370018043700A40437004A
:1021A000A3043700A2043700A1043700A0043700BD
:1021B0009F0437009E04370090023700B3023700B7
:1021C0009B0437009A0437009904370098043700BD
:1021D00097043700960437009504370094043700BD
:1021E00093043700920437009104370090043700BD
:1021F0008F0437008E0437008D0437008C043700BD
:102200008B043700C0023700E2023700EE023700CD
:10221000FC02370016033700930337001203370020
:1022200083043700820437008104370080043700BC
:102230007F0437007E0437007D04370098033700A1
:102240008B03370090033700790437007804370098
:102250007704370076043700750437001C03370015
:102260002203370072043700710437002603370059
:102270004A0237006E0437003A0337004F04370034
:10228000500437005C0437006204370064004700E4
:1022900022002000030020006885020000000000EA
:1022A00080850200000000000080FB0010079800FD
:1022B0001E009000804078002E009000B3060700BA
:1022C0006304370064004700220020000300200060
:1022D00068850200000000002E0090000000E00071
:1022E000340032005A74020000000000AE0090007A
:1022F0002028210011009800AE009000E0EE2000A0
:102300004128990021282100100020008008780031
:10231000F47402000000000010002000643D020080
:102320000000000010C0B300A83C02000000000044
:1023300020002000D8730200000000007000200080
:102340008E430200000000000004E000050032009F
:1023500000092D0031002000AA3E0200000000000C
:102360000400370060D8230001002000AA3E0200CC
:1023700000000000E66E02000000000002002000E5
:10238000A3472400480B020000000000B00B02002D
:102390000000000020079800640047008040EB0028
:1023A0002200200003002000E4860200000000005C
:1023B000270437005A74020000000000240437008C
:1023C000640047002200200003002000688502000E
:1023D000000000002E0090000000E00041003200EC
:1023E0000040EB00F2760200000000005A74020088
:1023F00000000000212821008002200090009800A9
:10240000212821001000200080087800AE009000F4
:10241000E0EE200051289900E1EE200061D8920002
:102420000000A100E0D89A00F4740200000000004F
:1024300010002000643D02000000000010C0B30046
:10244000A83C02000000000020002000D873020019
:102450000000000010C0B3004C7702000000000034
:1024600010C0B300F27602000000000070002000EF
:102470008E430200000000000004E000050032006E
:1024800000092D0031002000AA3E020000000000DB
:102490000400370060D8230001002000AA3E02009B
:1024A000000000002A6F020000000000020020006F
:1024B000A3472400480B020000000000B00B0200FC
:1024C0000000000020079800640047008040EB00F7
:1024D0002200200003002000E4860200000000002B
:1024E000DB0337000040EB00F27602000000000042
:1024F0005A74020000000000D503370010C0B3007A
:102500004C77020000000000368802000000000046
:102510000000EB00200798003600370052850200CB
:10252000000000000004E000FCFF32000E80E80024
:102530002200200003002000688502000000000047
:102540002E00900036720200000000007000200093
:102550008E430200000000000004E000050032008D
:1025600000092D0031002000AA3E020000000000FA
:102570000400370060D8230001002000AA3E0200BA
:1025800000000000786F0200000000003007980093
:10259000640047008040EB00220020000300200080
:1025A000E486020000000000660047008040EB0067
:1025B0002200200003002000E4860200000000004A
:1025C0000000EB0030079800680047008040EB00F7
:1025D0002200200003002000E4860200000000002A
:1025E00036880200000000002E00900064004000C9
:1025F00020079800AE00900000032000808F50005C
:10260000C6FF360052850200000000000004E00012
:10261000FCFF32000E80E8002200200003002000B2
:1026200068850200000000008903370010C0B30075
:10263000F276020000000000368802000000000070
:102640000000EB002007980036003700528502009A
:10265000000000000004E000FCFF32000E80E800F3
:102660002200200003002000688502000000000016
:102670002E0090001C70020000000000700020007E
:102680008E430200000000000004E000050032005C
:1026900000092D0031002000AA3E020000000000C9
:1026A0000400370060D8230001002000AA3E020089
:1026B00000000000786F0200000000003007980062
:1026C000640047008040EB0022002000030020004F
:1026D000E486020000000000660047008040EB0036
:1026E0002200200003002000E48602000000000019
:1026F0000000EB0030079800680047008040EB00C6
:102700002200200003002000E486020000000000F8
:1027100036880200000000002E0090006400400097
:1027200020079800AE00900000072000808F500026
:10273000C6FF360052850200000000000004E000E1
:10274000FCFF32000E80E800220020000300200081
:1027500068850200000000003D03370010C0B30090
:10276000F27602000000000036880200000000003F
:102770000E00370052850200000000000004E00057
:10278000FCFF32000E80E800220020000300200041
:10279000688502000000000036880200000000008A
:1027A0001E009000C4730200000000009E00900014
:1027B000F00F2000808F5000EEFF3A00528502009B
:1027C000000000000004E000FCFF32000E80E80082
:1027D00022002000030020006885020000000000A5
:1027E0001B03370010C0B3004C770200000000004C
:1027F00036880200000000000E00370052850200FB
:10280000000000000004E000FCFF32000E80E80041
:102810002200200003002000688502000000000064
:1028200036880200000000001E009000CE730200F7
:10283000000000009E009000F00F2000808F5000EC
:10284000EEFF3A0052850200000000000004E000A4
:10285000FCFF32000E80E800220020000300200070
:102860006885020000000000F9023700E4E2A800D9
:10287000E462A90010C0B3004C7702000000000021
:10288000E66E02000000000002002000A3472400C2
:10289000480B020000000000B00B02000000000026
:1028A00020079800640047008040EB0022002000D1
:1028B00003002000E486020000000000E40237006C
:1028C000FE750200000000000E80E80022002000DB
:1028D0000300200068850200000000001E04900034
:1028E0006140B900E60B020000000000200F9800D4
:1028F000310F98000800E00008003D0002002000B1
:10290000037824002E089000BE0890003E0C0200C0
:1029100000000000200F9800310F98002E08900052
:10292000BE08900002002000A3472400F80C02001B
:1029300000000000F47002000000000010C0B300AE
:10294000F276020000000000C1023700FE750200AE
:10295000000000000E80E80022002000030020009C
:102960006885020000000000E4E2A800E462A9001B
:102970001E0490006140B900E60B02000000000058
:10298000000F9800110F98000800E00008003D00BB
:1029900002002000037824000E0890009E0890009A
:1029A0003E0C020000000000000F9800110F98007C
:1029B0000E0890009E08900002002000A34724000B
:1029C000F80C020000000000B472020000000000D9
:1029D00040232100100798000E80E8008040EB00A3
:1029E0002200200003002000E48602000000000016
:1029F00010C0B3004C770200000000000040EB0064
:102A00004C7702000000000091023700F20407003A
:102A10008F0237006053020000000000200798007A
:102A20002E0090008040EB00614F98000000E00015
:102A300002003A0012C0B300624F98008040EB00E1
:102A40006E48900093040700640047008040EB004C
:102A50002200200003002000E486020000000000A5
:102A60002173210010C0B3008048780001C2B30078
:102A70000040EB00C43C020000000000740237007C
:102A80006400470022002000030020006885020047
:102A900000000000AE00900050AA2500808F50007A
:102AA00007003A008040EB0010C0B3007904070033
:102AB0003688020000000000900B07006402370017
:102AC0008040EB000040EB0072040700600237001A
:102AD000C4070700350807005D02370011C0B300C6
:102AE00020002000A30807005902370011C0B300DE
:102AF0000000EB009F0807005502370011C0B3002B
:102B0000300020009B08070051023700E0EE200053
:102B1000E0D8920000C8B30000C060000004E000EC
:102B20000A003200E0EE200060D892000044B200BB
:102B30000004E000050032001E0B07000004E00066
:102B400002003200C10A07004102370011C0B30081
:102B500040002000870807003D02370011C0B30085
:102B600010002000830807003902370011C0B300AD
:102B7000700020007F0807003502370011C0B30045
:102B8000600020007B0807003102370011C0B3004D
:102B900050002000770807002D023700640047002E
:102BA00022002000030020006885020000000000D1
:102BB000E007210042012000030020006885020098
:102BC0000000000020002000D87302000000000078
:102BD000004F7800000000008A4D02000000000055
:102BE000004F78005A740200000000008040EB00A3
:102BF0001E407800270407001502370021732100CA
:102C00000040EB00804878003073210010407800CD
:102C1000E14F500005003A00E1EE2000114893001A
:102C20000030A00090489B0004003700E1EE200037
:102C3000114893000030A10090489B0010C0B300E1
:102C4000E887020000000000FA0A07000004E00024
:102C5000040032008040EB0010C0B3000D040700F8
:102C6000030037008040EB000040EB000904070040
:102C700000F820008040EB0042002000030020000C
:102C8000E486020000000000F101370030732100EB
:102C900010407800E14F500005003A00E1EE2000BE
:102CA000114893000030A00090489B0004003700BA
:102CB000E1EE2000114893000030A10090489B00F5
:102CC00011C0B3000000EB001E090700004F7800A0
:102CD0001E04E00008003A00D60A0700004F780002
:102CE0001E04E000040032008040EB000000EB0016
:102CF00014090700004F78008040EB001E40780068
:102D0000E4030700D201370011C0B3001000200017
:102D10000C090700004F78008040EB001E4078004F
:102D2000DC0307001E04E000C901320036880200FF
:102D30000000000040732100104078000004E00013
:102D4000040032000071220001002000AA3E0200AF
:102D50000000000011C0B30060002000F908070067
:102D6000004F780040732100104078000004E0001C
:102D7000040032000071220001002000AA3E02007F
:102D8000000000008040EB001E407800D9030700DF
:102D9000AF01370011C0B3000000EB00E9080700E5
:102DA000004F78001E04E000030032003A4D02009C
:102DB00000000000004F78008040EB001E407800CB
:102DC000B4030700A20137007A0A07000004E000FC
:102DD0000500320011C0B30020002000D908070010
:102DE000004F78000300370011C0B30090002000AE
:102DF000E00707008040EB001E407800A5030700B5
:102E00009301370011C0B3000000EB00CD080700AC
:102E1000004F78001E04E000040032006A00470002
:102E20000A4B020000000000004F78001E04E00082
:102E300003003A0011C0B30040002000C1080700A1
:102E40008040EB001E407800920307006A004700B4
:102E50008040EB004200200003002000E4860200D6
:102E6000000000007A013700900107007801370068
:102E70006A0047004200200003002000688502002D
:102E80000000000011C0B3000000EB00AD08070017
:102E9000004F78001E04E000040032006A00470082
:102EA0009A4B020000000000004F78001E04E00072
:102EB00003003A0011C0B30040002000A108070041
:102EC0008040EB001E40780072030700600137006D
:102ED0004E4D020000000000004F78001E04E0008C
:102EE0005B013A000000000059013700624D02000A
:102EF00000000000004F78001E04E00054013A007A
:102F00000000000052013700764D02000000000072
:102F1000004F78001E04E0004D013A000000000060
:102F20004B013700A039210001042000560607009C
:102F300010C0B300E8870200000000008040EB00F2
:102F400010C0B3005303070041013700250D0700EF
:102F5000004F78008040EB001E4078004D030700D2
:102F60003B013700640047002200200003002000DE
:102F7000688502000000000010C0B300E88702006E
:102F800000000000E0EE2000204893006140600057
:102F90000004E000220032002E0090000000E0005B
:102FA0000D00320020002000D87302000000000055
:102FB000004F7800E1EE2000614093000000A00087
:102FC000E0409B00E1EE2000614093000010A00073
:102FD000E0409B0014003700F60907000004E00001
:102FE00004003A001E4E0200000000005A74020065
:102FF0000000000010C0B300004F7800E1EE200098
:10300000614093000000A100E0409B00E1EE200041
:10301000614093000010A100E0409B0002003700D7
:1030200010C0B300004F78008040EB001E407800D5
:10303000180307000601370013C0B30012C0B30025
:1030400041C0B30000072000120C0700004F7800B9
:10305000403F0200000000008040EB001E4078006E
:103060000C030700FA0037009C060700F800370041
:103070002C090700004F78008040EB001E407800CC
:1030800004030700F200370083090700004F7800AF
:103090008040EB001E407800FE020700EC00370085
:1030A0002005210061012000F705070010C0B300D2
:1030B000E8870200000000000040EB00004F7800AD
:1030C0008040EB001E407800F2020700E00037006D
:1030D0008040EB0010C0B300EE020700E0042100C6
:1030E0008040EB004200200003002000E486020044
:1030F00000000000D600370000F920008104200005
:10310000E1050700AC660200000000008040EB0013
:1031100010C0B300DF020700CD0037000007210018
:1031200041002000D8050700E0EE2000C09090008C
:10313000309090000030A000E2EE20003091980026
:10314000419198008040EB0010C0B300D10207000D
:10315000BF0037008040EB0010C0B300CD02070075
:10316000A00721008040EB00420020000300200067
:10317000E486020000000000E2EE20006000B800DB
:103180006081990071819900B100370080062000AC
:1031900020079800640047008040EB0022002000D8
:1031A00003002000E4860200000000008040EB00E5
:1031B00010C0B300B702070080FD20008040EB0084
:1031C0008206200003002000E486020000000000C8
:1031D0009F003700EC0307009D00370076030700CF
:1031E0009B003700D3050700004F78008040EB00BC
:1031F0001E407800A702070095003700010607006F
:10320000930037006000200020079800640047000A
:103210008040EB002200200003002000E486020032
:1032200000000000786F02000000000080007800BD
:10323000E0EE2000112899006E6F020000000000EF
:1032400080007800E0EE200031289900E0EE2000B8
:10325000B0289100E0EE2000212899008040EB008A
:1032600010C0B3008B020700000421008040EB0077
:103270006200200003002000E4860200000000003D
:10328000730037008040EB0010C0B30081020700DC
:10329000A0EC20008040EB00420120000300200051
:1032A000E486020000000000690037005687020033
:1032B00000000000660037004173210010C0B30019
:1032C0008048780056870200000000006000370048
:1032D00010C0B300E887020000000000AE4F0200FB
:1032E000000000008040EB0010C0B300690207003E
:1032F000570037008040EB0010C0B30065020700A4
:10330000406A21008040EB00020220000300200000
:10331000E4860200000000000046020000000000F9
:103320004B00370060012000200798006400470030
:103330008040EB002200200003002000E486020011
:10334000000000008040EB0010C0B30051020700F5
:1033500040EB20008040EB006201200003002000D1
:10336000E486020000000000390037000001200060
:1033700020079800640047008040EB0022002000F6
:1033800003002000E4860200000000008040EB0003
:1033900010C0B3003F020700E0ED20008040EB00CA
:1033A0000201200003002000E4860200000000006B
:1033B00027003700E20B070025003700910C0700BB
:1033C00023003700606902000000000080007800E0
:1033D0000040EB00004F78000100E00002003A00DE
:1033E00010C0B300004F78008040EB001E40780012
:1033F00028020700160037004268020000000000A3
:10340000004F78008040EB001E407800210207004A
:103410000F0037003069020000000000004F780004
:103420008040EB001E4078001A02070008003700B9
:103430000001EB00910020000000EB005040020072
:10344000000000008040EB000040EB00110207008C
:1034500036880200000000000000EB001007980012
:1034600020732100104078000004E00005003A00BD
:103470000001EB00810020001000200050400200FD
:103480000000000010C0B300683E02000000000011
:1034900052850200000000000004E0009AFA3A00A1
:1034A0004F0478000080FA00000006003200FA00A5
:1034B0000040EB00604F98000040EB00504F980038
:1034C0000040EB00404F98000040EB00304F980068
:1034D0000040EB00204F98000000EB0040079800F0
:1034E0000040EB00206F98000040EB007047980010
:1034F0000040EB00604798000040EB005047980008
:103500000040EB00404798000040EB003047980037
:103510000040EB00204798000040EB001047980067
:103520000040EB00004F7800E0EE20007038910082
:1035300010479800470D0700400798004E00900084
:103540006017980020032000EE109000808F50003C
:103550002A003200200320006E119000800F5100DD
:1035600015003E0040022000EE119000808F5100B7
:103570001C003200400220006E129000800F5200AA
:1035800008003E00EE129000E98F52000F0032005A
:1035900020022000EE109000808F50000E003200BC
:1035A0001B003700900220006E119000800F510028
:1035B0000F0032001600370030032000EE1190009B
:1035C000808F5100100032001100370010C0B3008E
:1035D000704798000E00370010C0B3006047980095
:1035E0000B00370010C0B3005047980008003700A8
:1035F00010C0B300404798000500370010C0B3006A
:10360000304798000200370010C0B30020479800F0
:103610001E409000E14F500007003A007E409000AD
:10362000E14F500004003A000040EB007047980062
:1036300010C0B300604798007400470042002000AB
:1036400003002000688502000000000070004700B1
:1036500042002000030020006885020000000000F6
:10366000800220000E004000220020000300200005
:1036700068850200000000004E10900061006000AC
:103680000004E0000200320010C0B300404F980078
:103690004E1090000000D100610060000004E000C6
:1036A0000200320010C0B300304F98004E1090005E
:1036B0004200DE00610060000004E0000200320011
:1036C00010C0B300204F98004E1090004300DE0061
:1036D000610060000004E0000200320010C0B3008E
:1036E000004F78003E4890000004E00005003200E2
:1036F0007800470042002000030020006885020097
:1037000000000000E0EE200000909000E60F500066
:1037100002003A0010C0B300604F98006E4890005D
:103720000004E00007003A00E0EE200060D89200BC
:10373000684060000004E0000200320010C0B300E6
:10374000504F98006E4890000004E0001E003200C8
:103750000E0890009E089000F2FF2F00F3FF21005A
:10376000000278008102780002007800830078006F
:1037700000016200018062006102B80074179800C5
:10378000051F98007E1090008E189000C000DD008C
:103790000000200070179800011F98007E10900014
:1037A0008E1890006112B80074179800051F9800D9
:1037B0007E1190008E1990000200700083807000CE
:1037C000000F9800110F980011C0B3000000EB002B
:1037D0005C060700704F98007E4890000004E000EF
:1037E0000300320010C0B300E887020000000000B0
:1037F0007E4890000004E000870032007E40900088
:103800000004E00084003A006E4090000004E000F4
:1038100081003A005E4090000004E0007E003A0023
:103820004E4090000004E0007B003A003E409000D3
:103830000004E00078003A002E4090000004E00010
:1038400075003A005E4890000004E000030032007A
:103850004E4890000004E0000A003A002E09900053
:10386000BE0990000E0B90009E0B90007C0047005C
:10387000000278000600BE00244B02000000000099
:10388000704F98004E4890000004E000D5003200D0
:103890006E4890000004E00013003A007E4890005B
:1038A0000004E000100032007E4890000004E000B8
:1038B00004003200700047009A4B02000000000034
:1038C000704F98007E4890000004E0000E00320027
:1038D000400220000E0040000A4B020000000000E1
:1038E000704F9800080037007E4890000004E00008
:1038F00005003200400220000E0040000A4B02008A
:1039000000000000704F98000E0990009E09900082
:103910002E109000BE109000800F5100818F590032
:1039200005003A007E4890000004E00002003200EA
:1039300010C0B300704F98007E4890000004E00073
:10394000240032005E4890000004E00004003A00C9
:103950003A4D020000000000704F98001D00370033
:10396000F40047006033B800440020000500200048
:1039700002F8200003002000C0C0B300CE4B0200BC
:1039800000000000704F98007E4890000004E000A6
:103990000A003200F80047006033B80044002000FD
:1039A0000500200042F8200003002000C0C0B30042
:1039B000CE4B020000000000704F98007E4890003F
:1039C0000004E000030032009E4D020000000000F1
:1039D000704F98007E4890000004E00081003200A3
:1039E0005E4890000004E0007E003A006E099000FE
:1039F000FE0990000E0B90009E0B90007400470093
:103A0000000278000600BE00244B02000000000007
:103A1000704F9800730037007E4890000004E0006B
:103A2000270032007E409000E14F500024003A0011
:103A30002E099000BE0990000E0B90009E0B900086
:103A40007C004700000278000600BE00244B020004
:103A500000000000704F98004E489000E14F500069
:103A60000300320013C0B3009ECF11005D003A0086
:103A70007E4890000004E000030032003A4D02004E
:103A800000000000704F98007E4890000004E000A5
:103A9000540032006E099000FE0990000E0B900059
:103AA0009E0B900074004700000278000600BE00E4
:103AB000244B020000000000704F980049003700BE
:103AC0007E4890000004E000460032006E40900006
:103AD000E14F50000C0032005E409000E14F50007A
:103AE000090032004E409000E14F500006003200C5
:103AF0003E409000E14F5000030032002E40900005
:103B0000E14F500037003A004E4890000004E000BA
:103B10000D003A001E04E0000B003A002E09900050
:103B2000BE0990000E0B90009E0B90007C00470099
:103B3000000278000600BE00244B020000000000D6
:103B4000704F980027003700A00220000E004000B0
:103B5000420B0700704F98007E489000E14F5000E4
:103B600020003A002E6890000004E00003003A00B4
:103B70003A4D020000000000704F98007E4890000F
:103B8000E14F500017003A002E089000BE08900048
:103B9000F40A0700704F98007E489000E14F5000F3
:103BA00010003A00A60A0700704F98007E48900067
:103BB0000004E0000B0032004E489000E14F50003E
:103BC00003003A003A4D020000000000704F9800D8
:103BD00014C0B3009E4F120002003A0010C0B300A0
:103BE000704F98008040EB007E489000290007004D
:103BF0007C0047008040EB004200200003002000D2
:103C0000E4860200000000002E4890000004E0005E
:103C1000070032007C004700640040008040EB0059
:103C20004200200003002000E486020000000000A3
:103C30000080FA00000006000000FA000001EB001E
:103C4000E1032000100020005040020000000000AE
:103C50000001EB00F10320001000200050400200A2
:103C6000000000000001EB00010420001000200013
:103C700050400200000000008066020000000000CA
:103C8000600420008E430200000000000080FA0063
:103C9000000006000400FA00204798003147980011
:103CA0003E4090000004E00002003200368802002E
:103CB000000000002E4090000004E00003003200ED
:103CC0000000EB00000F780002003700F00F20002A
:103CD000000F78000E0078008040EB0022002000EA
:103CE00003002000E4860200000000000080FA00CB
:103CF000000006000800FA0060479800714798002D
:103D00000040EB00404798007E4090000004E00037
:103D10000200320036880200000000006E40900071
:103D20000004E000030032000000EB0010079800E0
:103D300002003700F00F2000100798000E80E80006
:103D40008040EB002200200003002000E4860200F7
:103D50000000000040C3B300004F780007003700A8
:103D6000640047008040EB001200200003002000A8
:103D7000E4860200000000001E4FE9001E04E0007F
:103D8000F7FF3A000080FA00000006000600FA0083
:103D900010079800414798000040EB00004F780062
:103DA00007003700640047008040EB00120020004D
:103DB00003002000E4860200000000001E4FE8001F
:103DC0009E80FB001E009000808F5000F5FF3900A0
:103DD0000080FA00000006000A00FA000E80E800E9
:103DE000420020000300200068850200000000005F
:103DF00066004700420020000300200068850200A2
:103E0000000000003E019000CE0190001E009000D6
:103E1000AE00900044000700104798001E4090003C
:103E20000004E0000B0032003E009000CE00900045
:103E3000610160006000B800030020000200700013
:103E4000838070000000E000020032000040EB00C0
:103E5000104798008040EB001E4090008DFF070047
:103E600036880200000000000040EB00F6750200FA
:103E700000000000F0750200000000001E409000ED
:103E80000004E000210032003E019000CE019000CD
:103E90001E009000AE00900030A60200000000005E
:103EA000104798008040EB001E40900079FF07000B
:103EB00036880200000000001E4090000004E00070
:103EC00017003200CD42A900CD62A80008490200C7
:103ED00000000000004F780020C0B3009E4F10008B
:103EE00002003A001C3B02000000000000242400F5
:103EF000F1002000AA3E020000000000803C020009
:103F0000000000000000FE00050037008040EB00CC
:103F10000040EB005FFF0700368802000000000051
:103F20000080FA00000006000A00FA00008FBE00C0
:103F300022079800330798002E009000BE009000E2
:103F400032002000030020007C0D02000000000071
:103F50000000400081804800200798003107980049
:103F600000002F0001002000BE0F1000AE8F1800CF
:103F70000C003A002E009000BE0090003E01400070
:103F8000AE81480000002A0021002000800F51006F
:103F9000818F590003003E00100020004007980068
:103FA000020037000000EB00400798004E00900030
:103FB0000080FA00000006001200FA0068004700C6
:103FC000220020000300200068850200000000009D
:103FD0006A004700420020000300200068850200BC
:103FE000000000006E004700420020000300200097
:103FF00068850200000000005E009000EE00900066
:104000009E66020000000000CE009000000220002A
:10401000808F50000D003A0000002400CF80DE00A9
:10402000E2EE20007039980001819800E0EE200057
:104030008080900070389000E2EE2000208198008F
:104040003181980020F7200030B988005E0190008F
:10405000EE0190004E0090008E80E800805A020031
:1040600000000000004F780010C0B3009E4F100009
:1040700042003A007E0190008E0990001E039000DD
:10408000AE0390004E0090000202BE000601BE008A
:10409000D25E020000000000004F780010C0B300A4
:1040A0009E4F100030003A001E009000AE009000BD
:1040B0007C3B0200000000001E019000AE01900059
:1040C0004E009000004378006E004700EA00470071
:1040D0000202BE008001780001017800864078006D
:1040E00020C0B30061010700004F78001E0090005F
:1040F000AE0090007C3B0200000000007E009000BB
:104100008E0890004C650200000000003007980007
:104110008040EB001E407800DEFE07001E04E00039
:10412000140032001E009000AE0090007C3B0200A4
:10413000000000007E0190008E0990008040EB009E
:104140000000EB00E486020000000000660047006B
:104150008040EB002200200003002000E4860200E3
:1041600000000000030037008040EB000040EB003F
:10417000C8FE070036880200000000001E80FB0019
:104180000080FA00000006002600FA000000EB00A4
:10419000100F98006000B800600798007107980041
:1041A0006000B800008FBE007C00470022002000A5
:1041B0000300200068850200000000007E00470028
:1041C000420020000300200068850200000000007B
:1041D000200220000E0040004200200003002000CA
:1041E00068850200000000007E0890008E1090009C
:1041F0009E66020000000000E0EE2000C0809000FB
:10420000010F9800E0EE200040809000E10F500088
:1042100003003A00E1EE200020002000C08098005A
:104220007E0990008E1190006E089000F600470005
:10423000805A020000000000405798004E50900045
:10424000E14F500000013A00E0EE20000E0990001E
:10425000428098008040EB0010C0B3008DFE070044
:1042600036880200000000006E089000E70F500042
:10427000030032006E089000E80F500011003A0071
:104280006E089000E70F50000B003A00E0EE2000AF
:10429000F088900060889000E00F5000E08F580098
:1042A00005003A007E0890008E109000E2EE20009B
:1042B00060899800718998006000B800700F9800BC
:1042C000011798003E089000CE0890007C3B020049
:1042D00000000000E0EE200040809000E10F500060
:1042E000060032006E089000E70F50000300320015
:1042F0006E089000E80F50006C003A00E0EE2000DD
:1043000080809000703890007C3B0200000000002C
:10431000E0EE2000C0819000030F9800E1EE200045
:1043200020002000C08098007E0990008E1190002F
:104330006E089000F6004700805A0200000000005E
:10434000E0EE20008E089000418098003E09900029
:10435000CE0990006E08900030830200000000003B
:104360003E099000CE0990006207980073079800FC
:104370001E109000AE109000400798005107980062
:104380002F0037001E119000AE1190000060200039
:1043900001002000800F5100818F59000400360079
:1043A0000060200001002000008FBE0003003700E5
:1043B0001E119000AE119000028FBE00E0EE2000B2
:1043C00080809000703890007C3B0200000000006C
:1043D0001E01BE000000EB00688502000000000026
:1043E000E0EE20008080900070389000000178009E
:1043F0001E02BE006E009000FE009000107B0200C6
:1044000000000000405798006E009000FE009000F1
:104410003E014000AE8148000200BE0060079800E7
:10442000710798001E109000AE1090003E015000E1
:10443000AE8158000200BE001017980021179800A6
:104440004E5090000004E000050032001E10900065
:10445000AE109000E00F5000E08F5800C9FF3A0006
:104460004E5090000004E000350032004E009000F5
:10447000DE00900010179800211798003E09900068
:10448000CE09900062079800730798001E109000F4
:10449000AE1090006E019000FE019000808202003C
:1044A00000000000100F9800250037006000B800E1
:1044B00020079800310798000C0037002E0090006C
:1044C000BE009000020024008000410000C0EB000C
:1044D000804878002E009000BE00900061004000EF
:1044E000E080480020079800310798002E019000D6
:1044F000BE019000F07F200001002000800F5100DD
:10450000818F5900EDFF36001E119000AE11900012
:104510000000EB0068850200000000003E089000EB
:10452000CE0890007C3B0200000000001E109000AE
:10453000AE1090004C65020000000000100F9800C3
:104540007A00470022002000030020006885020056
:1045500000000000DE0890001E089000008040006F
:104560000000E000030032000040EB0040579800DC
:10457000350037006E089000EE0F50000C0032003E
:10458000EE08900000022000808F500008003200EA
:104590003E089000CE089000226502000000000056
:1045A0000004E00002003200346402000000000059
:1045B0006E089000E70F500009003A001E109000AE
:1045C000AE10900080007800E0EE200001209800FE
:1045D000E1EE2000714090000000A000F040980043
:1045E0006E089000E80F500009003A001E1090007D
:1045F000AE10900080007800E0EE20004118980096
:10460000E1EE2000614090000070A000E0409800C2
:104610003E099000CE0990006E089000004378009B
:10462000200220000E004000FE0047000202BE00F3
:1046300080017800010178008640780010C0B30046
:104640000A000700405798008040EB004E50900051
:1046500090FD070036880200000000004E509000D8
:104660000080FB000080FA00000006000C00FA0049
:104670002047980031479800220798003307980098
:10468000440798005507980010C0B300004F780009
:104690003E0090001000BE00E00F5000E08F580078
:1046A000750032002E409000E14F500039003A0072
:1046B0003E409000EC4F50000C0032003E40900015
:1046C000ED4F5000090032003E409000FF4F500077
:1046D000060032003E409000F04F500003003200D0
:1046E0003E409000F14F50001A003A008040EB002D
:1046F0000000EB0093020700004F78001E04E0006A
:104700005E00320010C0B300E88702000000000025
:104710003E0090001002BE002E0090001001BE006E
:104720004E039000DE0390008000EB003E409000BE
:10473000CE4B020000000000004F78001E04E00095
:104740004E003A0011C0B300400020007D02070077
:104750004A003700BE40900000C2B30080CF500036
:1047600046003A00E0EE2000808090007038900013
:1047700000017800042020000500200000E0200057
:1047800001002000107B020000000000004F7800B4
:104790003A0037003E409000EC4F50000C003200D1
:1047A0003E409000ED4F5000090032003E40900026
:1047B000FF4F5000060032003E409000F04F500086
:1047C000030032003E409000F14F50001A003A00C2
:1047D0008040EB000000EB005A020700004F780019
:1047E0001E04E0002500320010C0B300E88702007C
:1047F000000000003E0090001002BE002E0090005D
:104800001001BE004E039000DE0390008000EB001C
:104810003E409000124C020000000000004F780063
:104820001E04E00015003A0011C0B3004000200053
:104830004402070011003700BE40900000C2B300E0
:1048400080CF50000D003A00E0EE20008080900004
:10485000703890000001780004202000050020003E
:1048600000E0200001002000EE79020000000000BE
:10487000004F780001003700000000001E80FB00A0
:104880000080FA00000006000800FA0020079800E7
:10489000310798000E80E80022002000030020006D
:1048A00068850200000000009E0090003E0090001D
:1048B000808F500003003A003E009000000F780007
:1048C000090037009E0090003E009000808F50004D
:1048D000030031001E009000000F78000200370036
:1048E0003E009000000F78001E0078006101B800C3
:1048F0002E00900068850200000000001E0090005D
:104900009E0F5000090036001E0090001E0F500040
:104910000200370080850200000000001E0FE90041
:104920000080EB009E0F1000FAFF3A000080FA00B2
:10493000000006000600FA0010C0B30020479800EF
:104940006400470022002000030020006885020068
:10495000000000002E009000000F7800001F2000D3
:104960009E0F100004003600001F2000000F78008A
:104970000040EB00204798001E0078006101B8005D
:104980002009210068850200000000002E00900030
:104990001E005000200798000200370080850200AA
:1049A000000000002E0090000000E90020079800A1
:1049B0002E009000E10F4000F8FF3A009E007800C2
:1049C000678060000000E000020032000040EB0061
:1049D000204798002E4090000080FB000080FA00E5
:1049E000000006000000FA0020092100021F20003C
:1049F0008000EB000C0B0200000000000080FA00B9
:104A0000000006001400FA006600470022002000A3
:104A100003002000688502000000000068004700D5
:104A20002200200003002000688502000000000032
:104A30000000EB0010079800220037006A004700D2
:104A40002200200003002000688502000000000012
:104A50006C0047004200200003002000688502002F
:104A6000000000007000470042002000030020000A
:104A700068850200000000000000EB00000F7800D5
:104A800006003700640047001200200003002000E9
:104A900068850200000000001E0FE8001E0078007C
:104AA0006101B8000E0890009E089000800F510030
:104AB000818F5900F3FF39001E0090000000E800CC
:104AC00010079800BE0090001E009000810F50005B
:104AD000DAFF39000080FA00000006000E00FA003C
:104AE0006A004700420020000300200068850200A1
:104AF0000000000066004700420020000300200084
:104B0000688502000000000010C0B300E8870200C2
:104B10000000000011C0B3000000EB008901070095
:104B2000004F78001E04E0000A0032003E019000B1
:104B3000CE0190005E039000EE0390000E80E8002E
:104B4000000278000600BE00244B020000000000B6
:104B5000004F78001E04E00003003A0011C0B300CB
:104B600040002000770107001E04E00003003A0027
:104B700011C0B30040002000720107008040EB002C
:104B80001E40780043FC07000E80E8008040EB00E8
:104B90004200200003002000E48602000000000024
:104BA0001E80FB000080FA00000006000C00FA00E6
:104BB00010C0B30020479800660047002200200084
:104BC000030020006885020000000000E0EE2000E5
:104BD000F08090003E009000808F50005E003E000C
:104BE000E0EE2000F08090003E009000808F5000AA
:104BF000050036000000EB00300798003E009000F2
:104C0000000F780008003700BE009000E0EE2000A2
:104C1000708090000080500030079800E0EE200087
:104C2000F0809000010F7800C84A020000000000E8
:104C30008040EB002E40900016FC070036880200F2
:104C4000000000001E0078006101B800E0EE2000C6
:104C50000088900068850200000000000000EB0062
:104C600020079800170037003E009000E10F500029
:104C7000090032006A0047002200200003002000E3
:104C800068850200000000003E0090000080E900FE
:104C90003007980007003700808502000000000000
:104CA0000080FB00500798003E0090000000E900E3
:104CB000300798005E009000AE0090000080400039
:104CC000200798003E0090000000E000E6FF3A0058
:104CD00068004700220020000300200068850200D1
:104CE00000000000E0EE2000F0809000E0EE2000E8
:104CF000008890000A660200000000008000780032
:104D00002E0090000100400020079800CE00900087
:104D10002E009000008040000000E0000300320000
:104D20000040EB00204798000D003700E24C0200E5
:104D300000000000204798004A66020000000000C2
:104D40000001EB0091042000100020005040020000
:104D500000000000020037000040EB0020479800F0
:104D60008040EB002E409000CAFB07000080FA0054
:104D7000000006000A00FA0010079800414798005A
:104D800010C0B300104798000040EB00004F7800BF
:104D9000880207000004E0000100320069020700F9
:104DA00010C0B300C24502000000000010C0B300F4
:104DB00074440200000000004E4090000004E00037
:104DC0000300320010C0B300E887020000000000BA
:104DD0000001EB0001032000100020005040020001
:104DE0000000000062440200000000009004200067
:104DF0008E430200000000000004E000A3003A001F
:104E0000E0EE200020489300614060000004E000D4
:104E100004003A0020002000D873020000000000C7
:104E2000104798001E4090000004E00094003200FB
:104E3000F0002000E8420200000000001E00900088
:104E40006101B800320798004307980090002000E5
:104E5000010020003E019000CE019000800F510023
:104E6000818F590075003E003E009000CE009000FA
:104E7000006001003E00370039003700180037009D
:104E80001300370009003700630037006500370062
:104E9000670037000100370055003700CE4C020094
:104EA0000000000010479800660037006A4C0200BE
:104EB00000000000104798001E4090000004E00031
:104EC0006000320010C0B300004F78005D00370072
:104ED0007E4C020000000000104798005900370087
:104EE000E0EE2000A090900010909000E00F5000A5
:104EF000E08F580016003200E0EE20001091900084
:104F0000A09190000004200001002000800F5100BB
:104F1000818F59000E003200E0EE200010919000C9
:104F2000A09190000008200001002000800F510097
:104F3000818F590006003200666402000000000004
:104F4000104798001E4090000004E0003D00320031
:104F5000BA4C0200000000001047980039003700EA
:104F6000924C020000000000104798003500370006
:104F7000E0EE2000A090900010909000E00F500014
:104F8000E08F580016003200E0EE200010919000F3
:104F9000A09190000004200001002000800F51002B
:104FA000818F59000E003200E0EE20001091900039
:104FB000A09190000008200001002000800F510007
:104FC000818F590006003200666402000000000074
:104FD000104798001E4090000004E00019003200C5
:104FE000A64C020000000000104798001500370092
:104FF0000040EB00F2760200000000000071220089
:1050000001002000AA3E02000000000010C0B30012
:10501000104798000B0037000040EB001047980045
:10502000080037000040EB001047980005003700EB
:105030000040EB0010479800020037000040EB00F2
:1050400010479800E0022000E84202000000000043
:10505000E0EE200020489300614060000004E00082
:1050600005003200E1EE2000614093000010A10035
:10507000E0409B00020037005A740200000000006C
:1050800080002000E8420200000000001E40900066
:105090000004E000170032000A4402000000000093
:1050A000804078000040EB00104798000104E000C9
:1050B00002003A0010C0B300104798001E40900054
:1050C0000004E000060032000001EB003104200083
:1050D0000000EB0050400200000000000500370017
:1050E0000001EB00410420000000EB0050400200F2
:1050F000000000001E04E0000200320034640200E0
:10510000000000004E4090000004E0000300320068
:1051100011C0B3001E409000DEFA07000040EB0013
:1051200074440200000000000040EB00C245020091
:10513000000000001E4090000080FB000080FA008C
:10514000000006000A00FA00200798006147980056
:1051500010C0B300304798000040EB002047980093
:105160000040EB00004F78009201070010479800C4
:105170006E4090000004E0000300320010C0B30055
:10518000E8870200000000001E4090000004E000DC
:1051900032003A00E0EE20002048930061406000B9
:1051A0000004E0000C0032001E4E0200000000006F
:1051B0005A74020000000000E1EE200061409300FC
:1051C0000000A100E0409B00E1EE20006140930060
:1051D0000010A100E0409B00F0022000E842020025
:1051E00000000000BE3C0200000000005A890200DE
:1051F0000000000030002000D87302000000000012
:10520000304798003E4090000004E0000300320068
:10521000FE4C020000000000304798003E40900025
:105220000004E000060032000001EB000103200052
:105230000000EB00504002000000000005003700B5
:105240000000EB00E842020000000000806602005F
:105250000000000010C0B300004F78002E00900046
:10526000E60F50000200320062440200000000001D
:105270003E4090000004E0007D0032002E009000CF
:10528000400798004E009000E20F50005D00320091
:105290004E009000E20F500004003E004E009000CF
:1052A000E10F500008003200650037004E0090000A
:1052B000E30F5000590032004E009000E60F5000FE
:1052C0002A0032005E00370010C0B300C245020061
:1052D0000000000010C0B300744402000000000091
:1052E000BE3C0200000000000A4402000000000072
:1052F000804078000040EB00304798000104E00057
:1053000002003A0010C0B3003047980010C0B3004C
:1053100028A802000000000010C0B30004A802008A
:1053200000000000564C02000000000030479800CA
:105330006045020000000000204798003E409000B9
:105340000004E00004003200D0042000E842020023
:105350000000000046003700BE3C020000000000D4
:105360005A8902000000000041003700124D02007F
:10537000000000003047980020C0B30004A80200DD
:10538000000000000040EB0028A802000000000020
:105390000040EB00C2450200000000000040EB00AE
:1053A000744402000000000060450200000000009C
:1053B000204798003E4090000004E00009003200C1
:1053C0000A44020000000000804078000040EB002A
:1053D000304798000104E00002003A0010C0B3001A
:1053E0003047980010032000E8420200000000004F
:1053F000BE3C0200000000005A89020000000000CC
:105400001B003700C64D0200000000003047980026
:1054100010C0B3002047980015003700B24D0200BD
:10542000000000003E4090000004E0001000320048
:1054300010032000E8420200000000000C003700CA
:105440006045020000000000204798000A44020066
:1054500000000000804078000040EB0030479800DA
:105460000104E00002003A0010C0B3003047980089
:105470002E4090000004E0001F0032003E409000EB
:105480000004E0001C0032000000EB00E8420200D3
:10549000000000000001EB000103200010002000CC
:1054A0005040020000000000264D020000000000F5
:1054B0002003200001002000AA3E0200000000009E
:1054C000FE4C020000000000304798003E40900073
:1054D0000004E000060032000001EB0001032000A0
:1054E0000000EB0050400200000000000200370006
:1054F00080660200000000003E4090000004E000D2
:10550000030032002E009000E40F500001003A002A
:105510008C0007003E4090000080FB000080FA00F5
:10552000000006001000FA006000B8003007980084
:10553000410798006E004700220020000300200071
:1055400068850200000000000E00E8001200200044
:105550000300200068850200000000007E0090002B
:105560000000E90001002000500798006107980042
:105570006000B8009E660200000000003E0190003E
:10558000CE0190001E4090008E80E800805A0200FC
:1055900000000000004F780010C0B3009E4F1000C4
:1055A00027003A005E009000EE0090001E0190007F
:1055B000AE0190001E4390000002BE00064078003D
:1055C000D25E020000000000004F780010C0B3005F
:1055D0009E4F10001A003A001E009000AE0090008E
:1055E0007C3B0200000000005E019000EE01900094
:1055F0000000EB0068850200000000005E009000E3
:10560000EE00900080007800E0EE20001138980055
:105610001E009000AE0090009E4390006A0147007B
:10562000660347000002BE00820178000601780090
:105630008740780010C0B3000CFC0700004F7800D2
:105640001E80FB000080FA00000006000200FA0045
:1056500011C0B3000000EB00BAFE0700004F780055
:105660001E04E000030032003A4E02000000000079
:10567000004F78001E04E000020032003464020093
:10568000000000008040EB001E40780081F9070018
:105690000080FA00000006000A00FA0010C0B30003
:1056A000004F78000E80E8008100200076FC0700A3
:1056B0000E80E8001000BE00610160006000B800CC
:1056C0000300200002007000838070000000E000F2
:1056D00005003200E1EE200061D892000050A000E9
:1056E000E0D89A0004003700E1EE200061D8920073
:1056F0000050A100E0D89A000E80E8001000BE0023
:105700008100D1000080D300610060000004E0004F
:1057100005003200E1EE200061D892000070A00088
:10572000E0D89A0004003700E1EE200061D8920032
:105730000070A100E0D89A001E80FB000080FA00F3
:10574000000006000000FA00C64D02000000000044
:105750000001EB0001032000100020005040020077
:10576000000000000000EB00E84202000000000022
:10577000264D0200000000005A74020000000000E4
:105780000040EB0074440200000000000040EB0009
:1057900028A80200000000000040EB00C245020003
:1057A0000000000080660200000000000080FA0097
:1057B000000006000200FA00820020000300200022
:1057C000806A210058420200000000000004E0004E
:1057D00007003A000202200003002000806A210036
:1057E00058420200000000000004E0000300320004
:1057F00010002000000F7800020037000000EB00CE
:10580000000F78001E4078000080FB000080FA0046
:10581000000006000400FA00008FBE00E0EE200049
:105820001E01BE0062809900738099000080FA001A
:10583000000006000200FA000040EB00004F780074
:105840008040EB00800020004AFD0700004F7800F8
:105850001E04E00010003200E0EE2000205891000D
:105860000004E000060032000001EB00E10320002C
:105870000000EB0050400200000000000A0037006A
:105880000001EB00F10320000000EB00504002009B
:1058900000000000040037001E04E00002003A008F
:1058A00080660200000000001E80FB000080FA00FD
:1058B000000006000200FA0060450200000000003F
:1058C000004F78001E04E0000A003200B9FF070014
:1058D0000004E000040032008040EB0020002000C3
:1058E00018FE0700030037008040EB009000200006
:1058F00020FD07000080FA00000006001400FA00F6
:1059000010C0B300604798000040EB00404798008B
:10591000BE0137000040EB00683E020000000000BE
:105920000001EB00810020000000EB00504002006D
:10593000000000006A004700220020000300200051
:1059400068850200000000000001EB0091002000CB
:105950001000200050400200000000006A004700D4
:105960008040EB002200200003002000E4860200BB
:105970000000000010C0B3006047980010C0B300E2
:10598000504798005E0090006101B80000FD2F00B4
:10599000F1FF2F000201400083814800020F9800B0
:1059A000130F980010062000010020000E0990003F
:1059B0009E099000800F5100818F590070013E00B8
:1059C0000E0890009E0890000060010078003700EB
:1059D0007D0037008200370087003700AB003700BA
:1059E000980037004F013700650137006401370028
:1059F0006301370062013700610137006001370041
:105A00005F0137005E0137005D0137005C01370040
:105A10005000370052003700DF003700D700370052
:105A20005701370056013700550137005401370040
:105A30005301370052013700510137005001370040
:105A40004F0137004E0137004D0137004C01370040
:105A50004B013700B0003700A8003700BE00370008
:105A6000B600370046013700450137003D013700D9
:105A70004301370042013700410137004001370040
:105A80003F0137003E0137003D0137003C01370040
:105A90003600370038003700EF003700E7003700E6
:105AA0003701370036013700350137003401370040
:105AB0003301370032013700310137003001370040
:105AC0002F0137002E0137002D0137002C01370040
:105AD0002B013700C0003700B8003700CE00370078
:105AE000C6003700260137002501370024013700A2
:105AF0002301370022013700210137002001370040
:105B00001F0137001E0137001D013700DB00370081
:105B1000F9003700EF0037001B0137001A0137008A
:105B2000170137001601370015013700160137003D
:105B3000130137001201370011013700100137003F
:105B40000F0137000E0137000D013700FF0037004D
:105B5000010137000040EB00604798000A01370060
:105B60000040EB0060479800070137000040EB0061
:105B700060479800040137008040EB000040EB00D4
:105B800044F807000040EB00604F98006E004700AB
:105B90008040EB001200200003002000E486020099
:105BA000000000000040EB0050479800F60037006E
:105BB00011C0B30010C0B3004E5702000000000037
:105BC00060479800F000370011C0B3000040EB00C0
:105BD0004E5702000000000060479800EA003700BE
:105BE0008040EB000040EB004E5702000000000038
:105BF00060479800E40037006C0047002200200056
:105C00000300200068850200000000006E00900084
:105C10006101B80000A021006885020000000000BA
:105C200010C0B300E887020000000000EE00900002
:105C300000A02100145802000000000060479800F6
:105C4000D10037006C004700220020000300200034
:105C500068850200000000006E0090006101B8003D
:105C600000A02100688502000000000010C0B30001
:105C7000E88702000000000000A02100C0580200D8
:105C80000000000060479800BF0037006C0047002C
:105C900022002000030020006885020000000000B0
:105CA00010C0B300E887020000000000EE00900082
:105CB00000A02100965702000000000060479800F5
:105CC0008040EB006E409000F2F707006E409000BD
:105CD0000004E000060032006E0090006101B80090
:105CE0008040EB0000A02100E486020000000000DC
:105CF0000040EB0050479800A30037008041EB00C4
:105D000012C0B30001C2B3000000EB00E1000700C5
:105D1000604798009C0037008041EB0012C0B30040
:105D200001C2B3000000EB002A01070060479800A1
:105D30000040EB0050479800930037008041EB0093
:105D400012C0B30001C1B30000062000D10007005B
:105D5000604798008C0037008041EB0012C0B30010
:105D600001C1B300000620001A0107006047980037
:105D70000040EB0050479800830037008041EB0063
:105D800012C0B30001C1B30000052000C10007002C
:105D9000604798007C0037008041EB0012C0B300E0
:105DA00001C1B300000520000A0107006047980008
:105DB0000040EB0050479800730037008041EB0033
:105DC0000041EB0001C2B3000000EB00B10007008E
:105DD000604798006C0037008041EB000041EB0009
:105DE00001C2B3000000EB00FA0007006047980012
:105DF0000040EB0050479800630037008041EB0003
:105E00000041EB0001C1B30000062000A100070023
:105E1000604798005C0037008041EB000041EB00D8
:105E200001C1B30000062000EA00070060479800A7
:105E30000040EB0050479800530037008041EB00D2
:105E40000041EB0001C1B3000005200091000700F4
:105E5000604798004C0037008041EB000041EB00A8
:105E600001C1B30000052000DA0007006047980078
:105E70000040EB0050479800430037006C0047009B
:105E800022002000030020006885020000000000BE
:105E90006E0090000000E00008003A00810220003F
:105EA0000040EB00E4580200000000000040EB005E
:105EB000F27602000000000033003700EE00900090
:105EC00010C0B300E45802000000000060479800D2
:105ED0002D0037006C004700220020000300200046
:105EE00068850200000000006E0090005259020018
:105EF00000000000240037006C0047002200200052
:105F0000030020006885020000000000EE00900001
:105F100010C0B3001C590200000000006047980048
:105F2000190037006C004700220020000300200009
:105F300068850200000000006E009000F05502002D
:105F400000000000604798000F0037003400070091
:105F5000604798000C0037004A000700604798002F
:105F600009003700810220000040EB00E4580200E5
:105F70000000000010C0B300404798000200370046
:105F80000040EB006047980002002800030020005A
:105F9000806B210058420200000000000004E00075
:105FA000F9FF3A005E4090000004E0000300320078
:105FB0008040EB006E40900036F707003688020004
:105FC000000000006E4090000004E00001003A0074
:105FD000000000000000EB00500798000001EB00FB
:105FE000810020001000200050400200000000004E
:105FF00010C0B300683E020000000000528502009D
:10600000000000000004E00042FE3A004E40900014
:106010000004E000F9FF32000080FA0000000600F2
:106020000000FA0010C0B300B459020000000000E4
:106030008040EB0010C0B30016F70700368802005E
:106040000000000010C0B300E8870200000000005C
:106050000200280003002000806B2100584202004B
:10606000000000000004E000F9FF3A000040EB00EF
:10607000B459020000000000100020000080FA0067
:10608000000006000000FA00100020000080FA0066
:10609000000006002C00FA002017980061679800A5
:1060A00072679800036F98000000EB0010079800DB
:1060B000640047006011B8000288BE006400400020
:1060C0006011B8000288BE00640040006011B80092
:1060D0000288BE00640040006011B8000288BE0063
:1060E000640040006011B8000288BE0064004000F7
:1060F0006011B8000288BE00640040006011B80062
:106100000288BE00640040006011B8000288BE0032
:106110008085020000000000004F78009E00900083
:106120001E4178006400470000804000024878006B
:106130001E0090000000E800100798001E04E00018
:1061400003003A000E6890000004E00005003200F1
:106150006E6090008080FB001E009000808F5000D9
:10616000EBFF3E002E10900050179800DE109000BC
:106170000100E0000500320000072000DE10900062
:10618000808F5000090032000F0037006401470083
:10619000E400200005002000400020000100200055
:1061A000107B020000000000070037006401470078
:1061B00044002000050020002001200001002000F4
:1061C000107B020000000000100020000080FA0098
:1061D000000006002A00FA00101798004167980096
:1061E00052679800636798000040EB00004F78000A
:1061F0000E80E8006011B8000288BE006400400014
:106200006011B8000288BE00640040006011B80050
:106210000288BE00640040006011B8000288BE0021
:10622000640040006011B8000288BE0064004000B5
:106230006011B8000288BE00640040006011B80020
:106240000288BE00640040006011B8000288BE00F1
:106250001E10900040179800CE1090000100E00042
:106260000500320000072000CE109000808F500003
:10627000090032000F0037000E81E800E400200022
:10628000050020004000200001002000EE790200FF
:1062900000000000070037000E81E80044002000E5
:1062A000050020002001200001002000EE790200FE
:1062B000000000008040EB0010C0B30075F607003E
:1062C0009E80FB000E80E8000080400010407800B7
:1062D000104798001E4FE8001E409000E14F40001C
:1062E00005003A006E6090000004E00002003A00F1
:1062F0000040EB00104798000E00E8008040EB00E3
:106300001200200003002000E486020000000000CC
:106310001E4090000004E00003003A006E60900010
:106320000004E000030032004E6090009E4F100019
:10633000E3FF3900100020000080FA000000060092
:106340000400FA000000EB00000F780000022000BB
:10635000000F78000E0078008040EB002200200043
:1063600003002000E4860200000000008040EB00F3
:1063700010C0B30047F607000000EB00000F7800E4
:106380009E007800A03721006140780020479800E7
:106390000100E800000F78002E409000E14F40001F
:1063A00002003A000040EB00204798000E80E80011
:1063B0008040EB001200200003002000E486020071
:1063C000000000002E4090000004E00003003200B6
:1063D0001E007800FF0F5000E9FF36000080FA0031
:1063E000000006000600FA0010C0B300004F78005D
:1063F0000E80E8004100200023F907000001EB00B7
:10640000B1052000100020005040020000000000F4
:1064100010C0B300E8870200000000000E80E80012
:1064200042002000212821001A0B02000000000079
:106430000000E00006003200202821008E80E800E5
:106440001101BE000288BE0004000700004F780062
:106450001E80FB000080FA00000006000600FA0023
:1064600010C0B300404798001E4E0200000000001C
:10647000E0EE200020489300614060000004E0004E
:1064800008003200E1EE2000614093000000A1000E
:10649000E0409B00E1EE2000614093000010A1006D
:1064A000E0409B00F47402000000000040479800A8
:1064B00010C0B300683E0200000000004E40900093
:1064C0000004E00048003200F0FF2F0071002000BF
:1064D000008FBE000100370000000000C003200054
:1064E0008E430200000000000004E00008003A00B3
:1064F0000080EB008080EB001E0F40005E9748009C
:106500001E00BE00E00F5000E08F5800F2FF3A007E
:106510000040EB00683E0200000000001E00BE00CC
:10652000E00F5000E08F580032003200E0EE200013
:1065300020489300614060000004E0002600320023
:10654000E1EE2000614093000000A000E0409B00CD
:10655000E1EE2000614093000010A000E0409B00AD
:1065600020002000D87302000000000030732100DA
:1065700010407800E14F500005003A00E1EE2000A5
:10658000114893000030A00090489B0004003700A1
:10659000E1EE2000114893000030A10090489B00DC
:1065A0008040EB0080002000F2F907005A740200DE
:1065B00000000000E1EE2000614093000000A10017
:1065C000E0409B00E1EE2000614093000010A1003C
:1065D000E0409B00070037008040EB008000200077
