:0400000053EF00F0CA
:060008005882B4ED12F075
:100018005880D8CFC8F0E8CFC9F0E0CFCAF0FACFFF
:10002800CBF0FBCFCCF0E9CFCDF0EACFCEF0E1CFEB
:10003800CFF0E2CFD0F0D9CFD1F0DACFD2F0F3CFF2
:10004800D3F0F4CFD4F0F6CFD5F0F7CFD6F0F8CF81
:10005800D7F0F5CFD8F0D8C0F5FFD7C0F8FFD6C095
:10006800F7FFD5C0F6FFD4C0F4FFD3C0F3FFD2C06A
:10007800DAFFD1C0D9FFD0C0E2FFCFC0E1FFCEC0C8
:10008800EAFFCDC0E9FFCCC0FBFFCBC0FAFFCAC076
:10009800E0FFC9C0E8FFC8C0D8FF5890100091EF32
:0200A80013F053
:1008000000C60880084C08090809024300020100DC
:10081000C032090400000102020100052400100199
:100820000424020205240600010524010001070535
:10083000810308000209040100020A000000070504
:10084000020240000007058202400000340343001A
:10085000440043002000520053002D0032003300BA
:100860003200200045006D0075006C0061007400CE
:1008700069006F006E002000440065006D006F008D
:1008800034034D006900630072006F00630068006C
:1008900069007000200054006500630068006E006D
:1008A0006F006C006F0067007900200049006E0047
:1008B00063002E001201000202000008D8040A00A2
:0B08C000000101020001040309040014
:1008CC0004013205D8A411D0040130511F0B0009CA
:1008DC00D8A40BD000016B8F030E04013119D8A4DE
:1008EC0002D0010E01D0000E466E04013251D8A484
:1008FC001200040130511F0B020AD8A4120004018B
:10090C0034510F0B0009D8B41200040134510F0BF1
:10091C00166E030E16601200200E4E18D8A412008C
:10092C0000016B8F040134BF1BD0040134510F0B39
:10093C00166E1650020D740EF324D96E000EF420B0
:10094C00DA6EDECF1AF0DDCF1BF0040134510F0B41
:10095C00166E1650010D840EF324D96E000E1AD0AB
:10096C00040134510F0B166E1650020D6E0EF3244B
:10097C00D96E000EF420DA6EDECF1AF0DDCF1BF04C
:10098C00040134510F0B166E1650010D870EF32413
:10099C00D96E000EF420DA6EDF50196E19B006D045
:1009AC00FB0E1A141A6EFF0E1B1404D0040E1A1030
:1009BC001A6E1B501B6E040134BF0BD00401345152
:1009CC000F0B166E1650020D740EF324D96E000E1A
:1009DC000AD0040134510F0B166E1650020D6E0E18
:1009EC00F324D96E000EF420DA6E1AC0DEFF1BC0A1
:1009FC00DDFF030E04013119D8A42FD01AC0D9FF82
:100A0C001BC0DAFFDFAE1CD0040134BF0BD00401D5
:100A1C0034510F0B166E1650010D840EF324D96E43
:100A2C00000E0AD0040134510F0B166E1650010D36
:100A3C00870EF324D96E000EF420DA6E0001DF82EB
:100A4C001AC0D9FF1BC0DAFF000EDB841AC0D9FF15
:100A5C001BC0DAFF000EDB8E1200040E1A181A6E81
:100A6C001B501B6E1AC0D9FF1BC0DAFFDFAE1BD0A8
:100A7C001AC0D9FF1BC0DAFF7F0EDF161AC0D9FFD0
:100A8C001BC0DAFF000EDB8C000E0F6E050E0E6E17
:100A9C001AC010F01BC011F0000E136E020E126E75
:100AAC00C3EC13F006D01AC0D9FF1BC0DAFF000E3E
:100ABC00DB8C040E1A181A6E1B501B6E19B206D062
:100ACC001AC0D9FF1BC0DAFFDFAE31D0040134BF2E
:100ADC000BD0040134510F0B166E1650010D840E01
:100AEC00F324D96E000E0AD0040134510F0B166E8C
:100AFC001650010D870EF324D96E000EF420DA6E19
:100B0C000001DF921AC0D9FF1BC0DAFF3B0EDF16C3
:100B1C00000E0F6E050E0E6E1AC010F01BC011F0F9
:100B2C00000E136E020E126EC3EC13F006D01AC038
:100B3C00D9FF1BC0DAFF3B0EDF16040134510F0B3B
:100B4C00166E1650010D700EF324176E0F0EF42056
:100B5C00186E17C0D9FF18C0DAFFFE0EDF16120090
:100B6C00A09A000E6A6E000E686E000E706E710E0A
:100B7C000001D96F0F0E0001DA6F000E0001DC6F5F
:100B8C00000EDB6F000E0001DE6F020EDD6FFEEC5F
:100B9C0014F0160E6F6E9F0E6B6E7B0E696E000E50
:100BAC000001E16F0B0E0001E16501D010D00001D6
:100BBC00E151040D000EF324D96E040EF420DA6E0C
:100BCC00DE6ADE6ADE6ADD6A0001E12BEBD76D8C32
:100BDC00000E6E6E6D986D9C6896000E00016B6F2A
:100BEC00000E0001636F000E0001656F000E646F54
:100BFC0068B6F2D7010E416E010E406E000E3F6ECC
:100C0C00000E3E6E000E0001926F000E0001E16FAF
:100C1C00020E0001E16501D033D00001E151020D5B
:100C2C006E0EF324D96E000EF420DA6E000EDE6E1A
:100C3C00000EDD6E0001E151020D740EF324D96E2D
:100C4C00000EF420DA6E000EDE6E000EDD6E00017A
:100C5C00E151010D870EF324D96E000EF420DA6EEB
:100C6C00000EDF6E0001E151010D840EF324D96EEC
:100C7C00000EF420DA6E000EDF6E0001E12BC8D7F7
:100C8C00080E00016E6F040E00016F6F160E706E71
:100C9C00040E0401036F300E026F080E0401016F85
:100CAC00040E0401006F0401008F000E536E000E41
:100CBC002C6E000E2D6E000E2E6E000E2F6E000E82
:100CCC000001916F000E4E6E1200A09A000E6A6E1B
:100CDC00000E686E000E706E710E016E0F0E026EBD
:100CEC00000E046E000E036E000E066E020E056EF4
:100CFC0061EC15F0160E6F6E9F0E6B6E7B0E696EAF
:100D0C00000E096E0B0E096401D00ED00950040DB3
:100D1C00000EF324D96E040EF420DA6EDE6ADE6A5D
:100D2C00DE6ADD6A092AEED76D8C000E6E6E6D9848
:100D3C006D9C6896000E00016B6F000E0001636FD6
:100D4C00000E0001656F000E646F68B6F2D7010EDD
:100D5C00416E010E406E000E3F6E000E3E6E000E98
:100D6C000001926F000E096E020E096401D02ED0A4
:100D7C000950020D6E0EF324D96E000EF420DA6EBB
:100D8C00000EDE6E000EDD6E0950020D740EF324A3
:100D9C00D96E000EF420DA6E000EDE6E000EDD6EE3
:100DAC000950010D870EF324D96E000EF420DA6E73
:100DBC00000EDF6E0950010D840EF324D96E000E67
:100DCC00F420DA6E000EDF6E092ACED7080E000171
:100DDC006E6F040E00016F6F160E706E040E040120
:100DEC00036F300E026F080E0401016F040E040134
:100DFC00006F0401008F000E536E000E2C6E000E5F
:100E0C002D6E000E2E6E000E2F6E000E0001916FD7
:100E1C00000E4E6E120020EE01F03750D9263850DD
:100E2C00DA22DF50136E13500001645D000E655919
:100E3C00D8A064C013F013500001645F000E655B12
:100E4C00000E126E12D01250010D380EF324D96E12
:100E5C00040EF420DA6E60C0E1FF61C0E2FFDFCF68
:100E6C00E7FF0001604B612B122A1350125CD8A0D3
:100E7C00EAD70001645100016511D8B432D020EEDC
:100E8C0001F03550D9263650DA22080EDF6E20EEEE
:100E9C0002F03550D9263650DA22380EDE6E040EAA
:100EAC00DD6E37C0D9FF38C0DAFFDFBC0DD035C0DE
:100EBC00D9FF36C0DAFF480EDF6E35C0D9FF36C019
:100ECC00DAFF000EDB8E120035C0D9FF36C0DAFF18
:100EDC00080EDF6E35C0D9FF36C0DAFF000EDB8E90
:100EEC00120020EE01F03550D9263650DA22080EC9
:100EFC00DF6E20EE02F03550D9263650DA22300E55
:100F0C00DE6E040EDD6E35C0D9FF36C0DAFF040E7E
:100F1C00DF6E35C0D9FF36C0DAFF000EDB8E000164
:100F2C00665100016711D8B40ED020EE66F001D8DE
:100F3C000AD00500FA6EDE50FD6EDE50FE6EF850E3
:100F4C00FF6EFA5012000001639F4250D8A41200A9
:100F5C00B5EC0EF01200A09A33503410D8B408D06F
:100F6C0033C0D9FF34C0DAFFDFAE02D0A08A120042
:100F7C00030E4D18D8A402D0000E4D6E4D50D8A4BF
:100F8C0002D0A08A1200020E4D18D8A416D0010E61
:100F9C000001D96F000E0001DA6F000E0001DB6F4B
:100FAC00000E0001DC6F020EEDEC08F0D9C033F03E
:100FBC00DAC034F0030E4D6E6AD04D04D8A467D05D
:100FCC00400E3D6404D0400E0001E56F02D03DC0E0
:100FDC00E5F00001E55100083D243D6E000E0001D6
:100FEC007E6F050E00017F6FE5C0E4F03C50D8B475
:100FFC0013D02AD081C0D9FF82C0DAFF7EC0E1FFB6
:10100C007FC0E2FFDFCFE7FF00017E4B7F2B0001AB
:10101C00814B822B0001E4070001E4510001D8B49C
:10102C0018D0E8D781C0D9FF82C0DAFF7EC0E1FFBB
:10103C007FC0E2FFDFCFE7FF00017E4B7F2B00017B
:10104C00814B822B0001E4070001E4510001D8A47C
:10105C00E9D73D50D8A409D0400E0001E519D8A419
:10106C0002D0020E01D0030E4D6E010E0001D96F9D
:10107C00000E0001DA6F050E0001DB6FE5C0DCF03D
:10108C00020EEDEC08F0D9C033F0DAC034F0A08ACF
:10109C001200800E04013019D8A41200C00E0001F9
:1010AC006B6F89D0B40E0001686F080E0001696F78
:1010BC00000E00016D6F120E6C6F120004013251A4
:1010CC00D8A444D004013251020D070EF324F66E5D
:1010DC00080EF420F76E0900F5CF68F00A00F5CF82
:1010EC0069F0020E00016825016E000E00016921F5
:1010FC00026E01C0F6FF02C0F7FFF86A070EF76434
:10110C0003D00800F55005D0F6CFE1FFF7CFE2FF92
:10111C00E75000016C6F030E00016825016E000E94
:10112C0000016921026E01C0F6FF02C0F7FFF86AE8
:10113C00070EF76403D00800F55005D0F6CFE1FF99
:10114C00F7CFE2FFE75000016D6F1200000E0001B7
:10115C006B6F1200030E0401326125D00401325171
:10116C00020D010EF324F66E080EF420F76E090042
:10117C00F5CF68F00A00F5CF69F068C0F6FF69C0DA
:10118C00F7FFF86A070EF76403D00800F55005D096
:10119C00F6CFE1FFF7CFE2FFE750016E01500001FF
:1011AC006C6F6D6B1200000E00016B6F1200000E65
:1011BC0000016B6F120004013351010AD8B472D7CD
:1011CC00030AD8B47BD7010AD8B4C4D7F0D700012E
:1011DC00E16F0001D9510001D8B408D00001E151F0
:1011EC00020D6E0EF324D96E000E07D00001E151F2
:1011FC00020D740EF324D96E000EF420DA6EDECFDD
:10120C00E2F0DDCFE3F00001E2510001E311D8A4DC
:10121C0007D0000E0001D96F000E0001DA6F12002A
:10122C00000120EE02F0E251D926E351DA22DAC0B5
:10123C00DEFFDBC0DDFF000120EE01F0E251D9261C
:10124C00E351DA22DCC0DFFFE2C0D9FFE3C0DAFFF2
:10125C00400EDF16E2C0D9FFE3C0DAFF000EDB86DA
:10126C00E2C0D9FFE3C0DAFF000EDB8E0001D951DA
:10127C000001D8B41ED00001E151020D6E0EF32412
:10128C00D96E000EF420DA6EDECFDDF0DDCFDEF0AD
:10129C00040E0001DD190001DF6F0001DE510001B9
:1012AC00E06F0001E151020D6E0EF324D96E000EB9
:1012BC001DD00001E151020D740EF324D96E000E05
:1012CC00F420DA6EDECFDDF0DDCFDEF0040E0001AF
:1012DC00DD190001DF6F0001DE510001E06F00013C
:1012EC00E151020D740EF324D96E000EF420DA6E67
:1012FC00DFC0DEFFE0C0DDFFE2C0D9F0E3C0DAF012
:10130C0012004E04D8B46DBA06D0000E686E698017
:10131C006988020E4E6E68B469A403D06894E3EC3D
:10132C0014F06DA202D0A19A120068B069A006D088
:10133C006BEC06F0A08A040E4E6E689068B869A833
:10134C0002D049EC15F068AC1AD069AC0ED0000E86
:10135C000F6E730E0E6E000E106E000E116E000EE0
:10136C00136E010E126EC3EC13F0689C8AEC15F030
:10137C004350D8A443064350D8B4B5EC0EF068BA29
:10138C0069AA02D06EEC14F068B269A20FD07F0E7D
:10139C000F6E0E68000E106E000E116E000E136EA6
:1013AC00010E126EC3EC13F0000E6A6E040E4E604A
:1013BC0002D0A19A120069A639D0000E1D6E030E40
:1013CC001D6401D033D068A631D06CCF52F05230AE
:1013DC00E832E8320F0B456E689652B407D0455090
:1013EC00010D840EF324D96E000E06D04550010D6C
:1013FC00870EF324D96E000EF420DA6E0001DF7034
:10140C004550D8A403D0CBEC10F00ED0000E0F6ECC
:10141C00720E0E6E520E106E000E116E000E136ECA
:10142C00000E126EC3EC13F01D2AC9D7A19A12003C
:10143C00000E0001E26F0001E0AF0CD00001E01FD4
:10144C00DF1FDE1FDD6D000EDE23DF23E023010E28
:10145C000001E26F0001DCAF0CD00001DC1FDB1FD0
:10146C00DA1FD96D000EDA23DB23DC23010E000119
:10147C00E21B000E0001E36F000EE46F000EE56F3F
:10148C00000EE66F0001DD510001DE110001DF11DD
:10149C000001E011D8B442D0010E0001E16F08D078
:1014AC000001D890DD37DE37DF37E0370001E12B64
:1014BC000001E0AFF5D70001D890E337E437E5370A
:1014CC00E6370001DD510001D95D0001DE5100015C
:1014DC00DA590001DF510001DB590001E051000134
:1014EC00DC59D8A012D00001DD510001D95F0001F8
:1014FC00DE510001DA5B0001DF510001DB5B000112
:10150C00E0510001DC5B0001E3810001D890E03385
:10151C00DF33DE33DD330001E12FCDD70001E251A3
:10152C000001D8B409D00001E61FE51FE41FE36DEC
:10153C00000EE423E523E623E3C0D9F0E4C0DAF09F
:10154C00E5C0DBF0E6C0DCF01200096E0150D8B447
:10155C0007D00950020D6E0EF324D96E000E06D082
:10156C000950020D740EF324D96E000EF420DA6EBD
:10157C00DECF0AF0DDCF0BF00A500B10D8A405D04B
:10158C00000E016E000E026E120020EE02F00A50E8
:10159C00D9260B50DA2202C0DEFF03C0DDFF20EE9D
:1015AC0001F00A50D9260B50DA2204C0DFFF0AC022
:1015BC00D9FF0BC0DAFF400EDF160AC0D9FF0BC0F3
:1015CC00DAFF000EDB860AC0D9FF0BC0DAFF000E73
:1015DC00DB8E0150D8B418D00950020D6E0EF324D6
:1015EC00D96E000EF420DA6EDECF05F0DDCF06F0FA
:1015FC00040E0518076E0650086E0950020D6E0E8B
:10160C00F324D96E000E17D00950020D740EF3247A
:10161C00D96E000EF420DA6EDECF05F0DDCF06F0C9
:10162C00040E0518076E0650086E0950020D740E54
:10163C00F324D96E000EF420DA6E07C0DEFF08C06A
:10164C00DDFF0AC001F00BC002F012006EC0D9FF22
:10165C006FC0DAFF0001000EDFBC010E126E040E2B
:10166C0000016E1900016E6F00016F5100016F6F68
:10167C00080E4E18D8A40BD0040132517F0B6E6E9D
:10168C006E50D8B402D0100E01D0040E4E6E47042A
:10169C00D8A43BD0000120EE02F06E51D9266F5138
:1016AC00DA22380EDE6E040EDD6E7DEC0DF0020ECD
:1016BC004818D8A40DD06EC0D9FF6FC0DAFF040E45
:1016CC00DF6E6EC0D9FF6FC0DAFF000EDB8E12002A
:1016DC001250D8A40DD06EC0D9FF6FC0DAFF480EDF
:1016EC00DF6E6EC0D9FF6FC0DAFF000EDB8E12000A
:1016FC006EC0D9FF6FC0DAFF080EDF6E6EC0D9FF67
:10170C006FC0DAFF000EDB8E1200000163AF16D043
:10171C000001665100016711D8B40ED020EE66F0BE
:10172C0001D80AD00500FA6EDE50FD6EDE50FE6E5A
:10173C00F850FF6EFA5012000001639F000E476EC6
:10174C0012006D9800016BBF39D0000163AF0BD054
:10175C00020E476E3E50D8B47CEC10F0000E406E7A
:10176C00000E416E120020EE01F03550D926365095
:10177C00DA22080EDF6E20EE02F03550D9263650F4
:10178C00DA22300EDE6E040EDD6E35C0D9FF36C0A7
:10179C00DAFF0C0EDF6E35C0D9FF36C0DAFF000E53
:1017AC00DB8E6EC0D9FF6FC0DAFF040EDF6E6EC029
:1017BC00D9FF6FC0DAFF000EDB8E1200040130AFD0
:1017CC0010D0010E476E3F50D8B47CEC10F0000ED8
:1017DC00406E000E416E4250D8A41200B5EC0EF0D3
:1017EC001200020E476E20EE01F03550D92636500D
:1017FC00DA22080EDF6E20EE02F03550D926365074
:10180C00DA22300EDE6E040EDD6E35C0D9FF36C026
:10181C00DAFF040EDF6E35C0D9FF36C0DAFF000EDA
:10182C00DB8E000E406E000E416E4250D8A41200AA
:10183C00B5EC0EF0120004013039E832030B00094C
:10184C00D8A412004FD000016B8F080E4E6E120000
:10185C004FEC08F012000CEC0DF01200530E0001CE
:10186C00686F000E0001696F00016B81010E0001B1
:10187C006C6F00016B8F120075EC0FF0120066ECB0
:10188C0004F0120004013451010D4F0EF324000139
:10189C00686F000EF4200001696F00016B81010E6E
:1018AC0000016C6F00016B8F120000016B8F040143
:1018BC003451010D4F0EF324D96E000EF420DA6E64
:1018CC0032C4DFFF1200000E0F6E020E0E6E000E01
:1018DC00106E000E116E000E136E000E126EC3EC25
:1018EC0013F0120004013151000AD8B4C5D7010A13
:1018FC00D8B4C5D7020AD8B4C2D7060AD8B4A3D76D
:10190C00030AD8B4A5D7010AD8B4DDD70F0AD8B4C6
:10191C00A5D7010AD8B49FD7030AD8B4B3D7010A04
:10192C00D8B4C3D7070A120063D080A80AD03150AC
:10193C00D8B40AD0000E316E010E306E899A9268BE
:10194C001200010E566E120080A803D0000E566EC7
:10195C0012003050D8B406D0000E306E010E316E2D
:10196C00000E896EDF0E926EF0EC11F0516EF00EDF
:10197C005118D8B41200020E566E120080A803D073
:10198C00000E566E1200340E0001DA6FF10EE82EC6
:10199C00FED7DA2FFCD700D0F0EC11F05118D8A4F8
:1019AC0003D0030E566E1200010E566E120080A864
:1019BC0005D0000E566E010E326E12003250D8B4A5
:1019CC0009D0000E326E51500F0B896ED00E926EF4
:1019DC00898A1200F0EC11F05118D8B41200000EE4
:1019EC00896EDF0E926E010E566E010E326E120073
:1019FC005650000AD8B499D7010AD8B4A5D7030A0F
:101A0C00D8B4BCD7010AD8A41200D1D700016B8F6F
:101A1C00710E016E0F0E026E000E046E000E036E40
:101A2C00000E066E020E056E61EC15F0000E016ED6
:101A3C00040E026E000E046E000E036E000E066E97
:101A4C00300E056E61EC15F06D8C000E166E020EEC
:101A5C00166401D016D01650010D870EF324D96EE2
:101A6C00000EF420DA6E000EDF6E1650010D840E9F
:101A7C00F324D96E000EF420DA6E000EDF6E162AF7
:101A8C00E6D74F0E016E000E026E000E046E000EB5
:101A9C00036E000E066E020E056E61EC15F06D9C69
:101AAC00080E00016E6F040E00016F6F000E376E92
:101ABC00040E386E37C035F038C036F032C453F0EF
:101ACC005350D8A403D0100E4E6E1200000E0F6EA1
:101ADC00010E0E6E530E106E000E116E000E136E74
:101AEC00010E126EC3EC13F0200E4E6E1200080E97
:101AFC00016E00016D5111E1080E00016C5DD8B052
:101B0C000CD06CC001F04850D8A402D0010E04D007
:101B1C004804D8A402D0020E486E015000016C5F3C
:101B2C00000E6D5B000120EE01F06E51D9266F5155
:101B3C00DA2201C0DFFF380E00018C6F040E0001A9
:101B4C008D6F00016BA11DD03CD068C0F6FF69C041
:101B5C00F7FFF86A8CC0D9FF8DC0DAFF070EF76467
:101B6C0003D00800F55005D0F6CFE1FFF7CFE2FF28
:101B7C00E750DF6E0001684B692B00018C4B8D2BFD
:101B8C0001060150D8B41200E0D768C0F6FF69C056
:101B9C00F7FFF86A8CC0D9FF8DC0DAFF070EF76427
:101BAC0003D00800F55005D0F6CFE1FFF7CFE2FFE8
:101BBC00E750DF6E0001684B692B00018C4B8D2BBD
:101BCC0001060150D8B41200E0D7040130511F0BAC
:101BDC00E806D8A4120004013039E832030BE806F9
:101BEC00D8A4120004013451D8B445D004013405F2
:101BFC00D8A4120040D0B90E0001686F000E00018D
:101C0C00696F000E00016D6F080E6C6F00016B8127
:101C1C0000016B8F1200B90E0001686F000E0001FD
:101C2C00696F00016B8F120036C464F037C465F025
:101C3C00AF0E0001606F000E0001616F3E0E0001DF
:101C4C00666F280E0001676F0001638F1200C10ED2
:101C5C000001686F000E0001696F000E00016D6FCE
:101C6C00070E6C6FC10E00016B6F120032C43BF09B
:101C7C0000016B8F120004013151000AD8B4BBD79C
:101C8C00010AD8B4C8D7210AD8B4CED7010AD8B41F
:101C9C00DED7030AD8A41200E9D7200E4E6001D07B
:101CAC0012006DB212004950D8A413D0000E0001DE
:101CBC00E46F010E0001E56F400E0001E66F17ECBA
:101CCC000FF04B6E4B50D8B404D0010E496E000E81
:101CDC004A6E4950D8A4ACA212D04A50010D000E45
:101CEC00F324D96E010EF420DA6EDF50CDEC15F032
:101CFC004A2A4B504A18D8A402D0000E496E9EAA0C
:101D0C0019D03F0E4C6016D04C50010D400EF324F0
:101D1C00D96E010EF420DA6EADEC15F0DF6E4C2AA4
:101D2C004C50010D400EF324D96E010EF420DA6EE6
:101D3C00000EDF6E4D50D8A40FD04C50D8B40CD040
:101D4C00400E0001D96F010E0001DA6F4CC0DBF0C0
:101D5C009DEC15F0000E4C6EB1EC07F012004150EA
:101D6C00D8A41200010E416E4050D8A41200010EEE
:101D7C00406E020E4718D8A416D0000120EE01F0D8
:101D8C006E51D9266F51DA22000EDF6E6EC0D9FF6C
:101D9C006FC0DAFF480EDF6E6EC0D9FF6FC0DAFF7E
:101DAC00000EDB8E12004704D8A41200000E446E05
:101DBC0020EE01F03750D9263850DA22080EDF6EAB
:101DCC0020EE02F03750D9263850DA22300EDE6E73
:101DDC00040EDD6E37C0D9FF38C0DAFF040EDF6E9B
:101DEC0037C0D9FF38C0DAFF000EDB8E010E446E0F
:101DFC0020EE01F03550D9263650DA22080EDF6E6F
:101E0C0020EE02F03550D9263650DA22300EDE6E36
:101E1C00040EDD6E35C0D9FF36C0DAFF800EDF6EE2
:101E2C001200000E0001906F00018A5100018B110D
:101E3C00D8B407D08AC0D9FF8BC0DAFF0001DFBE4F
:101E4C004BD0000120EE01F08A51D9268B51DA22B9
:101E5C000001E651DE5CD8B00AD0000120EE01F0A2
:101E6C008A51D9268B51DA22DF500001E66F000E21
:101E7C000001906F18D000019051010D400EF32419
:101E8C00D96E050EF420DA6E00019051010DF3505D
:101E9C000001E425E16EF4500001E521E26EDFCF94
:101EAC00E7FF0001902B0001E6510001905DD8A0E6
:101EBC00E2D7000E0001D96F400E0001DA6F050E5B
:101ECC000001DB6F400E0001DC6F020EEDEC08F040
:101EDC00D9C08AF0DAC08BF0000190511200000ECC
:101EEC000401386F000E0401396F3BD000016B8F79
:101EFC004604D8A442D0040138833FD000016B8F34
:101F0C003CD000016B8F040134BF0BD00401345161
:101F1C000F0B016E0150020D740EF324D96E000EDE
:101F2C000AD0040134510F0B016E0150020D6E0EDC
:101F3C00F324D96E000EF420DA6EDECF02F0DDCF82
:101F4C0003F002C0D9FF03C0DAFFDFAE16D002C027
:101F5C00D9FF03C0DAFFDFA410D0010E0401386FE3
:101F6C000CD0040130511F0B000AD8B4BFD7010AA2
:101F7C00D8B4C4D7030AD8B4C4D700016BAF1200CD
:101F8C00380E0001686F040E0001696F00016B814F
:101F9C00020E00016C6F120020EE08F05450D9268E
:101FAC005550DA22DF50D8B4F7D720EE08F0545051
:101FBC00D9265550DA22000EDF6E000E0001DD6FBF
:101FCC00AC8A0D0E0001DC6FFB0EE82EFED7DC2F69
:101FDC00FCD700D029D0ACB202D0010E01D0000E3B
:101FEC000001DC6F9EB802D0010E01D0000E000182
:101FFC00DC11F1E100F0000EF2BE010E3A6EF29E21
:10200C000001DD51010DF3500001D925D96EF450BA
:10201C000001DA21DA6EDF50AD6E3AB002D0F29EDA
:10202C0001D0F28E0001DD2B0001DB510001DD5DE2
:10203C00D8A0D1D720EE08F05450D9265550DA222A
:10204C00010EDF6E1200000E486E000E426E000E86
:10205C003F6E000E3E6E000E446E000E476E6EC05C
:10206C00D9FF6FC0DAFF7F0EDF16040E00016E1968
:10207C0000016E6F00016F5100016F6F6EC0D9FFD0
:10208C006FC0DAFF7F0EDF16040E00016E1900011F
:10209C006E6F00016F5100016F6F35C0D9FF36C0F4
:1020AC00DAFF7F0EDF16000E00016B6F000E0001D1
:1020BC006D6F000E6C6F000E0001636F000E00015F
:1020CC00656F000E646F21EC0CF0000E0F6E030EAA
:1020DC000E6E000E106E000E116E000E136E000EC2
:1020EC00126EC3EC13F0A7EC0BF01200000E3F6E57
:1020FC00000E3E6E020E4718D8A41FD020EE01F041
:10210C003550D9263650DA22080EDF6E20EE02F05A
:10211C003550D9263650DA22380EDE6E040EDD6EBE
:10212C0035C0D9FF36C0DAFF480EDF6E35C0D9FF97
:10213C0036C0DAFF000EDB8E120000016C51040178
:10214C00365D00016D5104013759D8B004D036C446
:10215C006CF037C46DF07DEC0DF0000120EE02F058
:10216C006E51D9266F51DA22380EDE6E040EDD6EFA
:10217C006EC0D9FF6FC0DAFF480EDF6E6EC0D9FF9C
:10218C006FC0DAFF000EDB8E12002D0E436E52C0B4
:10219C001CF0FD0E1C16D8A43BD052C01CF0D890DD
:1021AC001C323F0E1C161C50040D000EF324376E0F
:1021BC00040EF420386E37C035F038C036F0040EFB
:1021CC003518356E3650366E37C0D9FF38C0DAFF49
:1021DC00DF30E8320F0B0D0AD8A417D0300E016E89
:1021EC00040E026E20EE02F03750D9263850DA2257
:1021FC00DECF03F0DDCF04F0000E066E080E056E88
:10220C004CEC14F029EC10F01200F1EC13F012006D
:10221C005250FD0B040AD8A412002CEC0BF0120047
:10222C0018EC15F01A0E0001EC6FF80EE82EFED724
:10223C00EC2FFCD700F001018469F0EC11F00101E6
:10224C00856FF00E01018519D8B428D0340E000129
:10225C00EC6FF10EE82EFED7EC2FFCD700D0F0EC93
:10226C0011F001018519D8A419D085C184F1F0ECC5
:10227C0011F001018519D8A411D0F9D777EC15F01C
:10228C0053EF00F0ADEC14F053EF00F0D7EC15F079
:10229C0053EF00F0D2EC15F053EF00F00101845134
:1022AC00000AD8B4EBD7010AD8B4ECD7030AD8B4D7
:1022BC00EDD7F0D7066E000E076E040E086E0150B7
:1022CC00026E036AD890023603360650046E056A15
:1022DC00D89004360536D8900436053602500426BC
:1022EC0003500522D89004360536D89004360536AE
:1022FC00045007260550082207C0D9FF08C0DAFF92
:10230C00DF9E0150D8A407D00650020D740EF324A2
:10231C00D96E000E06D00650020D6E0EF324D96E47
:10232C00000EF420DA6E07C0DEFF08C0DDFF07C028
:10233C00D9FF08C0DAFFDF9C20EE04F00750D92645
:10234C000850DA22DF8C1200000E0001D96F120E39
:10235C00DA6F7A0EDB6F000EDC6FE7C080F1E8C03D
:10236C0081F1E9C082F1EAC083F1060ED890010137
:10237C008037813782378337E82EF8D780C1DDF07C
:10238C0081C1DEF082C1DFF083C1E0F01EEC0AF007
:10239C000001D905AF6EAC9CAC98AC8AAB9CAB88F9
:1023AC0020EE08F05450D9265550DA22010EDF6E7B
:1023BC0020EE09F05450D9265550DA22010EDF6E6A
:1023CC00930E0001A76F000E0001A86F949C948ED1
:1023DC00AB8E1200000E0001D96F030E0001D965FF
:1023EC0001D03CD00001D9510001D8A402D0100E6C
:1023FC0013D00001D905D8A402D0200E0DD0020EA6
:10240C000001D919D8A402D0400E06D0030E000149
:10241C00D919D8A402D0800E8A6E81A005D00001F3
:10242C00D951040DF350120081A205D00001D951ED
:10243C00040DF328120081A406D00001D951040D1B
:10244C00F350020F120081A606D00001D951040DE1
:10245C00F350030F12000001D92BBFD7F00E12005E
:10246C00000E096E000E0A6E000E0B6E000E0C6E46
:10247C000550061007100810D8B42AD0010E0D6EA6
:10248C0006D0D89005360636073608360D2A08AE23
:10249C00F8D7D89009360A360B360C360550015C45
:1024AC00065002580750035808500458D8A009D0B9
:1024BC000550015E0650025A0750035A0850045A40
:1024CC000980D89008320732063205320D2EE1D73A
:1024DC0009C001F00AC002F00BC003F00CC004F0FC
:1024EC001200F0EC11F0516EF00E5118D8B412002D
:1024FC00340E0001DE6FF10EE82EFED7DE2FFCD776
:10250C0000D0F0EC11F05118D8A41200510E0001BB
:10251C00D96F000E0001DA6F010E0001DB6FD2ECF7
:10252C000FF00BD0510E0001D96F000E0001DA6FC5
:10253C00010E0001DB6FD2EC0FF0F0EC11F0511832
:10254C00D8B4F0D7570E0001D96F000E0001DA6F26
:10255C00010E0001DB6FD2EC0FF012000600FACF77
:10256C001EF0FBCF1FF0E9CF20F0EACF21F0E1CF36
:10257C0022F0E2CF23F0D9CF24F0DACF25F0F3CF3D
:10258C0026F0F4CF27F0F6CF28F0F7CF29F0F8CFCC
:10259C002AF0F5CF2BF087EC09F02BC0F5FF2AC001
:1025AC00F8FF29C0F7FF28C0F6FF27C0F4FF26C0AC
:1025BC00F3FF25C0DAFF24C0D9FF23C0E2FF22C0FD
:1025CC00E1FF21C0EAFF20C0E9FF1FC0FBFF1EC0D6
:1025DC00FAFF5892110080A809D0899A926880B8A5
:1025EC00FED7000E896EDF0E926E1200DF0E926E19
:1025FC00F0EC11F0516EF00E5118D8B41200340EEC
:10260C000001DA6FF10EE82EFED7DA2FFCD700D0DE
:10261C00F0EC11F05118D8A411D051500F0B896E59
:10262C00D00E926E898A05D080A803D0926880B8AB
:10263C00FED7F0EC11F05118D8B4F6D7000E896E15
:10264C00DF0E926E1200800E0001C16F250EC26F5C
:10265C00000EC36F000EC46F000E0001C56F000E9C
:10266C000001C66F080E0001C76F000E0001906FCD
:10267C001A0E096E010E8FEC14F01E0E096E020E6E
:10268C008FEC14F0000E016E400E026E050E036E00
:10269C00400E046E020EABEC0AF001C08AF002C0D0
:1026AC008BF0000E336E000E346E000E4D6E120069
:1026BC0029EC13F0000E0001C56F080E0001C76F66
:1026CC00000E0001C66F800E0001C16F250EC26F97
:1026DC00000EC36F000EC46FB9EC15F0000E0D6E3A
:1026EC003F0E0D6401D00CD00D50010D400EF324A3
:1026FC00D96E010EF420DA6E000EDF6E0D2AF0D7C3
:10270C00000E4C6E000E4B6E000E00018E6F000E14
:10271C0000018F6F1200B00EF66E2B0EF76E000ECE
:10272C00F86E0900F5CFEDF0AA0EF66E2B0EF76ED3
:10273C00000EF86E00EE54F010EE04F00900F5CF28
:10274C00EEFFE550E150FAE101EE00F0800EEE6A8A
:10275C00E806FDE100EE60F0680EEE6AE806FDE1C9
:10276C0000EE2CF0280EEE6AE806FDE15890589227
:10277C00000EF86E000116EF11F006D05EEC13F0AF
:10278C001200EBEC0DF012000EC014F00FC015F09F
:10279C001550000AD8B404D07F0AD8A4120018D05F
:1027AC001450010AD8B4EAD7030AD8B41200010AAB
:1027BC00D8B4E7D7060AD8B41200770AD8B41200F6
:1027CC00010AD8B41200070AD8B41200010A120088
:1027DC001450FF0A1200020E4718D8A403D011ECB3
:1027EC0007F01200000E476E4450D8A41FD020EE04
:1027FC0001F03550D9263650DA22080EDF6E20EE65
:10280C0002F03550D9263650DA22300EDE6E040E28
:10281C00DD6E35C0D9FF36C0DAFF0C0EDF6E35C069
:10282C00D9FF36C0DAFF000EDB8E1200000E446EAC
:10283C001200AFC0C1F0B0C0C2F0B1C0C3F0B2C0A2
:10284C00C4F0480E016EE80E026E010E036E000E0F
:10285C00046EC1C005F0C2C006F0C3C007F0C4C00E
:10286C0008F036EC12F0FF0E01240E6EFF0E022063
:10287C000F6EFF0E0320106EFF0E0420116E0EC0A3
:10288C00AFFF0FC0B0FFB9EC15F0120003C009F098
:10289C0004C00AF001C007F002C008F010D009C053
:1028AC00D9FF0AC0DAFFDF500B6E094A0A2A07C0AB
:1028BC00D9FF08C0DAFF0BC0DFFF074A082A05065C
:1028CC00D8A006060528EBE10628D8B41200E7D7F5
:1028DC0070A01DD037C0D9FF38C0DAFF800EDE18CB
:1028EC00D8A414D06EC0D9FF6FC0DAFF840EDE18E6
:1028FC00D8A40CD037C0D9FF38C0DAFF0C0EDF6E6D
:10290C0037C0D9FF38C0DAFF000EDB8E7090689AA2
:10291C0012000C6E09A405D0000E016E0C5060EC78
:10292C0011F009A205D0010E016E0C5060EC11F0F3
:10293C000C50010D700EF3240A6E0F0EF4200B6E6A
:10294C000AC0D9FF0BC0DAFF09C0DFFF1200800EEE
:10295C000001E76F250EE86F000EE96F000EEA6FBD
:10296C00AAEC11F0AC8A0D0E0001EB6FFB0EE82EF9
:10297C00FED7EB2FFCD700D0EF0E926E898877EC48
:10298C0012F0FDD70001D96F0ED092680F0E936E26
:10299C00800E946E000E896EF00E8A6E800E8B6E19
:1029AC000F0EC11212000001D951000AD8B4EDD794
:1029BC00010AD8B41200030A1200000E0001926F33
:1029CC00000E0F6E740E0E6E000E106E000E116E59
:1029DC00000E136E000E126EC3EC13F06D92699420
:1029EC0001D0689468B4FDD7000E0001916F1200FD
:1029FC00D9C0DFF0DAC0E0F009D0DFC0D9FFE0C009
:102A0C00DAFFDBC0DFFF0001DF4BE02B0001DD074D
:102A1C00D8A0DE070001DD29F0E10001DE29D8B4E1
:102A2C001200EBD7D388D38AD38CD382D390DF0E0A
:102A3C00926E0F0E936E800E946E000E896EF00ED9
:102A4C008A6E800E8B6E0F0EC16EC290F28C9D9CA6
:102A5C00D09EF29E12004E50D8A41200000E6D6E45
:102A6C00000E696E160E6F6E9F0E6B6E7B0E696E8E
:102A7C00D08EA28AA08AF28E01D06D866DA6FDD76B
:102A8C00010E4E6E1200698468986D82010E000171
:102A9C00926F000E0001916F000E0F6E750E0E6E90
:102AAC00000E106E000E116E000E136E000E126EE4
:102ABC00C3EC13F0120001C007F002C008F008D0FC
:102ACC0007C0D9FF08C0DAFF03C0DFFF074A082A96
:102ADC000506D8A006060528F3E10628D8B412008E
:102AEC00EFD7F28E000EC8EC14F0B6EC05F031EC1A
:102AFC0015F0010E306E010E316E010E326EC4EC0B
:102B0C0015F09AEC0CF0FBD7010E2C26000E2D22A2
:102B1C002E222F2200019251D8A412000001912BD9
:102B2C0000019151D8A41200000191691200A09AE1
:102B3C004D50D8A40AD0D9C081F0DAC082F0DBC0E5
:102B4C003DF0010E3C6E010E4D6EA08A1200ABA240
:102B5C0005D0AB98AECFD9F0AB8802D0AECFD9F0C0
:102B6C000001D9511200AC9CAC98AC8AAB9CAB88E0
:102B7C00948E949CAB8EAECF01F01200200E4E6062
:102B8C0001D012006DB2120053EC0EF012000001D5
:102B9C00D96FD9C0ADFF1200F1EC12F0FDD7A30034
:052BAC0001F0FFD7F06D
:020000040020DA
:08000000FFFFFFFFFFFFFFFF00
:020000040030CA
:0E000000340B3F1EFF8181FF0FC00FE00F4049
:00000001FF
