:020000040000FA
:04000000A7EF0CF06A
:101000000050100004104073656E736F725374616A
:1010100074652C202564006C61737453746174656D
:101020002C202564000022C03AF023C03BF024C0ED
:101030003CF025C03DF026C03EF027C03FF028C060
:1010400040F029C041F041AE02D0010E01D0000EA7
:10105000386E396A38503910D8B410D0411E401E4D
:101060003F1E3E1E3D1E3C1E3B1E3A6C000E3B22A8
:101070003C223D223E223F224022412277AE7892FE
:1010800077BE05D0775008E17604D8B005D0000EC1
:10109000356E010E346E04D076C034F077C035F072
:1010A00074C036F075C037F038503910D8A402D06B
:1010B00078A403D03606D8A03706000E436E1F0E64
:1010C000426E000E00019F6F7CD04206D8A04306FE
:1010D000800E4224D96E000E4320DA6E3AC001F031
:1010E0003BC002F03CC003F03DC004F03EC005F040
:1010F0003FC006F040C007F041C008F00A0E096E7C
:10110000000E0A6E000E0B6E000E0C6E000E0D6EC1
:10111000000E0E6E000E0F6E000E106E98EC0AF0B0
:1011200001C02AF002C02BF003C02CF004C02DF047
:1011300005C02EF006C02FF007C030F008C031F017
:101140002AC013F02CC014F064EC0CF01350300FD4
:10115000DF6E3406D8A035063606D8A037063AC06A
:1011600001F03BC002F03CC003F03DC004F03EC0C3
:1011700005F03FC006F040C007F041C008F00A0E7D
:10118000096E000E0A6E000E0B6E000E0C6E000E45
:101190000D6E000E0E6E000E0F6E000E106EF4EC53
:1011A00009F001C03AF002C03BF003C03CF004C0BB
:1011B0003DF005C03EF006C03FF007C040F008C05B
:1011C00041F043BE1FD0435003E14204D8A01AD0DF
:1011D0003A503B103C103D103E103F104010411063
:1011E000D8A473D735BE05D0355002E13404D8B049
:1011F0006CD737BE07D0375003E13604D8A002D0F1
:1012000078B263D738503910D8A402D078A417D058
:101210004206D8A0430638503910D8A404D0000E96
:10122000336E2B0E03D0000E336E2D0E326E800EF9
:101230004224D96E000E4320DA6E32C0DFFF20C098
:1012400015F021C016F0800E4224176E000E4320C8
:10125000186E36C019F037C01AF02AEC0BF015C022
:1012600020F016C021F0120046C0D9FF47C0DAFFB7
:10127000DECFF6FFDDCFF7FF0800F550250AD8A432
:1012800099D046C0D9FF47C0DAFFDE2A000EDD2222
:10129000000E756E000E746E74C078F075C079F033
:1012A0007668776846C0D9FF47C0DAFFDECFF6FF21
:1012B000DDCFF7FF0800F550640AD8B40DD046C062
:1012C000D9FF47C0DAFFDECFF6FFDDCFF7FF08001A
:1012D000F550690AD8A43FD046C0D9FF47C0DAFF0D
:1012E000DE2A000EDD2248C0D9FF49C0DAFFDFCF79
:1012F0004AF0020EDE26DFCF4BF0000EDD224AC0A0
:10130000D9FF4BC0DAFFDECF4CF0DDCF4DF0000E41
:101310004DBEFF0E4E6E4F6E506E516E526E536E3E
:1013200044C020F045C021F04CC022F04DC023F055
:101330004EC024F04FC025F050C026F051C027F019
:1013400052C028F053C029F013EC08F020C044F03C
:1013500021C045F0120046C0D9FF47C0DAFFDECFFA
:10136000F6FFDDCFF7FF0800F550250AD8A416D008
:1013700046C0D9FF47C0DAFFDE2A000EDD22000E8C
:10138000066E250E056E44C007F045C008F0B4ECAB
:101390000BF0000E456E010E446E120046C0D9FFE0
:1013A00047C0DAFFDE2A000EDD22000E456E000E79
:1013B000446E120046C0D9FF47C0DAFFDECFF6FF09
:1013C000DDCFF7FF0800F550056E066A44C007F050
:1013D00045C008F0B4EC0BF046C0D9FF47C0DAFFB7
:1013E000DE2A000EDD22D5D7000E126E10AE12D00E
:1013F000101E0F1E0E1E0D1E0C1E0B1E0A1E096C4B
:10140000000E0A220B220C220D220E220F22102285
:10141000010E126E08AE12D0081E071E061E051E13
:10142000041E031E021E016C000E0222032204226F
:101430000522062207220822010E121A20EE13F0BE
:10144000070EDE6AE806FDE209500A100B100C10C8
:101450000D100E100F101010D8B446D0010E116EE2
:101460000AD0D89009360A360B360C360D360E36B1
:101470000F361036112A10AEF4D7D8901336143622
:10148000153616361736183619361A360950015CD5
:101490000A5002580B5003580C5004580D50055870
:1014A0000E5006580F50075810500858D8A011D0A9
:1014B0000950015E0A50025A0B50035A0C50045A4C
:1014C0000D50055A0E50065A0F50075A1050085A20
:1014D0001380D89010320F320E320D320C320B3294
:1014E0000A320932112EC9D71250D8B410D01A1EA0
:1014F000191E181E171E161E151E141E136C000E24
:101500001422152216221722182219221A2213C079
:1015100001F014C002F015C003F016C004F017C0AB
:1015200005F018C006F019C007F01AC008F0120044
:10153000000E126E08AE12D0081E071E061E051EF3
:10154000041E031E021E016C000E0222032204224E
:101550000522062207220822010E126E10AE10D0BC
:10156000101E0F1E0E1E0D1E0C1E0B1E0A1E096CD9
:10157000000E0A220B220C220D220E220F22102214
:1015800009500A100B100C100D100E100F10101037
:10159000D8B43CD0010E116E0AD0D89009360A3664
:1015A0000B360C360D360E360F361036112A10AEAD
:1015B000F4D70950015C0A5002580B5003580C50E4
:1015C00004580D5005580E5006580F50075810502B
:1015D0000858D8A010D00950015E0A50025A0B508A
:1015E000035A0C50045A0D50055A0E50065A0F500B
:1015F000075A1050085AD89010320F320E320D325E
:101600000C320B320A320932112ED3D71250D8B411
:1016100010D0081E071E061E051E041E031E021EF5
:10162000016C000E02220322042205220622072258
:10163000082201C001F002C002F003C003F004C0A0
:1016400004F005C005F006C006F007C007F008C0AA
:1016500008F0120078A00AD017C00EF018C00FF0E2
:1016600015C010F016C011F048EC0CF01ABE05D0F1
:1016700019C01EF01AC01FF004D0000E1F6E000E1D
:101680001E6E000E1D6E000E1C6E0CD0000E066E3F
:10169000200E056E15C007F016C008F0B4EC0BF074
:1016A0001C4A1D2A1E501C5C1D50800A1B6E1F50B8
:1016B000800A1B58D8A0EAD778B00AD017C00EF01D
:1016C00018C00FF015C010F016C011F048EC0CF067
:1016D00017C001F018C002F07DEC0CF01E50012480
:1016E000156E1F500220166E1200010E956E000E30
:1016F0008C6E000E686E000E676E000E656E000E3A
:10170000666EEAEC0BF083A003D0646A642A01D011
:10171000646A6450696E6A6A69506A1069506A1036
:10172000010EE7EC0CF0110E646E3A0EE82EFED7B7
:10173000642EFCD700D0070E5C6E100E5D6E69C083
:101740005EF06AC05FF0BAEC0CF0C00EE7EC0CF093
:10175000170E5C6E100E5D6E000E5F6E000E5E6EFC
:10176000BAEC0CF000EF00F007500810D8B404D029
:1017700007500810D8A404D00550E1EC0CF012007A
:1017800020EE04F00750D9260850DA22DE50DE1091
:10179000D8B416D020EE04F00750D9260850DA222B
:1017A00010EE02F00750E1260850E222DE50E65C1F
:1017B000E650800A0D6EDE50800A0D58D8B0120037
:1017C00020EE02F00750D9260850DA22DE2A000E59
:1017D000DD221200310E056EB20EE82EFED7052E68
:1017E000FCD700D08C94030ECDEC0CF0110E056EDE
:1017F0003A0EE82EFED7052EFCD700D0030ECDEC16
:101800000CF07D0EE82EFED7320ED8EC0CF0280E30
:10181000D8EC0CF0080ED8EC0CF0010ED8EC0CF063
:10182000110E056E3A0EE82EFED7052EFCD700D01D
:10183000060ED8EC0CF00F0EE7EC0CF0120056C0C0
:101840005AF057C05BF0000E736E000E726E12D02D
:1018500054C044F055C045F05A0E466E000E476E17
:1018600058C048F059C049F034EC09F04450722691
:10187000455073225AC0F6FF5BC0F7FF0800F550D1
:101880000009D8A4E5D772C054F073C055F0120017
:10189000000E146E000E136E0BD012C005F0066A17
:1018A00010C007F011C008F0B4EC0BF0134A142A72
:1018B00013500E24D96E14500F20DA6EDF50126EC2
:1018C0001250D8B41200E9D714BE05D0145010E15C
:1018D0001304D8B00DD013C015F014C016F0151EA7
:1018E000161E154A162A15C013F016C014F0120061
:1018F00013C013F014C014F0120001C003F002C0B2
:1019000004F002D0014A022A01C0D9FF02C0DAFF66
:10191000DF50D8A4F7D70350015C016E0450025881
:10192000026E1200000EF2BE010E016EF29E8C8657
:10193000140EE82EFED700D08C96530EE82EFED75C
:1019400000F001B002D0F29E01D0F28E120000EE43
:1019500080F0200EEE6AE806FDE100EE6BF00F0E5F
:10196000EE6AE806FDE1000EF86E100EF76E00015B
:1019700075EF0BF05E0E626E000E636E000E546E1D
:10198000000E556E5CC056F05DC057F0620E586E8A
:10199000000E596E1FEC0CF01200026E8C500F0BF3
:1019A0008C6E0238F00B8C108C6E92EC0CF01200E6
:1019B000036E03380F0BCDEC0CF00350CDEC0CF0A4
:1019C0001200046E8C840450D8EC0CF01200046EEB
:0A19D0008C940450D8EC0CF01200C7
:020000040020DA
:08000000FFFFFFFFFFFFFFFF00
:020000040030CA
:0E000000FF821F1EFF8381FF0F400FE00F40A5
:00000001FF
