:020000040000FA
:04000000D5EF09F03F
:1010000000501040000410756E62726F6B656E00C8
:101010006C6F6C00666B0000010E926E000E566ED7
:10102000000E556E000E536E000E546E4FEC09F01C
:1010300080A003D0516A512A01D0516A5150576E95
:10104000586A57505810D8A41DD0010EFCEC09F076
:10105000110E516E3A0EE82EFED7512EFCD700D05D
:10106000140E4B6E100E4C6EC2EC09F00D0E526E4B
:10107000AF0E516EB60EE82EFED7512EFCD7522E73
:10108000FAD700D057505810D8B41DD0010EFCEC40
:1010900009F0110E516E3A0EE82EFED7512EFCD7F4
:1010A00000D0100E4B6E100E4C6EC2EC09F00D0EFF
:1010B000526EAF0E516EB60EE82EFED7512EFCD7F3
:1010C000522EFAD700D057505810D8B4B1D7555037
:1010D0005610D8A4ADD7010EFCEC09F0110E516EDC
:1010E0003A0EE82EFED7512EFCD700D0070E4B6EDD
:1010F000100E4C6EC2EC09F00D0E526EAF0E516E1A
:10110000B60EE82EFED7512EFCD7522EFAD700D0BD
:1011100057505810D8A421D055505610D8B41DD0CF
:10112000010EFCEC09F0110E516E3A0EE82EFED7BE
:10113000512EFCD700D0090E4B6E100E4C6EC2EC37
:1011400009F00D0E526EAF0E516EB60EE82EFED7A0
:10115000512EFCD7522EFAD700D057C055F058C0A8
:1011600056F066D73FC0D9FF40C0DAFFDECFF6FFAA
:10117000DDCFF7FF0800F550250AD8A440D03FC0C6
:10118000D9FF40C0DAFFDE2A000EDD22000E2B6EF2
:10119000000E2A6E2AC02EF02BC02FF02C682D686E
:1011A0003FC0D9FF40C0DAFFDECFF6FFDDCFF7FF4B
:1011B0000800F550250AD8A416D03FC0D9FF40C07A
:1011C000DAFFDE2A000EDD22000E356E250E346EAB
:1011D0003DC036F03EC037F019EC09F0000E3E6E0F
:1011E000010E3D6E12003FC0D9FF40C0DAFFDE2A7B
:1011F000000EDD22000E3E6E000E3D6E12003FC05E
:10120000D9FF40C0DAFFDECFF6FFDDCFF7FF0800E1
:10121000F550346E356A3DC036F03EC037F019ECFB
:1012200009F03FC0D9FF40C0DAFFDE2A000EDD2200
:10123000D5D736503710D8B404D036503710D8A48C
:1012400004D03450F6EC09F0120020EE04F03650D1
:10125000D9263750DA22DE50DE10D8B416D020EE70
:1012600004F03650D9263750DA2210EE02F036500C
:10127000E1263750E222DE50E65CE650800A3C6E02
:10128000DE50800A3C58D8B0120020EE02F03650F2
:10129000D9263750DA22DE2A000EDD221200310E66
:1012A000346EB20EE82EFED7342EFCD700D08C94CC
:1012B000030EE2EC09F0110E346E3A0EE82EFED762
:1012C000342EFCD700D0030EE2EC09F07D0EE82EA0
:1012D000FED7320EEDEC09F0280EEDEC09F0080E09
:1012E000EDEC09F0010EEDEC09F0110E346E3A0E42
:1012F000E82EFED7342EFCD700D0060EEDEC09F018
:101300000F0EFCEC09F0120045C049F046C04AF04F
:10131000000E296E000E286E12D043C03DF044C06E
:101320003EF0490E3F6E000E406E47C041F048C08F
:1013300042F0B2EC08F03D5028263E50292249C028
:10134000F6FF4AC0F7FF0800F5500009D8A4E5D71A
:1013500028C043F029C044F01200000EF2BE010E76
:10136000306EF29E8C86140EE82EFED700D08C963E
:10137000530EE82EFED700F030B002D0F29E01D01E
:10138000F28E12004D0E4F6E000E506E000E436E28
:10139000000E446E4BC045F04CC046F04F0E476EF9
:1013A000000E486E84EC09F0120000EE01F02F0EE2
:1013B000EE6AE806FDE1000EF86E100EF76E000111
:1013C0000CEF08F0316E8C500F0B8C6E3138F00B37
:1013D0008C108C6EADEC09F01200326E32380F0BAF
:1013E000E2EC09F03250E2EC09F01200336E8C842A
:1013F0003350EDEC09F01200336E8C943350EDEC69
:0414000009F01200DD
:020000040020DA
:08000000FFFFFFFFFFFFFFFF00
:020000040030CA
:0E000000FF821F1EFF8381FF0F400FE00F40A5
:00000001FF
