:040000005BEF7FF043
:10FEB60000015EEF7FF0000E896E000E8A6E000E66
:10FEC6008B6E000E8C6E000E8D6E000E926E000E06
:10FED600936E000E946E000E956E000E966E0F0ECB
:10FEE600C16E000E046E000E036E800E036E000ED1
:10FEF600046E070E046401D011D003C089FFD890A8
:10FF06000332040E026E2C0E016EAC0EE82EFED7E6
:10FF1600012EFCD7022EFAD7042AEBD7000E896EE3
:10FF2600800E036E000E046E070E046401D011D01D
:10FF360003C08AFFD8900332040E026E2C0E016EA7
:10FF4600AC0EE82EFED7012EFCD7022EFAD7042AD5
:10FF5600EBD7000E8A6E800E036E000E046E070E3F
:10FF6600046401D011D003C08BFFD8900332040E75
:10FF7600026E2C0E016EAC0EE82EFED7012EFCD7BB
:10FF8600022EFAD7042AEBD7000E8B6E800E036E74
:10FF9600000E046E070E046401D011D003C08CFF5E
:10FFA600D8900332040E026E2C0E016EAC0EE82EB3
:10FFB600FED7012EFCD7022EFAD7042AEBD7000E65
:10FFC6008C6E040E036E000E046E020E046401D0E5
:10FFD60011D003C08DFFD8900332040E026E2C0E92
:10FFE600016EAC0EE82EFED7012EFCD7022EFAD7F4
:0AFFF600042AEBD7000E8D6E74D7BD
:020000040020DA
:08000000FFFFFFFFFFFFFFFF00
:020000040030CA
:0E000000FF021F1EFF8381FF0F400FE00F4025
:00000001FF
