:020000040000FA
:10000000F26A926A936A946A956A966A0F0EC16E52
:10001000896A8A6A8B6A8C6A8D6A010E8D6E98EC89
:1000200000F0D8908D4698EC00F0D8908D4698EC72
:1000300000F08D6A010E896E98EC00F0D890894628
:1000400098EC00F0D890894698EC00F0D89089465A
:1000500098EC00F0D890894698EC00F0D89089464A
:1000600098EC00F0896A010E8A6E98EC00F0D89046
:100070008A4698EC00F0D8908A4698EC00F0D89028
:100080008A4698EC00F0D8908A4698EC00F0D89018
:100090008A4698EC00F0D8908A4698EC00F0D89008
:1000A0008A4698EC00F08A6A010E8B6E98EC00F09C
:1000B000D8908B4698EC00F0D8908B4698EC00F0E6
:1000C000D8908B4698EC00F0D8908B4698EC00F0D6
:1000D000D8908B4698EC00F0D8908B4698EC00F0C6
:1000E000D8908B4698EC00F08B6A010E8C6E98ECE1
:1000F00000F0D8908C4698EC00F0D8908C4698ECA4
:1001000000F0D8908C4698EC00F0D8908C4698EC93
:1001100000F0D8908C4698EC00F0D8908C4698EC83
:1001200000F0D8908C4698EC00F08C6A0DEF00F04F
:10013000706A716A0000702E9AEF00F00000712E54
:060140009AEF00F012002E
:020146000000B7
:020000040030CA
:0100010002FC
:010002001FDE
:010003001EDE
:010005008179
:010006008178
:010008000FE8
:01000900C036
:01000A000FE6
:01000B00E014
:01000C000FE4
:01000D0040B2
:00000001FF
