:04000000DCEF09F038
:1010000000010010000001001050100004104030DA
:10101000313233343536373839616263646566009E
:101020005241323A20252E3378005241333A20255E
:051030002E33780000E2
:101036000A0E0E6E000E0F6EAED0250E1418D8B422
:1010460004D01450D0EC09F0A6D0000E0D6E08C0E6
:10105600F6FF09C0F7FF0800F5502E0AD8A41FD0E6
:10106600084A092A000E136E0FD008C0F6FF09C001
:10107600F7FF0800F5CF0CF013500A0DF3500C24BF
:10108600D00F136E084A092A08C0F6FF09C0F7FFF9
:101096000800F550ADEC09F0D8A003D0E6D7000E55
:1010A600136E08C0F6FF09C0F7FF084A092A0800B0
:1010B600F5CF14F01450000AD8B41200780AD8A458
:1010C6006AD00EC0D9FF0FC0DAFFDECF11F0DDCF38
:1010D60012F0020E0E26000E0F221350D8A404D0D2
:1010E60011501210D8B4132A010E146E040E1418DF
:1010F600D8B412D01450020D010EF324F66E100E61
:10110600F420F76E0900F550115C0900F5501258ED
:10111600D8A002D0142AEAD71450800A0C6E1350B5
:10112600800A0C5CD8B003D013C014F030D0135032
:10113600800A0C6E1450800A0C5CD8B028D014C0FB
:1011460013F025D011C001F012C002F01350020DA9
:10115600010EF324F66E100EF420F76E0900F5CF9B
:1011660003F00A00F5CF04F055EC09F001500F0B1F
:10117600106E1050010D0F0EF324F66E100EF420B3
:10118600F76E0800F5CF14F01450D0EC09F01306F2
:101196001328D8A4D7D708C0F6FF09C0F7FF084A16
:1011A600092A0800F5CF14F01450D8B4120045D718
:1011B600F20ED36E000E8C6E000E956E92849286A1
:1011C6000B0EC16EC08E22EC09F0010ED6EC09F0B2
:1011D6000D0E156EFC0EE82EFED7152EFCD7200E32
:1011E600086E100E096E020E7EEC09F001C00AF0C0
:1011F60002C00BF01BEC08F00E0EF66E100EF76E2A
:101206000800F5508009D6EC09F02A0E086E100E7B
:10121600096E030E7EEC09F001C00AF002C00BF065
:101226001BEC08F0020E166E040E156EBA0EE82EB2
:10123600FED7152EFCD7162EFAD700D0C6D7270E06
:10124600056EF50EE82EFED7052EFCD700F08C9421
:10125600030EBCEC09F00D0E056EFC0EE82EFED753
:10126600052EFCD7030EBCEC09F0640EE82EFED763
:10127600320EC7EC09F0280EC7EC09F0080EC7ECD1
:1012860009F0010EC7EC09F00D0E056EFC0EE82EF6
:10129600FED7052EFCD7060EC7EC09F00F0ED6ECCE
:1012A60009F01200000E066E000E056E03500410C3
:1012B600D8B41CD0010E076E04D0D890033604367D
:1012C600072A04AEFAD7D890053606360350015CD5
:1012D60004500258D8A005D00350015E0450025AAB
:1012E6000580D89004320332072EEDD705C001F0F1
:1012F60006C002F01200056E05C003F00F0E0316BD
:10130600D8900336D8900334C26EC280C282C2B26D
:10131600FED7C350C4CF03F0046A03C004F0036AC7
:101326000310016E0450026E1200000EF2BE010E92
:10133600016EF29E8C86100EE82EFED700D08C969B
:10134600420EE82EFED700D001B002D0F29E01D0A8
:10135600F28E1200036E000E026E3A0E036005D086
:101366002F0E036402D0010E026E02C001F001309E
:101376001200026E8C500F0B8C6E0238F00B8C1024
:101386008C6E98EC09F01200036E03380F0BBCEC60
:1013960009F00350BCEC09F01200046E8C84045072
:1013A600C7EC09F01200046E8C940450C7EC09F0E7
:0C13B6001200000EF86E0001DBEF08F0E2
:020000040020DA
:08000000FFFFFFFFFFFFFFFF00
:020000040030CA
:0E000000FF081F1EFF8381FF0F400FE00F401F
:00000001FF
