:040000000FEF0BF003
:10100000003132334134353642373839432A3023C0
:101010004400010010000001001045592300311266
:101020001850100004104030313233343536373820
:101030003961626364656600253032782F2530326D
:10104000782F2530327800253032783A25303278C2
:071050003A25303278000060
:101058000A0E146E000E156EE8D0250E1D18D8B4B1
:1010680004D01D5003EC0BF0E0D0000E1C6E000EF7
:101078001B6E000E176E03D01784084A092A08C091
:10108800F6FF09C0F7FF0800F550300AD8B4F4D7C6
:1010980008C0F6FF09C0F7FF0800F550D7EC0AF0C2
:1010A800D8A032D0000E1C6E000E1B6E1BC001F0C3
:1010B8001CC002F0000E046E0A0E036EB2EC0AF0B9
:1010C80001C01BF002C01CF0D00E106EFF0E116E96
:1010D80008C0F6FF09C0F7FF0800F550126E136A42
:1010E800105012261150132212501B2613501C2286
:1010F800084A092A08C0F6FF09C0F7FF0800F5509A
:10110800D7EC0AF0D8B0D2D708C0F6FF09C0F7FF6D
:10111800084A092A0800F5CF1DF01D50000AD8B466
:101128001200780AD8A481D014C0D9FF15C0DAFFFC
:10113800DECF18F0DDCF19F0020E1426000E1522AE
:10114800010E1D6E040E1D18D8B412D01D50020DCC
:10115800120EF324F66E100EF420F76E0900F55007
:10116800185C0900F5501958D8A002D01D2AEAD7F2
:10117800800E1DBE7F0E106E1B501D5C1C50800A19
:101188001058D8B007D01D501B5E000E1DBEFF0EB4
:101198001C5A04D0000E1C6E000E1B6E17A40BD038
:1011A8001B501C10D8B415D0300E03EC0BF01B06E6
:1011B800D8A01C06F5D71B501C10D8B40AD0200E96
:1011C80003EC0BF01B06D8A01C061B501C10D8A45F
:1011D800F6D71DC01AF025D018C001F019C002F0CA
:1011E8001A50020D120EF324F66E100EF420F76E4C
:1011F8000900F5CF03F00A00F5CF04F04DEC0AF032
:1012080001500F0B166E1650010D270EF324F66EC3
:10121800100EF420F76E0800F5CF1DF01D5003ECFA
:101228000BF01A061A28D8A4D7D708C0F6FF09C0A9
:10123800F7FF084A092A0800F5CF1DF01D50D8B459
:1012480012000BD7000E8C6E000E956EEAEC09F0BA
:10125800A00E0E6E860E0F6E010E106E000E116E31
:101268001FEC0AF076EC0AF01DEC0BF0000E036E92
:10127800D00E026E14EC0BF0000E036E000E026E20
:1012880014EC0BF019EC0BF01DEC0BF0000E036ED8
:10129800D10E026E14EC0BF0000E276E050E2764BB
:1012A80001D00ED02750010D200EF324D96E000E68
:1012B800F420DA6E000EC5EC0AF0DF6E272AEED7AE
:1012C800010EC5EC0AF0266E19EC0BF0800E09EC45
:1012D8000BF0070E1E6E7D0EE82EFED71E2EFCD7D5
:1012E80000F0380E086E100E096E26C00AF00B6A60
:1012F80025C00CF00D6A24C00EF00F6A2CEC08F023
:10130800260EF66E100EF76E0800F550800909ECEF
:101318000BF0470E086E100E096E22C00AF00B6A19
:1013280021C00CF00D6A20C00EF00F6A2CEC08F0FA
:101338000D0E1F6EAF0E1E6EB60EE82EFED71E2EB9
:10134800FCD71F2EFAD700D08FD7000E096E000EDB
:101358000A6E000E0B6E000E0C6E0550061007107C
:101368000810D8B42AD0010E0D6E06D0D8900536D4
:101378000636073608360D2A08AEF8D7D89009364B
:101388000A360B360C360550015C065002580750D9
:10139800035808500458D8A009D00550015E0650DB
:1013A800025A0750035A0850045A0980D890083244
:1013B8000732063205320D2EE1D709C001F00AC006
:1013C80002F00BC003F00CC004F01200310E056EE1
:1013D800B20EE82EFED7052EFCD700D08C94030E53
:1013E800E6EC0AF0110E056E3A0EE82EFED7052E31
:1013F800FCD700D0030EE6EC0AF07D0EE82EFED7EF
:10140800320EF1EC0AF0280EF1EC0AF0080EF1ECBD
:101418000AF0010EF1EC0AF0110E056E3A0EE82EF4
:10142800FED7052EFCD700D0060EF1EC0AF00F0E01
:1014380009EC0BF01200C69A94869488800E016E0F
:10144800960E026E980E036E000E046E0EC012F019
:101458000FC013F010C014F011C015F0020ED89090
:101468001236133614361536E82EF9D712C005F0A1
:1014780013C006F014C007F015C008F0A9EC09F075
:101488000104C86E800EC76E280EC66E000EC56EAB
:101498001200000E066E000E056E03500410D8B43C
:1014A8001CD0010E076E04D0D89003360436072AE4
:1014B80004AEFAD7D890053606360350015C0450BE
:1014C8000258D8A005D00350015E0450025A058086
:1014D800D89004320332072EEDD705C001F006C0BC
:1014E80002F012001DEC0BF0000E036ED00E026E1F
:1014F80014EC0BF0000E036E000E026E14EC0BF0F1
:10150800000E046E060E046401D010D00450010DC4
:101518001A0EF324F66E100EF420F76E0800F5503C
:10152800026E036A14EC0BF0042AECD719EC0BF0EA
:101538001200000EF2BE010E016EF29E8C86140E91
:10154800E82EFED700D08C96530EE82EFED700F07A
:1015580001B002D0F29E01D0F28E120001500302B7
:10156800F3CF05F0F4CF06F001500402F35006263D
:1015780002500302F350062605C001F006C002F02F
:101588001200026EFAEC0AF0C586FAEC0AF0C9CF2E
:1015980003F0FAEC0AF002B002D0C59A01D0C58A6D
:1015A800C58803501200036E000E026E3A0E0360E7
:1015B80005D02F0E036402D0010E026E02C001F0A6
:1015C80001301200026E8C500F0B8C6E0238F00B3B
:1015D8008C108C6E9DEC0AF01200036E03380F0B12
:1015E800E6EC0AF00350E6EC0AF01200C7B4FED7A6
:1015F800C5CF01F01F0E0116D8B41200F7D7046E3C
:101608008C840450F1EC0AF01200046E8C9404509F
:10161800F1EC0AF01200000EF86E000126EF09F056
:10162800FAEC0AF002C0C9FF1200FAEC0AF0C5840D
:0A1638001200FAEC0AF0C58012005F
:020000040020DA
:08000000FFFFFFFFFFFFFFFF00
:020000040030CA
:0E000000FF021F1EFF8381FF0F400FE00F4025
:00000001FF
