:020000040000FA
:0400000007EF00F016
:0A0008004A82B4ED0AF09DEF10F0FB
:10100000003132334134353642373839432A3023C0
:10101000440050104000041044697374616E6365AD
:101020002031203D2025640044697374616E63653E
:101030002032203D2025640044697374616E63652D
:101040002031203D20580044697374616E6365202F
:1010500032203D20580044697374616E636520330B
:10106000203D20580044697374616E63652034200C
:101070003D20580044697374616E636520333D20E0
:1010800025640044697374616E636520343D2025D6
:1010900064006C6F6C00666B00001250800B1F6E5A
:1010A00012501224266E11BE26802650D8B40DD0C0
:1010B0002628D8A408D0000E0F6E000E106E000E69
:1010C000116E000E126E118E06D0000E0F6E000E05
:1010D000106E000E116E000E126E1650800B1F1A4D
:1010E00016501624276E15BE27802750D8B40DD071
:1010F0002728D8A408D0000E136E000E146E000E20
:10110000156E000E166E158E06D0000E136E000EB4
:10111000146E000E156E000E166E1350141015107E
:101120001610D8A417D0000E0F6E000E106E000E11
:10113000116E000E126E800E11127F0E12121F50D1
:1011400012120FC00FF010C010F011C011F012C039
:1011500012F012002650D8A409D0000E0F6E000E17
:10116000106E000E116E000E126E1200275026C077
:1011700017F0186A175E000E185A7F0E1724206E9B
:10118000000E1820216E0FC01BF010C01CF011C003
:101190001DF012C01EF0000E0F6E000E106E000E3D
:1011A000116E000E126E000E226E000E236E000EE7
:1011B000246E000E256E000E276E28D02750D8B45E
:1011C00011D0D8901B361C361D361E36D8900F36DF
:1011D00010361136123625BE0F80D89022362336AF
:1011E0002436253613501B5C14501C5815501D58BE
:1011F00016501E58D8A009D0258C13501B5E1450D1
:101200001C5A15501D5A16501E5A272A190E2764AB
:10121000D5D71B501C101D101E10D8B411D0228021
:101220000FD0D8900F3610361136123625BE0F80EB
:10123000D89022362336243625362006D8A021061B
:1012400011AEEFD7000E276E25AE17D0FF0E221479
:10125000176EFF0E2314186EFF0E2414196E7F0EE6
:1012600025141A6E1750181019101A10D8B403D07C
:10127000010E276E02D00FB0FBD72750D8B41FD075
:10128000010E0F26000E10221122122212A017D0DA
:101290000FC017F010C018F011C019F012C01AF0EA
:1012A0001A341A3219321832173217C00FF018C018
:1012B00010F019C011F01AC012F0204A212A21BEE4
:1012C00010D0215003E12028D8A00BD0000E216EB1
:1012D0002068000E0F6E000E106E000E116E000ED4
:1012E000126E21BE05D0215011E12004D8B00ED0DD
:1012F000000E216E000E206E000E0F6E000E106E9E
:10130000000E116E000E126E000E1F6E20C026F031
:1013100026A002D0118E01D0119ED8902630126ED8
:101320000ED79DC0B5F09EC0B6F09FC0B7F0A0C06C
:10133000B8F0A1C0B9F0A2C0BAF0A3C0BBF0A4C07D
:10134000BCF00001BCAF02D0010E01D0000EB36FA3
:10135000B46BB351B411D8B410D0BC1FBB1FBA1FAB
:10136000B91FB81FB71FB61FB56D000EB623B72340
:10137000B823B923BA23BB23BC23D8AFD993D8BF92
:1013800005D0D85108E1D705D8B005D0000EB06F10
:10139000010EAF6F04D0D7C0AFF0D8C0B0F0D5C049
:1013A000B1F0D6C0B2F0B351B411D8A402D0D9A5CF
:1013B00003D0B107D8A0B207000EBE6F1F0EBD6FDD
:1013C000000EFA6F7DD0BD07D8A0BE07DB0EBD258D
:1013D000D96E000EBE21DA6EB5C080F0B6C081F0C5
:1013E000B7C082F0B8C083F0B9C084F0BAC085F04D
:1013F000BBC086F0BCC087F00A0E886F000E896FF4
:10140000000E8A6F000E8B6F000E8C6F000E8D6FBA
:10141000000E8E6F000E8F6FC3EC0DF080C0A5F034
:1014200081C0A6F082C0A7F083C0A8F084C0A9F054
:1014300085C0AAF086C0ABF087C0ACF0A5C038F07C
:10144000A7C039F0E0EC10F03850300FDF6E00012B
:10145000AF07D8A0B007B107D8A0B207B5C080F0D9
:10146000B6C081F0B7C082F0B8C083F0B9C084F0D4
:10147000BAC085F0BBC086F0BCC087F00A0E886F8A
:10148000000E896F000E8A6F000E8B6F000E8C6F3E
:10149000000E8D6F000E8E6F000E8F6F7EEC0CF0C5
:1014A00080C0B5F081C0B6F082C0B7F083C0B8F09C
:1014B00084C0B9F085C0BAF086C0BBF087C0BCF06C
:1014C0000001BEBF1FD0BE5103E1BD05D8A01AD098
:1014D000B551B611B711B811B911BA11BB11BC1180
:1014E000D8A471D7B0BF05D0B05102E1AF05D8B0D4
:1014F0006AD7B2BF07D0B25103E1B105D8A002D07C
:10150000D9B361D7B351B411D8A402D0D9A517D09B
:10151000BD07D8A0BE07B351B411D8A404D0000EA3
:10152000AE6F2B0E03D0000EAE6F2D0EAD6FDB0E27
:10153000BD25D96E000EBE21DA6EADC0DFFF9BC0A7
:1015400090F09CC091F0DB0EBD25926F000EBE2185
:10155000936FB1C094F0B2C095F019EC0FF090C049
:101560009BF091C09CF012000600F2A000D1F29610
:1015700048044910D8A43BD081BECD8081BE37D06D
:10158000CD90AE0E136E470E146E6B0E156E420E9E
:10159000166ECF50336E326ACE50346E356A32508A
:1015A00034123350351234C001F035C002F0000E51
:1015B00002BEFF0E036E046E010E23EC0DF001C09F
:1015C0000FF002C010F003C011F004C012F04DEC97
:1015D00008F00FC028F010C029F011C02AF012C086
:1015E0002BF0BCEC0EF028C03AF029C03BF0020E04
:1015F00048184910D8A43BD081BCCD8081BC37D0DD
:10160000CD90AE0E136E470E146E6B0E156E420E1D
:10161000166ECF50336E326ACE50346E356A325009
:1016200034123350351234C001F035C002F0000ED0
:1016300002BEFF0E036E046E010E23EC0DF001C01E
:101640000FF002C010F003C011F004C012F04DEC16
:1016500008F00FC028F010C029F011C02AF012C005
:101660002BF0BCEC0EF028C03CF029C03DF0030E7E
:1016700048184910D8A43BD081BACD8081BA37D060
:10168000CD90AE0E136E470E146E6B0E156E420E9D
:10169000166ECF50336E326ACE50346E356A325089
:1016A00034123350351234C001F035C002F0000E50
:1016B00002BEFF0E036E046E010E23EC0DF001C09E
:1016C0000FF002C010F003C011F004C012F04DEC96
:1016D00008F00FC028F010C029F011C02AF012C085
:1016E0002BF0BCEC0EF028C03EF029C03FF0040EF9
:1016F00048184910D8A43BD081B8CD8081B837D0E4
:10170000CD90AE0E136E470E146E6B0E156E420E1C
:10171000166ECF50336E326ACE50346E356A325008
:1017200034123350351234C001F035C002F0000ECF
:1017300002BEFF0E036E046E010E23EC0DF001C01D
:101740000FF002C010F003C011F004C012F04DEC15
:1017500008F00FC028F010C029F011C02AF012C004
:101760002BF0BCEC0EF028C040F029C041F0F29004
:10177000F2864A921100C1C0D9FFC2C0DAFFDECFA3
:10178000F6FFDDCFF7FF0800F550250AD8A49BD05F
:10179000C1C0D9FFC2C0DAFFDE2A000EDD22000E72
:1017A0000001D66F000ED56FD5C0D9F0D6C0DAF0E3
:1017B000D769D869C1C0D9FFC2C0DAFFDECFF6FF52
:1017C000DDCFF7FF0800F550640AD8B40DD0C1C0D2
:1017D000D9FFC2C0DAFFDECFF6FFDDCFF7FF08008A
:1017E000F550690AD8A43FD0C1C0D9FFC2C0DAFF02
:1017F000DE2A000EDD22C3C0D9FFC4C0DAFFDFCF6E
:10180000C5F0020EDE26DFCFC6F0000EDD22C5C019
:10181000D9FFC6C0DAFFDECFC7F0DDCFC8F0000EBB
:10182000C8BFFF0EC96FCA6FCB6FCC6FCD6FCE6FC5
:10183000BFC09BF0C0C09CF0C7C09DF0C8C09EF068
:10184000C9C09FF0CAC0A0F0CBC0A1F0CCC0A2F02C
:10185000CDC0A3F0CEC0A4F091EC09F09BC0BFF0C6
:101860009CC0C0F01200C1C0D9FFC2C0DAFFDECFF9
:10187000F6FFDDCFF7FF0800F550250AD8A417D0F2
:10188000C1C0D9FFC2C0DAFFDE2A000EDD22000E81
:10189000816F250E806FBFC082F0C0C083F0E2EC84
:1018A0000FF0000E0001C06F010EBF6F1200C1C02B
:1018B000D9FFC2C0DAFFDE2A000EDD22000EC06FA3
:1018C000000EBF6F1200C1C0D9FFC2C0DAFFDECF69
:1018D000F6FFDDCFF7FF0800F5500001806F816B48
:1018E000BFC082F0C0C083F0E2EC0FF0C1C0D9FFEE
:1018F000C2C0DAFFDE2A000EDD22D3D7000E0001BF
:10190000916F8FAF12D08F1F8E1F8D1F8C1F8B1F5B
:101910008A1F891F886D000E89238A238B238C23BD
:101920008D238E238F23010E916F87AF12D0871FD7
:10193000861F851F841F831F821F811F806D000EDD
:101940008123822383238423852386238723010EF7
:10195000911B20EE92F0070EDE6AE806FDE2885148
:1019600089118A118B118C118D118E118F11D8B4A0
:1019700046D0010E906F0AD0D890883789378A37C1
:101980008B378C378D378E378F37902B8FAFF4D7BF
:10199000D89092379337943795379637973798374B
:1019A00099378851805D895181598A5182598B516B
:1019B00083598C5184598D5185598E5186598F5137
:1019C0008759D8A011D08851805F8951815B8A5195
:1019D000825B8B51835B8C51845B8D51855B8E5117
:1019E000865B8F51875B9281D8908F338E338D3396
:1019F0008C338B338A3389338833902FC9D79151F5
:101A0000D8B410D0991F981F971F961F951F941F29
:101A1000931F926D000E932394239523962397236F
:101A20009823992392C080F093C081F094C082F0F3
:101A300095C083F096C084F097C085F098C086F07A
:101A400099C087F01200096E0950D8A404AE1AD0CC
:101A500001C005F002C006F003C007F004C008F0A2
:101A6000051E061E071E081E052A000E0622072256
:101A7000082205C00BF006C00CF007C00DF008C02E
:101A80000EF008D001C00BF002C00CF003C00DF046
:101A900004C00EF00150021003100410D8A409D0A5
:101AA000000E016E000E026E000E036E000E046E3C
:101AB0001200960E0A6E06D00A2AD8900E320D3207
:101AC0000C320B32000E0B14056E000E0C14066E59
:101AD000000E0D14076EFE0E0E14086E0550061053
:101AE00007100810D8B40DD0E7D70A2A010E0B262C
:101AF000000E0C220D220E22D8900E320D320C3226
:101B00000B32000E0B14056E000E0C14066E000E48
:101B10000D14076EFF0E0E14086E05500610071008
:101B20000810D8B407D0E1D70A06D8900B360C3687
:101B30000D360E360DBE03D0020E0A60F5D70AA090
:101B40000D9ED8900A320AC005F0066A076A086A34
:101B500005C008F0076A066A056A05500B120650B0
:101B60000C1207500D1208500E120950D8A404AEE2
:101B700001D00E8E0BC001F00CC002F00DC003F0BE
:101B80000EC004F01200000E376E000187AF12D0B5
:101B9000871F861F851F841F831F821F811F806DE3
:101BA000000E812382238323842385238623872396
:101BB000010E376E8FAF10D08F1F8E1F8D1F8C1FA1
:101BC0008B1F8A1F891F886D000E89238A238B2310
:101BD0008C238D238E238F23885189118A118B1199
:101BE0008C118D118E118F11D8B43CD0010E366E30
:101BF0000AD0D890883789378A378B378C378D371A
:101C00008E378F37362A8FAFF4D78851805D895150
:101C100081598A5182598B5183598C5184598D51E4
:101C200085598E5186598F518759D8A010D0885127
:101C3000805F8951815B8A51825B8B51835B8C51C0
:101C4000845B8D51855B8E51865B8F51875BD8900D
:101C50008F338E338D338C338B338A338933883390
:101C6000362ED3D73750D8B410D0871F861F851F84
:101C7000841F831F821F811F806D000E812382239A
:101C80008323842385238623872380C080F081C01B
:101C900081F082C082F083C083F084C084F085C06C
:101CA00085F086C086F087C087F0120074EC10F0D3
:101CB000010E77EC11F0110E0001D16F3A0EE82EF3
:101CC000FED7D12FFCD700F0920E0101066F100E47
:101CD000076F24EC11F038EC11F00D0E0001D26FFB
:101CE000AF0ED16FB60EE82EFED7D12FFCD7D22F74
:101CF000FAD700F049EC11F00D0E0001D26FAF0ED3
:101D0000D16FB60EE82EFED7D12FFCD7D22FFAD73F
:101D100000F0010E77EC11F0110E0001D16F3A0EB8
:101D2000E82EFED7D12FFCD700F0960E0101066FEA
:101D3000100E076F24EC11F038EC11F00D0E0001BD
:101D4000D26FAF0ED16FB60EE82EFED7D12FFCD7D3
:101D5000D22FFAD700F049EC11F00D0E0001D26F2E
:101D6000AF0ED16FB60EE82EFED7D12FFCD7D22FF3
:101D7000FAD700F007EF00F02A342B34316E3150DF
:101D8000D8A409D0000E286E000E296E000E2A6E0F
:101D9000000E2B6E120028C02CF029C02DF02AC096
:101DA0002EF02BC02FF0200E05D0D8902F322E32DF
:101DB0002D322C32E82EF9D72C50306E2A8EFF0EA1
:101DC0002816FF0E2916FF0E2A16000E2B16960E49
:101DD000315E31AE0DD03150800A970FD8A0D2D7E6
:101DE000D8902B322A3229322832313EF9D70DD001
:101DF0001F0E316407D0C6D7D890283629362A3628
:101E00002B3631063150D8A4F7D73050D8B408D08B
:101E10002B1E2A1E291E286C000E29222A222B2264
:101E200028C028F029C029F02AC02AF02BC02BF0A6
:101E300012000001D9A10AD092C089F093C08AF0A3
:101E400090C08BF091C08CF0C2EC10F0000195BFF7
:101E500005D094C099F095C09AF004D0000E9A6F06
:101E6000000E996F000E986F000E976F0DD0000E48
:101E7000816F200E806F90C082F091C083F0E2EC01
:101E80000FF00001974B982B9951975D9851800A5C
:101E9000966F9A51800A9659D8A0E9D7D9B10AD03D
:101EA00092C089F093C08AF090C08BF091C08CF002
:101EB000C2EC10F092C036F093C037F0FAEC10F09C
:101EC000000199513624906F9A513720916F12007A
:101ED000000E0001886F000E896F000E8A6F000EE1
:101EE0008B6F8451851186118711D8B42AD0010EC9
:101EF0008C6F06D0D89084378537863787378C2B00
:101F000087AFF8D7D890883789378A378B3784518D
:101F1000805D855181598651825987518359D8A056
:101F200009D08451805F8551815B8651825B8751E6
:101F3000835B8881D89087338633853384338C2FB5
:101F4000E1D788C080F089C081F08AC082F08BC060
:101F500083F01200310E0001806FB20EE82EFED722
:101F6000802FFCD700F08C94030E5AEC11F0110E68
:101F70000001806F3A0EE82EFED7802FFCD700F0CC
:101F8000030E5AEC11F07D0EE82EFED7320E65ECF2
:101F900011F0280E65EC11F0080E65EC11F0010E41
:101FA00065EC11F0110E0001806F3A0EE82EFED79D
:101FB000802FFCD700F0060E65EC11F00F0E77ECC9
:101FC00011F01200000182518311D8B404D0825163
:101FD0008311D8A404D080517DEC11F0120020EEC2
:101FE00004F08251D9268351DA22DE50DE10D8B4B3
:101FF00016D020EE04F08251D9268351DA2210EE59
:1020000002F08251E1268351E222DE50E65CE65086
:10201000800A886FDE50800A8859D8B0120020EEFE
:1020200002F08251D9268351DA22DE2A000EDD2207
:102030001200C69A94869488800E0001806F960ED6
:10204000816F980E826F000E836F36C08DF037C09F
:102050008EF038C08FF039C090F0020ED8908D37D6
:102060008E378F379037E82EF9D78DC084F08EC029
:1020700085F08FC086F090C087F068EC0FF000010B
:102080008005C86E800EC76E280EC66E000EC56E27
:10209000120002C1CFF003C1D0F0000E0001D46FD6
:1020A000000ED36F13D000C1BFF001C1C0F0CF0E3E
:1020B000C16F000EC26F04C1C3F005C1C4F0BBEC18
:1020C0000BF00001BF51D327C051D423CFC0F6FF7E
:1020D000D0C0F7FF0800F5500009D8A4E4D7D3C05A
:1020E00000F1D4C001F11200000E8A6EF20E936E60
:1020F000000E8C6E000E956E0F0EC16EAAEC0FF0E6
:10210000A00E366E860E376E010E386E000E396EDA
:1021100019EC10F08CEC11F0000E386E100E376ECA
:1021200083EC11F088EC11F0FBC091F0FCC092F050
:10213000FDC093F0FEC094F01200200EF66E230E48
:10214000F76E000EF86E00EEFBF010EE04F00900E2
:10215000F5CFEEFFE550E150FAE100EED3F0280EA6
:10216000EE6AE806FDE100EE3AF0100EEE6AE806CF
:10217000FDE14A904A92000EF86E100EF76E0001D3
:1021800056EF0EF0000E00018F6F000E8E6F0CD018
:102190008DC080F0816B8BC082F08CC083F0E2EC4C
:1021A0000FF000018E4B8F2B8E518925D96E8F51E8
:1021B0008A21DA6EDF508D6F8D51D8B41200E8D7C6
:1021C00039BE05D0395011E13804D8B00ED038C02E
:1021D00090F039C091F00001901F911F904B912B0E
:1021E00090C038F091C039F0120038C038F039C0D2
:1021F00039F0120036C038F037C039F002D0364A14
:10220000372A36C0D9FF37C0DAFFDF50D8A4F7D756
:102210003850365C366E39503758376E1200000E23
:10222000F2BE010E366EF29E8C86140EE82EFED79C
:1022300000D08C96530EE82EFED700F036B002D0B8
:10224000F29E01D0F28E1200080E01010C6F010EF9
:102250000D6F000E006F000E016F06C102F107C185
:1022600003F10C0E046F010E056F49EC10F0120023
:102270008CEC11F0000E386E100E376E83EC11F0FE
:10228000000E386E310E376E83EC11F088EC11F0D1
:1022900012008CEC11F0000E386E100E376E83ECCD
:1022A00011F0000E386E390E376E83EC11F088ECA9
:1022B00011F01200376E8C500F0B8C6E3738F00B0C
:1022C0008C108C6E0FEC11F01200386E38380F0B3A
:1022D0005AEC11F038505AEC11F01200C7B4FED786
:1022E000C5CF36F01F0E3616D8B41200F7D7396EA8
:1022F0008C94395065EC11F01200396E8C84395091
:1023000065EC11F012006EEC11F037C0C9FF12003D
:102310006EEC11F0C58412006EEC11F0C580120055
:042320000000FFFFBB
:020000040020DA
:08000000FFFFFFFFFFFFFFFF00
:020000040030CA
:0E000000FF021F1EFF8381FF0F400FE00F4025
:00000001FF
