:020000040000FA
:04000000CEEF7EF0D1
:10FD9C000001D1EF7EF0000E936E000E946E000EFB
:10FDAC00956E93908A80000E026E010E016E24EC0B
:10FDBC007FF0000E026E010E016E91EC7FF0060ECC
:10FDCC00076E130E066EAE0EE82EFED7062EFCD76F
:10FDDC00072EFAD7000E026E010E016E24EC7FF096
:10FDEC00000E026E020E016E91EC7FF0000E026EA0
:10FDFC00020E016E24EC7FF0000E026E020E016EFC
:10FE0C0091EC7FF0A30E066E550EE82EFED7062E53
:10FE1C00FCD700F0000E026E030E016E91EC7FF029
:10FE2C00000E026E030E016E24EC7FF0000E026ECB
:10FE3C00030E016E91EC7FF000EF00F00104021054
:10FE4C00D8A423D0000E056E000E046E828282842C
:10FE5C00040E036E910EE82EFED7032EFCD700F095
:10FE6C008294FA0EE82EFED782923D0E036E620E3D
:10FE7C00E82EFED7032EFCD700D0044A052A0550E5
:10FE8C0004E11E0E045CD8A0E1D7020E011802108A
:10FE9C00D8A41DD0000E056E000E046E8382050ED4
:10FEAC00036E610EE82EFED7032EFCD78392370E1D
:10FEBC00036EB40EE82EFED7032EFCD700F0044AD6
:10FECC00052A055004E11E0E045CD8A0E7D7030EEA
:10FEDC0001180210D8A41200000E056E000E046E5C
:10FEEC008380070E036E7D0EE82EFED7032EFCD703
:10FEFC0000F08390240E036EB60EE82EFED7032E70
:10FF0C00FCD7044A052A055005E11E0E045CD8B046
:10FF1C001200E6D7120001040210D8A424D0000E5F
:10FF2C00056E000E046E82828284E10E00D0E82EF3
:10FF3C00FDD78294070E036ED00EE82EFED7032E4B
:10FF4C00FCD700D082922C0E036EFD0EE82EFED74D
:10FF5C00032EFCD700D0044A052A055004E11E0EDE
:10FF6C00045CD8A0E0D7020E01180210D8A41ED051
:10FF7C00000E056E000E046E8382040E036E140ECA
:10FF8C00E82EFED7032EFCD700F08392570E036E9B
:10FF9C00850EE82EFED7032EFCD700D0044A052A86
:10FFAC00055004E11E0E045CD8A0E6D7030E011820
:10FFBC000210D8A41200000E056E000E046E838091
:10FFCC00090E036E1C0EE82EFED7032EFCD700D0B4
:10FFDC008390230E036E160EE82EFED7032EFCD74D
:10FFEC00044A052A055005E11E0E045CD8B0120027
:04FFFC00E6D7120032
:020000040020DA
:08000000FFFFFFFFFFFFFFFF00
:020000040030CA
:0E000000FF021F1EFF8381FF0F400FE00F4025
:00000001FF
