:020000040000FA
:0400000099EF7FF005
:10FF32000001DAEF7FF0000E036E000E026E838086
:10FF4200070E016E7D0EE82EFED7012EFCD700F0C3
:10FF52008390240E016EB60EE82EFED7012EFCD73A
:10FF6200024A032A035005E1320E025CD8B01200A5
:10FF7200E6D71200000E036E000E026E8380090E99
:10FF8200016E1C0EE82EFED7012EFCD700D0839006
:10FF9200230E016E160EE82EFED7012EFCD7024A62
:10FFA200032A035005E1320E025CD8B01200E6D7F4
:10FFB2001200000E936E000E946E000E956E9390DA
:10FFC2008A809CEC7FF01A0E056E5E0E046E6E0E39
:10FFD200E82EFED7042EFCD7052EFAD700D0BBECB4
:10FFE2007FF01A0E056E5E0E046E6E0EE82EFED7C0
:0EFFF200042EFCD7052EFAD700D000EF00F049
:020000040020DA
:08000000FFFFFFFFFFFFFFFF00
:020000040030CA
:0E000000FF021F1EFF8381FF0F400FE00F4025
:00000001FF
