:020000040000FA
:0400000007EF00F016
:0A000800518231ED14F0A6EF13F061
:101000000050104000041044697374313D25642C75
:101010004176673D2564200044697374343D25643E
:101020002C4176673D256420006465742C25642C72
:101030002074636E742025640044697374323D2506
:10104000642C4176673D25640044697374333D2503
:10105000642C4176673D2564004469737431203DFA
:101060002058004469737432203D2058004469734D
:101070007433203D2058004469737434203D205857
:1010800000646661647300004E044F10D8A4A2D0BF
:1010900081BECD8081BE37D0CD90AE0E136E470E8F
:1010A000146E6B0E156E420E166ECF50336E326A92
:1010B000CE50346E356A325034123350351234C04B
:1010C00001F035C002F0000E02BEFF0E036E046E8A
:1010D000010EADEC0FF001C00FF002C010F003C024
:1010E00011F004C012F0E6EC0AF00FC028F010C0B6
:1010F00029F011C02AF012C02BF000EC12F028C029
:1011000040F029C041F041BE65D0415004E1020EDB
:10111000405CD8A05FD041BE06D041505BE1C90E13
:10112000405CD8B057D04804D8B41BD0010100515E
:101130000111D8B416D002510311D8B412D0045101
:101140000511D8B40ED004510225326E0551032189
:10115000336E00513224386E01513320396E010E46
:10116000486E4850D8B429D0D8904C34D96E4D34FC
:10117000DA6E000ED926010EDA22DECF32F0DDCF94
:1011800033F038C034F039C035F03250345E33506B
:10119000355A40503424386E41503520396E38C0AD
:1011A00001F039C002F0000E046E050E036EACECC7
:1011B00012F001C00AF102C00BF1D8904C34D96E84
:1011C0004D34DA6E000ED926010EDA2240C0DEFF61
:1011D00041C0DDFF020E4E184F10D8A4A4D081BC30
:1011E000CD8081BC37D0CD90AE0E136E470E146EFD
:1011F0006B0E156E420E166ECF50336E326ACE50A5
:10120000346E356A325034123350351234C001F026
:1012100035C002F0000E02BEFF0E036E046E010E1A
:10122000ADEC0FF001C00FF002C010F003C011F0E0
:1012300004C012F0E6EC0AF00FC028F010C029F04C
:1012400011C02AF012C02BF000EC12F028C042F0BE
:1012500029C043F043BE67D0435004E1020E425C14
:10126000D8A061D043BE06D043505DE1C90E425CB8
:10127000D8B059D04904D8B41BD001010C510D117C
:10128000D8B416D00E510F11D8B412D0105111117C
:10129000D8B40ED00E510C25326E0F510D21336E85
:1012A000105132243A6E115133203B6E010E496EBB
:1012B0004950D8B42BD0D8904C34D96E4D34DA6E16
:1012C0000C0ED926010EDA22DECF32F0DDCF33F05C
:1012D00020EE3AF0DECF34F0DDCF35F03250345E20
:1012E0003350355A425034243A6E435035203B6EC9
:1012F0003AC001F03BC002F0000E046E050E036E12
:10130000ACEC12F001C016F102C017F1D8904C34C9
:10131000D96E4D34DA6E0C0ED926010EDA2242C097
:10132000DEFF43C0DDFF030E4E184F10D8A4A4D03B
:1013300081BACD8081BA37D0CD90AE0E136E470EF4
:10134000146E6B0E156E420E166ECF50336E326AEF
:10135000CE50346E356A325034123350351234C0A8
:1013600001F035C002F0000E02BEFF0E036E046EE7
:10137000010EADEC0FF001C00FF002C010F003C081
:1013800011F004C012F0E6EC0AF00FC028F010C013
:1013900029F011C02AF012C02BF000EC12F028C086
:1013A00044F029C045F045BE67D0455004E1020E27
:1013B000445CD8A061D045BE06D045505DE1C90E61
:1013C000445CD8B059D04A04D8B41BD0010118519C
:1013D0001911D8B416D01A511B11D8B412D01C51FF
:1013E0001D11D8B40ED01A511825326E1B51192177
:1013F000336E1C5132243C6E1D5133203D6E010E64
:101400004A6E4A50D8B42BD0D8904C34D96E4D3453
:10141000DA6E180ED926010EDA22DECF32F0DDCFD9
:1014200033F020EE3CF0DECF34F0DDCF35F032503B
:10143000345E3350355A445034243C6E4550352088
:101440003D6E3CC001F03DC002F0000E046E050E82
:10145000036EACEC12F001C022F102C023F1D8906F
:101460004C34D96E4D34DA6E180ED926010EDA22BC
:1014700044C0DEFF45C0DDFF040E4E184F10D8A457
:10148000120081B8CD8081B837D0CD90AE0E136EEA
:10149000470E146E6B0E156E420E166ECF50336EE5
:1014A000326ACE50346E356A3250341233503512AF
:1014B00034C001F035C002F0000E02BEFF0E036E14
:1014C000046E010EADEC0FF001C00FF002C010F081
:1014D00003C011F004C012F0E6EC0AF00FC028F0CF
:1014E00010C029F011C02AF012C02BF000EC12F04D
:1014F00028C046F029C047F047BE1200475004E11B
:10150000020E465CD8A0120047BE06D047505DE1EF
:10151000C90E465CD8B012004B04D8B41BD00101F0
:1015200024512511D8B416D026512711D8B412D081
:1015300028512911D8B40ED026512425326E2751B6
:101540002521336E285132243E6E295133203F6EBF
:10155000010E4B6E4B50D8B42BD0D8904C34D96E72
:101560004D34DA6E240ED926010EDA22DECF32F0A7
:10157000DDCF33F020EE3EF0DECF34F0DDCF35F0BE
:101580003250345E3350355A465034243E6E475004
:1015900035203F6E3EC001F03FC002F0000E046EE9
:1015A000050E036EACEC12F001C02EF102C02FF15B
:1015B000D8904C34D96E4D34DA6E240ED926010EF3
:1015C000DA2246C0DEFF47C0DDFF12001250800B5A
:1015D0001F6E12501224266E11BE26802650D8B4DB
:1015E0000DD02628D8A408D0000E0F6E000E106E65
:1015F000000E116E000E126E118E06D0000E0F6ED0
:10160000000E106E000E116E000E126E1650800B42
:101610001F1A16501624276E15BE27802750D8B4DF
:101620000DD02728D8A408D0000E136E000E146E1B
:10163000000E156E000E166E158E06D0000E136E7F
:10164000000E146E000E156E000E166E1350141060
:1016500015101610D8A417D0000E0F6E000E106EC5
:10166000000E116E000E126E800E11127F0E1212FD
:101670001F5012120FC00FF010C010F011C011F067
:1016800012C012F012002650D8A409D0000E0F6E1E
:10169000000E106E000E116E000E126E120027501A
:1016A00026C017F0186A175E000E185A7F0E17240E
:1016B000206E000E1820216E0FC01BF010C01CF011
:1016C00011C01DF012C01EF0000E0F6E000E106E45
:1016D000000E116E000E126E000E226E000E236EB2
:1016E000000E246E000E256E000E276E28D02750A7
:1016F000D8B411D0D8901B361C361D361E36D89063
:101700000F3610361136123625BE0F80D89022368D
:1017100023362436253613501B5C14501C581550A4
:101720001D5816501E58D8A009D0258C13501B5E8A
:1017300014501C5A15501D5A16501E5A272A190E9D
:101740002764D5D71B501C101D101E10D8B411D003
:1017500022800FD0D8900F3610361136123625BEA3
:101760000F80D89022362336243625362006D8A07E
:10177000210611AEEFD7000E276E25AE17D0FF0E53
:101780002214176EFF0E2314186EFF0E2414196E08
:101790007F0E25141A6E1750181019101A10D8B48D
:1017A00003D0010E276E02D00FB0FBD72750D8B45C
:1017B0001FD0010E0F26000E10221122122212A09D
:1017C00017D00FC017F010C018F011C019F012C0D8
:1017D0001AF01A341A3219321832173217C00FF0B1
:1017E00018C010F019C011F01AC012F0204A212AB6
:1017F00021BE10D0215003E12028D8A00BD0000E2C
:10180000216E2068000E0F6E000E106E000E116E1D
:10181000000E126E21BE05D0215011E12004D8B077
:101820000ED0000E216E000E206E000E0F6E000E08
:10183000106E000E116E000E126E000E1F6E20C094
:1018400026F026A002D0118E01D0119ED89026300D
:10185000126E0ED7A1C0B9F0A2C0BAF0A3C0BBF0FF
:10186000A4C0BCF0A5C0BDF0A6C0BEF0A7C0BFF02C
:10187000A8C0C0F00001C0AF02D0010E01D0000E20
:10188000B76FB86BB751B811D8B410D0C01FBF1F15
:10189000BE1FBD1FBC1FBB1FBA1FB96D000EBA23F0
:1018A000BB23BC23BD23BE23BF23C023F5AFF693C8
:1018B000F5BF05D0F55108E1F405D8B005D0000E0C
:1018C000B46F010EB36F04D0F4C0B3F0F5C0B4F040
:1018D000F2C0B5F0F3C0B6F0B751B811D8A402D039
:1018E000F6A503D0B507D8A0B607000EC26F1F0E2D
:1018F000C16F000E01014F6F7DD0C107D8A0C20794
:10190000300EC125D96E010EC221DA6EB9C080F049
:10191000BAC081F0BBC082F0BCC083F0BDC084F00F
:10192000BEC085F0BFC086F0C0C087F00A0E886FC9
:10193000000E896F000E8A6F000E8B6F000E8C6F89
:10194000000E8D6F000E8E6F000E8F6FECEC10F09E
:1019500080C0A9F081C0AAF082C0ABF083C0ACF017
:1019600084C0ADF085C0AEF086C0AFF087C0B0F0E7
:10197000A9C092F0ABC093F0C1EC13F000019251FA
:10198000300FDF6EB307D8A0B407B507D8A0B607ED
:10199000B9C080F0BAC081F0BBC082F0BCC083F097
:1019A000BDC084F0BEC085F0BFC086F0C0C087F067
:1019B0000A0E886F000E896F000E8A6F000E8B6F03
:1019C000000E8C6F000E8D6F000E8E6F000E8F6FED
:1019D00008EC0FF080C0B9F081C0BAF082C0BBF053
:1019E00083C0BCF084C0BDF085C0BEF086C0BFF02F
:1019F00087C0C0F00001C2BF1FD0C25103E1C105C2
:101A0000D8A01AD0B951BA11BB11BC11BD11BE1169
:101A1000BF11C011D8A471D7B4BF05D0B45102E131
:101A2000B305D8B06AD7B6BF07D0B65103E1B50544
:101A3000D8A002D0F6B361D7B751B811D8A402D05C
:101A4000F6A517D0C107D8A0C207B751B811D8A4BE
:101A500004D0000EB26F2B0E03D0000EB26F2D0E0D
:101A6000B16F300EC125D96E010EC221DA6EB1C040
:101A7000DFFF9FC094F0A0C095F0300EC125966F97
:101A8000010EC221976FB5C098F0B6C099F05DEC19
:101A900012F094C09FF095C0A0F01200010E64EC0B
:101AA00014F0110E0001E56F3A0EE82EFED7E52F77
:101AB000FCD700F041BE1DD0415004E1020E405C55
:101AC000D8A017D041BE06D0910E405C010E4158FF
:101AD000D8B00FD0070E0001DB6F100EDC6F40C0D6
:101AE000DDF041C0DEF00AC1DFF00BC1E0F009EC2F
:101AF00014F041BE0ED0415004E1020E405CD8A06B
:101B000008D041BE0DD0910E405C010E4158D8A0C6
:101B100007D0590E0001DB6F100EDC6F09EC14F0DA
:101B200043BE20D0435004E1020E425CD8A01AD03C
:101B300043BE06D0910E425C010E4358D8B012D07D
:101B4000C00E64EC14F0390E0001DB6F100EDC6F78
:101B500042C0DDF043C0DEF016C1DFF017C1E0F097
:101B600009EC14F043BE0ED0435004E1020E425C77
:101B7000D8A008D043BE10D0910E425C010E43584D
:101B8000D8A00AD0C00E64EC14F0630E0001DB6F25
:101B9000100EDC6F09EC14F045BE20D0455004E176
:101BA000020E445CD8A01AD045BE06D0910E445C0B
:101BB000010E4558D8B012D0900E64EC14F0490EC6
:101BC0000001DB6F100EDC6F44C0DDF045C0DEF0BD
:101BD00022C1DFF023C1E0F009EC14F045BE0ED0C5
:101BE000455004E1020E445CD8A008D045BE10D098
:101BF000910E445C010E4558D8A00AD0900E64ECBA
:101C000014F06D0E0001DB6F100EDC6F09EC14F0A8
:101C100047BE20D0475004E1020E465CD8A01AD03F
:101C200047BE06D0910E465C010E4758D8B012D080
:101C3000D00E64EC14F0180E0001DB6F100EDC6F98
:101C400046C0DDF047C0DEF02EC1DFF02FC1E0F06E
:101C500009EC14F047BE0ED0475004E1020E465C7A
:101C6000D8A008D047BE1200910E465C010E47581E
:101C7000D8A01200D00E64EC14F0770E0001DB6FD8
:101C8000100EDC6F09EC14F01200C5C0D9FFC6C0FD
:101C9000DAFFDECFF6FFDDCFF7FF0800F550250AAB
:101CA000D8A49BD0C5C0D9FFC6C0DAFFDE2A000E7B
:101CB000DD22000E0001F36F000EF26FF2C0F6F0AD
:101CC000F3C0F7F0F469F569C5C0D9FFC6C0DAFF03
:101CD000DECFF6FFDDCFF7FF0800F550640AD8B479
:101CE0000DD0C5C0D9FFC6C0DAFFDECFF6FFDDCF0D
:101CF000F7FF0800F550690AD8A43FD0C5C0D9FF46
:101D0000C6C0DAFFDE2A000EDD22C7C0D9FFC8C078
:101D1000DAFFDFCFC9F0020EDE26DFCFCAF0000EF9
:101D2000DD22C9C0D9FFCAC0DAFFDECFCBF0DDCFDC
:101D3000CCF0000ECCBFFF0ECD6FCE6FCF6FD06F4B
:101D4000D16FD26FC3C09FF0C4C0A0F0CBC0A1F0D0
:101D5000CCC0A2F0CDC0A3F0CEC0A4F0CFC0A5F0FF
:101D6000D0C0A6F0D1C0A7F0D2C0A8F02AEC0CF0E9
:101D70009FC0C3F0A0C0C4F01200C5C0D9FFC6C048
:101D8000DAFFDECFF6FFDDCFF7FF0800F550250ABA
:101D9000D8A417D0C5C0D9FFC6C0DAFFDE2A000E0E
:101DA000DD22000E856F250E846FC3C086F0C4C08F
:101DB00087F026EC13F0000E0001C46F010EC36F14
:101DC0001200C5C0D9FFC6C0DAFFDE2A000EDD2230
:101DD000000EC46F000EC36F1200C5C0D9FFC6C08D
:101DE000DAFFDECFF6FFDDCFF7FF0800F550000188
:101DF000846F856BC3C086F0C4C087F026EC13F0F7
:101E0000C5C0D9FFC6C0DAFFDE2A000EDD22D3D757
:101E1000000E0001916F8FAF12D08F1F8E1F8D1F8C
:101E20008C1F8B1F8A1F891F886D000E89238A23B0
:101E30008B238C238D238E238F23010E916F87AFED
:101E400012D0871F861F851F841F831F821F811F3B
:101E5000806D000E812382238323842385238623A0
:101E60008723010E911B20EE92F0070EDE6AE80632
:101E7000FDE2885189118A118B118C118D118E11FF
:101E80008F11D8B446D0010E906F0AD0D890883701
:101E900089378A378B378C378D378E378F37902B32
:101EA0008FAFF4D7D89092379337943795379637CA
:101EB0009737983799378851805D895181598A5170
:101EC00082598B5183598C5184598D5185598E512A
:101ED00086598F518759D8A011D08851805F895178
:101EE000815B8A51825B8B51835B8C51845B8D510A
:101EF000855B8E51865B8F51875B9281D8908F3343
:101F00008E338D338C338B338A3389338833902FE0
:101F1000C9D79151D8B410D0991F981F971F961FF9
:101F2000951F941F931F926D000E93239423952366
:101F3000962397239823992392C080F093C081F031
:101F400094C082F095C083F096C084F097C085F06D
:101F500098C086F099C087F01200096E0950D8A485
:101F600004AE1AD001C005F002C006F003C007F0AD
:101F700004C008F0051E061E071E081E052A000ED6
:101F800006220722082205C00BF006C00CF007C08D
:101F90000DF008C00EF008D001C00BF002C00CF02C
:101FA00003C00DF004C00EF0015002100310041025
:101FB000D8A409D0000E016E000E026E000E036E52
:101FC000000E046E1200960E0A6E06D00A2AD890F1
:101FD0000E320D320C320B32000E0B14056E000E59
:101FE0000C14066E000E0D14076EFE0E0E14086E15
:101FF0000550061007100810D8B40DD0E7D70A2AEC
:10200000010E0B26000E0C220D220E22D8900E324D
:102010000D320C320B32000E0B14056E000E0C1438
:10202000066E000E0D14076EFF0E0E14086E05509E
:10203000061007100810D8B407D0E1D70A06D890C8
:102040000B360C360D360E360DBE03D0020E0A606E
:10205000F5D70AA00D9ED8900A320AC005F0066A8C
:10206000076A086A05C008F0076A066A056A05502B
:102070000B1206500C1207500D1208500E12095088
:10208000D8A404AE01D00E8E0BC001F00CC002F03B
:102090000DC003F00EC004F01200F00E936E000E9F
:1020A000956EF28EF290F2860F0EC16E93908A803A
:1020B000EEEC12F0010E64EC14F0110E0001E66F6C
:1020C0003A0EE82EFED7E62FFCD700F0100ECD6EAC
:1020D000000E0001EB6F000EEA6F000E4D6E000E59
:1020E0004C6E4DBE06D04D500DE1050E4C5CD8B087
:1020F00009D07FEC11F0F2964EEC0DF0F2864C4ACE
:102100004D2AEFD70001EA4BEB2BEBBFE6D7EB51A3
:1021100004E1020EEA5DD8A0E0D7000EEF6F000EDA
:10212000EE6FD890EE35D96EEF35DA6E380ED926CF
:10213000000EDA22000EDE6E000EDD6ED890EE3557
:10214000D96EEF35DA6E400ED926000EDA22000E77
:10215000DE6E000EDD6E480EEE25D96E000EEF210C
:10216000DA6E000EDF6E000EED6F000EEC6FEEC04B
:1021700080F0EFC081F0000E836F0C0E826F1DECBB
:1021800014F0000E0001E66F010EE76F8051E627A4
:102190008151E723D890EC35D96EED35DA6EE651F2
:1021A000D926E751DA22000EDE6E000EDD6EEC4B12
:1021B000ED2BEDBFDCD7ED5104E1060EEC5DD8A0B0
:1021C000D6D7EE4BEF2BEFBFACD7EF5181E1040E2A
:1021D000EE5DD8B07DD7A5D7000E0001916F87AF17
:1021E00012D0871F861F851F841F831F821F811F98
:1021F000806D000E812382238323842385238623FD
:102200008723010E916F8FAF10D08F1F8E1F8D1FF0
:102210008C1F8B1F8A1F891F886D000E89238A23BC
:102220008B238C238D238E238F23885189118A1130
:102230008B118C118D118E118F11D8B43CD0010EE1
:10224000906F0AD0D890883789378A378B378C3788
:102250008D378E378F37902B8FAFF4D78851805DB5
:10226000895181598A5182598B5183598C51845992
:102270008D5185598E5186598F518759D8A010D0CC
:102280008851805F8951815B8A51825B8B51835B6E
:102290008C51845B8D51855B8E51865B8F51875B42
:1022A000D8908F338E338D338C338B338A3389338D
:1022B0008833902FD3D79151D8B410D0871F861F61
:1022C000851F841F831F821F811F806D000E812345
:1022D00082238323842385238623872380C080F061
:1022E00081C081F082C082F083C083F084C084F01A
:1022F00085C085F086C086F087C087F01200000E8A
:102300004F6E010E4E6E4FBE04D04F5001E172D0A1
:102310001200000ECF6E000ECE6E4E044F10D8A4E9
:1023200015D0F2968382080EE82EFED700F0839235
:10233000F286020E0001816FE70E806F000EE82E1C
:10234000FED7802FFCD7812FFAD700F0020E4E184F
:102350004F10D8A415D0F2968380080EE82EFED731
:1023600000F08390F286020E0001816FE70E806F0D
:10237000000EE82EFED7802FFCD7812FFAD700F071
:10238000030E4E184F10D8A415D0F2968186080E71
:10239000E82EFED700F08196F286020E0001816FD2
:1023A000E70E806F000EE82EFED7802FFCD7812F1E
:1023B000FAD700F0040E4E184F10D8A415D0F2969C
:1023C0008184080EE82EFED700F08194F286020E7A
:1023D0000001816FE70E806F000EE82EFED7802F80
:1023E000FCD7812FFAD700F04E4A4F2A4FBE91D723
:1023F0004F5005E1050E4E5CD8B012008AD712008E
:102400002A342B34316E3150D8A409D0000E286EF6
:10241000000E296E000E2A6E000E2B6E120028C0D0
:102420002CF029C02DF02AC02EF02BC02FF0200E4A
:1024300005D0D8902F322E322D322C32E82EF9D7FB
:102440002C50306E2A8EFF0E2816FF0E2916FF0E16
:102450002A16000E2B16960E315E31AE0DD031507D
:10246000800A970FD8A0D2D7D8902B322A3229329F
:102470002832313EF9D70DD01F0E316407D0C6D7B0
:10248000D890283629362A362B3631063150D8A432
:10249000F7D73050D8B408D02B1E2A1E291E286C1E
:1024A000000E29222A222B2228C028F029C029F038
:1024B0002AC02AF02BC02BF012000001F6A10AD08E
:1024C00096C08DF097C08EF094C08FF095C090F0BC
:1024D00088EC13F0000199BF05D098C09DF099C019
:1024E0009EF004D0000E9E6F000E9D6F000E9C6F3C
:1024F000000E9B6F0DD0000E856F200E846F94C070
:1025000086F095C087F026EC13F000019B4B9C2BC6
:102510009D519B5D9C51800A9A6F9E51800A9A59E9
:10252000D8A0E9D7F6B10AD096C08DF097C08EF04A
:1025300094C08FF095C090F088EC13F096C080F0B6
:1025400097C081F0DBEC13F000019D518025946F62
:102550009E518121956F1200000E066E04AE06D0CA
:10256000036C041ED8B0042A010E066E02AE06D01B
:10257000016C021ED8B0022A010E061A000E086E67
:10258000000E076E03500410D8B41CD0010E056E67
:1025900004D0D89003360436052A04AEFAD7D89072
:1025A000073608360350015C04500258D8A005D005
:1025B0000350015E0450025A0780D890043203325F
:1025C000052EEDD70650D8B404D0076C081ED8B03D
:1025D000082A07C001F008C002F01200310E000105
:1025E000846FB20EE82EFED7842FFCD700F08C94B7
:1025F000030E43EC14F0110E0001846F3A0EE82E26
:10260000FED7842FFCD700F0030E43EC14F07D0EB0
:10261000E82EFED7320E50EC14F0280E50EC14F0D9
:10262000080E50EC14F0010E50EC14F0110E0001E5
:10263000846F3A0EE82EFED7842FFCD700F0060EEA
:1026400050EC14F00F0E64EC14F0120000018651EF
:102650008711D8B404D086518711D8A404D08451EE
:102660005CEC14F0120020EE04F08651D92687515C
:10267000DA22DE50DE10D8B416D020EE04F08651F7
:10268000D9268751DA2210EE02F08651E1268751D1
:10269000E222DE50E65CE650800A8C6FDE50800A53
:1026A0008C59D8B0120020EE02F08651D9268751FD
:1026B000DA22DE2A000EDD221200D5C0D9F0D6C003
:1026C000DAF0000E0001F16F000EF06F13D0D3C0EE
:1026D000C3F0D4C0C4F0D90EC56F000EC66FD7C00A
:1026E000C7F0D8C0C8F045EC0EF00001C351F02788
:1026F000C451F123D9C0F6FFDAC0F7FF0800F55046
:102700000009D8A4E4D7F0C0D3F0F1C0D4F012008F
:10271000000E0001936F000E926F0CD091C084F0F8
:10272000856B8FC086F090C087F026EC13F0000117
:10273000924B932B92518D25D96E93518E21DA6E47
:10274000DF50916F9151D8B41200E8D701EE00F03C
:10275000500EEE6AE806FDE100EEF0F0080EEE6ABB
:10276000E806FDE100EE38F0190EEE6AE806FDE13C
:1027700051905192000EF86E100EF76E00014DEF61
:1027800010F0000193BF05D0935110E19205D8B02D
:102790000DD092C094F093C095F0941F951F944B68
:1027A000952B94C092F095C093F0120092C092F0D5
:1027B00093C093F0120080C082F081C083F003D0F8
:1027C0000001804B812B80C0D9FF81C0DAFFDF5030
:1027D000D8A4F6D700018251805D806F8351815962
:1027E000816F1200000EF2BE010E0001806FF29E9A
:1027F0008C86140EE82EFED700D08C96530EE82E51
:10280000FED700F0000180B102D0F29E01D0F28E1E
:102810001200DD0E0001E36F000EE46F000ED36FB7
:10282000000ED46FDBC0D5F0DCC0D6F0E30ED76F5E
:10283000000ED86F5DEC13F012000001805182038E
:10284000F3CF84F0F4CF85F080518303F3508527D4
:1028500081518203F350852784C080F085C081F0C8
:1028600012000600D9CF36F0DACF37F0F2A005D04B
:10287000F29644EC08F0F290F28637C0DAFF36C0E8
:10288000D9FF519211000001816F8C500F0B8C6E9B
:1028900000018139F00B8C108C6EF2EC13F01200F9
:1028A0000001826F000182390F0B43EC14F000012C
:1028B000825143EC14F012000001836F8C840001FC
:1028C000835150EC14F012000001836F8C940001CE
:0828D000835150EC14F01200DA
:020000040020DA
:08000000FFFFFFFFFFFFFFFF00
:020000040030CA
:0E000000FF021F1EFF8380FF0F400FE00F4026
:00000001FF
